:100000000C9454240C94BAFD0C94E5FD0C9410FE51
:100010000C943BFE0C9466FE0C9491FE0C94BCFE7A
:100020000C94E7FE0C949AAE0C94A9AE0C94B8AE66
:100030000C9485240C948FFB0C9485240C948524BB
:100040000C9485240C94DB2A0C9485240C94852430
:100050000C9485240C9485240C94E7AC0C9421FC1E
:100060000C9485240C94B12F0C9485240C94852435
:100070000C9485240C9485240C9485240C9485245C
:100080000C9485240C9485240C9485240C9485244C
:100090000C9485240C9485240C9485240C9485243C
:1000A0000C9485240C9485240C9485240C9485242C
:1000B0000C9485240C9485240C9485240C9485241C
:1000C0000C9485240C9485240C9485240C9485240C
:1000D0000C9485240C9485240C9485240C948524FC
:1000E0000C948524FD6707680E6815681C683168E4
:1000F0003C68436823682A6894FD5EFD66FD72FDD6
:100100007FFDA0FDADFD3BFF40FF45FF4FFF59FFC9
:10011000D2FF63FF6BFF73FF7DFF87FF91FFA0FF9F
:10012000AAFFD2FFB4FFBEFFC8FFF6FFF9FFE8FF4A
:10013000ECFFF2FFC501FDFFE30015017D01930116
:10014000010123012101C501590161010B01084A87
:10015000D73B3BCE016E84BCBFFDC12F3D6C7431DB
:100160009ABD56833DDA3D00C77F11BED9E4BB4C32
:100170003E916BAAAABE000000803F05A84CCDB2FC
:10018000D44EB93836A9020C50B9918688083CA6DD
:10019000AAAA2ABE000000803F000C947DFF0C94A8
:1001A000B2630C94828B0C942A8F0C94F95F0C949C
:1001B0001C680C94C5670C940F6F0C945EFD0C9436
:1001C000B6910C940F6E0D9401000C946A960C94E9
:1001D00004710C948E8B0C946D8E0C9432DA0C940A
:1001E0004FFF0C9477790C9491FF0C9466F10C946A
:1001F000158D0C94E1670C94C8FF0C948C630C94DF
:1002000031680D9415000C94F6FF0C945F650C9406
:1002100010760C94BEFF0D942B000C940F6D0C9473
:10022000577E0C94D2FF0C94B4FF0D9407000C94ED
:10023000DA630C94948B0C94C5630C94F2FF0C94C9
:10024000AAFF0D941D000D9419000C94A9830C9421
:100250005A7E0C94D6760C9415680C946BFF0C9413
:10026000FDFF0C94FB5F0C9473FF0C9443680C949B
:10027000E8FF0C940A930C94B2950C9459FF0C94DB
:100280007E5A0C9408950C94207A0C948D9B0C94B7
:100290000FAD0C9465760C9494FD0C94EF630C9464
:1002A000807B0C949F630C944CDA0C9446660C94FF
:1002B00064720D9423000C9404760C94CD740C9409
:1002C00072FD0D9427000C94EBF20C9492C20C94E6
:1002D000D3740C94D8760C9487FF0C94ECFF0C9498
:1002E00020780C94C8780C943C680C94177C0C947F
:1002F0007FFD0C94ADFD0C942A680D940B000C94BA
:10030000F55F0C94FD670C9423680C94D9740C94DD
:100310000C910C9479770C949E600C940E680C945C
:1003200007680C943EF40D940F000C94A0FF0C94FD
:1003300063FF0C94F75F0C941E7A0C94EFFB0C9403
:1003400066FD0C9460920C9445FF0C94F9FF0C949C
:10035000CF7A0C94B4930C9474800C94D85E0C9463
:10036000A0FD0C94D28D0C945E940C940A760C949F
:10037000F25F0C94888B0C949A8B0C944AA00C948A
:1003800045FD0C943BFF0C9440FF0D9430000C9401
:100390005D7E0C942D900C94EAF2205A3A0020597C
:1003A0003A0020436F756E7420583A0024F4D4301C
:1003B00050C38E20C2A24017828B7011127A910D09
:1003C000816CD90AA861E108C758660761514306E4
:1003D0001E4B5D05C145A7041A411104093D980350
:1003E000713931034036DB0265339102D430540257
:1003F000802E1D02632CEE01752AC501B028A001D4
:10040000102781018F2564012B244B01E022340148
:10041000AC211F018D200D01801FFC00841EED000A
:10042000971DDF00B81CD200E61BC600201BBC00D5
:10043000641AB200B219A8000A19A0006A1899003B
:10044000D117910040178B00B516840031167E003D
:10045000B31579003A157300C7146F0058146A0079
:10046000EE1366008813630025135E00C7125B005D
:100470006C12570015125400C111510070114F0039
:1004800021114B00D61049008D1047004610440042
:1004900002104200C00F4000800F3E00420F3C009F
:1004A000060F3B00CB0E3800930E37005C0E350074
:1004B000270E3400F30D3200C10D3100900D3000D5
:1004C000600D2E00320D2D00050D2C00D90C2B00D7
:1004D000AE0C2900850C29005C0C2700350C270088
:1004E0000E0C2600E80B2400C40B2400A00B2300F4
:1004F0007D0B23005A0B2100390B2100180B200023
:10050000F80A1F00D90A1E00BB0A1E009D0A1D0022
:10051000800A1D00630A1C00470A1B002C0A1B00EE
:10052000110A1A00F7091A00DD091900C409190097
:10053000AB091900920917007B091800630917001D
:100540004C09160036091600200916000A09150084
:10055000F5081500E0081400CC081400B8081400D1
:10056000A4081400900813007D0812006B08130003
:100570005808120046081200340811002308110020
:100580001208110001081100F0071000E007100028
:10059000D0071000C0071000B0070F00A10710001F
:1005A00091070E0083070F0074070F0065070E0008
:1005B00057070E0049070E003B070D002E070E00DF
:1005C00020070D0013070D0006070D00F9060C00AB
:1005D000ED060D00E0060C00D4060C00C8060C0069
:1005E000BC060C00B0060C00A4060B0099060C001B
:1005F0008D060B0082060B0077060B006C060B00C5
:1006000061060A0057060B004C060A0042060A0063
:1006100038060A002E060A0024060A001A060A00F6
:100620001006090007060A00FD050900F405090087
:10063000EB050900E2050900D9050900D00509000C
:10064000C7050900BE050900B5050800AD0508008D
:10065000A50509009C050800940508008C05080004
:10066000840508007C050800740508006C05070077
:10067000650508005D050700560508004E050700E2
:100680004705070040050800380507003105070049
:100690002A050700230507001C05060016050700AC
:1006A0000F0507000805060002050700FB04060009
:1006B000F5040700EE040600E8040600E204070063
:1006C000DB040600D5040600CF040600C9040600BA
:1006D000C3040600BD040600B7040600B10405000B
:1006E000AC040600A6040600A00405009B04060056
:1006F00095040500900406008A04050085040500A1
:10070000800406007A0405007504050070040500E5
:100710006B04050066040500610405005C04050027
:1007200057040500520405004D0405004804050067
:10073000430405003E0404003A04050035040500A6
:10074000300404002C0405002704040023040500E1
:100750001E0404001A040400160405001104040019
:100760000D0404000904050004040400000404004E
:10077000FC030400F8030400F4030400F003040085
:10078000EC030400E8030400E4030400E0030400B5
:10079000DC030400D8030400D4030400D0030400E5
:1007A000CC030400C8030300C503030024F404D9E8
:1007B000201BC40C5C0E9804C4095F02650771011C
:1007C000F405F900FB04B30048048700C103690085
:1007D0005803550003034500BE023A00840231006D
:1007E00053022A002902250004022000E4011C0013
:1007F000C8011900AF01170098011400840113000B
:10080000710110006101100051010E0043010D0043
:1008100036010B002B010B0020010B001501090014
:100820000C01090003010800FB000800F3000800A8
:10083000EB000700E4000600DE000600D80006001A
:10084000D2000600CC000500C7000500C20005006C
:10085000BD000400B9000400B5000400B1000400AC
:10086000AD000400A9000400A5000300A2000300DD
:100870009F0004009B000300980003009500020005
:1008800093000300900003008D0002008B00030022
:10089000880002008600020084000300810002003C
:1008A0007F0002007D0002007B0002007900020050
:1008B000770001007600020074000200720001005F
:1008C000710002006F0002006D0001006C00020068
:1008D0006A00010069000200670001006600010073
:1008E0006500010064000200620001006100010077
:1008F000600001005F0002005D0001005C0001007B
:100900005B0001005A00010059000100580001007D
:10091000570001005600010055000100540001007D
:10092000530000005300010052000100510001007B
:10093000500001004F0001004E0000004E00010079
:100940004D0001004C0001004B0000004B00010075
:100950004A00010049000100480000004800010071
:10096000470001004600000046000100450000006D
:100970004500010044000100430000004300010065
:10098000420000004200010041000000410001005F
:10099000400001003F0000003F0001003E00000059
:1009A0003E0001003D0000003D0001003C00000051
:1009B0003C0000003C0001003B0000003B00010047
:1009C0003A0000003A00010039000000390001003F
:1009D0003800000038000000380001003700000037
:1009E000370001003600000036000000360001002C
:1009F0003500000035000000350001003400000023
:100A00003400000034000100330000003300000017
:100A1000330001003200000032000000320001000B
:100A20003100000031000000310001003000000002
:100A300030000000300001002F0000002F000000F7
:100A40002F0000002F0001002E0000002E000000EB
:100A50002E0001002D0000002D0000002D000000E0
:100A60002D0001002C0000002C0000002C000000D4
:100A70002C0001002B0000002B0000002B000000C8
:100A80002B0001002A0000002A0000002A000000BC
:100A90002A000100290000002900000029000000B0
:100AA00029000000290001002800000028000000A3
:100AB0002800000028000000280001002700000096
:100AC0002700000027000000270000002700010089
:100AD000260000002600000026000000260000007E
:100AE0002600010025000000250000002500000070
:100AF0002500000025000000250001002400000062
:100B00002400000024000000240000002400010054
:100B10002300000023000000230000002300000049
:100B20002300000023000000230001002200000039
:100B3000220000002200000022000000220000002D
:100B4000220001002100000021000000210000001F
:100B50002100000021000000210000002100010010
:100B60002000000020000000200000002000000005
:100B700020000000200000002000000020000100F4
:100B80001F0000001F0000001F0000001F000000E9
:100B90001F0000001F0000001F0001001E000000D9
:100BA0001E0000001E0000001E0000007A5F6D693C
:100BB0006E3A2000795F6D696E3A2000785F6D694A
:100BC0006E3A20005265706F7274696E6720656EB0
:100BD0006473746F70207374617475730A00456E6A
:100BE0006473746F70732025632025632025632050
:100BF000256300205A3A0020593A0020583A0065EF
:100C00006E6473746F7073206869743A20002044B6
:100C10000020490020204D333031205000504944FD
:100C20002073657474696E67733A0A002046002069
:100C3000420020480020204D3134352053004D61C2
:100C400074657269616C206865617475702070618B
:100C500072616D65746572733A0A00205A002059FA
:100C60000020204D323036205800486F6D65206FCF
:100C700066667365743A0A00204500205A002059C0
:100C80000020580020420020540020204D323035F2
:100C9000205300416476616E6365643A20533C6D75
:100CA000696E5F66656564726174653E20543C6D73
:100CB000696E5F74726176656C5F666565647261AA
:100CC00074653E20423C6D696E5F7365676D656E4D
:100CD000745F74696D655F6D733E20583C6D61781B
:100CE0005F78795F6A65726B3E205A3C6D61785F10
:100CF0007A5F6A65726B3E20453C6D61785F655F27
:100D00006A65726B3E0A0020540020520020204D7C
:100D1000323034205000416363656C6572617469E0
:100D20006F6E2028756E6974732F7332293A2050C4
:100D30003C7072696E745F616363656C3E20523C07
:100D4000726574726163745F616363656C3E2054A5
:100D50003C74726176656C5F616363656C3E0A002A
:100D6000204500205A0020590020204D32303120EB
:100D700058004D6178696D756D20416363656C65E0
:100D8000726174696F6E2028756E6974732F733287
:100D9000293A0A00204500205A0020590020204D01
:100DA0003230332058004D6178696D756D2066656D
:100DB000656472617465732028756E6974732F732E
:100DC000293A0A00204500205A0020590020204DD1
:100DD0003932205800537465707320706572207525
:100DE0006E69743A0A0020204D3230302044300AB7
:100DF0000020204D3230302044002044697361626D
:100E00006C65640A0046696C616D656E742073657B
:100E10007474696E67733A0020204D313439204371
:100E2000203B20556E69747320696E2043656C7396
:100E30006975730A0A002020473231203B20556E25
:100E400069747320696E206D6D0A0A0048617264CE
:100E5000636F6465642044656661756C74205365D6
:100E60007474696E6773204C6F616465640A004531
:100E70004550524F4D20636865636B73756D206DEF
:100E800069736D617463680A0020627974657329FF
:100E90000A002073746F7265642073657474696EE0
:100EA0006773207265747269657665642028002016
:100EB0004D61726C696E3D563337290A00284545ED
:100EC00050524F4D3D00454550524F4D2076657272
:100ED00073696F6E206D69736D61746368200020A3
:100EE0006279746573290A0053657474696E677357
:100EF0002053746F7265642028004572726F7220EF
:100F000077726974696E6720746F20454550524F3F
:100F10004D210A006563686F3A004572726F723A3C
:100F2000007C3C3E5E2B3D3F2F5B5D3B2C2A225CD0
:100F30000020746F6F206C6F6E6720657874727517
:100F400073696F6E2070726576656E7465640A00F1
:100F500020636F6C6420657874727573696F6E209E
:100F600070726576656E7465640A00256973002584
:100F7000696D20256973002569682025696D202524
:100F8000697300256964202569682025696D20251D
:100F90006973002569792025696420256968202501
:100FA000696D20256973006D0046696C616D656E21
:100FB0007420757365643A200053746174733A2029
:100FC000002C204C6F6E67657374206A6F623A2044
:100FD00000546F74616C2074696D653A200053741D
:100FE0006174733A20002C204661696C65643A2074
:100FF000002C2046696E69736865643A200050725F
:10100000696E74733A200053746174733A2000540B
:1010100061726A65746120726574697261646100ED
:101020005461726A65746120636F6C6F636164619F
:10103000007061726120726573756D69720045732D
:10104000706572616E646F20696D702E0043616D12
:10105000626961722046696C616D656E746F002013
:1010600020426F7175696C6C613A200020004578F0
:1010700074727569722066696C616D656E746F005B
:10108000457370657261646F20706F720043616DAB
:10109000626961722046696C616D656E746F0020D3
:1010A00020426F7175696C6C613A200020004361C9
:1010B000726761722066696C616D656E746F004560
:1010C0007370657261646F20706F720043616D624E
:1010D0006961722046696C616D656E746F002020D5
:1010E000426F7175696C6C613A20007061726120A9
:1010F000636F6E74696E7561722E2E2E007920708A
:10110000726573696F6E6520656C20626F746F6EB7
:1011100000496E73657274652066696C616D656EF9
:10112000746F0043616D626961722046696C616D24
:10113000656E746F002020426F7175696C6C613A46
:101140002000200043616C656E746172206C612028
:10115000626F7175696C6C61004F7072696D6120AE
:10116000626F746F6E20706172610043616D6269BD
:1011700061722046696C616D656E746F002020425B
:101180006F7175696C6C613A200020004573706561
:10119000726520706F72206661766F720043616CB9
:1011A000656E74616E646F20626F7175696C6C61DD
:1011B0000043616D626961722046696C616D656EA4
:1011C000746F002020426F7175696C6C613A200069
:1011D000200066696C616D656E746F20657870754E
:1011E0006C7361646F00457370657261646F207029
:1011F0006F720043616D626961722046696C616D56
:10120000656E746F002020426F7175696C6C613A75
:10121000200063616D626961720064656C206669BB
:101220006C616D656E746F004573706572616E649C
:101230006F20696E69636961720043616D62696103
:10124000722046696C616D656E746F0045787472CA
:10125000756972206D617300526573756D697220D6
:10126000696D702E004F7063696F6E6573206465E1
:101270002063616D62696F3A002020426F71756969
:101280006C6C613A200020004174726173005465F7
:101290006D70204D696E696D612065732031353048
:1012A0002E004572726F723A20616C2063616C652A
:1012B0006E7461720045737461646973746963610B
:1012C0007320496D702E005465726D6973746F726E
:1012D000657300496E662E20436F6E74726F6C6189
:1012E000646F7200496E662E20496D707265736F6F
:1012F0007261004D656E75207072696E6369706110
:101300006C004578747275736F7265733A203100A2
:10131000687474703A2F2F6D61726C696E66772EE7
:101320006F726700537465656C4D4D2D4C530032E0
:101330003031372D30352D31322031323A303000D6
:10134000312E312E31004D61726C696E004675652B
:101350006E746520646520706F6465723A2047651D
:101360006E657269630050726F746F636F6C6F3A71
:1013700020312E300042617564696F733A2031313B
:10138000353230300052414D505320312E3400540C
:10139000656D7065726174757261206D6178696DDB
:1013A000613A203132300054656D70657261747538
:1013B0007261206D696E696D613A20350054426535
:1013C000643A4550434F53203130304B0054656DE3
:1013D0007065726174757261206D6178696D613AD2
:1013E000203235300054656D7065726174757261BC
:1013F000206D696E696D613A20350054303A2041A4
:1014000054432031303447542D320000546F7461FE
:101410006C20646520457874727573696F6E3A202C
:1014200000256C642E25696D0000496D707265732E
:10143000696F6E206D6173206C617267613A200084
:10144000005469656D706F20746F74616C20646501
:1014500020696D702E3A2000436F6D706C65746169
:101460006461733A2000436F6E74656F2064652079
:10147000696D70726573696F6E3A2000022E2E00DE
:101480004D656E75207072696E636970616C00469F
:10149000696C2E204469612E0046696C2E204469D7
:1014A000612E004520696E206D6D330041706167CB
:1014B000617200456E63656E64657200436F6E74A1
:1014C000726F6C0045207061736F732F6D6D0045F6
:1014D000207061736F732F6D6D005A207061736F90
:1014E000732F6D6D005A207061736F732F6D6D00D7
:1014F00059207061736F732F6D6D00592070617387
:101500006F732F6D6D0058207061736F732F6D6D49
:101510000058207061736F732F6D6D004163656CAF
:101520002E205669616A65004163656C2E205669FC
:10153000616A65004163656C2E2072657472616337
:101540002E004163656C2E207265747261632E00FB
:101550004163656C2E206D617845004163656C2E9A
:10156000206D617845004163656C2E206D61785A6D
:10157000004163656C2E206D61785A004163656C93
:101580002E206D617859004163656C2E206D617865
:1015900059004163656C2E206D6178580041636588
:1015A0006C2E206D6178580056656C2E207669612E
:1015B0006A65206D696E0056656C2E207669616AD9
:1015C00065206D696E0056656C2E207669616A65CE
:1015D000206D696E00566D696E00566D696E00561D
:1015E0006D696E00566D61784500566D61784500F5
:1015F000566D61784500566D61785A00566D617878
:101600005A00566D61785A00566D61785900566DD2
:1016100061785900566D61785900566D61785800AF
:10162000566D61785800566D6178580056652D6A80
:1016300065726B0056652D6A65726B0056652D6A82
:1016400065726B00567A2D6A65726B00567A2D6A48
:1016500065726B0056792D6A65726B0056792D6A3A
:1016600065726B0056792D6A65726B0056782D6A2B
:1016700065726B0056782D6A65726B0056782D6A1C
:1016800065726B004163656C65726163696F6E00C2
:101690004163656C65726163696F6E00436F6E7460
:1016A000726F6C0047756172646172206D656D6F59
:1016B00072696100506C617461666F726D61005097
:1016C0006C617461666F726D6100426F7175696CF7
:1016D0006C6100426F7175696C6C610056656E7467
:1016E000696C61646F720056656E74696C61646FD9
:1016F000720054656D70657261747572610050722C
:101700006563616C656E74617220414253436F6E14
:101710006669670050726563616C656E7461722002
:10172000504C41436F6E666967005049442D440038
:101730005049442D44005049442D49005049442DFE
:1017400049005049442D50005049442D5000200874
:1017500020466163740020082046616374002008FD
:10176000204D6178002008204D6178002008204D30
:101770006178002008204D696E002008204D696EB8
:10178000002008204D696E0054656D7065726174AB
:10179000757261204175746F2E00417061676172CE
:1017A00000456E63656E6465720056656E74696CA3
:1017B00061646F720056656E74696C61646F72006B
:1017C000506C617461666F726D6100506C61746120
:1017D000666F726D6100426F7175696C6C61004279
:1017E0006F7175696C6C6100436F6E74726F6C0021
:1017F000526573746175726172206D656D6F726987
:101800006100436172676172206D656D6F7269611D
:101810000047756172646172206D656D6F726961F8
:101820000046696C616D656E746F004D6F76696D11
:1018300069656E746F0054656D7065726174757260
:1018400061004D656E75207072696E636970616CC0
:10185000004578747275736F72004D6F76657220F3
:101860005A004D6F7665722059004D6F7665722073
:1018700058005072657061726172004D6F766572CA
:1018800020302E316D6D004D6F76657220316D6D9B
:10189000004D6F7665722031306D6D004D6F76654D
:1018A0007220656A6573004578747275736F720093
:1018B0004D6F766572205A004D6F76657220590023
:1018C0004D6F7665722058004578747275736F722B
:1018D000004D6F766572205A004D6F766572205903
:1018E000004D6F76657220580050726563616C65BB
:1018F0006E746172204142530050726563616C6581
:101900006E74617220504C4100456E66726961725E
:101910000043616D626961722066696C616D656E1C
:10192000746F004D383400417061676172206D6FD3
:10193000746F72657300416A7573746172206465B7
:1019400073666173657300473238205A004F7269BD
:1019500067656E205A004732382059004F72696718
:10196000656E2059004732382058004F726967650C
:101970006E205800473238004C6C657661722061E9
:101980006C206F726967656E004D6F7665722065B9
:101990006A6573004D656E75207072696E6369705B
:1019A000616C0050726563616C656E746172204198
:1019B0004253506C617461666F726D610050726564
:1019C00063616C656E7461722041425320456E64A0
:1019D0000050726563616C656E74617220414253A0
:1019E0000050726570617261720050726563616C63
:1019F000656E74617220504C41506C617461666F09
:101A0000726D610050726563616C656E7461722005
:101A1000504C4120456E640050726563616C656E88
:101A200074617220504C4100507265706172617235
:101A30000043616D626961722066696C616D656EFB
:101A4000746F004D6963726F7061736F205A004D3F
:101A50006963726F7061736F2059004D6963726FB3
:101A60007061736F205800466C756A6F00466C7524
:101A70006A6F0056656E74696C61646F72005665BA
:101A80006E74696C61646F7200506C617461666F32
:101A9000726D6100506C617461666F726D610042BD
:101AA0006F7175696C6C6100426F7175696C6C6106
:101AB0000056656C6F63696461640056656C6F63A2
:101AC00069646164004D656E75207072696E63694A
:101AD00070616C004D36303000426162797374651C
:101AE0007070696E67205A00426162797374657024
:101AF00070696E6720590042616279737465707015
:101B0000696E672058004D34323800496E662E20C9
:101B1000496D707265736F7261004E6F20686179F4
:101B2000207461726A657461205344004D656E755E
:101B300020646520534400446574656E65722069B5
:101B40006D70726573696F6E005265616E75646168
:101B50007220696D70726573696F6E005061757384
:101B6000617220696D70726573696F6E00436F6E8C
:101B700074726F6C00507265706172617200416ABC
:101B8000757374617200496E666F726D6163696F1F
:101B90006E00496D70726573696F6E2063616E636C
:101BA000656C616461004D3234004D313235002581
:101BB000753A2530327500253032753A2530327548
:101BC0000025756420253032753A253032750009BC
:101BD00020005A0059005800506F72206661766FDD
:101BE000722C207265696E6963696500494D5052B7
:101BF00045534F5241205041524144410000060993
:101C000000FE070192032120FFFF08FF07FF0000ED
:101C10000006000001070706020080808080800027
:101C200080030202060105A0A00507070600005078
:101C300050F850F850500507070600002078A070B3
:101C400028F020050707060000C0C810204098189B
:101C50000507070600006090A040A89068020303F3
:101C6000060104C040800307070601002040808071
:101C7000804020030707060100804020202040808C
:101C800005050506000120A870A820050505060029
:101C9000012020F820200203030602FFC040800537
:101CA0000101060003F8020202060200C0C0050599
:101CB0000506000108102040800507070600007097
:101CC00088888888887003070706010040C0404064
:101CD0004040E0050707060000708808708080F823
:101CE000050707060000F81020100808F005070790
:101CF00006000010305090F810100507070600008D
:101D0000F880F008088870050707060000708080DA
:101D1000F0888870050707060000F80810202020CA
:101D200020050707060000708888708888700507FE
:101D3000070600007088887808087002050506020A
:101D400000C0C000C0C00206060602FFC0C000C03E
:101D50004080040707060000102040804020100546
:101D60000303060002F800F804070706010080409C
:101D7000201020408005070706000070880810200A
:101D8000002005070706000070880868A8A87005ED
:101D90000707060000708888F88888880507070606
:101DA0000000F08888F08888F005070706000070BA
:101DB000888080808870050707060000F088888882
:101DC0008888F0050707060000F88080F08080F81A
:101DD000050707060000F88080F08080800507076F
:101DE000060000708880B888887005070706000024
:101DF000888888F888888801070706020080808024
:101E000080808080050707060000381010101090B1
:101E1000600507070600008890A0C0A0908805070D
:101E200007060000808080808080F8050707060094
:101E30000088D8A888888888050707060000888851
:101E4000C8A89888880507070600007088888888D1
:101E50008870050707060000F08888F080808005FC
:101E6000070706000070888888A89068050707069D
:101E70000000F08888F0A090880507070600007829
:101E80008080700808F0050707060000F820202071
:101E90002020200507070600008888888888887029
:101EA00005070706000088888888885020050707EE
:101EB0000600008888888888A85005070706000063
:101EC0008888502050888805070706000088888881
:101ED00050202020050707060000F8081020408049
:101EE000F8030707060100E08080808080E0050598
:101EF000050600018040201008030707060100E0E6
:101F00002020202020E0050303060004205088053F
:101F10000101060000F802020206020580400505E4
:101F2000050600007008788878050707060000801D
:101F300080B0C88888F0050505060000708080889C
:101F40007005070706000008086898888878050566
:101F5000050600007088F88070050707060000304D
:101F600048E0404040400506060600FF708888783B
:101F700008700507070600008080B0C888888801BF
:101F80000707060200800080808080800308080622
:101F900001FF200020202020A040040707060000A9
:101FA000808090A0C0A090030707060100C04040B9
:101FB000404040E0050505060000D0A8A8A8A805F7
:101FC0000505060000B0C8888888050505060000DC
:101FD00070888888700506060600FFF08888F08003
:101FE000800506060600FF7888887808080505053C
:101FF000060000B0C88080800505050600007080DE
:102000007008F00407070600004040E04040403000
:1020100005050506000088888898680505050600FE
:102020000088888850200505050600008888A8A833
:102030005005050506000088502050880506060654
:1020400000FF888888780870050505060000F810EC
:102050002040F80307070601002040408040402050
:1020600001070706020080808080808080030707C8
:102070000601008040402040408005020206000228
:10208000689000000006000000000006000000004C
:10209000000600000000000600000000000600002E
:1020A000000000060000000000060000000000061E
:1020B0000000000000060000000000060000000014
:1020C00000060000000000060000000000060000FE
:1020D00000000006000000000006000000000006EE
:1020E00000000000000600000000000600000000E4
:1020F00000060000000000060000000000060000CE
:1021000000000006000000000006000000000006BD
:1021100000000000000600000000000600000000B3
:10212000000600000000000600000000000600009D
:10213000000000060000000000060000000000068D
:10214000000000000006000000000006000001077B
:102150000706020080008080808080050707060057
:10216000002070A8A0A870200507070600003040D6
:1021700040E04050A80505050600008870507088B2
:10218000050707060000885020F820F820010707FF
:10219000060200808080008080800508080600001C
:1021A0003048205050209060030101060107A0052F
:1021B0000707060000F888B8B8B888F805070706CA
:1021C0000001700878887800F805050506000128E8
:1021D00050A05028050303060001F8080802020277
:1021E0000602064080050707060000F888A88898C0
:1021F000A8F8050101060006F804040406000360BF
:102200009090600507070600002020F8202000F8C5
:1022100004050506000360902040F0030505060054
:1022200003E020E020E002020206020640800508EA
:10223000080600FF8888888898E8808005070706D8
:10224000000078989878181818020202060202C056
:10225000C00202020602FF4080030505060003409B
:10226000C04040E0050707060001708888887000BC
:10227000F8050505060001A0502850A0050707062F
:1022800000008890A858B8080805070706000088CD
:1022900090B848982038050808060000C040C0489B
:1022A000D83808080507070600002000204080886D
:1022B000700508080600004020007088F88888052E
:1022C00008080600001020007088F88888050808B3
:1022D0000600002050007088F8888805080806006D
:1022E000006890007088F88888050808060000508B
:1022F00000708888F88888050808060000205020AB
:102300007088F888880507070600003860A0B8E0E4
:10231000A0B80508080600FF7088808088702060DB
:10232000050808060000402000F880F080F8050845
:1023300008060000081000F880F080F8050808067C
:102340000000205000F880F080F805070706000024
:102350005000F880F080F803080806010080400073
:10236000E0404040E0030808060100204000E04053
:102370004040E003080806010040A000E040404063
:10238000E0030707060100A000E0404040E0050729
:1023900007060000704848E848487005080806002D
:1023A0000068900088C8A8988805080806000040C2
:1023B0002070888888887005080806000010207042
:1023C00088888888700508080600002050007088FA
:1023D0008888700508080600006890007088888862
:1023E000700508080600005000708888888870050D
:1023F000050506000188502050880508080600FFE2
:102400001070A8A8A8A87040050808060000402081
:102410008888888888700508080600001020888849
:102420008888887005080806000020500088888881
:102430008870050808060000500088888888887021
:1024400005080806000010208850202020200509DB
:10245000090600FFC040704848704040E00408088A
:102460000601FF609090A09090E0800508080600AB
:1024700000402000700878887805080806000010E1
:1024800020007008788878050808060000205000B1
:1024900070087888780508080600006890007008C1
:1024A000788878050707060000500070087888785B
:1024B0000508080600002050207008788878050676
:1024C00006060000D02878A0A8500506060600FFE2
:1024D00070808870206005080806000040200070A9
:1024E00088F880700508080600001020007088F841
:1024F00080700508080600002050007088F8807081
:1025000005070706000050007088F880700308086F
:1025100006010080400040C04040E003080806017A
:102520000020400040C04040E00308080601004091
:10253000A00040C04040E0030707060100A00040A3
:10254000C04040E0050707060000A040A0107888C2
:1025500070050808060000689000B0C888888805E3
:102560000808060000402000708888887005080868
:102570000600001020007088888870050808060092
:1025800000205000708888887005080806000068E0
:10259000900070888888700507070600005000705A
:1025A000888888700505050600012000F8002005D0
:1025B00007070600FF1070A8A8A8704005080806C5
:1025C00000004020008888889868050808060000F8
:1025D00010200088888898680508080600002050A8
:1025E00000888888986805070706000050008888DA
:1025F0008898680509090600FF102000888888F877
:1026000008700407070601FFC04060506040E00505
:1026100008080600FF5000888888780870000609BE
:1026200000FE000000000001090008FE000005088F
:102630000806000040F0C888889878100508080649
:102640000000C0F88888888888F80505050600011C
:102650002030F830200508080600002070F82020FF
:102660002020E00509090600FF2070A8A8B8888886
:1026700070200509090600FFE080C0B0A8283028B6
:10268000280509090600FFF8A88888888888A8F81E
:10269000050A0A0600FE205050505088A8A88870ED
:1026A00003030306000340A04000000000000000F8
:1026B000000000000000000000000000000000001A
:1026C000000000000000000000000000000000000A
:1026D000000000000000000000000000FE000000FC
:1026E000000000000000000000000007FFE0000004
:1026F00000000000000000000000001FFFF00000CC
:1027000000000000000000000000007FFFFC00004F
:102710000000000000000000000000FFFFFE0000BD
:102720000000000000000000000001FFFFFF0000AB
:102730000000000000000000000003FFFFFF800019
:102740000000000000000000000007FFFFFFC000C5
:10275000000000000000000000000FFFFFFFE0008D
:10276000000000010000000000000FFFFFFFE0017B
:1027700080C000010000000000001FFFFFFFF0010B
:10278000414000010000000000001FFC003FF0017C
:10279000414000010000000000001FC00003F801DC
:1027A0002243C0E17082411E00003E00000078011B
:1027B00022442111888241210000380000003801A4
:1027C00014481209044441200000300000001C019C
:1027D000144813F9044441180000600000000E0181
:1027E00008481201044441060000E00000000E0108
:1027F00008481201042841010001E000000007011F
:1028000000442109082843210003C000000007817B
:102810000043C0F1F0103D1E0003E000000007C0BF
:1028200000000000001000000007E000000007C0EA
:1028300000000000002000000007E00000000FE0A2
:102840000000000000200000000FE00000000FE08A
:102850000000000000000000000FE00000000FE09A
:102860000000000000000000000FE00000000FF07A
:102870000000000000000000001FF00000000FF04A
:102880000000000400000000001FF00000001FF125
:1028900080C0000402000000001FF80000001FF1CB
:1028A0004140000400000000001FF80000003FF15C
:1028B0004140000400000000001FFC0000003FF148
:1028C0002243C1E5E25E0E0F001FFC0000007FF115
:1028D0002244221612611110801FFE0000007FF1B9
:1028E0001440240412412090001FFE000000FFF15C
:1028F0001447E40412413F8C000FFF000000FFF179
:102900000848240412412003000FFF000001FFE1EA
:102910000848240412412000800FFF800003FFE1DB
:1029200000486214124110908007FFC00003FFC1ED
:102930000047A1E412410F0F0007FFC00007FFC0CE
:1029400000000000000000000003FFE0000FFF8017
:1029500000000000000000000001FFF0001FFF80E9
:1029600000000000000000000001FFF8003FFF0031
:1029700000000000000000000000FFFC007FFE00DF
:10298000000000000000000000007FFE00FFFC00CF
:10299000000000000000000000001FFF03FFF8001F
:1029A000000000000000000000000FFFFFFFE0003B
:1029B0000000000000000000000003FFFFFF800097
:1029C00000000000000000000000003F83FC000049
:1029D00000000000000000000000000000000000F7
:1029E00000000000000000000000000000000000E7
:1029F0000040000000000000000000000000000097
:102A00000040000000000000000000000000000086
:102A1000004000000000000000011188C443DC3CBD
:102A20003C7C8288E078F1EE00011188C4422242A9
:102A300042424489008109110000AA552A8222429B
:102A400042424489008109110000AA552A8222428B
:102A50007E422888C08109110000AA552A8222429C
:102A6000404228882081091100004422111222428C
:102A70004042108824810911000044221112223C96
:102A80003E7C1079C478F1110000000000000000C5
:102A90000000100000000000000000000000000026
:102AA0000000E00000000000000000000000000046
:102AB00000000000007FFFE00000000000000000B8
:102AC000000000007000E0000000000000000000B6
:102AD00000000061F860000000000000000000003D
:102AE000000041F82000000000000000000000008D
:102AF0000040F02000000000000000000000000086
:102B000040602000000000000000000000000058AD
:102B100001A07F80000000000000004104005C6311
:102B2000A0FFC0000000000000002082005EF7A0AF
:102B3000FFC0000000000000002082005EF7A0FF40
:102B4000C0000000000000004104005C63A07F8022
:102B5000000000000000008208005801A07F8000F3
:102B6000000000000001041000406020FFC00000D1
:102B7000000000000104100040F020FFC000000031
:102B80000000000082080041F820FFC000000000A3
:102B900000000041040061F8603F000000000000F8
:102BA00000000000007000E01E00000000000000B7
:102BB00001FFFF807FFFE00C00000000000000012B
:102BC000FFFF800000000000000000000000000087
:102BD00000007FFFE0000000000000000000000097
:102BE000007000E000000000000000000000000095
:102BF000630C6000000000000000000000000047BF
:102C00000E200000000000000000000000004F0F38
:102C1000200000000000000000000000005F0FA086
:102C20000000000000000000000000005E07A07F20
:102C30008000000000000000410400406020FFC050
:102C40000000000000000020820040F020FFC000D3
:102C500000000000000020820040F020FFC00000C3
:102C600000000000004104004060207F8000000060
:102C7000000000008208005E07A07F8000000000C6
:102C80000000010410005F0FA0FFC0000000000062
:102C900000010410004F0F20FFC0000000000000E2
:102CA00000820800470E20FFC00000000000000066
:102CB000410400630C603F000000000000000000C1
:102CC00000007000E01E0000000000000001FFFF97
:102CD000807FFFE00C0000000000000001FFFF808B
:102CE0000000001FFFFFFFFFFFFF6000000000016A
:102CF000FF400000000000FF8000000000007F8314
:102D0000CF00000C303F87FF80000C301F86798099
:102D1000000C000F8C30C7838C30E78C30CFC7CCD1
:102D200031F38C30DCECEC33B98C30D86C6C33196B
:102D30008C30D06C0C33198C30D86C0C33198C302F
:102D4000DC6C0E3B198C30CF7C079F198C30C77C14
:102D5000038F194000000000000260000000000026
:102D6000061FFFFFFFFFFFF8546865726D616C205E
:102D700052756E61776179004572726F7220646579
:102D80002074656D70657261747572610050617256
:102D900061646120646520656D657267656E636955
:102DA0006100202D20496E76616C6964206578741D
:102DB0007275646572206E756D62657220210A00FD
:102DC00048656174696E67206661696C6564004579
:102DD00072726F723A20616C2063616C656E74610F
:102DE000720048656174696E67206661696C65642C
:102DF000004572726F723A20616C2063616C656E7F
:102E0000746172004D494E54454D5020747269678B
:102E10006765726564004572726F723A2054656D21
:102E200070204D696E20506C6174004572726F7233
:102E30003A2054656D70204D696E696D61004D4199
:102E40005854454D50207472696767657265640017
:102E50004572726F723A2054656D70204D61782012
:102E6000506C6174004572726F723A2054656D70D7
:102E7000204D6178696D61006265640A002C2073E1
:102E8000797374656D2073746F7070656421204868
:102E900065617465725F49443A2000236465666920
:102EA0006E65202044454641554C545F4B642000DC
:102EB00023646566696E65202044454641554C543F
:102EC0005F4B69200023646566696E652020444578
:102ED0004641554C545F4B70200050494420417589
:102EE000746F74756E652066696E697368656421B8
:102EF0002050757420746865206C617374204B7069
:102F00002C204B6920616E64204B6420636F6E73CC
:102F100074616E74732066726F6D2062656C6F777A
:102F200020696E746F20436F6E6669677572617495
:102F3000696F6E2E680A00504944204175746F74A1
:102F4000756E65206661696C6564212074696D65C4
:102F50006F75740A00504944204175746F74756E22
:102F600065206661696C6564212054656D706572C9
:102F7000617475726520746F6F20686967680A00F4
:102F8000204B643A2000204B693A2000204B703AD5
:102F900020000A20436C6173736963205049442008
:102FA0000A002054753A2000204B753A2000206D0D
:102FB00061783A2000206D696E3A200020643A2042
:102FC0000020626961733A20001000C90210012CD0
:102FD000014001220170011801B0010E01F001044D
:102FE000015002FA00B002F0003003E600D003DC2A
:102FF000009004D2007005C800A006BE000008B40E
:1030000000B009AA00D00BA000600E960060118CE1
:10301000000015820020197800C01D6E00A02264F7
:1030200000B0275A00902C500000314600E0343C9C
:103030000010383200903A2800603C1E00A03D1479
:1030400000803E0A00203F000070012C0190012703
:1030500001B0012201C0011D01F00118011002138D
:103060000130020E016002090190020401C002FF5A
:10307000000003FA004003F5008003F000D003EBEA
:10308000002004E6007004E100E004DC004005D705
:1030900000C005D2004006CD00D006C8008007C39E
:1030A000003008BE00F008B900C009B400B00AAF93
:1030B00000B00BAA00D00CA500000EA000500F9B82
:1030C00000C01096005012910000148C00C01587AB
:1030D00000B0178200B0197D00D01B7800001E736D
:1030E0000040206E0090226900F024640040275FB9
:1030F0000090295A00E02B5500102E500020304B34
:103100000010324600E033410090353C0010373764
:103110000070383200A0392D00B03A2800A03B23BF
:1031200000603C1E00103D1900903D1400103E0F41
:1031300000703E0A00C03E0500003F0000403FFB1B
:10314000FF803FF6FFC03FF1FF446F6E6520736163
:1031500076696E672066696C652E0A004D3239000B
:103160002020506C616E6E657242756666657242B3
:10317000797465733A20002046726565204D656D4F
:103180006F72793A2000436F6D70696C65643A2004
:103190004D617920313220323031370A00207C20D5
:1031A000417574686F723A20284D6F656279757346
:1031B0004D616368696E65732C2064656661756C2A
:1031C0007420636F6E666967290A00323031372DCB
:1031D00030352D31322031323A303000204C61739D
:1031E0007420557064617465643A2000312E312E6C
:1031F000310A004D61726C696E0020536F667477FE
:103200006172652052657365740A002057617463AA
:1032100068646F672052657365740A002042726F9C
:10322000776E206F75742052657365740A002045AF
:10323000787465726E616C2052657365740A005013
:103240006F77657255700A0073746172740A00506A
:1032500072696E7465722068616C7465642E206B8F
:10326000696C6C28292063616C6C6564210A0050CC
:10327000617261646120646520656D657267656E69
:10328000636961004B494C4C206361757365642030
:103290006279204B494C4C20627574746F6E2F70AC
:1032A000696E0A0050617261646120646520656D19
:1032B000657267656E636961004B494C4C206361C0
:1032C0007573656420627920746F6F206D75636813
:1032D00020696E6163746976652074696D65202D5F
:1032E0002063757272656E7420636F6D6D616E64BC
:1032F0003A200020746F6F206C6F6E6720657874C1
:10330000727573696F6E2070726576656E74656430
:103310000A0020636F6C6420657874727573696F3E
:103320006E2070726576656E7465640A006F6B005E
:10333000526573656E643A20004E6F206361736559
:10334000206C696768740A004D36303020486F740D
:10335000656E6420746F6F20636F6C6420746F20DF
:103360006368616E67652066696C616D656E740A7D
:1033700000446573666173652061706C69636164A4
:103380006F004572723A20546F6F2066617221009F
:10339000546F6F206661722066726F6D2072656671
:1033A0006572656E636520706F696E740A004329EB
:1033B0000A0061626C656420286D696E2074656D19
:1033C000702000436F6C6420657874727564657357
:1033D00020617265200020643A0020693A00207064
:1033E0003A00205A00205900580020204D61783AB8
:1033F0002000205A00205900580020204D696E3AC4
:10340000200041706167617200456E63656E64659E
:103410007200536F667420656E6473746F70733AD4
:10342000200053657474696E672054726176656C10
:1034300020416363656C65726174696F6E3A200048
:1034400053657474696E6720526574726163742089
:10345000416363656C65726174696F6E3A200053F5
:10346000657474696E67205072696E74204163637D
:10347000656C65726174696F6E3A2000536574748F
:10348000696E67205072696E7420616E6420547298
:103490006176656C20416363656C65726174696F08
:1034A0006E3A20004D31343520533C696E646578A6
:1034B0003E206F7574206F662072616E67652028EC
:1034C000302D31290A004649524D574152455F4E31
:1034D000414D453A4D61726C696E20312E312E316D
:1034E00020284769746875622920534F5552434517
:1034F0005F434F44455F55524C3A68747470733A59
:103500002F2F6769746875622E636F6D2F4D61721E
:103510006C696E4669726D776172652F4D61726C70
:10352000696E2050524F544F434F4C5F5645525393
:10353000494F4E3A312E30204D414348494E455F68
:10354000545950453A537465656C4D4D2D4C53207C
:1035500045585452554445525F434F554E543A31A5
:1035600020555549443A63656465326132662D34AD
:103570003161322D343734382D396231322D633593
:10358000356336326633363766660A0053746565CE
:103590006C4D4D2D4C53204170616761722E00506F
:1035A0006C617461666F726D612043616C69656EF8
:1035B0007465003F0A0020573A0043616C656E74E1
:1035C000616E646F20506C61742E2E2E0043616C0E
:1035D000656E74616D69656E746F206C6973746F6C
:1035E000003F0A0020573A00452569202573005303
:1035F0007465656C4D4D2D4C53206C697374612E50
:10360000006F6B004D3131332053005061726164A3
:103610006120646520656D657267656E6369610030
:103620004543484F00494E464F004552524F525372
:103630000044525952554E00434F4D4D554E49434B
:103640004154494F4E006F666600203625362A36B3
:103650003136383644454255473A004525692025DC
:103660007300537465656C4D4D2D4C53206C69731C
:1036700074612E0050726F746563746564205069C4
:103680006E0A005072696E742074696D653A20008C
:103690004D31323500456E642066696C65206C6979
:1036A00073740A00426567696E2066696C65206CF8
:1036B0006973740A0053696E206D6F76696D696570
:1036C0006E746F00537465656C4D4D2D4C53206CBA
:1036D000697374612E00526573756D69656E646FF0
:1036E00020696D7072652E004573706572616E643D
:1036F0006F206F7264656E6573005265706F736FD3
:103700002E2E2E0047322F473320626164207061D5
:1037100072616D65746572730A00416374697665E0
:103720002045787472756465723A20002042403AF0
:103730000020403A00202F0020423A00202F002095
:10374000543A0020453A00205A3A0020593A00588D
:103750003A005761726E696E673A20486F6D696E04
:10376000672042756D702044697669736F72203CE2
:1037700020310A00627573793A207061757365644F
:1037800020666F7220696E7075740A0062757379B5
:103790003A2070617573656420666F722075736579
:1037A000720A00627573793A2070726F6365737381
:1037B000696E670A00556E6B6E6F776E20636F6D72
:1037C0006D616E643A20220020496E76616C6964F6
:1037D00020657874727564657220005344207265A8
:1037E0006164206572726F720A00446F6E652070AA
:1037F00072696E74696E672066696C650A00506153
:103800007261646120646520656D657267656E63D1
:10381000696100446574656E696461005072696E27
:103820007465722073746F707065642064756520B0
:10383000746F206572726F72732E204669782074DF
:103840006865206572726F7220616E6420757365A1
:10385000204D39393920746F207265737461727428
:103860002E202854656D70657261747572652069CB
:10387000732072657365742E2053657420697420FB
:1038800061667465722072657374617274696E67C3
:10389000290A004E6F204C696E65204E756D626579
:1038A00072207769746820636865636B73756D2C2B
:1038B000204C617374204C696E653A20004E6F2075
:1038C000436865636B73756D2077697468206C69F4
:1038D0006E65206E756D6265722C204C617374206C
:1038E0004C696E653A2000636865636B73756D2083
:1038F0006D69736D617463682C204C617374204C26
:10390000696E653A20004C696E65204E756D626582
:1039100072206973206E6F74204C617374204C693F
:103920006E65204E756D6265722B312C204C617373
:1039300074204C696E653A20004D31313000656E5F
:103940007175657565696E67202200FFFFFF0000D5
:10395000404000004040000000400000B84300002C
:103960005A4300008743000040C2000000C100002D
:1039700000000000A0430000524300008743000005
:1039800040C2000000C1000000004D33310043611F
:103990006E6E6F7420656E746572207375626469F3
:1039A000723A20006175746F25692E670065727226
:1039B0006F722077726974696E6720746F20666910
:1039C0006C650A004E6F74205344207072696E74E7
:1039D000696E670A005344207072696E74696E677D
:1039E0002062797465200044656C6574696F6E208F
:1039F0006661696C65642C2046696C653A200046F6
:103A0000696C652064656C657465643A006F706507
:103A10006E206661696C65642C2046696C653A208D
:103A20000057726974696E6720746F2066696C65EF
:103A30003A20006F70656E206661696C65642C20A9
:103A400046696C653A20006F70656E206661696C2E
:103A500065642C2046696C653A200046696C6520D7
:103A600073656C65637465640A002053697A653A0E
:103A7000200046696C65206F70656E65643A2000B1
:103A80006F70656E206661696C65642C2046696C98
:103A9000653A20002066696C653A20004E6F7720F9
:103AA000002220706F73002220706172656E743A7C
:103AB0002200535542524F5554494E452043414CE4
:103AC0004C207461726765743A22005061726164BF
:103AD0006120646520656D657267656E636961006C
:103AE000747279696E6720746F2063616C6C2073E7
:103AF00075622D67636F64652066696C65732077F6
:103B000069746820746F6F206D616E79206C6576C2
:103B1000656C732E204D4158206C6576656C20696C
:103B2000733A004D3234004D323320257300534434
:103B30002063617264206F6B0A006F70656E526F54
:103B40006F74206661696C65640A00766F6C756DD0
:103B5000652E696E6974206661696C65640A00533C
:103B60004420696E6974206661696C0A0043616E65
:103B70006E6F74206F70656E207375626469722059
:103B80000000091200FC0A01E803D720FFFD0EFD2A
:103B90000BFD00000009000E010B0B0904008080E2
:103BA00080808080800000808004040409030790E6
:103BB000909090080A0A090000242424FF2424FF7E
:103BC000242424070B0B0901FF107C929050381419
:103BD00012927C10070A0A09010042A4A44810109E
:103BE000244A4A84070A0A090100609090906062A2
:103BF0009488946201040409040780808080030C87
:103C00000C0903FF2040408080808080804040205D
:103C1000030C0C0903FF804040202020202020407E
:103C20004080070707090103109254385492100787
:103C30000707090101101010FE10101002040409FA
:103C400004FEC0C04080070101090104FE02020217
:103C5000090400C0C0070A0A090100020404081090
:103C60001020404080070A0A0901003844828282FD
:103C70008282824438070A0A0901001030509010ED
:103C800010101010FE070A0A0901003844820204CD
:103C900008102040FE070A0A090100FE0204081865
:103CA0000402028478070A0A090100040C1424445F
:103CB00084FE040404070A0A090100FE808080F8DB
:103CC0000402028478070A0A0901003C408080B897
:103CD000C482824438070A0A090100FE020404086B
:103CE0000810101010070A0A0901003844824438ED
:103CF0004482824438070A0A090100384482824615
:103D00003A02020478020707090400C0C00000005C
:103D1000C0C00209090904FEC0C0000000C0C040C4
:103D20008005090909020008102040804020100881
:103D3000070404090102FE0000FE0509090902004A
:103D4000804020100810204080070A0A090100382E
:103D5000448202040810100010070A0A0901003802
:103D6000449AAAAAAAAA9C403C070A0A0901001080
:103D7000282828447C44828282070A0A090100F824
:103D8000848284F884828284F8070A0A0901003C4C
:103D900042808080808080423C070A0A090100F846
:103DA0008482828282828284F8070A0A090100FEE4
:103DB000808080F880808080FE070A0A090100FE6A
:103DC000808080F88080808080070A0A090100389E
:103DD000448280808E82824438070A0A0901008268
:103DE000828282FE8282828282050A0A090200F8A9
:103DF0002020202020202020F8070A0A0901003E68
:103E0000080808080808888870070A0A090100825B
:103E1000848890A0D088848282070A0A09010080E1
:103E20008080808080808080FE070A0A09010082ED
:103E300082C6AA928282828282070A0A09010082CD
:103E400082C2A2928A86828282070A0A0901007CC3
:103E500082828282828282827C070A0A090100F8B9
:103E600084828284F880808080080B0B0901FF38EF
:103E70004482828282828A443A01070A0A09010046
:103E8000F884828284F890888482070A0A090100F3
:103E90007C8280807C020202827C070A0A0901007F
:103EA000FE101010101010101010070A0A0901005F
:103EB00082828282828282824438070A0A09010051
:103EC00082828244444428282810070A0A090100F3
:103ED0008282828292929292AA44070A0A0901007F
:103EE00082824428101028448282070A0A090100AD
:103EF00082824428101010101010070A0A090100CD
:103F0000FE0204081020408080FE040C0C0903FF10
:103F1000F080808080808080808080F0070A0A099D
:103F2000010080404020101008040402040C0C0919
:103F300002FFF010101010101010101010F00704F5
:103F400004090106102844820801010900FFFF034B
:103F5000030309030A8040200707070901007C02C8
:103F6000027E82867A070A0A090100808080BCC22C
:103F7000828282C2BC0707070901007C82808080A0
:103F8000827C070A0A0901000202027A8682828282
:103F9000867A0707070901007C8282FE80827C07FF
:103FA0000A0A0901001C22222020F82020202007D4
:103FB0000A0A0901FD7A84848478807C82827C07E5
:103FC0000A0A090100808080BCC282828282820546
:103FD0000A0A090200600000E02020202020F805E5
:103FE0000D0D0902FD1800003808080808080888A7
:103FF0008870070A0A090100808080848890B0C810
:104000008482050A0A090200E020202020202020C6
:1040100020F8070707090100EC929292929282071A
:104020000707090100BCC282828282820707070952
:1040300001007C82828282827C070A0A0901FDB823
:10404000C4828282C4B8808080070A0A0901FD3ACE
:1040500046828282463A0202020707070901009C53
:104060006242404040400707070901007C82807C93
:1040700002827C0709090901002020FC2020202061
:10408000221C0707070901008282828282867A0742
:1040900007070901008282444428281007070709FE
:1040A00001008282929292AA4407070709010082C6
:1040B000442810284482070A0A0901FD42422424A8
:1040C000241818109060070707090100FE04081063
:1040D0002040FE060B0B0902001C20202020C020DF
:1040E0002020201C010C0C0904FF8080808080802F
:1040F000808080808080060B0B090100E01010108A
:10410000100C10101010E007030309010762928CD5
:10411000FFFFFFFFFFFFFFFFFFFFFFFFFFFFFFFFAF
:10412000FFFFFFFFFFFFFFFFFFFFFFFFFFFFFFFF9F
:10413000FF00000009000E010B0B09040080800045
:10414000008080808080808006080809010008784F
:104150009490A0A47840070A0A0901001C2220209C
:10416000F8202060A25C070606090103827C444413
:104170007C82070A0A090100828244287C107C1094
:104180001010010B0B0904FF80808080800080806C
:10419000808080040B0B0902FF60908060909090FB
:1041A0006010906003020209030BA0A0080909092E
:1041B00000013C4299A5A1A599423C0507070901C8
:1041C00003609070907800F8070808090101122434
:1041D000489090482412060404090102FC040404D7
:1041E000050101090204F80809090900013C42B966
:1041F000A5BDA9A5423C060101090109FC0404046E
:104200000903066090906007090909010110101068
:10421000FE10101000FE04060609010460901060F4
:1042200080F00406060901046090201090600303EA
:104230000309030A2040800709090901FE828282DE
:104240008282C6BA8080070A0A0901007E8A8A8AA9
:104250007A0A0A0A0A0A020202090404C0C0040314
:10426000030902FD20906003060609010440C040D6
:104270004040E00506060901047088887000F807D0
:1042800008080901019048241212244890070A0ADC
:1042900009010040C0404042E60A121A06070A0A15
:1042A00009010040C040404CF2020C101E070A0AEF
:1042B0000901006090201092660A121A06070A0A85
:1042C0000901001000101020408082827C070E0E31
:1042D0000901002010080010282828447C4482820C
:1042E00082070E0E0901000810200010282828441B
:1042F0007C44828282070E0E0901001028440010BF
:10430000282828447C44828282070D0D090100344C
:10431000580010282828447C44828282070D0D0909
:10432000010028280010282828447C448282820723
:104330000E0E0901001028281010282828447C445B
:10434000828282070A0A0901001E2828284E78481E
:1043500088888E070D0D0901FD3C42808080808099
:1043600080423C082418070E0E09010020100800A6
:10437000FE808080F880808080FE070E0E0901009C
:1043800008102000FE808080F880808080FE070E6C
:104390000E09010010284400FE808080F880808093
:1043A00080FE070D0D090100282800FE808080F89E
:1043B00080808080FE050E0E09020040201000F86B
:1043C0002020202020202020F8050E0E09020010B9
:1043D000204000F82020202020202020F8050E0E6C
:1043E00009020020508800F82020202020202020D2
:1043F000F8050D0D090200505000F8202020202063
:10440000202020F8070A0A09010078444242F242BB
:1044100042424478070D0D0901003458008282C2DF
:10442000A2928A86828282070E0E0901002010085D
:10443000007C82828282828282827C070E0E090147
:1044400000081020007C82828282828282827C0725
:104450000E0E090100102844007C82828282828232
:1044600082827C070D0D0901003458007C82828213
:1044700082828282827C070D0D0901002828007C3F
:1044800082828282828282827C07070709010182FE
:10449000442810284482070C0C0901FF027C868AFC
:1044A0008A9292A2A2C27C80070E0E0901002010FF
:1044B000080082828282828282824438070E0E093C
:1044C0000100081020008282828282828282443827
:1044D000070E0E0901001028440082828282828227
:1044E00082824438070D0D0901002828008282824B
:1044F00082828282824438070E0E09010008102051
:104500000082824428101010101010070A0A0901B6
:10451000008080FC828282FC808080060A0A090179
:104520000038444448D04844444458070B0B090120
:1045300000201008007C02027E82867A070B0B099D
:104540000100081020007C02027E82867A070B0B95
:10455000090100102844007C02027E82867A070A44
:104560000A0901003458007C02027E82867A070A1A
:104570000A0901002828007C02027E82867A070C44
:104580000C09010010282810007C02027E82867A25
:104590000707070901006C12127E90926C070A0A45
:1045A0000901FD7C82808080827C104830070B0BE3
:1045B000090100201008007C8282FE80827C070BAB
:1045C0000B090100081020007C8282FE80827C079B
:1045D0000B0B090100102844007C8282FE80827C43
:1045E000070A0A0901002828007C8282FE80827C5A
:1045F000050C0C0902008040200000E02020202053
:1046000020F8050C0C0902001020400000E02020DA
:10461000202020F8050C0C0902002050880000E042
:104620002020202020F8050B0B090200505000002C
:10463000E02020202020F8070B0B09010048305013
:10464000083C448282824438070A0A09010034582F
:1046500000BCC28282828282070B0B0901002010FB
:1046600008007C82828282827C070B0B0901000891
:104670001020007C82828282827C070B0B09010061
:10468000102844007C82828282827C070A0A090107
:10469000003458007C82828282827C070A0A0901E7
:1046A000002828007C82828282827C070909090115
:1046B0000010381000FE001038100709090901FF2A
:1046C000027C8A8A92A2A27C80070B0B090100401F
:1046D0002010008282828282867A070B0B090100F9
:1046E000081020008282828282867A070B0B0901E1
:1046F00000102844008282828282867A070A0A0990
:1047000001002828008282828282867A070E0E09A2
:1047100001FD04081000424224242418181090605F
:10472000070B0B0901FE8080B8C4828282C4B88066
:1047300080070D0D0901FD24240042422424241881
:10474000181090600200000A0B02090C0D0E0807F9
:104750000304010000000000000000000000000051
:104760000000000000000000000000000000000049
:104770000012111000000000000000000000000006
:1047800000000000000000000000000102102020D6
:104790000808102040102040800201020108040295
:1047A000010102040810204080804020100804020B
:1047B0000180040201804020100804020108040264
:1047C000010102040810204080010204081020406A
:1047D0008005050505070508080808020202020A07
:1047E0000A08080404040401010101010101010394
:1047F00003030303030303040707070C0C0C0C0C4F
:104800000C0C0C0202020206060606060606060B41
:104810000B0B0B0B0B0B0B000020002300260029B9
:10482000002C002F003200000100000301060109E6
:104830000100002200250028002B002E003100344A
:104840000002010000050108010B01000021002405
:104850000027002A002D0030003300010100000471
:104860000107010A014E414E494E495459494E46ED
:10487000CDCCCC3D0AD7233C17B7D13877CC2B32DF
:104880009595E6241FB14F0A000020410000C84260
:1048900000401C4620BCBE4CCA1B0E5AAEC59D74BF
:1048A0007E5A4AA032DA4CDA11241FBECFEFD1E291
:1048B000DEBFCDBF00E00CBF14E0A0E0B2E0EEE34D
:1048C000FBE102E00BBF02C007900D92AA34B107D2
:1048D000D9F724E1AAE4B4E001C01D92A33EB207D7
:1048E000E1F714E2C3E5D4E200E006C02197010934
:1048F000802FFE010F947205C035D10780E00807B4
:10490000A9F70E94CAF70D948D0D0C9400009091A8
:10491000CD058091CC05981731F08091CC058F5F43
:104920008F708093CC050895EFE6F0E0808182607F
:104930008083089580918A0480FF05C089988FEF55
:104940008093010204C0899A81E0809301028091E2
:104950008A0481FF05C08F9A8FEF8093020204C002
:104960008F9881E08093020280918A049FB782FF32
:104970000BC0F89480910B018D7F80930B019FBF3A
:104980008FEF809303020AC0F89480910B0182603C
:1049900080930B019FBF81E08093030280918A0482
:1049A00083FF05C016988FEF809304020895169A2E
:1049B00081E0809304020895BF92CF92DF92EF923C
:1049C000FF920F931F93CF93DF9300D01F92CDB729
:1049D000DEB780916E008B7F80936E0080916F00B8
:1049E0008D7F80936F0078948091880490918904E2
:1049F000009771F001979093890480938804109236
:104A00008C0410928B040E94872488EC90E0C9C12A
:104A1000E0918B04F0918C04309709F0CDC1909116
:104A2000CD058091CC05981751F1E091CC050DE4AE
:104A3000E09FF0011124E253FA4FC0902605D09078
:104A40002705E0902805F09029059F01275B3F4F3F
:104A5000D9014D915D916D917C91D701C601841B67
:104A6000950BA60BB70B8093260590932705A09373
:104A70002805B09329058081886080830BC08FB79B
:104A8000F89410922605109227051092280510928E
:104A900029058FBFF0938C04E0938B04309709F4C1
:104AA0007EC152A180918A04418158130AC0242FEB
:104AB00030E080910002082E000C990B281739076E
:104AC00031F050938A04409300020E949A2410927D
:104AD0006C0410926D0410926E0410926F04E091B9
:104AE0008B04F0918C0487A990AD8134BCE99B07BD
:104AF00028F48132EEE49E0758F002C080E49CE97D
:104B0000969587959695879524E02093590412C031
:104B10008131F7E29F0730F09695879522E0209348
:104B2000590408C021E0209359048032910510F403
:104B300080E290E07C0100E2E01AF108E11418E064
:104B4000F106F0F0EF2DFF27EE0FFF1FEE0FFF1F16
:104B5000CF018455984FFC013296459154916E2DAA
:104B6000AA27659F9001649F210D3A1F06942A1F72
:104B70003A1F1124FC0185919491821B930B1EC056
:104B80009701369527952C7F24553C4FF901859147
:104B90009491F901329665917491A7014770552758
:104BA000649F9001659F300D749F300D112453E078
:104BB000369527955A95E1F7821B930B843691051C
:104BC00088F40AEF12E0D8018D918D01882319F045
:104BD0000E943F30F8CF6AE070E0C7010E94F230D7
:104BE00084E690E090935704809356048091590492
:104BF00080935804E0918B04F0918C0483AD94ADC4
:104C000090935B0480935A048134BCE99B0728F499
:104C10008132EEE49E0758F002C080E49CE996954C
:104C200087959695879524E02093590412C0813189
:104C3000F7E29F0730F09695879522E0209359047C
:104C400008C021E0209359048032910510F480E2DD
:104C500090E07C0100E2E01AF108E11418E0F106AE
:104C6000F0F0EF2DFF27EE0FFF1FEE0FFF1FCF011C
:104C70008455984FFC013296459154916E2DAA2788
:104C8000659F9001649F210D3A1F06942A1F3A1FC9
:104C90001124FC0185919491821B930B1EC09701F6
:104CA000369527952C7F24553C4FF9018591949199
:104CB000F901329665917491A70147705527649F59
:104CC0009001659F300D749F300D1124B3E036952F
:104CD0002795BA95E1F7821B930B8436910588F4EA
:104CE0000AEF12E0D8018D918D01882319F00E94FE
:104CF0003F30F8CF6AE070E0C7010E94F23084E6EE
:104D000090E0AC0160E070E0409370045093710457
:104D10006093720470937304909389008093880069
:104D2000E0918B04F0918C0482899389A489B589E0
:104D3000B695A79597958795B095A09590958195EF
:104D40009F4FAF4FBF4F8093780490937904A09307
:104D50007A04B0937B0480937C0490937D04A093A9
:104D60007E04B0937F048093800490938104A09389
:104D70008204B09383048093840490938504A09369
:104D80008604B093870410927404109275041092F4
:104D900076041092770482E0809396120DC080ED25
:104DA00097E09093890080938800F8948091CC0CD0
:104DB000882309F4E0C3D9C380919612882321F097
:104DC000809105028111EFC320915904222309F437
:104DD000AFC1E0918B04F0918C0440918404509118
:104DE0008504609186047091870482819381A481F7
:104DF000B581840F951FA61FB71F809384049093DD
:104E00008504A0938604B0938704181619061A0621
:104E10001B060CF4889AE0918B04F0918C0440916D
:104E20008004509181046091820470918304868192
:104E30009781A085B185840F951FA61FB71F80930A
:104E4000800490938104A0938204B0938304181685
:104E500019061A061B060CF48E9AE0918B04F09149
:104E60008C0440917C0450917D0460917E0470918B
:104E70007F0482859385A485B585840F951FA61F21
:104E8000B71F80937C0490937D04A0937E04B0931D
:104E90007F04181619061A061B0644F49FB7F894E7
:104EA00080910B01886080930B019FBFE0918B0480
:104EB000F0918C04409178045091790460917A04C7
:104EC00070917B0486859785A089B189840F951F91
:104ED000A61FB71F8093780490937904A0937A0457
:104EE000B0937B04181619061A061B060CF4149AC4
:104EF0008091840490918504A0918604B0918704E8
:104F0000181619061A061B0684F5E0918B04F09119
:104F10008C044289538964897589841B950BA60B7F
:104F2000B70B8093840490938504A0938604B09378
:104F300087048091010240915C0450915D0460916E
:104F40005E0470915F04082E000C990BAA0BBB0B3A
:104F5000840F951FA61FB71F80935C0490935D0478
:104F6000A0935E04B0935F04889880918004909130
:104F70008104A0918204B0918304181619061A06C0
:104F80001B0684F5E0918B04F0918C0442895389CF
:104F900064897589841B950BA60BB70B80938004DD
:104FA00090938104A0938204B093830480910202C1
:104FB00040916004509161046091620470916304B7
:104FC000082E000C990BAA0BBB0B840F951FA61F74
:104FD000B71F8093600490936104A0936204B09320
:104FE00063048E9880917C0490917D04A0917E044E
:104FF000B0917F04181619061A061B06BCF5E0913D
:105000008B04F0918C044289538964897589841BCF
:10501000950BA60BB70B80937C0490937D04A09313
:105020007E04B0937F048091030240916404509108
:1050300065046091660470916704082E000C990B5A
:10504000AA0BBB0B840F951FA61FB71F8093640488
:1050500090936504A0936604B09367049FB7F89497
:1050600080910B01877F80930B019FBF8091780413
:1050700090917904A0917A04B0917B0418161906D6
:105080001A061B0684F5E0918B04F0918C0442898A
:10509000538964897589841B950BA60BB70B809384
:1050A000780490937904A0937A04B0937B04809160
:1050B0000402409168045091690460916A047091FF
:1050C0006B04082E000C990BAA0BBB0B840F951FC9
:1050D000A61FB71F8093680490936904A0936A0485
:1050E000B0936B0414988091740490917504A0910E
:1050F0007604B09177040196A11DB11D80937404CC
:1051000090937504A0937604B09377042150E091B6
:105110008B04F0918C0442895389648975898417C2
:105120009507A607B70708F451CEBB24B39401C076
:10513000B12C409174045091750460917604709183
:105140007704E0908B04F0908C04F70186899789AE
:10515000A08DB18D84179507A607B70708F4E2C0A4
:1051600040917004509171046091720470917304C5
:10517000068D178D20A131A1AA27419FB12D529FE5
:10518000C001629F900D619F800D911D429FB00DE7
:10519000811D9A1F519FB00D811D9A1F609FB00DF8
:1051A000811D9A1F509FB10D8A1F9A1FB6958A1FA5
:1051B0009A1F349F800D911D359F900D112423ADB2
:1051C00034AD820F931F90935B0480935A0447A9D8
:1051D00050AD61AD72ADA0E0B0E0481759076A0765
:1051E0007B0720F450935B0440935A0480915A0447
:1051F00090915B048134BCE99B0728F48132EEE492
:105200009E0758F002C080E49CE996958795969594
:10521000879524E02093590412C08131F7E29F075B
:1052200030F09695879522E02093590408C021E03C
:10523000209359048032910510F480E290E08C01B3
:1052400000521109011528E01207E8F0E12FFF27AD
:10525000EE0FFF1FEE0FFF1FCF018455984FFC018B
:10526000329645915491AA27059F9001049F210DE4
:105270003A1F06942A1F3A1F1124FC01859194912C
:10528000821B930B1EC09801369527952C7F2455C1
:105290003C4FF90185919491F90132966591749191
:1052A000A80147705527649F9001659F300D749F3A
:1052B000300D112443E0369527954A95E1F7821B7E
:1052C000930B8436910598F48AEFE82E82E0F82E4D
:1052D000D7018D917D01882319F00E943F30F8CFCE
:1052E0006AE070E0C8010E94F23084E690E090939A
:1052F00089008093880040917004509171046091FE
:105300007204709173048A019B01080F191F211DFB
:10531000311D009370041093710420937204309334
:10532000730401C140917404509175046091760436
:1053300070917704F701828D938DA48DB58D8417BC
:105340009507A607B70708F0E2C040916C0450919A
:105350006D0460916E0470916F04068D178D20A10D
:1053600031A1AA27419FB12D529F6001629FD00CAD
:10537000619FC00CD11C429FB00DC11CDA1E519F11
:10538000B00DC11CDA1E609FB00DC11CDA1E509F0B
:10539000B10DCA1EDA1EB695CA1EDA1E349FC00CA5
:1053A000D11C359FD00C112480915A0490915B043C
:1053B000FF96C816D90680F48C199D094081518149
:1053C000628173816C01E12CF12CC416D506E606CE
:1053D000F70620F4CA0102C0808191818134BCE9C2
:1053E0009B0728F48132EEE49E0758F002C080E467
:1053F0009CE9969587959695879524E02093590486
:1054000012C08131F7E29F0730F09695879522E030
:105410002093590408C021E020935904803291055B
:1054200010F480E290E08C0100521109011528E08F
:105430001207E8F0E12FFF27EE0FFF1FEE0FFF1F0F
:10544000CF018455984FFC01329645915491AA277B
:10545000059F9001049F210D3A1F06942A1F3A1FB1
:105460001124FC0185919491821B930B1FC0C801EC
:10547000969587958C7F84559C4FFC01459154915E
:10548000FC01329665917491C80187709927689FD5
:105490009001699F300D789F300D112463E036959F
:1054A00027956A95E1F7CA01821B930B8436910513
:1054B00098F48AEFE82E82E0F82ED7018D917D01D5
:1054C000882319F00E943F30F8CF6AE070E0C801ED
:1054D0000E94F23084E690E09093890080938800E7
:1054E00040916C0450916D0460916E0470916F0452
:1054F0008A019B01080F191F211D311D00936C04A7
:1055000010936D0420936E0430936F040CC080914F
:10551000560490915704909389008093880080915D
:10552000580480935904209188003091890080911B
:1055300084009091850040962817390748F480919F
:105540008400909185004096909389008093880014
:10555000BB2031F010928C0410928B040E9487249F
:10556000F8948091CC0C882331F080916E008B7F71
:1055700080936E0005C080916E00846080936E0001
:1055800080916F00826080936F000F900F900F905A
:105590000F90DF91CF911F910F91FF90EF90DF90CF
:1055A000CF90BF9008950E94102F80919612815045
:1055B0008093961209CC1F920F920FB60F9211246E
:1055C0000BB60F922F933F934F935F936F937F93FD
:1055D0008F939F93AF93BF93EF93FF930E94DC242D
:1055E000FF91EF91BF91AF919F918F917F916F91BB
:1055F0005F914F913F912F910F900BBE0F900FBE77
:105600000F901F9018950F931F93CF93DF93819A5C
:10561000879A0AE011E0D8018C9182608C930E9AEF
:105620003B9A579A5F9A829A8A9AE7E0F1E08081E2
:10563000816080839FB7F894C8E0D1E08881816061
:1056400088839FBF0A9A129A3F9A479A81E994E009
:105650000E94ED2D809A88985F9AE2EEFFE010821A
:10566000869A8E988A9A1182D8018C9188608C9340
:105670009FB7F894ABE0B1E08C91877F8C939FBF8C
:105680009FB7F8948881816088839FBF12820C9AAB
:105690001498129A399A4198A0E8B0E08C918C7FC6
:1056A0008C93E1E8F0E08081877E886080838C9134
:1056B0008F738C938081887F8260808380E090E408
:1056C0009093890080938800109285001092840046
:1056D000EFE6F0E080818260808381E080930502C4
:1056E0007894DF91CF911F910F910C949A2490910F
:1056F000CD058091CC05981721F080E00E946BC702
:10570000F6CF0895CF92DF92EF92FF920F931F93FF
:10571000CF93DF936C017B018A01E9010E94772B13
:105720009FB7F894D6014D915D916D917C91ECE518
:10573000F4E04083518362837383D7014D915D917F
:105740006D917C914483558366837783D8014D9115
:105750005D916D917C914087518762877387488105
:1057600059816A817B8144875587668777879FBF88
:10577000DF91CF911F910F91FF90EF90DF90CF902D
:105780000895FC019FB7F8940190F081E02DDB01B2
:105790004D915D916D917C91EE0FFF1FEE0FFF1FFC
:1057A000E45AFB4F40835183628373839FBF089504
:1057B0002FB7F894FC01EE0FFF1FEE0FFF1FE45A06
:1057C000FB4F60817181828193812FBF0895CF93B8
:1057D000DF93EC010E94D82B0F947102CC0FDD1FD8
:1057E000CC0FDD1FC456DA4F288139814A815B8195
:1057F0000F941F04DF91CF9108950E94772B0C9492
:105800002BC488E893E19093890480938804809165
:105810006F008D7F80936F009091CD058091CC05B6
:10582000981719F00E948724F7CF10928C041092D9
:105830008B0480916F00826080936F008FB7F89423
:10584000109226051092270510922805109229051E
:105850008FBF0895880F991F880F991FFC01E45A84
:10586000FB4F4081518162817381FC01E65BFB4FFC
:105870004083518362837383E0918B04F0918C04A5
:1058800082899389A489B58980937404909375045F
:10589000A0937604B093770408954F925F926F922D
:1058A0007F928F929F92AF92BF92CF92DF92EF92B0
:1058B000FF92CF93DF938FB7F89440905C045090A1
:1058C0005D0460905E0470905F048090600490902E
:1058D0006104A0906204B0906304C0906404D0900E
:1058E0006504E0906604F09067048FBFE2EAF3E09D
:1058F0008491EF012196882321F00E943F30FE0120
:10590000F7CF4AE050E0C301B2010E94D030EEE987
:10591000F3E08491EF012196882321F00E943F302B
:10592000FE01F7CF4AE050E0C501B4010E94D0303B
:10593000EAE9F3E08491EF012196882321F00E94A7
:105940003F30FE01F7CF4AE050E0C701B6010E94A8
:10595000D0308AE0DF91CF91FF90EF90DF90CF9031
:10596000BF90AF909F908F907F906F905F904F907F
:105970000C943F30CF93F89481309105D1F0823070
:10598000910551F1892B09F06AC0CFB1C2705F98BF
:10599000662311F0899A01C08998889A84E090E082
:1059A0000E94D8FC8898CC2311F0899A58C0899815
:1059B00056C0CFB18A98611102C08F9A01C08F98EA
:1059C0008E9A84E090E00E94D8FC8E98C7FF02C0B7
:1059D0008F9A45C08F9843C0C0910901C2709FB78C
:1059E000F894809108018E7F809308019FBF9FB734
:1059F000662341F0F89480910B01826080930B0143
:105A00009FBF07C0F89480910B018D7F80930B019D
:105A10009FBF9FB7F89480910B01886080930B0122
:105A20009FBF84E090E00E94D8FC9FB7F8948091DB
:105A30000B01877F80930B019FBF9FB7CC2341F061
:105A4000F89480910B01826080930B019FBF07C087
:105A5000F89480910B018D7F80930B019FBF789408
:105A6000CF91089598E288E10FB6F894A8958093B5
:105A700060000FBE909360000895FC0111821082B7
:105A80001682178210861186128613861486158652
:105A900012821382148215820895CF93DF93FC0142
:105AA00020813181215031092230310510F080E010
:105AB0000AC0EC01118210820E946BFC6A877B870E
:105AC0008C879D8781E0DF91CF910895CF93DF93FD
:105AD000FC01208131812130310569F4EC0182E043
