:100000000C94C7160C94BEE70C94E9E70C9414E822
:100010000C943FE80C946AE80C9495E80C94C0E8C2
:100020000C94EBE80C94C89C0C94D79C0C94E69C24
:100030000C94F8160C947CE50C94F8160C94F816B5
:100040000C94F8160C944E1D0C94F8160C94F8169B
:100050000C94F8160C94F8160C94159B0C9425E649
:100060000C94F8160C9424220C94F8160C94F816A0
:100070000C94F8160C94F8160C94F8160C94F816C8
:100080000C94F8160C94F8160C94F8160C94F816B8
:100090000C94F8160C94F8160C94F8160C94F816A8
:1000A0000C94F8160C94F8160C94F8160C94F81698
:1000B0000C94F8160C94F8160C94F8160C94F81688
:1000C0000C94F8160C94F8160C94F8160C94F81678
:1000D0000C94F8160C94F8160C94F8160C94F81668
:1000E0000C94F816D954E354EA54F154F8540D55CD
:1000F00018551F55FF54065598E762E76AE776E7FB
:1001000083E7A4E7B1E73FE944E949E953E95DE959
:10011000D6E967E96FE977E981E98BE995E9A4E92F
:10012000AEE9D6E9B8E9C2E9CCE9FAE9FDE9ECE9DA
:10013000F0E9F6E934EA01EA05EA0BEA0FEA13EA24
:1001400019EA1DEA21EA34EA27EA2BEA2FEA084AEB
:10015000D73B3BCE016E84BCBFFDC12F3D6C7431DB
:100160009ABD56833DDA3D00C77F11BED9E4BB4C32
:100170003E916BAAAABE000000803F05A84CCDB2FC
:10018000D44EB93836A9020C50B9918688083CA6DD
:10019000AAAA2ABE000000803F000C943D9B0C944C
:1001A00053520C948E620C9490760C945B7C0C945D
:1001B0001A520C94467E0C945DE90C940D550C94E7
:1001C00029850C94EC770C94BD7B0C948E640C9474
:1001D000817A0C943FE90C9418550C9477E90C94AF
:1001E0002C850C9444610C94F8540C941F550C9479
:1001F000E7610C9483E70C94B0E10C94D9540C940F
:10020000ECE90C94EA540C94E6780C94A1540C9408
:100210005C8D0C94A36E0C949E6B0C9456740C9491
:1002200044740C9405EA0C945EC80C94E5630C9439
:1002300095E90C942FEA0C942D520C94FF540C94D5
:1002400034EA0C94FDE90C94D3500C94F14C0C94CA
:10025000BC6F0C9468520C949B800C94F8650C94C1
:10026000D6E90C94F1540C94CCE90C948C640C9465
:1002700076E70C94BD540C9453E90C948C6C0C945C
:100280007E600C943B5F0C9449E90C94D6500C941E
:10029000465D0C9446610C9427EA0C94D3600C9450
:1002A00049E70C94A4E70C941B710C945C740C94B7
:1002B000FAE90C947D520C9462E70C9413EA0C94C6
:1002C0006FE90C9421EA0C9426850C946AE70C944F
:1002D00041510C94415F0C94F6E90C94F0E90C94B4
:1002E0002BEA0C94A87D0C9436630C9444E90C948E
:1002F0003D650C9453870C94B06A0C9478C80C94A8
:10030000EE650C94B1E70C9472600C94E0680C9468
:10031000677F0C9450740C9440520C9481E90C94B7
:10032000A4E90C94AEE90C94D0DF0C9406550C941F
:10033000DA500C94C2E90C941F7B0C9401EA0C94E3
:100340002D770C9478600C9419EA0C94D2790C9463
:10035000D8500C940FEA0C94E3540C94B8E90C9424
:10036000475F0C941DEA0C9467E90C948BE90C949C
:10037000D1750C9498E70C944A740C940A7D0C94F3
:10038000C0B00C940BEA0C94DCE5205A3A002059DA
:100390003A0020436F756E7420583A0024F4D4302C
:1003A00050C38E20C2A24017828B7011127A910D19
:1003B000816CD90AA861E108C758660761514306F4
:1003C0001E4B5D05C145A7041A411104093D980360
:1003D000713931034036DB0265339102D430540267
:1003E000802E1D02632CEE01752AC501B028A001E4
:1003F000102781018F2564012B244B01E022340159
:10040000AC211F018D200D01801FFC00841EED001A
:10041000971DDF00B81CD200E61BC600201BBC00E5
:10042000641AB200B219A8000A19A0006A1899004B
:10043000D117910040178B00B516840031167E004D
:10044000B31579003A157300C7146F0058146A0089
:10045000EE1366008813630025135E00C7125B006D
:100460006C12570015125400C111510070114F0049
:1004700021114B00D61049008D1047004610440052
:1004800002104200C00F4000800F3E00420F3C00AF
:10049000060F3B00CB0E3800930E37005C0E350084
:1004A000270E3400F30D3200C10D3100900D3000E5
:1004B000600D2E00320D2D00050D2C00D90C2B00E7
:1004C000AE0C2900850C29005C0C2700350C270098
:1004D0000E0C2600E80B2400C40B2400A00B230004
:1004E0007D0B23005A0B2100390B2100180B200033
:1004F000F80A1F00D90A1E00BB0A1E009D0A1D0033
:10050000800A1D00630A1C00470A1B002C0A1B00FE
:10051000110A1A00F7091A00DD091900C4091900A7
:10052000AB091900920917007B091800630917002D
:100530004C09160036091600200916000A09150094
:10054000F5081500E0081400CC081400B8081400E1
:10055000A4081400900813007D0812006B08130013
:100560005808120046081200340811002308110030
:100570001208110001081100F0071000E007100038
:10058000D0071000C0071000B0070F00A10710002F
:1005900091070E0083070F0074070F0065070E0018
:1005A00057070E0049070E003B070D002E070E00EF
:1005B00020070D0013070D0006070D00F9060C00BB
:1005C000ED060D00E0060C00D4060C00C8060C0079
:1005D000BC060C00B0060C00A4060B0099060C002B
:1005E0008D060B0082060B0077060B006C060B00D5
:1005F00061060A0057060B004C060A0042060A0074
:1006000038060A002E060A0024060A001A060A0006
:100610001006090007060A00FD050900F405090097
:10062000EB050900E2050900D9050900D00509001C
:10063000C7050900BE050900B5050800AD0508009D
:10064000A50509009C050800940508008C05080014
:10065000840508007C050800740508006C05070087
:10066000650508005D050700560508004E050700F2
:100670004705070040050800380507003105070059
:100680002A050700230507001C05060016050700BC
:100690000F0507000805060002050700FB04060019
:1006A000F5040700EE040600E8040600E204070073
:1006B000DB040600D5040600CF040600C9040600CA
:1006C000C3040600BD040600B7040600B10405001B
:1006D000AC040600A6040600A00405009B04060066
:1006E00095040500900406008A04050085040500B1
:1006F000800406007A0405007504050070040500F6
:100700006B04050066040500610405005C04050037
:1007100057040500520405004D0405004804050077
:10072000430405003E0404003A04050035040500B6
:10073000300404002C0405002704040023040500F1
:100740001E0404001A040400160405001104040029
:100750000D0404000904050004040400000404005E
:10076000FC030400F8030400F4030400F003040095
:10077000EC030400E8030400E4030400E0030400C5
:10078000DC030400D8030400D4030400D0030400F5
:10079000CC030400C8030300C503030024F404D9F8
:1007A000201BC40C5C0E9804C4095F02650771012C
:1007B000F405F900FB04B30048048700C103690095
:1007C0005803550003034500BE023A00840231007D
:1007D00053022A002902250004022000E4011C0023
:1007E000C8011900AF01170098011400840113001B
:1007F000710110006101100051010E0043010D0054
:1008000036010B002B010B0020010B001501090024
:100810000C01090003010800FB000800F3000800B8
:10082000EB000700E4000600DE000600D80006002A
:10083000D2000600CC000500C7000500C20005007C
:10084000BD000400B9000400B5000400B1000400BC
:10085000AD000400A9000400A5000300A2000300ED
:100860009F0004009B000300980003009500020015
:1008700093000300900003008D0002008B00030032
:10088000880002008600020084000300810002004C
:100890007F0002007D0002007B0002007900020060
:1008A000770001007600020074000200720001006F
:1008B000710002006F0002006D0001006C00020078
:1008C0006A00010069000200670001006600010083
:1008D0006500010064000200620001006100010087
:1008E000600001005F0002005D0001005C0001008B
:1008F0005B0001005A00010059000100580001008E
:10090000570001005600010055000100540001008D
:10091000530000005300010052000100510001008B
:10092000500001004F0001004E0000004E00010089
:100930004D0001004C0001004B0000004B00010085
:100940004A00010049000100480000004800010081
:10095000470001004600000046000100450000007D
:100960004500010044000100430000004300010075
:10097000420000004200010041000000410001006F
:10098000400001003F0000003F0001003E00000069
:100990003E0001003D0000003D0001003C00000061
:1009A0003C0000003C0001003B0000003B00010057
:1009B0003A0000003A00010039000000390001004F
:1009C0003800000038000000380001003700000047
:1009D000370001003600000036000000360001003C
:1009E0003500000035000000350001003400000033
:1009F0003400000034000100330000003300000028
:100A0000330001003200000032000000320001001B
:100A10003100000031000000310001003000000012
:100A200030000000300001002F0000002F00000007
:100A30002F0000002F0001002E0000002E000000FB
:100A40002E0001002D0000002D0000002D000000F0
:100A50002D0001002C0000002C0000002C000000E4
:100A60002C0001002B0000002B0000002B000000D8
:100A70002B0001002A0000002A0000002A000000CC
:100A80002A000100290000002900000029000000C0
:100A900029000000290001002800000028000000B3
:100AA00028000000280000002800010027000000A6
:100AB0002700000027000000270000002700010099
:100AC000260000002600000026000000260000008E
:100AD0002600010025000000250000002500000080
:100AE0002500000025000000250001002400000072
:100AF0002400000024000000240000002400010065
:100B00002300000023000000230000002300000059
:100B10002300000023000000230001002200000049
:100B2000220000002200000022000000220000003D
:100B3000220001002100000021000000210000002F
:100B40002100000021000000210000002100010020
:100B50002000000020000000200000002000000015
:100B60002000000020000000200000002000010004
:100B70001F0000001F0000001F0000001F000000F9
:100B80001F0000001F0000001F0001001E000000E9
:100B90001E0000001E0000001E0000007A5F6D694C
:100BA0006E3A2000795F6D696E3A2000785F6D695A
:100BB0006E3A20005265706F7274696E6720656EC0
:100BC0006473746F70207374617475730A00456E7A
:100BD0006473746F70732025632025632025632060
:100BE000256300205A3A0020593A0020583A0065FF
:100BF0006E6473746F7073206869743A20002044C7
:100C00000020490020204D3330312050005049440D
:100C10002073657474696E67733A0A002046002079
:100C2000420020480020204D3134352053004D61D2
:100C300074657269616C206865617475702070619B
:100C400072616D65746572733A0A00205A0020590A
:100C50000020204D323036205800486F6D65206FDF
:100C600066667365743A0A00204500205A002059D0
:100C70000020580020420020540020204D32303502
:100C8000205300416476616E6365643A20533C6D85
:100C9000696E5F66656564726174653E20543C6D83
:100CA000696E5F74726176656C5F666565647261BA
:100CB00074653E20423C6D696E5F7365676D656E5D
:100CC000745F74696D655F6D733E20583C6D61782B
:100CD0005F78795F6A65726B3E205A3C6D61785F20
:100CE0007A5F6A65726B3E20453C6D61785F655F37
:100CF0006A65726B3E0A0020540020520020204D8D
:100D0000323034205000416363656C6572617469F0
:100D10006F6E2028756E6974732F7332293A2050D4
:100D20003C7072696E745F616363656C3E20523C17
:100D3000726574726163745F616363656C3E2054B5
:100D40003C74726176656C5F616363656C3E0A003A
:100D5000204500205A0020590020204D32303120FB
:100D600058004D6178696D756D20416363656C65F0
:100D7000726174696F6E2028756E6974732F733297
:100D8000293A0A00204500205A0020590020204D11
:100D90003230332058004D6178696D756D2066657D
:100DA000656472617465732028756E6974732F733E
:100DB000293A0A00204500205A0020590020204DE1
:100DC0003932205800537465707320706572207535
:100DD0006E69743A0A0020204D3230302044300AC7
:100DE0000020204D3230302044002044697361627D
:100DF0006C65640A0046696C616D656E742073658C
:100E00007474696E67733A0020204D313439204381
:100E1000203B20556E69747320696E2043656C73A6
:100E20006975730A0A002020473231203B20556E35
:100E300069747320696E206D6D0A0A0048617264DE
:100E4000636F6465642044656661756C74205365E6
:100E50007474696E6773204C6F616465640A004541
:100E60004550524F4D20636865636B73756D206DFF
:100E700069736D617463680A00206279746573290F
:100E80000A002073746F7265642073657474696EF0
:100E90006773207265747269657665642028002026
:100EA0004D61726C696E3D563337290A00284545FD
:100EB00050524F4D3D00454550524F4D2076657282
:100EC00073696F6E206D69736D61746368200020B3
:100ED0006279746573290A0053657474696E677367
:100EE0002053746F7265642028004572726F7220FF
:100EF00077726974696E6720746F20454550524F50
:100F00004D210A006563686F3A004572726F723A4C
:100F1000007C3C3E5E2B3D3F2F5B5D3B2C2A225CE0
:100F20000020746F6F206C6F6E6720657874727527
:100F300073696F6E2070726576656E7465640A0001
:100F400020636F6C6420657874727573696F6E20AE
:100F500070726576656E7465640A00256973002594
:100F6000696D20256973002569682025696D202534
:100F7000697300256964202569682025696D20252D
:100F80006973002569792025696420256968202511
:100F9000696D20256973006D0046696C616D656E31
:100FA0007420757365643A200053746174733A2039
:100FB000002C204C6F6E67657374206A6F623A2054
:100FC00000546F74616C2074696D653A200053742D
:100FD0006174733A20002C204661696C65643A2084
:100FE000002C2046696E69736865643A200050726F
:100FF000696E74733A200053746174733A2000541C
:1010000061726A65746120726574697261646100FD
:101010005461726A65746120636F6C6F63616461AF
:10102000007061726120726573756D69720045733D
:10103000706572616E646F20696D702E0043616D22
:10104000626961722046696C616D656E746F002023
:1010500020426F7175696C6C613A2000457874723A
:101060007569722066696C616D656E746F00457399
:1010700070657261646F20706F720043616D6269A8
:1010800061722046696C616D656E746F002020424C
:101090006F7175696C6C613A2000436172676172AF
:1010A0002066696C616D656E746F00457370657262
:1010B00061646F20706F720043616D6269617220BC
:1010C00046696C616D656E746F002020426F7175AA
:1010D000696C6C613A20007061726120636F6E749C
:1010E000696E7561722E2E2E00792070726573699B
:1010F0006F6E6520656C20626F746F6E00496E7351
:10110000657274652066696C616D656E746F00430D
:10111000616D626961722046696C616D656E746FA4
:10112000002020426F7175696C6C613A2000436148
:101130006C656E746172206C6120626F7175696C90
:101140006C61004F7072696D6120626F746F6E2008
:10115000706172610043616D626961722046696C01
:10116000616D656E746F002020426F7175696C6CE3
:10117000613A200045737065726520706F72206659
:1011800061766F720043616C656E74616E646F208E
:10119000626F7175696C6C610043616D6269617247
:1011A0002046696C616D656E746F002020426F711E
:1011B00075696C6C613A200066696C616D656E746E
:1011C0006F20657870756C7361646F00457370652E
:1011D0007261646F20706F720043616D6269617249
:1011E0002046696C616D656E746F002020426F71DE
:1011F00075696C6C613A200063616D6269617200AF
:1012000064656C2066696C616D656E746F00457312
:10121000706572616E646F20696E696369617200E6
:1012200043616D626961722046696C616D656E74BF
:101230006F0045787472756972206D617300526534
:1012400073756D697220696D702E004F7063696FE0
:101250006E65732064652063616D62696F3A00207A
:1012600020426F7175696C6C613A20004174726143
:10127000730054656D70204D696E696D61206573F2
:10128000203135302E004572726F723A20616C2029
:1012900063616C656E746172004573746164697337
:1012A000746963617320496D702E005465726D69B5
:1012B00073746F72657300496E662E20436F6E748F
:1012C000726F6C61646F7200496E662E20496D709A
:1012D0007265736F7261004D656E75207072696E14
:1012E000636970616C004578747275736F726573B1
:1012F0003A203100687474703A2F2F6D61726C69F6
:101300006E66772E6F726700537465656C4D4D0085
:10131000323031372D30352D31322031323A3030C4
:1013200000312E312E31004D61726C696E004675B0
:10133000656E746520646520706F6465723A20473D
:10134000656E657269630050726F746F636F6C6F66
:101350003A20312E300042617564696F733A203152
:1013600031353230300052414D505320312E34004F
:1013700054656D7065726174757261206D61786914
:101380006D613A203132300054656D706572617460
:10139000757261206D696E696D613A203500544245
:1013A00065643A4550434F53203130304B0054650B
:1013B0006D7065726174757261206D6178696D61BF
:1013C0003A203235300054656D7065726174757203
:1013D00061206D696E696D613A20350054303A20A4
:1013E0004154432031303447542D320000546F743F
:1013F000616C20646520457874727573696F6E3A0C
:101400002000256C642E25696D0000496D707265A1
:1014100073696F6E206D6173206C617267613A2031
:1014200000005469656D706F20746F74616C206486
:101430006520696D702E3A2000436F6D706C657485
:10144000616461733A2000436F6E74656F20646558
:1014500020696D70726573696F6E3A2000052E2EDB
:10146000004D656E75207072696E636970616C0005
:1014700046696C2E204469612E0046696C2E20441A
:1014800069612E004520696E206D6D3300417061E9
:1014900067617200456E63656E64657200436F6ECE
:1014A00074726F6C0045207061736F732F6D6D00E7
:1014B00045207061736F732F6D6D005A20706173DA
:1014C0006F732F6D6D005A207061736F732F6D6D88
:1014D0000059207061736F732F6D6D00592070611A
:1014E000736F732F6D6D0058207061736F732F6D64
:1014F0006D0058207061736F732F6D6D00416365CF
:101500006C2E205669616A65004163656C2E205619
:1015100069616A65004163656C2E20726574726151
:10152000632E004163656C2E207265747261632EB8
:10153000004163656C2E206D617845004163656CE8
:101540002E206D617845004163656C2E206D6178B9
:101550005A004163656C2E206D61785A00416365C5
:101560006C2E206D617859004163656C2E206D6191
:101570007859004163656C2E206D61785800416395
:10158000656C2E206D6178580056656C2E2076694A
:10159000616A65206D696E0056656C2E2076696102
:1015A0006A65206D696E0056656C2E207669616AE9
:1015B00065206D696E00566D696E00566D696E002E
:1015C000566D696E00566D61784500566D617845BF
:1015D00000566D61784500566D61785A00566D6110
:1015E000785A00566D61785A00566D6178590056E8
:1015F0006D61785900566D61785900566D61785863
:1016000000566D61785800566D6178580056652D0A
:101610006A65726B0056652D6A65726B0056652DA2
:101620006A65726B00567A2D6A65726B00567A2D68
:101630006A65726B0056792D6A65726B0056792D5A
:101640006A65726B0056792D6A65726B0056782D4B
:101650006A65726B0056782D6A65726B0056782D3C
:101660006A65726B004163656C65726163696F6E78
:10167000004163656C65726163696F6E00436F6EF4
:1016800074726F6C0047756172646172206D656D74
:101690006F72696100506C617461666F726D610098
:1016A000506C617461666F726D6100426F71756933
:1016B0006C6C6100426F7175696C6C610056656E8F
:1016C00074696C61646F720056656E74696C6164F4
:1016D0006F720054656D706572617475726100504F
:1016E000726563616C656E74617220414253436F31
:1016F0006E6669670050726563616C656E746172D5
:1017000020504C41436F6E666967005049442D4438
:10171000005049442D44005049442D49005049444B
:101720002D49005049442D50005049442D5000206F
:101730000220466163740020022046616374002029
:1017400002204D6178002002204D617800200220A7
:101750004D6178002002204D696E002002204D6905
:101760006E002002204D696E0054656D70657261D7
:1017700074757261204175746F2E004170616761EC
:101780007200456E63656E6465720056656E7469BD
:101790006C61646F720056656E74696C61646F721F
:1017A00000506C617461666F726D6100506C6174A1
:1017B00061666F726D6100426F7175696C6C61007A
:1017C000426F7175696C6C6100436F6E74726F6CFF
:1017D00000526573746175726172206D656D6F7210
:1017E000696100436172676172206D656D6F726936
:1017F000610047756172646172206D656D6F726919
:10180000610046696C616D656E746F004D6F76693D
:101810006D69656E746F0054656D70657261747585
:101820007261004D656E75207072696E63697061DA
:101830006C004578747275736F72004D6F766572C7
:10184000205A004D6F7665722059004D6F76657293
:101850002058005072657061726172004D6F76653C
:101860007220302E316D6D004D6F76657220316DB6
:101870006D004D6F7665722031306D6D004D6F7665
:10188000657220656A6573004578747275736F724E
:10189000004D6F766572205A004D6F766572205943
:1018A000004D6F7665722058004578747275736FBD
:1018B00072004D6F766572205A004D6F766572200A
:1018C00059004D6F76657220580050726563616CE7
:1018D000656E746172204142530050726563616CA1
:1018E000656E74617220504C4100456E667269618C
:1018F000720043616D626961722066696C616D6539
:101900006E746F004D383400417061676172206DF4
:101910006F746F72657300416A75737461722064CD
:101920006573666173657300473238205A004F72E1
:101930006967656E205A004732382059004F726936
:1019400067656E2059004732382058004F7269672A
:10195000656E205800473238004C6C657661722005
:10196000616C206F726967656E004D6F76657220DD
:10197000656A6573004D656E75207072696E636986
:1019800070616C0050726563616C656E7461722089
:10199000414253506C617461666F726D61005072A8
:1019A0006563616C656E7461722041425320456EBF
:1019B000640050726563616C656E746172204142AF
:1019C000530050726570617261720050726563619C
:1019D0006C656E74617220504C41506C617461662C
:1019E0006F726D610050726563616C656E746172D7
:1019F00020504C4120456E640050726563616C65F7
:101A00006E74617220504C41005072657061726159
:101A1000720043616D626961722066696C616D6517
:101A20006E746F004D6963726F7061736F205A003E
:101A30004D6963726F7061736F2059004D696372F5
:101A40006F7061736F205800466C756A6F00466C4A
:101A5000756A6F0056656E74696C61646F720056CA
:101A6000656E74696C61646F7200506C617461665C
:101A70006F726D6100506C617461666F726D6100B0
:101A8000426F7175696C6C6100426F7175696C6C45
:101A9000610056656C6F63696461640056656C6FC4
:101AA0006369646164004D656E75207072696E6370
:101AB0006970616C004D3630300042616279737438
:101AC000657070696E67205A00426162797374654F
:101AD0007070696E67205900426162797374657035
:101AE00070696E672058004D34323800496E662E9A
:101AF00020496D707265736F7261004E6F2068616E
:101B000079207461726A657461205344004D656E7A
:101B10007520646520534400446574656E657220C9
:101B2000696D70726573696F6E005265616E756480
:101B3000617220696D70726573696F6E00506175B6
:101B400073617220696D70726573696F6E00436FA7
:101B50006E74726F6C0050726570617261720041D8
:101B60006A757374617200496E666F726D61636944
:101B70006F6E00496D70726573696F6E2063616E80
:101B800063656C616461004D3234004D3132350063
:101B900025753A2530327500253032753A253032B8
:101BA00075002D2D2D005344005A00590058000196
:101BB0002000012000506F72206661766F722C2029
:101BC0007265696E6963696500494D505245534FAE
:101BD000524120504152414441002D2D2D2D2D2D9B
:101BE000007C4D61726C696E7C002D2D2D2D2D2D8C
:101BF00000687474703A2F2F6D61726C696E66772D
:101C00002E6F726700687474703A2F2F6D61726C5A
:101C1000696E66772E6F72670020312E312E31008B
:101C2000546865726D616C2052756E6177617900E0
:101C30004572726F722064652074656D70657261A3
:101C40007475726100506172616461206465206521
:101C50006D657267656E63696100202D20496E763F
:101C6000616C6964206578747275646572206E7544
:101C70006D62657220210A0048656174696E672093
:101C80006661696C6564004572726F723A20616CBE
:101C90002063616C656E7461720048656174696E81
:101CA00067206661696C6564004572726F723A20E4
:101CB000616C2063616C656E746172004D494E54B5
:101CC000454D50207472696767657265640045729E
:101CD000726F723A2054656D70204D696E20506CA1
:101CE0006174004572726F723A2054656D70204DB8
:101CF000696E696D61004D415854454D50207472B4
:101D000069676765726564004572726F723A205444
:101D1000656D70204D617820506C61740045727261
:101D20006F723A2054656D70204D6178696D610065
:101D30006265640A002C2073797374656D20737476
:101D40006F7070656421204865617465725F4944F5
:101D50003A200023646566696E652020444546414B
:101D6000554C545F4B64200023646566696E6520A2
:101D70002044454641554C545F4B6920002364651F
:101D800066696E65202044454641554C545F4B7052
:101D90002000504944204175746F74756E6520664B
:101DA000696E697368656421205075742074686574
:101DB000206C617374204B702C204B6920616E6421
:101DC000204B6420636F6E7374616E74732066724F
:101DD0006F6D2062656C6F7720696E746F20436F42
:101DE0006E66696775726174696F6E2E680A00505D
:101DF0004944204175746F74756E65206661696C25
:101E00006564212074696D656F75740A00504944DA
:101E1000204175746F74756E65206661696C6564C8
:101E2000212054656D706572617475726520746FE0
:101E30006F20686967680A00204B643A2000204BD5
:101E4000693A2000204B703A20000A20436C6173ED
:101E500073696320504944200A002054753A2000D9
:101E6000204B753A2000206D61783A2000206D6982
:101E70006E3A200020643A200020626961733A20A3
:101E8000001000C90210012C01400122017001184C
:101E900001B0010E01F00104015002FA00B002F09D
:101EA000003003E600D003DC009004D2007005C8C7
:101EB00000A006BE000008B400B009AA00D00BA024
:101EC00000600E960060118C0000158200201978C9
:101ED00000C01D6E00A0226400B0275A00902C5054
:101EE0000000314600E0343C0010383200903A28BF
:101EF00000603C1E00A03D1400803E0A00203F0010
:101F00000070012C0190012701B0012201C0011DC8
:101F100001F00118011002130130020E01600209E4
:101F20000190020401C002FF000003FA004003F523
:101F3000008003F000D003EB002004E6007004E111
:101F400000E004DC004005D700C005D2004006CD0B
:101F500000D006C8008007C3003008BE00F008B9F2
:101F600000C009B400B00AAF00B00BAA00D00CA5A5
:101F700000000EA000500F9B00C010960050129160
:101F80000000148C00C0158700B0178200B0197DC6
:101F900000D01B7800001E730040206E0090226964
:101FA00000F024640040275F0090295A00E02B5580
:101FB00000102E500020304B0010324600E033411C
:101FC0000090353C001037370070383200A0392DB2
:101FD00000B03A2800A03B2300603C1E00103D19D1
:101FE00000903D1400103E0F00703E0A00C03E05F8
:101FF00000003F0000403FFBFF803FF6FFC03FF185
:10200000FF446F6E6520736176696E672066696C48
:10201000652E0A004D3239002020506C616E6E65CD
:102020007242756666657242797465733A20002063
:1020300046726565204D656D6F72793A2000436F79
:102040006D70696C65643A204A756E2020352032C7
:102050003031370A00207C20417574686F723A2055
:10206000284D6F65627975734D616368696E65733C
:102070002C2064656661756C7420636F6E66696799
:10208000290A00323031372D30352D3132203132AE
:102090003A303000204C617374205570646174656F
:1020A000643A2000312E312E310A004D61726C6984
:1020B0006E0020536F667477617265205265736598
:1020C000740A00205761746368646F6720526573F7
:1020D00065740A002042726F776E206F757420520B
:1020E000657365740A002045787465726E616C20B2
:1020F00052657365740A00506F77657255700A00F7
:1021000073746172740A005072696E74657220682B
:10211000616C7465642E206B696C6C282920636186
:102120006C6C6564210A00506172616461206465B1
:1021300020656D657267656E636961004B494C4C43
:1021400020636175736564206279204B494C4C2093
:10215000627574746F6E2F70696E0A0050617261DF
:10216000646120646520656D657267656E63696191
:10217000004B494C4C206361757365642062792083
:10218000746F6F206D75636820696E616374697622
:10219000652074696D65202D2063757272656E749B
:1021A00020636F6D6D616E643A200020746F6F2044
:1021B0006C6F6E6720657874727573696F6E2070CE
:1021C000726576656E7465640A0020636F6C6420C6
:1021D000657874727573696F6E2070726576656E5E
:1021E0007465640A006F6B00526573656E643A2013
:1021F000004E6F2063617365206C696768740A0024
:102200004D36303020486F74656E6420746F6F20D7
:10221000636F6C6420746F206368616E676520660D
:10222000696C616D656E740A0044657366617365FF
:102230002061706C696361646F004572723A20546A
:102240006F6F206661722100546F6F20666172208B
:1022500066726F6D207265666572656E636520706B
:102260006F696E740A0043290A0061626C6564201C
:10227000286D696E2074656D702000436F6C64205A
:1022800065787472756465732061726520002064DE
:102290003A0020693A0020703A00205A0020590084
:1022A000580020204D61783A2000205A0020590023
:1022B000580020204D696E3A2000417061676172BC
:1022C00000456E63656E64657200536F66742065C9
:1022D0006E6473746F70733A200053657474696E22
:1022E000672054726176656C20416363656C65722A
:1022F0006174696F6E3A200053657474696E67206B
:102300005265747261637420416363656C657261C8
:1023100074696F6E3A200053657474696E6720505B
:1023200072696E7420416363656C65726174696F74
:102330006E3A200053657474696E67205072696E3E
:102340007420616E642054726176656C2041636311
:10235000656C65726174696F6E3A20004D31343579
:1023600020533C696E6465783E206F7574206F66FB
:102370002072616E67652028302D31290A00464998
:10238000524D574152455F4E414D453A4D61726C39
:10239000696E20312E312E312028476974687562AC
:1023A0002920534F555243455F434F44455F555293
:1023B0004C3A68747470733A2F2F67697468756249
:1023C0002E636F6D2F4D61726C696E4669726D7709
:1023D0006172652F4D61726C696E2050524F544F7F
:1023E000434F4C5F56455253494F4E3A312E3020A1
:1023F0004D414348494E455F545950453A537465E1
:10240000656C4D4D2045585452554445525F434FDD
:10241000554E543A3120555549443A636564653206
:102420006132662D343161322D343734382D3962C2
:1024300031322D6335356336326633363766660A98
:1024400000537465656C4D4D204170616761722E5B
:1024500000506C617461666F726D612043616C69DC
:10246000656E7465003F0A0020573A0043616C6551
:102470006E74616E646F20506C61742E2E2E00435A
:10248000616C656E74616D69656E746F206C6973E3
:10249000746F003F0A0020573A00452569202573D4
:1024A00000537465656C4D4D206C697374612E002A
:1024B0006F6B004D313133205300506172616461A4
:1024C00020646520656D657267656E6369610045AE
:1024D00043484F00494E464F004552524F52530019
:1024E00044525952554E00434F4D4D554E4943416C
:1024F00054494F4E006F666600CF24D424D924E09F
:1025000024E72444454255473A0045256920257370
:1025100000537465656C4D4D206C697374612E00B9
:1025200050726F7465637465642050696E0A005060
:1025300072696E742074696D653A20004D313235D0
:1025400000456E642066696C65206C6973740A00CE
:10255000426567696E2066696C65206C6973740AF0
:102560000053696E206D6F76696D69656E746F00DA
:10257000537465656C4D4D206C697374612E005207
:102580006573756D69656E646F20696D7072652E17
:10259000004573706572616E646F206F7264656E62
:1025A0006573005265706F736F2E2E2E0047322FA9
:1025B00047332062616420706172616D6574657279
:1025C000730A004163746976652045787472756496
:1025D00065723A20002042403A0020403A00202F05
:1025E0000020423A00202F0020543A0020453A00B3
:1025F000205A3A0020593A00583A005761726E69E1
:102600006E673A20486F6D696E672042756D702065
:1026100044697669736F72203C20310A00627573D9
:10262000793A2070617573656420666F7220696EF7
:102630007075740A00627573793A207061757365FC
:102640006420666F7220757365720A006275737913
:102650003A2070726F63657373696E670A00556E16
:102660006B6E6F776E20636F6D6D616E643A2022C2
:102670000020496E76616C696420657874727564B7
:102680006572200053442072656164206572726F28
:10269000720A00446F6E65207072696E74696E67AD
:1026A0002066696C650A005061726164612064652E
:1026B00020656D657267656E636961004465746568
:1026C0006E696461005072696E7465722073746F14
:1026D000707065642064756520746F206572726F18
:1026E00072732E2046697820746865206572726F57
:1026F0007220616E6420757365204D3939392074FC
:102700006F20726573746172742E202854656D7029
:102710006572617475726520697320726573657482
:102720002E2053657420697420616674657220726E
:10273000657374617274696E67290A004E6F204C6C
:10274000696E65204E756D626572207769746820C8
:10275000636865636B73756D2C204C617374204CDA
:10276000696E653A20004E6F20436865636B737530
:102770006D2077697468206C696E65206E756D6276
:1027800065722C204C617374204C696E653A200090
:10279000636865636B73756D206D69736D617463D8
:1027A000682C204C617374204C696E653A20004C93
:1027B000696E65204E756D626572206973206E6F5B
:1027C00074204C617374204C696E65204E756D6287
:1027D00065722B312C204C617374204C696E653A04
:1027E00020004D31313000656E7175657565696E1B
:1027F00067202200FFFFFF00004040000040400033
:10280000000040000066430000534300004D4300B9
:1028100000C8C10000C0C00000000000004D43001F
:10282000004D4300004D430000C8C10000C0C0007F
:102830000000004D33310043616E6E6F7420656E91
:10284000746572207375626469723A2000617574F0
:102850006F25692E67006572726F722077726974D6
:10286000696E6720746F2066696C650A004E6F742C
:10287000205344207072696E74696E670A00534475
:10288000207072696E74696E6720627974652000C9
:1028900044656C6574696F6E206661696C65642C53
:1028A0002046696C653A200046696C652064656C59
:1028B000657465643A006F70656E206661696C6569
:1028C000642C2046696C653A200057726974696E01
:1028D0006720746F2066696C653A20006F70656EC2
:1028E000206661696C65642C2046696C653A20003D
:1028F0006F70656E206661696C65642C2046696C3A
:10290000653A200046696C652073656C6563746583
:10291000640A002053697A653A200046696C652094
:102920006F70656E65643A20006F70656E20666139
:10293000696C65642C2046696C653A2000206669E4
:102940006C653A20004E6F7720002220706F730074
:102950002220706172656E743A2200535542524FC4
:102960005554494E452043414C4C20746172676573
:10297000743A220050617261646120646520656D63
:10298000657267656E63696100747279696E67204C
:10299000746F2063616C6C207375622D67636F6464
:1029A000652066696C6573207769746820746F6F41
:1029B000206D616E79206C6576656C732E204D41BB
:1029C00058206C6576656C2069733A004D3234008E
:1029D0004D32332025730053442063617264206FAD
:1029E0006B0A006F70656E526F6F74206661696C60
:1029F00065640A00766F6C756D652E696E6974206A
:102A00006661696C65640A00534420696E697420CC
:102A10006661696C0A0043616E6E6F74206F706549
:102A20006E207375626469722000000021104220DC
:102A300063308440A550C660E770088129914AA19F
:102A40006BB18CC1ADD1CEE1EFF131121002733216
:102A50005222B5529442F772D662399318837BB3EF
:102A60005AA3BDD39CC3FFF3DEE3622443342004A6
:102A70000114E664C774A44485546AA54BB528853F
:102A80000995EEE5CFF5ACC58DD5533672261116F6
:102A90003006D776F6669556B4465BB77AA719978F
:102AA0003887DFF7FEE79DD7BCC7C448E55886687E
:102AB000A7784008611802282338CCC9EDD98EE9DF
:102AC000AFF9488969990AA92BB9F55AD44AB77A56
:102AD000966A711A500A333A122AFDDBDCCBBFFB2F
:102AE0009EEB799B588B3BBB1AABA66C877CE44C66
:102AF000C55C222C033C600C411CAEED8FFDECCD7F
:102B0000CDDD2AAD0BBD688D499D977EB66ED55E35
:102B1000F44E133E322E511E700E9FFFBEEFDDDFCE
:102B2000FCCF1BBF3AAF599F788F8891A981CAB15A
:102B3000EBA10CD12DC14EF16FE18010A100C2308C
:102B4000E3200450254046706760B9839893FBA347
:102B5000DAB33DC31CD37FE35EF3B1029012F322DC
:102B6000D2323542145277625672EAB5CBA5A89597
:102B700089856EF54FE52CD50DC5E234C324A0142C
:102B800081046674476424540544DBA7FAB7998727
:102B9000B8975FE77EF71DC73CD7D326F23691067C
:102BA000B01657667676154634564CD96DC90EF96F
:102BB0002FE9C899E9898AB9ABA9445865480678CC
:102BC0002768C018E1088238A3287DCB5CDB3FEB87
:102BD0001EFBF98BD89BBBAB9ABB754A545A376A1C
:102BE000167AF10AD01AB32A923A2EFD0FED6CDD57
:102BF0004DCDAABD8BADE89DC98D267C076C645C6C
:102C0000454CA23C832CE01CC10C1FEF3EFF5DCF66
:102C10007CDF9BAFBABFD98FF89F176E367E554EBB
:102C2000745E932EB23ED10EF01E0200000A0B021B
:102C3000090C0D0E0807030401000000000000004D
:102C40000000000000000000000000000000000084
:102C50000000000000000012111000000000000041
:102C60000000000000000000000000000000000064
:102C7000000102102020080810204010204080028F
:102C800001020108040201010204081020408080B2
:102C90004020100804020180040201804020100836
:102CA000040201080402010102040810204080010E
:102CB00002040810204080050505050705080808DE
:102CC00008020202020A0A080804040404010101BD
:102CD00001010101010303030303030303040707C5
:102CE000070C0C0C0C0C0C0C0C0202020206060663
:102CF00006060606060B0B0B0B0B0B0B0B0000203E
:102D0000002300260029002C002F003200000100C3
:102D10000003010601090100002200250028002B04
:102D2000002E003100340002010000050108010BF3
:102D30000100002100240027002A002D003000336C
:102D40000001010000040107010A014E414E494EF5
:102D5000495459494E46CDCCCC3D0AD7233C17B7F0
:102D6000D13877CC2B329595E6241FB14F0A00005D
:102D700020410000C84200401C4620BCBE4CCA1B7B
:102D80000E5AAEC59D74F14C465D5EC878C81124DC
:102D90001FBECFEFD1E2DEBFCDBF00E00CBF14E01D
:102DA000A0E0B2E0E6E4FFEE01E00BBF02C0079056
:102DB0000D92A237B107D9F723E1A2E7B4E001C031
:102DC0001D92AC3CB207E1F716E1C6ECD6E100E09B
:102DD00006C021970109802FFE010E9476EFC33CB7
:102DE000D10780E00807A9F70E94B7E10C9491F79A
:102DF0000C9400009091F5058091F405981731F03E
:102E00008091F4058F5F8F708093F4050895EFE64D
:102E1000F0E080818260808308958091B20480FF19
:102E200005C089988FEF8093010204C0899A81E0E0
:102E3000809301028091B20481FF05C08F9A8FEFC9
:102E40008093020204C08F9881E0809302028091F7
:102E5000B2049FB782FF0BC0F89480910B018D7F65
:102E600080930B019FBF8FEF809303020AC0F894F9
:102E700080910B01826080930B019FBF81E0809362
:102E800003028091B20483FF05C016988FEF8093F0
:102E900004020895169A81E0809304020895BF9277
:102EA000CF92DF92EF92FF920F931F93CF93DF9316
:102EB00000D01F92CDB7DEB780916E008B7F8093DC
:102EC0006E0080916F008D7F80936F007894809169
:102ED000B0049091B104009771F001979093B10400
:102EE0008093B0041092B4041092B3040E94FA16B6
:102EF00088EC90E0C9C1E091B304F091B40430973C
:102F000009F0CDC19091F5058091F405981751F124
:102F1000E091F4050DE4E09FF0011124EA50FA4F2E
:102F2000C0904E05D0904F05E0905005F0905105AF
:102F30009F01275B3F4FD9014D915D916D917C9130
:102F4000D701C601841B950BA60BB70B80934E05CA
:102F500090934F05A0935005B093510580818860F0
:102F600080830BC08FB7F89410924E0510924F05D6
:102F700010925005109251058FBFF093B404E09366
:102F8000B304309709F47EC152A18091B20441810B
:102F900058130AC0242F30E080910002082E000C44
:102FA000990B2817390731F05093B204409300026F
:102FB0000E940D171092940410929504109296049A
:102FC00010929704E091B304F091B40487A990ADF6
:102FD0008134BCE99B0728F48132EEE49E0758F067
:102FE00002C080E49CE9969587959695879524E0A4
:102FF0002093810412C08131F7E29F0730F096954B
:10300000879522E02093810408C021E02093810469
:103010008032910510F480E290E07C0100E2E01A39
:10302000F108E11418E0F106F0F0EF2DFF27EE0FA4
:10303000FF1FEE0FFF1FCF018456984FFC01329601
:10304000459154916E2DAA27659F9001649F210D93
:103050003A1F06942A1F3A1F1124FC01859194916E
:10306000821B930B1EC09701369527952C7F245603
:103070003C4FF90185919491F901329665917491D3
:10308000A70147705527649F9001659F300D749F7D
:10309000300D112453E0369527955A95E1F7821BA0
:1030A000930B8436910588F405E413E0D8018D91E3
:1030B0008D01882319F00E94B222F8CF6AE070E0F7
:1030C000C7010E94652384E690E090937F0480937B
:1030D0007E048091810480938004E091B304F09198
:1030E000B40483AD94AD90938304809382048134BF
:1030F000BCE99B0728F48132EEE49E0758F002C039
:1031000080E49CE9969587959695879524E0209391
:10311000810412C08131F7E29F0730F096958795C0
:1031200022E02093810408C021E0209381048032B2
:10313000910510F480E290E07C0100E2E01AF108D1
:10314000E11418E0F106F0F0EF2DFF27EE0FFF1F5E
:10315000EE0FFF1FCF018456984FFC013296459128
:1031600054916E2DAA27659F9001649F210D3A1FEF
:1031700006942A1F3A1F1124FC0185919491821B09
:10318000930B1EC09701369527952C7F24563C4FF4
:10319000F90185919491F901329665917491A70195
:1031A00047705527649F9001659F300D749F300DC7
:1031B0001124B3E036952795BA95E1F7821B930B5E
:1031C0008436910588F405E413E0D8018D918D01D2
:1031D000882319F00E94B222F8CF6AE070E0C7019C
:1031E0000E94652384E690E0AC0160E070E04093CB
:1031F00098045093990460939A0470939B0490935D
:10320000890080938800E091B304F091B40482892E
:103210009389A489B589B695A79597958795B09513
:10322000A095909581959F4FAF4FBF4F8093A0047D
:103230009093A104A093A204B093A3048093A40448
:103240009093A504A093A604B093A7048093A80428
:103250009093A904A093AA04B093AB048093AC0408
:103260009093AD04A093AE04B093AF0410929C046D
:1032700010929D0410929E0410929F0482E080930D
:103280007F110DC080ED97E09093890080938800B6
:10329000F8948091B50B882309F4E0C3D9C38091D9
:1032A0007F11882321F0809105028111EFC32091C5
:1032B0008104222309F4AFC1E091B304F091B40476
:1032C0004091AC045091AD046091AE047091AF0494
:1032D00082819381A481B581840F951FA61FB71F9A
:1032E0008093AC049093AD04A093AE04B093AF046C
:1032F000181619061A061B060CF4889AE091B304F6
:10330000F091B4044091A8045091A9046091AA04DA
:103310007091AB0486819781A085B185840F951F3C
:10332000A61FB71F8093A8049093A904A093AA0492
:10333000B093AB04181619061A061B060CF48E9AE5
:10334000E091B304F091B4044091A4045091A50419
:103350006091A6047091A70482859385A485B585A4
:10336000840F951FA61FB71F8093A4049093A504F4
:10337000A093A604B093A704181619061A061B06F4
:1033800044F49FB7F89480910B01886080930B01FF
:103390009FBFE091B304F091B4044091A004509118
:1033A000A1046091A2047091A30486859785A089E9
:1033B000B189840F951FA61FB71F8093A004909317
:1033C000A104A093A204B093A304181619061A0628
:1033D0001B060CF4149A8091AC049091AD04A0915A
:1033E000AE04B091AF04181619061A061B0684F530
:1033F000E091B304F091B4044289538964897589DA
:10340000841B950BA60BB70B8093AC049093AD0473
:10341000A093AE04B093AF04809101024091840464
:10342000509185046091860470918704082E000CE9
:10343000990BAA0BBB0B840F951FA61FB71F809378
:10344000840490938504A0938604B093870488989D
:103450008091A8049091A904A091AA04B091AB0412
:10346000181619061A061B0684F5E091B304F091AC
:10347000B4044289538964897589841B950BA60B12
:10348000B70B8093A8049093A904A093AA04B093C7
:10349000AB048091020240918804509189046091AC
:1034A0008A0470918B04082E000C990BAA0BBB0B9D
:1034B000840F951FA61FB71F8093880490938904DB
:1034C000A0938A04B0938B048E988091A404909169
:1034D000A504A091A604B091A704181619061A060F
:1034E0001B06BCF5E091B304F091B4044289538902
:1034F00064897589841B950BA60BB70B8093A40474
:103500009093A504A093A604B093A704809103020E
:1035100040918C0450918D0460918E0470918F04C1
:10352000082E000C990BAA0BBB0B840F951FA61F2E
:10353000B71F80938C0490938D04A0938E04B09356
:103540008F049FB7F89480910B01877F80930B01C4
:103550009FBF8091A0049091A104A091A204B0917A
:10356000A304181619061A061B0684F5E091B30485
:10357000F091B4044289538964897589841B950B41
:10358000A60BB70B8093A0049093A104A093A20470
:10359000B093A3048091040240919004509191044F
:1035A0006091920470919304082E000C990BAA0B61
:1035B000BB0B840F951FA61FB71F80939004909399
:1035C0009104A0939204B0939304149880919C0466
:1035D00090919D04A0919E04B0919F040196A11D1D
:1035E000B11D80939C0490939D04A0939E04B0937E
:1035F0009F042150E091B304F091B40442895389AF
:103600006489758984179507A607B70708F451CE12
:10361000BB24B39401C0B12C40919C0450919D04F3
:1036200060919E0470919F04E090B304F090B40404
:10363000F70186899789A08DB18D84179507A60714
:10364000B70708F4E2C04091980450919904609142
:103650009A0470919B04068D178D20A131A1AA2791
:10366000419FB12D529FC001629F900D619F800DBF
:10367000911D429FB00D811D9A1F519FB00D811D5C
:103680009A1F609FB00D811D9A1F509FB10D8A1F18
:103690009A1FB6958A1F9A1F349F800D911D359FE2
:1036A000900D112423AD34AD820F931F90938304AA
:1036B0008093820447A950AD61AD72ADA0E0B0E047
:1036C000481759076A077B0720F4509383044093F7
:1036D000820480918204909183048134BCE99B0729
:1036E00028F48132EEE49E0758F002C080E49CE9A1
:1036F000969587959695879524E02093810412C02E
:103700008131F7E29F0730F09695879522E020936C
:10371000810408C021E0209381048032910510F4D7
:1037200080E290E08C0100521109011528E0120797
:10373000E8F0E12FFF27EE0FFF1FEE0FFF1FCF0175
:103740008456984FFC01329645915491AA27059FC3
:103750009001049F210D3A1F06942A1F3A1F11243D
:10376000FC0185919491821B930B1EC098013695A4
:1037700027952C7F24563C4FF90185919491F901AE
:10378000329665917491A80147705527649F900106
:10379000659F300D749F300D112443E036952795B9
:1037A0004A95E1F7821B930B8436910598F485E4E2
:1037B000E82E83E0F82ED7018D917D01882319F042
:1037C0000E94B222F8CF6AE070E0C8010E9465232F
:1037D00084E690E09093890080938800409198045B
:1037E0005091990460919A0470919B048A019B0105
:1037F000080F191F211D311D00939804109399047F
:1038000020939A0430939B0401C140919C045091F1
:103810009D0460919E0470919F04F701828D938DA9
:10382000A48DB58D84179507A607B70708F0E2C0E9
:10383000409194045091950460919604709197047E
:10384000068D178D20A131A1AA27419FB12D529F2E
:103850006001629FD00C619FC00CD11C429FB00DD3
:10386000C11CDA1E519FB00DC11CDA1E609FB00D45
:10387000C11CDA1E509FB10DCA1EDA1EB695CA1EB3
:10388000DA1E349FC00CD11C359FD00C11248091BE
:10389000820490918304FF96C816D90680F48C198F
:1038A0009D0940815181628173816C01E12CF12C71
:1038B000C416D506E606F70620F4CA0102C08081C8
:1038C00091818134BCE99B0728F48132EEE49E07A4
:1038D00058F002C080E49CE9969587959695879567
:1038E00024E02093810412C08131F7E29F0730F079
:1038F0009695879522E02093810408C021E02093CB
:1039000081048032910510F480E290E08C01005235
:103910001109011528E01207E8F0E12FFF27EE0F4B
:10392000FF1FEE0FFF1FCF018456984FFC01329608
:1039300045915491AA27059F9001049F210D3A1F9C
:1039400006942A1F3A1F1124FC0185919491821B31
:10395000930B1FC0C801969587958C7F84569C4F0A
:10396000FC0145915491FC01329665917491C80116
:1039700087709927689F9001699F300D789F300D5F
:10398000112463E0369527956A95E1F7CA01821BF9
:10399000930B8436910598F485E4E82E83E0F82EA5
:1039A000D7018D917D01882319F00E94B222F8CFB2
:1039B0006AE070E0C8010E94652384E690E090937D
:1039C00089008093880040919404509195046091FF
:1039D0009604709197048A019B01080F191F211DFD
:1039E000311D009394041093950420939604309312
:1039F00097040CC080917E0490917F04909389007D
:103A000080938800809180048093810420918800B5
:103A1000309189008091840090918500409628170C
:103A2000390748F4809184009091850040969093E6
:103A3000890080938800BB2031F01092B40410926A
:103A4000B3040E94FA16F8948091B50B882331F0E4
:103A500080916E008B7F80936E0005C080916E0018
:103A6000846080936E0080916F00826080936F000D
:103A70000F900F900F900F90DF91CF911F910F91AA
:103A8000FF90EF90DF90CF90BF9008950E94832128
:103A900080917F11815080937F1109CC1F920F92EA
:103AA0000FB60F9211240BB60F922F933F934F93A3
:103AB0005F936F937F938F939F93AF93BF93EF9396
:103AC000FF930E944F17FF91EF91BF91AF919F918C
:103AD0008F917F916F915F914F913F912F910F90B7
:103AE0000BBE0F900FBE0F901F9018950F931F9352
:103AF000CF93DF93819A879A0AE011E0D8018C91E5
:103B000082608C930E9A3B9A579A5F9A829A8A9A0D
:103B1000E7E0F1E08081816080839FB7F894C8E09E
:103B2000D1E08881816088839FBF0A9A129A3F9A68
:103B3000479A89EB94E00E946020809A88985F9A67
:103B4000EBECFEE01082869A8E988A9A1182D80158
:103B50008C9188608C939FB7F894ABE0B1E08C9126
:103B6000877F8C939FBF9FB7F894888181608883FB
:103B70009FBF12820C9A1498129A399A4198A0E821
:103B8000B0E08C918C7F8C93E1E8F0E08081877EBF
:103B9000886080838C918F738C938081887F826012
:103BA000808380E090E49093890080938800109255
:103BB000850010928400EFE6F0E0808182608083CF
:103BC00081E0809305027894DF91CF911F910F914E
:103BD0000C940D179091F5058091F405981721F03C
:103BE00080E00E9499B5F6CF0895CF92DF92EF92D0
:103BF000FF920F931F93CF93DF936C017B018A0198
:103C0000E9010E94EA1D9FB7F894D6014D915D919C
:103C10006D917C91E4E8F4E0408351836283738387
:103C2000D7014D915D916D917C914483558366835D
:103C30007783D8014D915D916D917C91408751873B
:103C400062877387488159816A817B814487558760
:103C5000668777879FBFDF91CF911F910F91FF906C
:103C6000EF90DF90CF900895FC019FB7F8940190FA
:103C7000F081E02DDB014D915D916D917C91EE0F16
:103C8000FF1FEE0FFF1FEC57FB4F408351836283F2
:103C900073839FBF08952FB7F894FC01EE0FFF1FA9
:103CA000EE0FFF1FEC57FB4F608171818281938182
:103CB0002FBF0895CF93DF93EC010E944B1E0E940B
:103CC00075ECCC0FDD1FCC0FDD1FCC53DA4F2881F4
:103CD00039814A815B810E9423EEDF91CF91089563
:103CE0000E94EA1D0C9459B288E893E19093B104C4
:103CF0008093B00480916F008D7F80936F009091CE
:103D0000F5058091F405981719F00E94FA16F7CF7F
:103D10001092B4041092B30480916F00826080937B
:103D20006F008FB7F89410924E0510924F051092C5
:103D30005005109251058FBF0895880F991F880F65
:103D4000991FFC01EC57FB4F4081518162817381C7
:103D5000FC01EE58FB4F4083518362837383E091F3
:103D6000B304F091B40482899389A489B5898093BE
:103D70009C0490939D04A0939E04B0939F04089587
:103D80004F925F926F927F928F929F92AF92BF926B
:103D9000CF92DF92EF92FF92CF93DF938FB7F89499
:103DA000409084045090850460908604709087044D
:103DB0008090880490908904A0908A04B0908B042D
:103DC000C0908C04D0908D04E0908E04F0908F040D
:103DD0008FBFE2E9F3E08491EF012196882321F07F
:103DE0000E94B222FE01F7CF4AE050E0C301B201C7
:103DF0000E944323EEE8F3E08491EF0121968823AB
:103E000021F00E94B222FE01F7CF4AE050E0C50146
:103E1000B4010E944323EAE8F3E08491EF01219684
:103E2000882321F00E94B222FE01F7CF4AE050E041
:103E3000C701B6010E9443238AE0DF91CF91FF9032
:103E4000EF90DF90CF90BF90AF909F908F907F903A
:103E50006F905F904F900C94B222CF93F894813082
:103E60009105D1F08230910551F1892B09F06AC09A
:103E7000CFB1C2705F98662311F0899A01C089980A
:103E8000889A84E090E00E94DCE68898CC2311F0C8
:103E9000899A58C0899856C0CFB18A98611102C0DA
:103EA0008F9A01C08F988E9A84E090E00E94DCE6A1
:103EB0008E98C7FF02C08F9A45C08F9843C0C091AB
:103EC0000901C2709FB7F894809108018E7F80939A
:103ED00008019FBF9FB7662341F0F89480910B01C2
:103EE000826080930B019FBF07C0F89480910B0103
:103EF0008D7F80930B019FBF9FB7F89480910B013A
:103F0000886080930B019FBF84E090E00E94DCE614
:103F10009FB7F89480910B01877F80930B019FBF1F
:103F20009FB7CC2341F0F89480910B01826080937D
:103F30000B019FBF07C0F89480910B018D7F809388
:103F40000B019FBF7894CF91089598E288E10FB656
:103F5000F894A895809360000FBE90936000089538
:103F6000FC01118210821682178210861186128639
:103F70001386148615861282138214821582089580
:103F8000CF93DF93FC012081318121503109223010
:103F9000310510F080E00AC0EC01118210820E940D
:103FA0006FE66A877B878C879D8781E0DF91CF9161
:103FB0000895CF93DF93FC012081318121303105B9
:103FC00069F4EC0182E090E0918380830E946FE6C7
:103FD0006A877B878C879D8781E001C080E0DF91C5
:103FE000CF910895FC0181E020813181213031059C
:103FF00009F080E00895FC0181E0208131812230C8
:10400000310509F080E008950F931F93CF93DF935C
:10401000EC0188819981019719F40E946FE604C030
:104020006A857B858C859D850E811F8128853985D4
:10403000601B710B820B930B28EE33E040E050E0E5
:104040000E9435EF8A819B81AC81BD81BC01CD018D
:10405000620F731F841F951FDF91CF911F910F91E6
:104060000895CF93DF93FC01208131812130310508
:1040700019F1EC012230310539F40E9404206A83E1
:104080007B838C839D830CC01682178210861186D9
:104090001286138614861586128213821482158264
:1040A00081E090E0998388830E946FE66E837F832E
:1040B0008887998781E001C080E0DF91CF910895E2
:1040C0006D98759AE4E0F1E080818D7F80839FB7E1
:1040D000F894E5E0F1E08081826080839FBF53988F
:1040E0005B9A08951F93CF93DF938091B704882341
:1040F00009F4A3C0E4E0FFE08491EF012196882356
:1041000021F00E94B222FE01F7CFEFEEFBE0849196
:10411000EF012196882321F00E94B222FE01F7CF01
:104120008091B70480FD35C08091B70484FD31C013
:10413000D0E28091B70481FD48C08091B70485FD2D
:1041400044C010E28091B70482FD5BC08091B70447
:1041500086FD57C0C0E28AE00E94B2221F9280E230
:104160008F931F92CF931F921F931F92DF938EEC1A
:104170009BE09F938F931F920E94C15A1092B704A5
:104180008DB79EB70B960FB6F8949EBF0FBE8DBF2E
:1041900054C0609172047091730480917404909182
:1041A00075040E9475EC2091C4053091C5054091BD
:1041B000C6055091C7050E9423EEAB01BC018BEEF2
:1041C0009BE00E946D30D8E5B4CF60917604709189
:1041D000770480917804909179040E9475EC209185
:1041E000C8053091C9054091CA055091CB050E9480
:1041F00023EEAB01BC0187EE9BE00E946D3019E518
:10420000A1CF60917A0470917B0480917C0490919D
:104210007D040E9475EC2091CC053091CD05409134
:10422000CE055091CF050E9423EEAB01BC0183EE79
:104230009BE00E946D30CAE58ECFDF91CF911F9138
:104240000895CF93DF93E4EBFBE08491EF01219697
:10425000882321F00E94B222FE01F7CFECEAFBE0B6
:104260008491EF012196882321F00E94B222FE0161
:10427000F7CF659903C0C3E6D3E002C0C9E5D3E038
:104280008991882319F00E94B222FACF8AE00E9415
:10429000B222E4EAFBE08491EF012196882321F029
:1042A0000E94B222FE01F7CF8091030181FD03C07D
:1042B000C3E6D3E002C0C9E5D3E08991882319F0B1
:1042C0000E94B222FACF8AE00E94B222ECE9FBE01F
:1042D0008491EF012196882321F00E94B222FE01F1
:1042E000F7CF4B9903C0C3E6D3E002C0C9E5D3E0E2
:1042F0008991882319F00E94B222FACF8AE0DF91D7
:10430000CF910C94B2220F931F93CF93DF93E09140
:10431000B304F091B4044281538164817581141611
:10432000150616061706E4F42091B20420FF18C003
:104330003CB12091B60435FB882780F92E7F822B73
:104340008093B6049091B5049170892349F08091CF
:10435000B70481608093B70480E090E00E949D1EC6
:10436000E091B304F091B40486819781A085B18572
:10437000181619061A061B0644F58091B20481FF2F
:1043800024C0809103012091B604422F50E081FBAC
:10439000002700F910E022273327201B310B2427A8
:1043A000352722703327242735272093B6048091A0
:1043B000B5048270282349F08091B704826080930D
:1043C000B70481E090E00E949D1EE091B304F0915B
:1043D000B40482859385A485B585181619061A0636
:1043E0001B064CF58091B20482FF25C099B18091E3
:1043F000B604282F30E093FB992790F9C92F80E06D
:10440000D82F882799278C1B9D0B82279327847090
:104410009927822793278093B6049091B5049470CE
:10442000892349F08091B70484608093B70482E0C7
:1044300090E00E949D1E8091B6048093B504DF91A8
:10444000CF911F910F9108951F920F920FB60F9267
:1044500011240BB60F922F933F938F939F93EF935B
:10446000FF932091C6009FB7F894E0913A0581E050
:104470008E0F8F7730913B05831731F0F0E0E654D3
:10448000FB4F208380933A059FBFFF91EF919F914F
:104490008F913F912F910F900BBE0F900FBE0F90F9
:1044A0001F9018959B01AC01211581EE380741053D
:1044B000510549F182E08093C00060E079E08DE32E
:1044C00090E00E9457EFCA01B9016150710981095A
:1044D000910922E030E040E050E00E9457EF309335
:1044E000C5002093C4008091C10080618093C10009
:1044F0008091C10088608093C1008091C100806874
:104500008093C10008951092C00020E130E0E7CF11
:104510008FB7F89490913B0520913A05291759F0EF
:10452000E92FF0E0E654FB4F208130E09F5F9F775A
:1045300090933B0502C02FEF3FEF8FBFC901089555
:104540002FB7F89480913A0590913B052FBF891BB6
:104550008F7708958FB7F89490913B0590933A0523
:104560008FBF08959091C00095FFFCCF8093C60047
:1045700008958DE00E94B2228AE00C94B2228F92BC
:104580009F92AF92BF92EF92FF921F93CF93DF93D0
:10459000CDB7DEB7A0970FB6F894DEBF0FBECDBF84
:1045A000611571058105910581F110E0842E912C32
:1045B000A12CB12CEE24E394F12CEC0EFD1EE10EA7
:1045C000F11C17FDFA94A50194010E9435EFF70143
:1045D0006083B901CA011F5F6115710581059105ED
:1045E00049F7115020F1E1E0F0E0EC0FFD1FE10F81
:1045F000F11D17FDFA9580818A3010F097E301C014
:1046000090E3890F0E94B222ECCF80E3A0960FB610
:10461000F894DEBF0FBECDBFDF91CF911F91FF9009
:10462000EF90BF90AF909F908F900C94B222A09685
:104630000FB6F894DEBF0FBECDBFDF91CF911F91B3
:10464000FF90EF90BF90AF909F908F900895CF9282
:10465000DF92EF92FF926B017C0197FF0BC08DE21E
:104660000E94B222F094E094D094C094C11CD11C5A
:10467000E11CF11C4AE0C701B601FF90EF90DF900A
:10468000CF900C94BF224115510519F4862F0C943C
:10469000B2224A30510511F40C9427230C94BF2206
:1046A000AB01BC01990F880B990B0C944323411566
:1046B000510519F4862F0C94B2220C94BF22AB0141
:1046C000BC0180E090E00C945723AB01BC0180E07A
:1046D00090E00E9457230C94B9228F929F92AF9240
:1046E000BF92CF92DF92EF92FF92CF936B017C014A
:1046F000B42E20E030E0A9010E94C1EB87FF07C083
:104700008DE20E94B222F7FAF094F7F8F094C0E03C
:1047100060E070E080E09FE3CB1541F02DEC3CECD5
:104720004CEC5DE30E9423EECF5FF6CF9B01AC0122
:10473000C701B6010E94CCEA6B017C010E9444ECE7
:104740004B015C014AE00E94BF22CC2389F1C501E4
:10475000B4010E9473EC9B01AC01C701B6010E9439
:10476000CBEA6B017C018EE20E94B22220E030E0B5
:1047700040E251E4C701B6010E9423EE4B015C0107
:104780000E943DEC6B01770FEE08FF08C701B601F0
:104790000E942723C701B6010E9475EC9B01AC0162
:1047A000C501B4010E94CBEA6B017C01C150F1F656
:1047B000CF91FF90EF90DF90CF90BF90AF909F9000
:1047C0008F9008950C946D230E941F4C0E94894C79
:1047D0000E94688F0E94C0B080E090E00E944E9FCF
:1047E00081E090E00E944E9F82E090E00C944E9F0A
:1047F000AF92BF92DF92EF92FF920F931F93CF93EE
:10480000DF9320913D05211146C08A017C01EB0117
:10481000060F171FC017D10709F43DC0F701A0808C
:10482000B180D990C5010E9459F7D81619F16D2DA4
:10483000C5010E9483F7C5010E9459F78D15D1F07B
:10484000E4E0FFE08491EF012196882321F00E94AB
:10485000B222FE01F7CFEAEEFEE08491EF0121964D
:10486000882321F00E94B222FE01F7CF81E08093DD
:104870003D0511C080913E0590913F058D0D911D24
:1048800090933F0580933E05F701808191810196C9
:1048900091838083BFCFDF91CF911F910F91FF90C4
:1048A000EF90DF90BF90AF900895EF92FF920F933B
:1048B0001F93CF93DF937C01EB018B01040F151F36
:1048C000F701808191810E9459F790913C059111E7
:1048D00001C0888320913E0530913F05A901480F12
:1048E000511D50933F0540933E05F7018081918112
:1048F0000196918380832196C017D10709F7DF9134
:10490000CF911F910F91FF90EF9008958F929F92FA
:10491000AF92BF92CF92DF92EF92FF920F931F93CD
:10492000CF93DF93CDB7DEB7AA970FB6F894DEBF6B
:104930000FBECDBF1D8A1E8A1F8A188E80E390E3AA
:10494000A0E3B0E0898B9A8BAB8BBC8B84E690E0C4
:104950009AA389A310923D0544E050E0BE016F5E2A
:104960007F4FCE0181960E94F82389A19AA10296D9
:104970009AA389A310923F0510923E0581E08AA771
:1049800041E050E0BE01665D7F4FCE0181960E94FE
:10499000F82340E150E064ED75E0CE0181960E947D
:1049A000F82340E150E064EE75E0CE0181960E946C
:1049B000F82340E150E064EA75E0CE0181960E9460
:1049C000F82344E050E068E975E0CE0181960E944A
:1049D000F82344E050E064E975E0CE0181960E943E
:1049E000F82344E050E060E975E0CE0181960E9432
:1049F000F82344E050E06CE975E0CE0181960E9416
:104A0000F82344E050E06CE775E0CE0181960E9407
:104A1000F82344E050E060EA75E0CE0181960E9400
:104A2000F82340E150E060E875E0CE0181960E94F5
:104A3000F8234CE050E065E17DE0CE0181960E94D4
:104A4000F82380E090E0A0E2B1E48D879E87AF87F5
:104A5000B88B44E050E0BE01635F7F4FCE0181968A
:104A60000E94F82319A61D8A1E8A1F8A188E83E0C9
:104A700088A78FA341E050E0BE01675D7F4FCE0164
:104A800081960E94F82344E050E0BE016B5E7F4FA8
:104A9000CE0181960E94F82341E050E0BE01685D9E
:104AA0007F4FCE0181960E94F82341E050E0BE0185
:104AB000695D7F4FCE0181960E94F8231AE0115064
:104AC00051F044E050E0BE016B5E7F4FCE01819615
:104AD0000E94F823F4CF19861A861B861C8644E0B0
:104AE00050E0BE01675F7F4FCE0181960E94F823A0
:104AF0001D8A1E8A1F8A188E1AE0115051F044E058
:104B000050E0BE016B5E7F4FCE0181960E94F8237C
:104B1000F4CF83E08EA38DA31D821E821F82188690
:104B200019821A821B821C821D8A1E8A1F8A188E75
:104B300041E050E0BE016A5D7F4FCE0181960E9448
:104B4000F82341E050E0BE016B5D7F4FCE018196BE
:104B50000E94F82344E050E0BE016F5F7F4FCE011A
:104B600081960E94F82344E050E0BE016B5F7F4FC6
:104B7000CE0181960E94F8230AE010E0015011094D
:104B800051F044E050E0BE016B5E7F4FCE01819654
:104B90000E94F823F3CF1CA21D8A1E8A1F8A188E3A
:104BA0008FEF8BA341E050E0BE016C5D7F4FCE01E3
:104BB00081960E94F82344E050E0BE016B5E7F4F77
:104BC000CE0181960E94F82341E050E0BE016D5D68
:104BD0007F4FCE0181960E94F8231D8A1E8A1F8A6C
:104BE000188E1DE0115044E050E041F0BE016B5EB4
:104BF0007F4FCE0181960E94F823F4CF64EA7BE0D8
:104C0000CE0181960E94F82344E050E060EA7BE008
:104C1000CE0181960E94F82344E050E06CE97BE0ED
:104C2000CE0181960E94F823C12C80E8D82E8BE318
:104C3000E82E85E4F82E812C912C90E8A92E9FE394
:104C4000B92E111126C044E050E06AEA72E0CE01AC
:104C500081960E94F82344E050E066EA72E0CE01BB
:104C600081960E94F82344E050E062EA72E0CE01AF
:104C700081960E94F8238D8A9E8AAF8AB88E44E07E
:104C800050E0BE016B5E7F4FCE0181960E94F823FB
:104C90001EC0CD8ADE8AEF8AF88E44E050E0BE0165
:104CA0006B5E7F4FCE0181960E94F8231D8A1E8A7B
:104CB0001F8A188E04E0015051F044E050E0BE011C
:104CC0006B5E7F4FCE0181960E94F823F4CF1F5F69
:104CD000153009F0B6CF84E190E098A38F8F42E0C1
:104CE00050E0BE01615E7F4FCE0181960E94F823A5
:104CF00080E090E8ABE3B5E48D8B9E8BAF8BB88FF3
:104D000014E0115051F044E050E0BE016B5E7F4F63
:104D1000CE0181960E94F823F4CF80E290E09E8F2E
:104D20008D8F42E050E0BE01635E7F4FCE018196E1
:104D30000E94F82341E050E06DE27DE0CE018196D3
:104D40000E94F82311110CC08091D1029091D202DF
:104D5000A091D302B091D4028D8B9E8BAF8BB88F74
:104D600044E050E0BE016B5E7F4FCE0181960E9411
:104D7000F8231F5F153031F71C8E1B8E1BE042E0BD
:104D800050E0BE01655E7F4FCE0181960E94F82300
:104D90001150A9F71D8A1E8A1F8A188E44E050E020
:104DA000BE016B5E7F4FCE0181960E94F82344E0E6
:104DB00050E0BE016B5E7F4FCE0181960E94F823CA
:104DC00080913D0581113CC080913E0590913F0549
:104DD0009A8F898FE9A0FAA084E690E09AA389A32C
:104DE00044E050E068E673E0CE0181960E94F8232B
:104DF00042E050E0BE01675E7F4FCE0181960E9487
:104E0000F823E4E0FFE084918F010F5F1F4F8823B8
:104E100021F00E94B222F801F6CFB7016456710961
:104E200088ED9EE00E943730EFECFEE084918F0128
:104E30000F5F1F4F882321F00E94B222F801F6CFA6
:104E400090913D0581E08927AA960FB6F894DEBFC0
:104E50000FBECDBFDF91CF911F910F91FF90EF90CB
:104E6000DF90CF90BF90AF909F908F900895AF92BA
:104E7000BF92CF92DF92EF92FF920F931F93CF9347
:104E8000DF93CDB7DEB7E0970FB6F894DEBF0FBE65
:104E9000CDBF80E1EFEEF2E0DE01919601900D9240
:104EA0008A95E1F780E1EFEFF2E0DE0151960190A3
:104EB0000D928A95E1F780E1EFE0F3E0DE011196D3
:104EC00001900D928A95E1F7DE01919664ED75E00F
:104ED000AE014F5E5F4F24EE35E0CE0101965C01DE
:104EE00084EA95E08E010F5C1F4FCD90DD90ED9030
:104EF000FD90FB01C192D192E192F192BF01FA01C2
:104F0000C190D190E190F190AF01F901C192D1929D
:104F1000E192F1929F01F501C190D190E190F19061
:104F20005F01FC01C192D192E192F192CF01A017F1
:104F3000B107D9F680E090E0AAEFB4E48093980539
:104F400090939905A0939A05B0939B0580E090E813
:104F5000ABE3B5E48093940590939505A0939605F3
:104F6000B09397058093900590939105A093920537
:104F7000B093930510929C0510929D0510929E058A
:104F800010929F0580E29EE4A0E0B0E08093A0052F
:104F90009093A105A093A205B093A30510927C0560
:104FA00010927D0510927E0510927F0580E090E0C2
:104FB000A0EAB1E48093800590938105A0938205D7
:104FC000B09383058093840590938505A09386050F
:104FD000B09387058DEC9CECACECBEE38093880528
:104FE00090938905A0938A05B0938B0580E090E0AB
:104FF000A0EAB0E480938C0590938D05A0938E0574
:10500000B0938F058CE0E5E1FDE0DF011D928A950C
:10501000E9F78EEB90E09093A50B8093A40B81EEC3
:1050200090E09093A70B8093A60B8CE390E0909375
:10503000A10B8093A00B8AE590E09093A30B809343
:10504000A20B80E690E090939D0B80939C0B1092B6
:105050009F0B10929E0B8AE999E9A1EBB1E4809332
:10506000AA029093AB02A093AC02B093AD0286EA81
:1050700091E3A5E3BEE38093A6029093A702A093D9
:10508000A802B093A90280E493EFADE2B4E4809368
:10509000A2029093A302A093A402B093A50210923F
:1050A0002D0D80E090E0A0E4B0E48093D1029093D5
:1050B000D202A093D302B093D402109205021092B0
:1050C000B8040E94E423E4E0FFE084918F010F5FC5
:1050D0001F4F882321F00E94B222F801F6CFECE3A3
:1050E000FEE084918F010F5F1F4F882321F00E9403
:1050F000B222F801F6CFE0960FB6F894DEBF0FBEED
:10510000CDBFDF91CF911F910F91FF90EF90DF9076
:10511000CF90BF90AF900895AF92BF92CF92DF92A1
:10512000EF92FF920F931F93CF93C82F882319F00C
:10513000E6E2FEE00CC0E4E0FFE084918F010F5F47
:105140001F4F8823A9F30E94B222F801F6CF849161
:105150008F010F5F1F4F882321F00E94B222F801B8
:10516000F6CF8AE00E94B222CC2319F0E8E0FEE0FC
:105170000CC0E4E0FFE084918F010F5F1F4F882394
:10518000A9F30E94B222F801F6CF84918F010F5F3C
:105190001F4F882321F00E94B222F801F6CF8AE047
:1051A0000E94B222C1112CC0E4E0FFE084918F0183
:1051B0000F5F1F4F882321F00E94B222F801F6CF23
:1051C000E5EFFDE084918F010F5F1F4F882321F0F1
:1051D0000E94B222F801F6CF80912D0D882321F094
:1051E0008AE00E94B2223AC0EAEEFDE084918F018B
:1051F0000F5F1F4F882391F10E94B222F801F6CF72
:105200004091D1025091D2026091D3027091D402A8
:1052100081EE9DE00E946D308AE00E94B222809172
:105220002D0D811127C0CC2319F0E6EDFDE00CC057
:10523000E4E0FFE084918F010F5F1F4F8823A9F303
:105240000E94B222F801F6CF84918F010F5F1F4FA9
:10525000882381F00E94B222F801F6CFE4E0FFE05B
:1052600084918F010F5F1F4F882351F20E94B22259
:10527000F801F6CFC11124C0E4E0FFE084918F0172
:105280000F5F1F4F882321F00E94B222F801F6CF52
:10529000E5ECFDE084918F010F5F1F4F882321F023
:1052A0000E94B222F801F6CFE4E0FFE084918F0182
:1052B0000F5F1F4F882321F00E94B222F801F6CF22
:1052C0004091D4055091D5056091D6057091D705D0
:1052D0008DEB9DE00E946D304091D8055091D9052D
:1052E0006091DA057091DB058AEB9DE00E946D30DC
:1052F0004091DC055091DD056091DE057091DF0580
:1053000087EB9DE00E946D304091E0055091E105F2
:105310006091E2057091E30584EB9DE00E946D30A1
:105320008AE00E94B222C11124C0E4E0FFE084912F
:105330008F010F5F1F4F882321F00E94B222F801D6
:10534000F6CFE6E9FDE084918F010F5F1F4F8823C0
:1053500021F00E94B222F801F6CFE4E0FFE0849150
:105360008F010F5F1F4F882321F00E94B222F801A6
:10537000F6CF4091E4055091E5056091E605709106
:10538000E7058DE89DE00E946D304091E805509161
:10539000E9056091EA057091EB058AE89DE00E94BD
:1053A0006D304091EC055091ED056091EE057091E6
:1053B000EF0587E89DE00E946D304091F005509127
:1053C000F1056091F2057091F30584E89DE00E947B
:1053D0006D308AE00E94B222C11124C0E4E0FFE0F7
:1053E00084918F010F5F1F4F882321F00E94B2220A
:1053F000F801F6CFE2E6FDE084918F010F5F1F4FC9
:10540000882321F00E94B222F801F6CFE4E0FFE009
:1054100084918F010F5F1F4F882321F00E94B222D9
:10542000F801F6CF4091A4055091A5056091A6051D
:105430007091A70589E59DE00E94A9304091A805DB
:105440005091A9056091AA057091AB0586E59DE094
:105450000E94A9304091AC055091AD056091AE0518
:105460007091AF0583E59DE00E94A9304091B005A1
:105470005091B1056091B2057091B30580E59DE052
:105480000E94A9308AE00E94B222C11124C0E4E047
:10549000FFE084918F010F5F1F4F882321F00E944E
:1054A000B222F801F6CFE6E0FDE084918F010F5FB4
:1054B0001F4F882321F00E94B222F801F6CFE4E0CA
:1054C000FFE084918F010F5F1F4F882321F00E941E
:1054D000B222F801F6CF409198055091990560915C
:1054E0009A0570919B058DEF9CE00E946D30409174
:1054F00094055091950560919605709197058AEFF6
:105500009CE00E946D304091900550919105609112
:1055100092057091930587EF9CE00E946D308AE0C0
:105520000E94B222C11124C0E4E0FFE084918F0107
:105530000F5F1F4F882321F00E94B222F801F6CF9F
:10554000E3E8FCE084918F010F5F1F4F882321F077
:105550000E94B222F801F6CFE4E0FFE084918F01CF
:105560000F5F1F4F882321F00E94B222F801F6CF6F
:1055700040919C0550919D0560919E0570919F05FD
:105580008AE79CE00E946D3040917C0550917D053A
:1055900060917E0570917F0587E79CE00E946D30E9
:1055A0004091A0055091A1056091A2057091A305BD
:1055B00084E79CE00E94A9304091800550918105CC
:1055C000609182057091830581E79CE00E946D30B7
:1055D00040918405509185056091860570918705FD
:1055E0008EE69CE00E946D304091880550918905BF
:1055F00060918A0570918B058BE69CE00E946D306E
:1056000040918C0550918D0560918E0570918F05AC
:1056100088E69CE00E946D308AE00E94B222C111AF
:1056200024C0E4E0FFE084918F010F5F1F4F8823C7
:1056300021F00E94B222F801F6CFEAE5FCE0849165
:105640008F010F5F1F4F882321F00E94B222F801C3
:10565000F6CFE4E0FFE084918F010F5F1F4F8823B6
:1056600021F00E94B222F801F6CF4091150D509121
:10567000160D6091170D7091180D81E59CE00E9448
:105680006D304091190D50911A0D60911B0D709164
:105690001C0D8EE49CE00E946D3040911D0D5091D8
:1056A0001E0D60911F0D7091200D8BE49CE00E94F7
:1056B0006D308AE00E94B222C11118C0E4E0FFE020
:1056C00084918F010F5F1F4F882321F00E94B22227
:1056D000F801F6CFEEE2FCE084918F010F5F1F4FDF
:1056E000882399F00E94B222F801F6CF84EAA82E0E
:1056F0008BE0B82E90EAC92E9BE0D92E2CE9E22E41
:105700002BE0F22E00E010E00CC0E4E0FFE084911A
:105710008F010F5F1F4F882349F30E94B222F801C7
:10572000F6CFB80185E29CE00E943730F501619127
:1057300071915F0182E29CE00E943730F601619135
:1057400071916F018FE19CE00E943730F701619108
:1057500071917F018CE19CE00E9437308AE00E94C9
:10576000B2220130110519F001E010E0DACFC111C9
:1057700024C0E4E0FFE084918F010F5F1F4F882376
:1057800021F00E94B222F801F6CFEDE0FCE0849116
:105790008F010F5F1F4F882321F00E94B222F80172
:1057A000F6CFE4E0FFE084918F010F5F1F4F882365
:1057B00021F00E94B222F801F6CF4091AA02509146
:1057C000AB026091AC027091AD0284E09CE00E945B
:1057D0006D302CEA35EC47E25EE36091A6027091F1
:1057E000A7028091A8029091A9020E94CBEBAB0185
:1057F000BC0181E09CE00E948B302CEA35EC47E252
:105800005EE36091A2027091A3028091A402909144
:10581000A5020E9423EEAB01BC018EEF9BE00E942B
:105820008B308AE0CF911F910F91FF90EF90DF9026
:10583000CF90BF90AF900C94B2222F923F924F9294
:105840005F926F927F928F929F92AF92BF92CF9210
:10585000DF92EF92FF920F931F93CF93DF93CDB719
:10586000DEB7C655D1090FB6F894DEBF0FBECDBF67
:105870002DB73EB765963FAF2EAF659784E690E0B3
:105880002B969FAF8EAF2B9710923C0544E050E0D3
:10589000BE016F5B7F4FCE01875B9F4F0E945524F7
:1058A00042E050E0BE01695B7F4FCE01875B9F4FB6
:1058B0000E94552443E050E0BE016F5B7F4F88E6B5
:1058C00093E00E9419F4892B09F43AC022968FAD17
:1058D0002297863539F08FE322968FAF2297239651
:1058E0001FAE2397E4E0FFE084918F010F5F1F4F0D
:1058F000882321F00E94B222F801F6CFE6EBFEE009
:1059000084918F010F5F1F4F882321F00E94B222E4
:10591000F801F6CFBE016F5B7F4F8DEA9EE00E94DB
:105920000F30EFE9FEE084918F010F5F1F4F882356
:1059300021F00E94B222F801F6CF0E94372745C31A
:105940006DB67EB621961CAE1DAE1EAE1FAE219763
:1059500010923F0510923E0541E050E0BE016E5AA4
:105960007F4FCE01875B9F4F0E94552480E1EFEE71
:10597000F2E0DE01919601900D928A95E1F780E1C7
:10598000EFEFF2E0DE01519601900D928A95E1F77A
:1059900080E1EFE0F3E08E010F5F1F4FD80101902F
:1059A0000D928A95E1F76396CFAC6397D12C33E0E3
:1059B000C30ED11CCC0CDD1CCC0CDD1C8DB79EB7EE
:1059C0008C199D090FB6F8949EBF0FBE8DBFEDB721
:1059D000FEB731964F012DB73EB72C193D090FB6D2
:1059E000F8943EBF0FBE2DBF8DB79EB701965C01E8
:1059F000EDB7FEB7EC19FD090FB6F894FEBF0FBE68
:105A0000EDBF2DB73EB72F5F3F4F7901A601B4011F
:105A1000CE01875B9F4F0E945524A601B501CE01A0
:105A2000875B9F4F0E945524A601B701CE01875B7B
:105A30009F4F0E94552463962FAD639730E02E5FF1
:105A40003F4F84EA95E067969FAF8EAF6797A4EECD
:105A5000B5E064ED75E080E090E040E050E02417B0
:105A600035074CF06401C80ED91EF6012080318044
:105A7000428053800CC0F1E2CF2ED12CCC0EDD1E23
:105A8000C80ED91EF6012080318042805380FB0170
:105A90002192319241925192BF01241735074CF067
:105AA0006501C80ED91EF6012080318042805380E6
:105AB0000CC0E1E1CE2ED12CCC0EDD1EC80ED91EBD
:105AC000F60120803180428053802D923D924D928C
:105AD0005D92241735074CF06701C80ED91EF601F8
