:100000000C94CD150C94F0E40C941BE50C9446E58F
:100010000C9471E50C949CE50C94C7E50C94F2E506
:100020000C941DE60C943A9A0C94499A0C94589AA4
:100030000C94FE150C94AEE20C94FE150C94FE1577
:100040000C94FE150C94541C0C94FE150C94FE1587
:100050000C94FE150C94FE150C9487980C9457E3A1
:100060000C94FE150C942A210C94FE150C94FE158C
:100070000C94FE150C94FE150C94FE150C94FE15B4
:100080000C94FE150C94FE150C94FE150C94FE15A4
:100090000C94FE150C94FE150C94FE150C94FE1594
:1000A0000C94FE150C94FE150C94FE150C94FE1584
:1000B0000C94FE150C94FE150C94FE150C94FE1574
:1000C0000C94FE150C94FE150C94FE150C94FE1564
:1000D0000C94FE150C94FE150C94FE150C94FE1554
:1000E0000C94FE15DF53E953F053F753FE531354AA
:1000F0001E54255405540C54CAE494E49CE4A8E42A
:10010000B5E4D6E4E3E471E676E67BE685E68FE6E1
:1001100008E799E6A1E6A9E6B3E6BDE6C7E6D6E6B6
:10012000E0E608E7EAE6F4E6FEE62CE72FE71EE75E
:1001300022E728E766E733E737E73DE741E745E7AA
:100140004BE74FE753E766E759E75DE761E7084AA2
:10015000D73B3BCE016E84BCBFFDC12F3D6C7431DB
:100160009ABD56833DDA3D00C77F11BED9E4BB4C32
:100170003E916BAAAABE000000803F05A84CCDB2FC
:10018000D44EB93836A9020C50B9918688083CA6DD
:10019000AAAA2ABE000000803F000C94AF980C94DD
:1001A00059510C944BE70C94AA610C9410750C9463
:1001B000677A0C9420510C94287C0C941EE70C94C4
:1001C00013540C94CD820C9450760C94E3E40C946C
:1001D000D7790C94AA630C9499E60C94B7780C9494
:1001E000C7E60C941E540C9466E70C94D0820C94D1
:1001F00060600C94FE530C9425540C9403610C9491
:100200009CE40C94DF530C94E0E60C94F4E60C941C
:10021000F0530C9453E70C943A770C94A7530C9436
:10022000B5E40C94DF8A0C947F6D0C949A6A0C945C
:1002300071E60C94F2720C94E2DE0C94E0720C9471
:10024000B3E60C94CEC50C9401630C94A9E60C940F
:1002500008E70C9433510C9405540C9494E40C94DA
:10026000D94F0C94F74B0C94886E0C946E510C94EF
:100270005F7E0C942CE70C9414650C94F7530C944B
:100280004FE70C940EE30C94A8630C94C3530C94A6
:100290005DE70C94786B0C9428E70C949A5F0C94AF
:1002A000575E0C9459E70C94DC4F0C94625C0C94F0
:1002B0002FE70C9462600C9445E70C94A8E40C942E
:1002C000EF5F0C947BE40C94BDE60C94D76F0C9418
:1002D000F8720C9483510C9441E70C943DE70C9414
:1002E000CA820C9437E70C94EAE60C94FEE60C9470
:1002F00047500C9402DD0C945D5E0C947BE60C94EC
:10030000987B0C9452620C9459640C94E7840C947E
:10031000BC690C94E8C50C940A650C9422E70C9413
:10032000D6E60C948E5F0C94FC670C943B7D0C9489
:10033000EC720C9446510C94A1E60C940C540C9461
:10034000E04F0C9447790C949F750C94945F0C9437
:1003500033E70C9416780C94CAE40C94DE4F0C949A
:10036000E9530C94635E0C9461E70C945F740C94F5
:1003700076E60C94E6720C948FE60C94087B0C9451
:10038000D6E40C9432AE0C9485E6205A3A002059FB
:100390003A0020436F756E7420583A0024F4D4302C
:1003A00050C38E20C2A24017828B7011127A910D19
:1003B000816CD90AA861E108C758660761514306F4
:1003C0001E4B5D05C145A7041A411104093D980360
:1003D000713931034036DB0265339102D430540267
:1003E000802E1D02632CEE01752AC501B028A001E4
:1003F000102781018F2564012B244B01E022340159
:10040000AC211F018D200D01801FFC00841EED001A
:10041000971DDF00B81CD200E61BC600201BBC00E5
:10042000641AB200B219A8000A19A0006A1899004B
:10043000D117910040178B00B516840031167E004D
:10044000B31579003A157300C7146F0058146A0089
:10045000EE1366008813630025135E00C7125B006D
:100460006C12570015125400C111510070114F0049
:1004700021114B00D61049008D1047004610440052
:1004800002104200C00F4000800F3E00420F3C00AF
:10049000060F3B00CB0E3800930E37005C0E350084
:1004A000270E3400F30D3200C10D3100900D3000E5
:1004B000600D2E00320D2D00050D2C00D90C2B00E7
:1004C000AE0C2900850C29005C0C2700350C270098
:1004D0000E0C2600E80B2400C40B2400A00B230004
:1004E0007D0B23005A0B2100390B2100180B200033
:1004F000F80A1F00D90A1E00BB0A1E009D0A1D0033
:10050000800A1D00630A1C00470A1B002C0A1B00FE
:10051000110A1A00F7091A00DD091900C4091900A7
:10052000AB091900920917007B091800630917002D
:100530004C09160036091600200916000A09150094
:10054000F5081500E0081400CC081400B8081400E1
:10055000A4081400900813007D0812006B08130013
:100560005808120046081200340811002308110030
:100570001208110001081100F0071000E007100038
:10058000D0071000C0071000B0070F00A10710002F
:1005900091070E0083070F0074070F0065070E0018
:1005A00057070E0049070E003B070D002E070E00EF
:1005B00020070D0013070D0006070D00F9060C00BB
:1005C000ED060D00E0060C00D4060C00C8060C0079
:1005D000BC060C00B0060C00A4060B0099060C002B
:1005E0008D060B0082060B0077060B006C060B00D5
:1005F00061060A0057060B004C060A0042060A0074
:1006000038060A002E060A0024060A001A060A0006
:100610001006090007060A00FD050900F405090097
:10062000EB050900E2050900D9050900D00509001C
:10063000C7050900BE050900B5050800AD0508009D
:10064000A50509009C050800940508008C05080014
:10065000840508007C050800740508006C05070087
:10066000650508005D050700560508004E050700F2
:100670004705070040050800380507003105070059
:100680002A050700230507001C05060016050700BC
:100690000F0507000805060002050700FB04060019
:1006A000F5040700EE040600E8040600E204070073
:1006B000DB040600D5040600CF040600C9040600CA
:1006C000C3040600BD040600B7040600B10405001B
:1006D000AC040600A6040600A00405009B04060066
:1006E00095040500900406008A04050085040500B1
:1006F000800406007A0405007504050070040500F6
:100700006B04050066040500610405005C04050037
:1007100057040500520405004D0405004804050077
:10072000430405003E0404003A04050035040500B6
:10073000300404002C0405002704040023040500F1
:100740001E0404001A040400160405001104040029
:100750000D0404000904050004040400000404005E
:10076000FC030400F8030400F4030400F003040095
:10077000EC030400E8030400E4030400E0030400C5
:10078000DC030400D8030400D4030400D0030400F5
:10079000CC030400C8030300C503030024F404D9F8
:1007A000201BC40C5C0E9804C4095F02650771012C
:1007B000F405F900FB04B30048048700C103690095
:1007C0005803550003034500BE023A00840231007D
:1007D00053022A002902250004022000E4011C0023
:1007E000C8011900AF01170098011400840113001B
:1007F000710110006101100051010E0043010D0054
:1008000036010B002B010B0020010B001501090024
:100810000C01090003010800FB000800F3000800B8
:10082000EB000700E4000600DE000600D80006002A
:10083000D2000600CC000500C7000500C20005007C
:10084000BD000400B9000400B5000400B1000400BC
:10085000AD000400A9000400A5000300A2000300ED
:100860009F0004009B000300980003009500020015
:1008700093000300900003008D0002008B00030032
:10088000880002008600020084000300810002004C
:100890007F0002007D0002007B0002007900020060
:1008A000770001007600020074000200720001006F
:1008B000710002006F0002006D0001006C00020078
:1008C0006A00010069000200670001006600010083
:1008D0006500010064000200620001006100010087
:1008E000600001005F0002005D0001005C0001008B
:1008F0005B0001005A00010059000100580001008E
:10090000570001005600010055000100540001008D
:10091000530000005300010052000100510001008B
:10092000500001004F0001004E0000004E00010089
:100930004D0001004C0001004B0000004B00010085
:100940004A00010049000100480000004800010081
:10095000470001004600000046000100450000007D
:100960004500010044000100430000004300010075
:10097000420000004200010041000000410001006F
:10098000400001003F0000003F0001003E00000069
:100990003E0001003D0000003D0001003C00000061
:1009A0003C0000003C0001003B0000003B00010057
:1009B0003A0000003A00010039000000390001004F
:1009C0003800000038000000380001003700000047
:1009D000370001003600000036000000360001003C
:1009E0003500000035000000350001003400000033
:1009F0003400000034000100330000003300000028
:100A0000330001003200000032000000320001001B
:100A10003100000031000000310001003000000012
:100A200030000000300001002F0000002F00000007
:100A30002F0000002F0001002E0000002E000000FB
:100A40002E0001002D0000002D0000002D000000F0
:100A50002D0001002C0000002C0000002C000000E4
:100A60002C0001002B0000002B0000002B000000D8
:100A70002B0001002A0000002A0000002A000000CC
:100A80002A000100290000002900000029000000C0
:100A900029000000290001002800000028000000B3
:100AA00028000000280000002800010027000000A6
:100AB0002700000027000000270000002700010099
:100AC000260000002600000026000000260000008E
:100AD0002600010025000000250000002500000080
:100AE0002500000025000000250001002400000072
:100AF0002400000024000000240000002400010065
:100B00002300000023000000230000002300000059
:100B10002300000023000000230001002200000049
:100B2000220000002200000022000000220000003D
:100B3000220001002100000021000000210000002F
:100B40002100000021000000210000002100010020
:100B50002000000020000000200000002000000015
:100B60002000000020000000200000002000010004
:100B70001F0000001F0000001F0000001F000000F9
:100B80001F0000001F0000001F0001001E000000E9
:100B90001E0000001E0000001E0000007A5F6D694C
:100BA0006E3A2000795F6D696E3A2000785F6D695A
:100BB0006E3A20005265706F7274696E6720656EC0
:100BC0006473746F70207374617475730A00456E7A
:100BD0006473746F70732025632025632025632060
:100BE000256300205A3A0020593A0020583A0065FF
:100BF0006E6473746F7073206869743A20002044C7
:100C00000020490020204D3330312050005049440D
:100C10002073657474696E67733A0A002046002079
:100C2000420020480020204D3134352053004D61D2
:100C300074657269616C206865617475702070619B
:100C400072616D65746572733A0A00205A0020590A
:100C50000020204D323036205800486F6D65206FDF
:100C600066667365743A0A00204500205A002059D0
:100C70000020580020420020540020204D32303502
:100C8000205300416476616E6365643A20533C6D85
:100C9000696E5F66656564726174653E20543C6D83
:100CA000696E5F74726176656C5F666565647261BA
:100CB00074653E20423C6D696E5F7365676D656E5D
:100CC000745F74696D655F6D733E20583C6D61782B
:100CD0005F78795F6A65726B3E205A3C6D61785F20
:100CE0007A5F6A65726B3E20453C6D61785F655F37
:100CF0006A65726B3E0A0020540020520020204D8D
:100D0000323034205000416363656C6572617469F0
:100D10006F6E2028756E6974732F7332293A2050D4
:100D20003C7072696E745F616363656C3E20523C17
:100D3000726574726163745F616363656C3E2054B5
:100D40003C74726176656C5F616363656C3E0A003A
:100D5000204500205A0020590020204D32303120FB
:100D600058004D6178696D756D20416363656C65F0
:100D7000726174696F6E2028756E6974732F733297
:100D8000293A0A00204500205A0020590020204D11
:100D90003230332058004D6178696D756D2066657D
:100DA000656472617465732028756E6974732F733E
:100DB000293A0A00204500205A0020590020204DE1
:100DC0003932205800537465707320706572207535
:100DD0006E69743A0A0020204D3230302044300AC7
:100DE0000020204D3230302044002044697361627D
:100DF0006C65640A0046696C616D656E742073658C
:100E00007474696E67733A0020204D313439204381
:100E1000203B20556E69747320696E2043656C73A6
:100E20006975730A0A002020473231203B20556E35
:100E300069747320696E206D6D0A0A0048617264DE
:100E4000636F6465642044656661756C74205365E6
:100E50007474696E6773204C6F616465640A004541
:100E60004550524F4D20636865636B73756D206DFF
:100E700069736D617463680A00206279746573290F
:100E80000A002073746F7265642073657474696EF0
:100E90006773207265747269657665642028002026
:100EA0004D61726C696E3D563337290A00284545FD
:100EB00050524F4D3D00454550524F4D2076657282
:100EC00073696F6E206D69736D61746368200020B3
:100ED0006279746573290A0053657474696E677367
:100EE0002053746F7265642028004572726F7220FF
:100EF00077726974696E6720746F20454550524F50
:100F00004D210A006563686F3A004572726F723A4C
:100F1000007C3C3E5E2B3D3F2F5B5D3B2C2A225CE0
:100F20000020746F6F206C6F6E6720657874727527
:100F300073696F6E2070726576656E7465640A0001
:100F400020636F6C6420657874727573696F6E20AE
:100F500070726576656E7465640A00256973002594
:100F6000696D20256973002569682025696D202534
:100F7000697300256964202569682025696D20252D
:100F80006973002569792025696420256968202511
:100F9000696D20256973006D0046696C616D656E31
:100FA0007420757365643A200053746174733A2039
:100FB000002C204C6F6E67657374206A6F623A2054
:100FC00000546F74616C2074696D653A200053742D
:100FD0006174733A20002C204661696C65643A2084
:100FE000002C2046696E69736865643A200050726F
:100FF000696E74733A200053746174733A2000541C
:1010000061726A65746120726574697261646100FD
:101010005461726A65746120636F6C6F63616461AF
:10102000007061726120726573756D69720045733D
:10103000706572616E646F20696D702E0043616D22
:10104000626961722046696C616D656E746F002023
:1010500020426F7175696C6C613A2000457874723A
:101060007569722066696C616D656E746F00457399
:1010700070657261646F20706F720043616D6269A8
:1010800061722046696C616D656E746F002020424C
:101090006F7175696C6C613A2000436172676172AF
:1010A0002066696C616D656E746F00457370657262
:1010B00061646F20706F720043616D6269617220BC
:1010C00046696C616D656E746F002020426F7175AA
:1010D000696C6C613A20007061726120636F6E749C
:1010E000696E7561722E2E2E00792070726573699B
:1010F0006F6E6520656C20626F746F6E00496E7351
:10110000657274652066696C616D656E746F00430D
:10111000616D626961722046696C616D656E746FA4
:10112000002020426F7175696C6C613A2000436148
:101130006C656E746172206C6120626F7175696C90
:101140006C61004F7072696D6120626F746F6E2008
:10115000706172610043616D626961722046696C01
:10116000616D656E746F002020426F7175696C6CE3
:10117000613A200045737065726520706F72206659
:1011800061766F720043616C656E74616E646F208E
:10119000626F7175696C6C610043616D6269617247
:1011A0002046696C616D656E746F002020426F711E
:1011B00075696C6C613A200066696C616D656E746E
:1011C0006F20657870756C7361646F00457370652E
:1011D0007261646F20706F720043616D6269617249
:1011E0002046696C616D656E746F002020426F71DE
:1011F00075696C6C613A200063616D6269617200AF
:1012000064656C2066696C616D656E746F00457312
:10121000706572616E646F20696E696369617200E6
:1012200043616D626961722046696C616D656E74BF
:101230006F0045787472756972206D617300526534
:1012400073756D697220696D702E004F7063696FE0
:101250006E65732064652063616D62696F3A00207A
:1012600020426F7175696C6C613A20004174726143
:10127000730054656D70204D696E696D61206573F2
:10128000203135302E004572726F723A20616C2029
:1012900063616C656E746172004573746164697337
:1012A000746963617320496D702E005465726D69B5
:1012B00073746F72657300496E662E20436F6E748F
:1012C000726F6C61646F7200496E662E20496D709A
:1012D0007265736F7261004D656E75207072696E14
:1012E000636970616C004578747275736F726573B1
:1012F0003A203100687474703A2F2F6D61726C69F6
:101300006E66772E6F726700507275736149334D48
:101310004D00323031372D30352D31322031323AD7
:10132000303000312E312E31004D61726C696E000B
:101330004675656E746520646520706F6465723AE9
:101340002047656E657269630050726F746F636FDA
:101350006C6F3A20312E300042617564696F733AC8
:10136000203131353230300052414D505320312E32
:10137000340054656D7065726174757261206D61C1
:1013800078696D613A203132300054656D70657254
:101390006174757261206D696E696D613A20350006
:1013A000544265643A4550434F53203130304B002E
:1013B00054656D7065726174757261206D617869D4
:1013C0006D613A203235300054656D70657261741C
:1013D000757261206D696E696D613A203500543017
:1013E0003A204154432031303447542D32000054C8
:1013F0006F74616C20646520457874727573696FD1
:101400006E3A2000256C642E25696D0000496D70D0
:10141000726573696F6E206D6173206C61726761B4
:101420003A2000005469656D706F20746F74616CB0
:1014300020646520696D702E3A2000436F6D706CDA
:101440006574616461733A2000436F6E74656F2048
:10145000646520696D70726573696F6E3A2000056E
:101460002E2E004D656E75207072696E6369706115
:101470006C0046696C2E204469612E0046696C2E12
:10148000204469612E004520696E206D6D33004156
:10149000706167617200456E63656E6465720043DA
:1014A0006F6E74726F6C0045207061736F732F6D77
:1014B0006D0045207061736F732F6D6D005A207041
:1014C00061736F732F6D6D005A207061736F732F8E
:1014D0006D6D0059207061736F732F6D6D00592011
:1014E0007061736F732F6D6D0058207061736F732F
:1014F0002F6D6D0058207061736F732F6D6D0041FB
:1015000063656C2E205669616A65004163656C2EC7
:10151000205669616A65004163656C2E20726574AE
:101520007261632E004163656C2E20726574726176
:10153000632E004163656C2E206D61784500416328
:10154000656C2E206D617845004163656C2E206DC1
:1015500061785A004163656C2E206D61785A0041B4
:1015600063656C2E206D617859004163656C2E2097
:101570006D617859004163656C2E206D617858006B
:101580004163656C2E206D6178580056656C2E2085
:101590007669616A65206D696E0056656C2E2076ED
:1015A00069616A65206D696E0056656C2E207669EA
:1015B000616A65206D696E00566D696E00566D69D1
:1015C0006E00566D696E00566D61784500566D610E
:1015D000784500566D61784500566D61785A005621
:1015E0006D61785A00566D61785A00566D61785970
:1015F00000566D61785900566D61785900566D61DD
:10160000785800566D61785800566D6178580056CC
:10161000652D6A65726B0056652D6A65726B0056A2
:10162000652D6A65726B00567A2D6A65726B00567D
:101630007A2D6A65726B0056792D6A65726B005659
:10164000792D6A65726B0056792D6A65726B00564A
:10165000782D6A65726B0056782D6A65726B00563C
:10166000782D6A65726B004163656C6572616369B0
:101670006F6E004163656C65726163696F6E0043F4
:101680006F6E74726F6C0047756172646172206D69
:10169000656D6F72696100506C617461666F726D27
:1016A0006100506C617461666F726D6100426F71B0
:1016B00075696C6C6100426F7175696C6C61005684
:1016C000656E74696C61646F720056656E74696CE6
:1016D00061646F720054656D7065726174757261DA
:1016E0000050726563616C656E7461722041425393
:1016F000436F6E6669670050726563616C656E74F6
:10170000617220504C41436F6E66696700504944D6
:101710002D44005049442D44005049442D49005067
:1017200049442D49005049442D50005049442D5002
:101730000020022046616374002002204661637429
:10174000002002204D6178002002204D61780020A9
:1017500002204D6178002002204D696E0020022099
:101760004D696E002002204D696E0054656D7065F4
:10177000726174757261204175746F2E00417061E1
:1017800067617200456E63656E6465720056656ED2
:1017900074696C61646F720056656E74696C616423
:1017A0006F7200506C617461666F726D6100506C95
:1017B000617461666F726D6100426F7175696C6C06
:1017C0006100426F7175696C6C6100436F6E747279
:1017D0006F6C00526573746175726172206D656D16
:1017E0006F72696100436172676172206D656D6F30
:1017F0007269610047756172646172206D656D6F19
:101800007269610046696C616D656E746F004D6F41
:1018100076696D69656E746F0054656D706572618F
:1018200074757261004D656E75207072696E6369C2
:1018300070616C004578747275736F72004D6F76CD
:101840006572205A004D6F7665722059004D6F7693
:1018500065722058005072657061726172004D6F40
:1018600076657220302E316D6D004D6F7665722079
:10187000316D6D004D6F7665722031306D6D004DAC
:101880006F76657220656A6573004578747275734A
:101890006F72004D6F766572205A004D6F766572DB
:1018A0002059004D6F766572205800457874727526
:1018B000736F72004D6F766572205A004D6F7665BA
:1018C000722059004D6F7665722058005072656322
:1018D000616C656E746172204142530050726563A1
:1018E000616C656E74617220504C4100456E667289
:1018F0006961720043616D626961722066696C6141
:101900006D656E746F004D383400417061676172AF
:10191000206D6F746F72657300416A7573746172C4
:1019200020646573666173657300473238205A001E
:101930004F726967656E205A004732382059004F50
:10194000726967656E2059004732382058004F721F
:101950006967656E205800473238004C6C657661C7
:101960007220616C206F726967656E004D6F7665DD
:101970007220656A6573004D656E75207072696EC0
:10198000636970616C0050726563616C656E74614F
:101990007220414253506C617461666F726D6100D8
:1019A00050726563616C656E7461722041425320B0
:1019B000456E640050726563616C656E746172207F
:1019C00041425300507265706172617200507265DD
:1019D00063616C656E74617220504C41506C61742F
:1019E00061666F726D610050726563616C656E74E3
:1019F000617220504C4120456E64005072656361F5
:101A00006C656E74617220504C410050726570615B
:101A10007261720043616D626961722066696C6116
:101A20006D656E746F004D6963726F7061736F20C6
:101A30005A004D6963726F7061736F2059004D6970
:101A400063726F7061736F205800466C756A6F0027
:101A5000466C756A6F0056656E74696C61646F726E
:101A60000056656E74696C61646F7200506C6174CD
:101A700061666F726D6100506C617461666F726D4A
:101A80006100426F7175696C6C6100426F717569BC
:101A90006C6C610056656C6F6369646164005665C7
:101AA0006C6F6369646164004D656E752070726966
:101AB0006E636970616C004D36303000426162794E
:101AC0007374657070696E67205A00426162797341
:101AD00074657070696E6720590042616279737431
:101AE000657070696E672058004D34323800496E59
:101AF000662E20496D707265736F7261004E6F20A3
:101B0000686179207461726A657461205344004D84
:101B1000656E7520646520534400446574656E6588
:101B20007220696D70726573696F6E005265616EC7
:101B30007564617220696D70726573696F6E0050B3
:101B4000617573617220696D70726573696F6E0083
:101B5000436F6E74726F6C00507265706172617267
:101B600000416A757374617200496E666F726D61CF
:101B700063696F6E00496D70726573696F6E206383
:101B8000616E63656C616461004D3234004D3132C9
:101B9000350025753A2530327500253032753A25E5
:101BA000303275002D2D2D005344005A0059005835
:101BB00000012000012000506F72206661766F7274
:101BC0002C207265696E6963696500494D50524504
:101BD000534F524120504152414441002D2D2D2D53
:101BE0002D2D007C4D61726C696E7C002D2D2D2D8C
:101BF0002D2D00687474703A2F2F6D61726C696EB0
:101C000066772E6F726700687474703A2F2F6D615B
:101C1000726C696E66772E6F72670020312E312EDE
:101C20003100546865726D616C2052756E61776128
:101C300079004572726F722064652074656D7065FD
:101C400072617475726100506172616461206465D3
:101C500020656D657267656E63696100202D20499E
:101C60006E76616C69642065787472756465722043
:101C70006E756D62657220210A0048656174696E37
:101C800067206661696C6564004572726F723A2004
:101C9000616C2063616C656E74617200486561748B
:101CA000696E67206661696C6564004572726F7267
:101CB0003A20616C2063616C656E746172004D49FD
:101CC0004E54454D502074726967676572656400B3
:101CD0004572726F723A2054656D70204D696E20A6
:101CE000506C6174004572726F723A2054656D7069
:101CF000204D696E696D61004D415854454D50202D
:101D0000747269676765726564004572726F723AD2
:101D10002054656D70204D617820506C61740045D1
:101D200072726F723A2054656D70204D6178696DE2
:101D300061006265640A002C2073797374656D20FC
:101D400073746F7070656421204865617465725F9B
:101D500049443A200023646566696E652020444545
:101D60004641554C545F4B64200023646566696EA0
:101D700065202044454641554C545F4B6920002363
:101D8000646566696E65202044454641554C545F44
:101D90004B702000504944204175746F74756E6516
:101DA0002066696E697368656421205075742074BB
:101DB0006865206C617374204B702C204B69206126
:101DC0006E64204B6420636F6E7374616E74732055
:101DD00066726F6D2062656C6F7720696E746F201C
:101DE000436F6E66696775726174696F6E2E680AFB
:101DF00000504944204175746F74756E65206661AA
:101E0000696C6564212074696D656F75740A005092
:101E10004944204175746F74756E65206661696C04
:101E20006564212054656D706572617475726520FA
:101E3000746F6F20686967680A00204B643A20005D
:101E4000204B693A2000204B703A20000A20436C56
:101E5000617373696320504944200A002054753A25
:101E60002000204B753A2000206D61783A20002038
:101E70006D696E3A200020643A2000206269617327
:101E80003A20001000C90210012C0140012201700B
:101E9000011801B0010E01F00104015002FA00B076
:101EA00002F0003003E600D003DC009004D20070A2
:101EB00005C800A006BE000008B400B009AA00D002
:101EC0000BA000600E960060118C000015820020AF
:101ED000197800C01D6E00A0226400B0275A00903F
:101EE0002C500000314600E0343C001038320090A5
:101EF0003A2800603C1E00A03D1400803E0A0020ED
:101F00003F000070012C0190012701B0012201C0A7
:101F1000011D01F00118011002130130020E0160D1
:101F200002090190020401C002FF000003FA004010
:101F300003F5008003F000D003EB002004E60070FE
:101F400004E100E004DC004005D700C005D20040F9
:101F500006CD00D006C8008007C3003008BE00F0E0
:101F600008B900C009B400B00AAF00B00BAA00D095
:101F70000CA500000EA000500F9B00C01096005052
:101F800012910000148C00C0158700B0178200B0B9
:101F9000197D00D01B7800001E730040206E009059
:101FA000226900F024640040275F0090295A00E075
:101FB0002B5500102E500020304B0010324600E010
:101FC00033410090353C001037370070383200A0A4
:101FD000392D00B03A2800A03B2300603C1E0010C1
:101FE0003D1900903D1400103E0F00703E0A00C0E5
:101FF0003E0500003F0000403FFBFF803FF6FFC072
:102000003FF1FF446F6E6520736176696E672066ED
:10201000696C652E0A004D3239002020506C616ECB
:102020006E657242756666657242797465733A20B0
:10203000002046726565204D656D6F72793A20000B
:10204000436F6D70696C65643A204D61792031325F
:1020500020323031370A00207C20417574686F725D
:102060003A20284D6F65627975734D616368696EBA
:1020700065732C2064656661756C7420636F6E6691
:102080006967290A00323031372D30352D31322041
:1020900031323A303000204C6173742055706461E5
:1020A0007465643A2000312E312E310A004D617280
:1020B0006C696E0020536F6674776172652052659B
:1020C0007365740A00205761746368646F672052F7
:1020D000657365740A002042726F776E206F7574A5
:1020E0002052657365740A002045787465726E61CC
:1020F0006C2052657365740A00506F776572557075
:102100000A0073746172740A005072696E746572A9
:102110002068616C7465642E206B696C6C282920C2
:1021200063616C6C6564210A0050617261646120B6
:10213000646520656D657267656E636961004B4912
:102140004C4C20636175736564206279204B494C67
:102150004C20627574746F6E2F70696E0A00506146
:102160007261646120646520656D657267656E6388
:102170006961004B494C4C20636175736564206252
:102180007920746F6F206D75636820696E61637468
:102190006976652074696D65202D2063757272659E
:1021A0006E7420636F6D6D616E643A200020746FF1
:1021B0006F206C6F6E6720657874727573696F6ECF
:1021C0002070726576656E7465640A0020636F6CBA
:1021D0006420657874727573696F6E2070726576AD
:1021E000656E7465640A006F6B00526573656E649A
:1021F0003A20004E6F2063617365206C69676874D4
:102200000A004D36303020486F74656E6420746F5C
:102210006F20636F6C6420746F206368616E676504
:102220002066696C616D656E740A00446573666151
:1022300073652061706C696361646F004572723A06
:1022400020546F6F206661722100546F6F206661A9
:10225000722066726F6D207265666572656E636569
:1022600020706F696E740A0043290A0061626C6510
:102270006420286D696E2074656D702000436F6C5A
:1022800064206578747275646573206172652000DE
:1022900020643A0020693A0020703A00205A002059
:1022A0005900580020204D61783A2000205A002023
:1022B0005900580020204D696E3A20004170616736
:1022C000617200456E63656E64657200536F66747B
:1022D00020656E6473746F70733A20005365747474
:1022E000696E672054726176656C20416363656C2A
:1022F00065726174696F6E3A200053657474696E1B
:1023000067205265747261637420416363656C6514
:10231000726174696F6E3A200053657474696E67F8
:10232000205072696E7420416363656C65726174DC
:10233000696F6E3A200053657474696E672050723D
:10234000696E7420616E642054726176656C204100
:102350006363656C65726174696F6E3A20004D311C
:10236000343520533C696E6465783E206F75742067
:102370006F662072616E67652028302D31290A0052
:102380004649524D574152455F4E414D453A4D6188
:10239000726C696E20312E312E31202847697468A5
:1023A00075622920534F555243455F434F44455F63
:1023B00055524C3A68747470733A2F2F6769746879
:1023C00075622E636F6D2F4D61726C696E46697216
:1023D0006D776172652F4D61726C696E2050524F3E
:1023E000544F434F4C5F56455253494F4E3A312E4E
:1023F00030204D414348494E455F545950453A506D
:102400007275736149334D4D2045585452554445BA
:10241000525F434F554E543A3120555549443A6323
:10242000656465326132662D343161322D34373462
:10243000382D396231322D633535633632663336A5
:102440003766660A00507275736149334D4D2041FD
:1024500070616761722E00506C617461666F726D9D
:10246000612043616C69656E7465003F0A00205706
:102470003A0043616C656E74616E646F20506C61EC
:10248000742E2E2E0043616C656E74616D69656EED
:10249000746F206C6973746F003F0A0020573A0014
:1024A00045256920257300507275736149334D4D80
:1024B000206C697374612E006F6B004D31313320D5
:1024C000530050617261646120646520656D6572BE
:1024D00067656E636961004543484F00494E464F4A
:1024E000004552524F52530044525952554E0043E8
:1024F0004F4D4D554E49434154494F4E006F66660E
:1025000000D724DC24E124E824EF24444542554745
:102510003A0045256920257300507275736149336F
:102520004D4D206C697374612E0050726F74656339
:102530007465642050696E0A005072696E7420746C
:10254000696D653A20004D31323500456E64206674
:10255000696C65206C6973740A00426567696E2056
:1025600066696C65206C6973740A0053696E206D2E
:102570006F76696D69656E746F005072757361492D
:10258000334D4D206C697374612E00526573756D07
:1025900069656E646F20696D7072652E0045737099
:1025A0006572616E646F206F7264656E6573005250
:1025B00065706F736F2E2E2E0047322F47332062C7
:1025C000616420706172616D65746572730A0041A7
:1025D00063746976652045787472756465723A2013
:1025E000002042403A0020403A00202F0020423A8A
:1025F00000202F0020543A0020453A00205A3A008B
:1026000020593A00583A005761726E696E673A2055
:10261000486F6D696E672042756D702044697669F8
:10262000736F72203C20310A00627573793A207012
:10263000617573656420666F7220696E7075740AC7
:1026400000627573793A2070617573656420666FF6
:102650007220757365720A00627573793A20707220
:102660006F63657373696E670A00556E6B6E6F7783
:102670006E20636F6D6D616E643A20220020496E9A
:1026800076616C6964206578747275646572200087
:1026900053442072656164206572726F720A00444F
:1026A0006F6E65207072696E74696E672066696C02
:1026B000650A0050617261646120646520656D6522
:1026C0007267656E63696100446574656E69646113
:1026D000005072696E7465722073746F70706564F7
:1026E0002064756520746F206572726F72732E207E
:1026F00046697820746865206572726F7220616E19
:102700006420757365204D39393920746F207265E6
:1027100073746172742E202854656D7065726174D3
:102720007572652069732072657365742E20536518
:1027300074206974206166746572207265737461B7
:102740007274696E67290A004E6F204C696E6520AD
:102750004E756D6265722077697468206368656381
:102760006B73756D2C204C617374204C696E653AE7
:1027700020004E6F20436865636B73756D20776929
:102780007468206C696E65206E756D6265722C20B0
:102790004C617374204C696E653A20006368656310
:1027A0006B73756D206D69736D617463682C204C5B
:1027B000617374204C696E653A20004C696E652027
:1027C0004E756D626572206973206E6F74204C6166
:1027D0007374204C696E65204E756D6265722B3185
:1027E0002C204C617374204C696E653A20004D3189
:1027F000313000656E7175657565696E6720220000
:10280000FFFFFF000040400000404000000040008B
:10281000004D4300004D4300004D43000000000008
:102820000000000000000000004D4300004D430088
:10283000004D430000000000000000000000004DBB
:1028400033310043616E6E6F7420656E7465722063
:102850007375626469723A20006175746F25692E20
:1028600067006572726F722077726974696E672093
:10287000746F2066696C650A004E6F7420534420A3
:102880007072696E74696E670A00534420707269D1
:102890006E74696E672062797465200044656C65AA
:1028A00074696F6E206661696C65642C2046696C82
:1028B000653A200046696C652064656C65746564E2
:1028C0003A006F70656E206661696C65642C204605
:1028D000696C653A200057726974696E6720746F7D
:1028E0002066696C653A20006F70656E20666169CC
:1028F0006C65642C2046696C653A20006F70656ECB
:10290000206661696C65642C2046696C653A20001C
:1029100046696C652073656C65637465640A0020A4
:1029200053697A653A200046696C65206F70656E60
:1029300065643A20006F70656E206661696C65643D
:102940002C2046696C653A20002066696C653A2047
:10295000004E6F7720002220706F7300222070617C
:1029600072656E743A2200535542524F5554494E87
:10297000452043414C4C207461726765743A2200D3
:1029800050617261646120646520656D6572676580
:102990006E63696100747279696E6720746F206379
:1029A000616C6C207375622D67636F646520666966
:1029B0006C6573207769746820746F6F206D616E29
:1029C00079206C6576656C732E204D4158206C65BE
:1029D00076656C2069733A004D3234004D323320F5
:1029E00025730053442063617264206F6B0A006F8B
:1029F00070656E526F6F74206661696C65640A0061
:102A0000766F6C756D652E696E6974206661696C90
:102A100065640A00534420696E6974206661696CBC
:102A20000A0043616E6E6F74206F70656E2073755F
:102A30006264697220000200000A0B02090C0D0E8C
:102A4000080703040100000000000000000000006F
:102A50000000000000000000000000000000000076
:102A60000000001211100000000000000000000033
:102A70000000000000000000000000000001021043
:102A80002020080810204010204080020102010888
:102A90000402010102040810204080804020100838
:102AA0000402018004020180402010080402010891
:102AB00004020101020408102040800102040810F1
:102AC00020408005050505070508080808020202E0
:102AD000020A0A08080404040401010101010101B9
:102AE000010303030303030303040707070C0C0C90
:102AF0000C0C0C0C0C020202020606060606060668
:102B0000060B0B0B0B0B0B0B0B00002000230026FE
:102B10000029002C002F00320000010000030106F4
:102B200001090100002200250028002B002E0031A1
:102B300000340002010000050108010B0100002122
:102B400000240027002A002D00300033000101007E
:102B500000040107010A014E414E494E49545949AA
:102B60004E46CDCCCC3D0AD7233C17B7D13877CCD5
:102B70002B329595E6241FB14F0A0000204100003A
:102B8000C84200401C4620BCBE4CCA1B0E5AAEC5F3
:102B90009D74F74B625CCEC5E8C511241FBECFEF14
:102BA000D1E2DEBFCDBF00E00CBF14E0A0E0B2E098
:102BB000EAEAF9EE01E00BBF02C007900D92A636DB
:102BC000B107D9F723E1A6E6B4E001C01D92AC3C01
:102BD000B207E1F715E1CCECD5E100E006C02197A2
:102BE0000109802FFE010E94A8ECC93CD10780E0BA
:102BF0000807A9F70E94E9DE0C94C3F40C940000C6
:102C00009091E9058091E805981731F08091E805E9
:102C10008F5F8F708093E8050895EFE6F0E0808184
:102C20008260808308958091A60480FF05C0899802
:102C30008FEF8093010204C0899A81E080930102A2
:102C40008091A60481FF05C08F9A8FEF80930202C6
:102C500004C08F9881E0809302028091A6049FB700
:102C600082FF0BC0F89480910B018D7F80930B0144
:102C70009FBF8FEF809303020AC0F89480910B01ED
:102C8000826080930B019FBF81E08093030280915B
:102C9000A60483FF05C016988FEF80930402089561
:102CA000169A81E0809304020895BF92CF92DF923A
:102CB000EF92FF920F931F93CF93DF9300D01F9259
:102CC000CDB7DEB780916E008B7F80936E008091D0
:102CD0006F008D7F80936F0078948091A404909111
:102CE000A504009771F001979093A5048093A40424
:102CF0001092A8041092A7040E94001688EC90E09D
:102D0000C9C1E091A704F091A804309709F0CDC1A2
:102D10009091E9058091E805981751F1E091E80557
:102D20000DE4E09FF0011124E651FA4FC0904205F6
:102D3000D0904305E0904405F09045059F01275B46
:102D40003F4FD9014D915D916D917C91D701C601A5
:102D5000841B950BA60BB70B8093420590934305FC
:102D6000A0934405B09345058081886080830BC0A3
:102D70008FB7F894109242051092430510924405C3
:102D8000109245058FBFF093A804E093A7043097F5
:102D900009F47EC152A18091A604418158130AC052
:102DA000242F30E080910002082E000C990B281788
:102DB000390731F05093A604409300020E94131685
:102DC000109288041092890410928A0410928B0445
:102DD000E091A704F091A80487A990AD8134BCE9E3
:102DE0009B0728F48132EEE49E0758F002C080E48D
:102DF0009CE9969587959695879524E02093750490
:102E000012C08131F7E29F0730F09695879522E056
:102E10002093750408C021E0209375048032910549
:102E200010F480E290E07C0100E2E01AF108E11485
:102E300018E0F106F0F0EF2DFF27EE0FFF1FEE0F69
:102E4000FF1FCF018456984FFC0132964591549153
:102E50006E2DAA27659F9001649F210D3A1F06944D
:102E60002A1F3A1F1124FC0185919491821B930B18
:102E70001EC09701369527952C7F24563C4FF901AB
:102E800085919491F901329665917491A7014770EB
:102E90005527649F9001659F300D749F300D11245C
:102EA00053E0369527955A95E1F7821B930B8436AC
:102EB000910588F409E313E0D8018D918D018823F1
:102EC00019F00E94B821F8CF6AE070E0C7010E94B3
:102ED0006B2284E690E09093730480937204809157
:102EE000750480937404E091A704F091A80483AD65
:102EF00094AD90937704809376048134BCE99B076A
:102F000028F48132EEE49E0758F002C080E49CE988
:102F1000969587959695879524E02093750412C021
:102F20008131F7E29F0730F09695879522E0209354
:102F3000750408C021E0209375048032910510F4D7
:102F400080E290E07C0100E2E01AF108E11418E070
:102F5000F106F0F0EF2DFF27EE0FFF1FEE0FFF1F22
:102F6000CF018456984FFC013296459154916E2DB5
:102F7000AA27659F9001649F210D3A1F06942A1F7E
:102F80003A1F1124FC0185919491821B930B1EC062
:102F90009701369527952C7F24563C4FF901859152
:102FA0009491F901329665917491A7014770552764
:102FB000649F9001659F300D749F300D1124B3E024
:102FC00036952795BA95E1F7821B930B84369105C8
:102FD00088F409E313E0D8018D918D01882319F05D
:102FE0000E94B821F8CF6AE070E0C7010E946B220E
:102FF00084E690E0AC0160E070E040938C04509374
:103000008D0460938E0470938F0490938900809355
:103010008800E091A704F091A80482899389A4898B
:10302000B589B695A79597958795B095A0959095F4
:1030300081959F4FAF4FBF4F809394049093950419
:10304000A0939604B0939704809398049093990466
:10305000A0939A04B0939B0480939C0490939D0446
:10306000A0939E04B0939F048093A0049093A10426
:10307000A093A204B093A304109290041092910420
:10308000109292041092930482E080937F110DC0FD
:1030900080ED97E09093890080938800F894809168
:1030A000A90B882309F4E0C3D9C380917F11882339
:1030B00021F0809105028111EFC320917504222334
:1030C00009F4AFC1E091A704F091A8044091A004D5
:1030D0005091A1046091A2047091A3048281938114
:1030E000A481B581840F951FA61FB71F8093A004EC
:1030F0009093A104A093A204B093A30418161906F8
:103100001A061B060CF4889AE091A704F091A80413
:1031100040919C0450919D0460919E0470919F0485
:1031200086819781A085B185840F951FA61FB71F43
:1031300080939C0490939D04A0939E04B0939F045D
:10314000181619061A061B060CF48E9AE091A704AD
:10315000F091A804409198045091990460919A04C8
:1031600070919B0482859385A485B585840F951FF6
:10317000A61FB71F8093980490939904A0939A0474
:10318000B0939B04181619061A061B0644F49FB741
:10319000F89480910B01886080930B019FBFE091B0
:1031A000A704F091A8044091940450919504609173
:1031B00096047091970486859785A089B189840FBC
:1031C000951FA61FB71F8093940490939504A09316
:1031D0009604B0939704181619061A061B060CF4E9
:1031E000149A8091A0049091A104A091A204B0919E
:1031F000A304181619061A061B0684F5E091A70405
:10320000F091A8044289538964897589841B950BC0
:10321000A60BB70B8093A0049093A104A093A204E3
:10322000B093A304809101024091780450917904F5
:1032300060917A0470917B04082E000C990BAA0B04
:10324000BB0B840F951FA61FB71F80937804909324
:103250007904A0937A04B0937B04889880919C04AD
:1032600090919D04A0919E04B0919F041816190698
:103270001A061B0684F5E091A704F091A804428980
:10328000538964897589841B950BA60BB70B8093B2
:103290009C0490939D04A0939E04B0939F048091FE
:1032A000020240917C0450917D0460917E047091F3
:1032B0007F04082E000C990BAA0BBB0B840F951FE3
:1032C000A61FB71F80937C0490937D04A0937E0477
:1032D000B0937F048E988091980490919904A09166
:1032E0009A04B0919B04181619061A061B06BCF521
:1032F000E091A704F091A8044289538964897589F3
:10330000841B950BA60BB70B80939804909399049C
:10331000A0939A04B0939B0480910302409180048F
:10332000509181046091820470918304082E000CF6
:10333000990BAA0BBB0B840F951FA61FB71F809379
:10334000800490938104A0938204B09383049FB778
:10335000F89480910B01877F80930B019FBF809130
:10336000940490919504A0919604B0919704181636
:1033700019061A061B0684F5E091A704F091A8042B
:103380004289538964897589841B950BA60BB70BF9
:103390008093940490939504A0939604B09397041B
:1033A00080910402409184045091850460918604C8
:1033B00070918704082E000C990BAA0BBB0B840F8D
:1033C000951FA61FB71F8093840490938504A09334
:1033D0008604B0938704149880919004909191048E
:1033E000A0919204B09193040196A11DB11D809308
:1033F000900490939104A0939204B093930421506D
:10340000E091A704F091A8044289538964897589E1
:1034100084179507A607B70708F451CEBB24B394C9
:1034200001C0B12C4091900450919104609192049C
:1034300070919304E090A704F090A804F7018689A6
:103440009789A08DB18D84179507A607B70708F453
:10345000E2C040918C0450918D0460918E04709173
:103460008F04068D178D20A131A1AA27419FB12D70
:10347000529FC001629F900D619F800D911D429FE0
:10348000B00D811D9A1F519FB00D811D9A1F609F25
:10349000B00D811D9A1F509FB10D8A1F9A1FB695BE
:1034A0008A1F9A1F349F800D911D359F900D112406
:1034B00023AD34AD820F931F9093770480937604ED
:1034C00047A950AD61AD72ADA0E0B0E04817590713
:1034D0006A077B0720F45093770440937604809129
:1034E0007604909177048134BCE99B0728F48132FB
:1034F000EEE49E0758F002C080E49CE9969587951B
:103500009695879524E02093750412C08131F7E2E7
:103510009F0730F09695879522E02093750408C0A8
:1035200021E0209375048032910510F480E290E050
:103530008C0100521109011528E01207E8F0E12F73
:10354000FF27EE0FFF1FEE0FFF1FCF018456984F8E
:10355000FC01329645915491AA27059F9001049F42
:10356000210D3A1F06942A1F3A1F1124FC01859150
:103570009491821B930B1EC09801369527952C7F42
:1035800024563C4FF90185919491F9013296659149
:103590007491A80147705527649F9001659F300D75
:1035A000749F300D112443E0369527954A95E1F735
:1035B000821B930B8436910598F489E3E82E83E00F
:1035C000F82ED7018D917D01882319F00E94B82132
:1035D000F8CF6AE070E0C8010E946B2284E690E0B8
:1035E000909389008093880040918C0450918D04C1
:1035F00060918E0470918F048A019B01080F191F3E
:10360000211D311D00938C0410938D0420938E0492
:1036100030938F0401C140919004509191046091C6
:10362000920470919304F701828D938DA48DB58DD2
:1036300084179507A607B70708F0E2C040918804F1
:103640005091890460918A0470918B04068D178DC6
:1036500020A131A1AA27419FB12D529F6001629FF5
:10366000D00C619FC00CD11C429FB00DC11CDA1E52
:10367000519FB00DC11CDA1E609FB00DC11CDA1E37
:10368000509FB10DCA1EDA1EB695CA1EDA1E349FAF
:10369000C00CD11C359FD00C1124809176049091E0
:1036A0007704FF96C816D90680F48C199D094081CD
:1036B0005181628173816C01E12CF12CC416D50615
:1036C000E606F70620F4CA0102C0808191818134A8
:1036D000BCE99B0728F48132EEE49E0758F002C053
:1036E00080E49CE9969587959695879524E02093AC
:1036F000750412C08131F7E29F0730F096958795E7
:1037000022E02093750408C021E0209375048032E4
:10371000910510F480E290E08C010052110901152E
:1037200028E01207E8F0E12FFF27EE0FFF1FEE0F52
:10373000FF1FCF018456984FFC013296459154915A
:10374000AA27059F9001049F210D3A1F06942A1F66
:103750003A1F1124FC0185919491821B930B1FC089
:10376000C801969587958C7F84569C4FFC014591A6
:103770005491FC01329665917491C8018770992724
:10378000689F9001699F300D789F300D112463E090
:10379000369527956A95E1F7CA01821B930B84360B
:1037A000910598F489E3E82E83E0F82ED7018D91F6
:1037B0007D01882319F00E94B821F8CF6AE070E0FB
:1037C000C8010E946B2284E690E090938900809368
:1037D0008800409188045091890460918A04709116
:1037E0008B048A019B01080F191F211D311D0093B5
:1037F00088041093890420938A0430938B040CC0AE
:103800008091720490917304909389008093880052
:103810008091740480937504209188003091890010
:10382000809184009091850040962817390748F4CC
:1038300080918400909185004096909389008093B8
:103840008800BB2031F01092A8041092A7040E94B7
:103850000016F8948091A90B882331F080916E00B6
:103860008B7F80936E0005C080916E008460809392
:103870006E0080916F00826080936F000F900F90B8
:103880000F900F90DF91CF911F910F91FF90EF90CC
:10389000DF90CF90BF9008950E94892080917F1182
:1038A000815080937F1109CC1F920F920FB60F9217
:1038B00011240BB60F922F933F934F935F936F9307
:1038C0007F938F939F93AF93BF93EF93FF930E9448
:1038D0005516FF91EF91BF91AF919F918F917F917D
:1038E0006F915F914F913F912F910F900BBE0F9071
:1038F0000FBE0F901F9018950F931F93CF93DF93D8
:10390000819A879A0AE011E0D8018C9182608C93A9
:103910000E9A3B9A579A5F9A829A8A9AE7E0F1E068
:103920008081816080839FB7F894C8E0D1E088816E
:10393000816088839FBF0A9A129A3F9A479A8DEABC
:1039400094E00E94661F809A88985F9AEBECFEE0F4
:103950001082869A8E988A9A1182D8018C918860FA
:103960008C939FB7F894ABE0B1E08C91877F8C93F8
:103970009FBF9FB7F8948881816088839FBF128220
:103980000C9A1498129A399A4198A0E8B0E08C9158
:103990008C7F8C93E1E8F0E08081877E8860808373
:1039A0008C918F738C938081887F8260808380E08C
:1039B00090E4909389008093880010928500109283
:1039C0008400EFE6F0E080818260808381E0809374
:1039D00005027894DF91CF911F910F910C941316EB
:1039E0009091E9058091E805981721F080E00E9408
:1039F0000BB3F6CF0895CF92DF92EF92FF920F9321
:103A00001F93CF93DF936C017B018A01E9010E9430
:103A1000F01C9FB7F894D6014D915D916D917C910A
:103A2000E8E7F4E04083518362837383D7014D91CB
:103A30005D916D917C914483558366837783D80132
:103A40004D915D916D917C9140875187628773871D
:103A5000488159816A817B8144875587668777874A
:103A60009FBFDF91CF911F910F91FF90EF90DF905B
:103A7000CF900895FC019FB7F8940190F081E02D5C
:103A8000DB014D915D916D917C91EE0FFF1FEE0F6B
:103A9000FF1FE858FB4F40835183628373839FBFAE
:103AA00008952FB7F894FC01EE0FFF1FEE0FFF1FD4
:103AB000E858FB4F60817181828193812FBF089507
:103AC000CF93DF93EC010E94511D0E94A7E9CC0F18
:103AD000DD1FCC0FDD1FC854DA4F288139814A81A0
:103AE0005B810E9455EBDF91CF9108950E94F01CFD
:103AF0000C94CBAF88E893E19093A5048093A40441
:103B000080916F008D7F80936F009091E905809187
:103B1000E805981719F00E940016F7CF1092A80434
:103B20001092A70480916F00826080936F008FB71E
:103B3000F894109242051092430510924405109299
:103B400045058FBF0895880F991F880F991FFC01A5
:103B5000E858FB4F4081518162817381FC01EA5931
:103B6000FB4F4083518362837383E091A704F091FC
:103B7000A80482899389A489B5898093900490933D
:103B80009104A0939204B093930408954F925F928E
:103B90006F927F928F929F92AF92BF92CF92DF925D
:103BA000EF92FF92CF93DF938FB7F8944090780411
:103BB0005090790460907A0470907B0480907C042B
:103BC00090907D04A0907E04B0907F04C09080040B
:103BD000D0908104E0908204F09083048FBFE2E9EA
:103BE000F3E08491EF012196882321F00E94B8210F
:103BF000FE01F7CF4AE050E0C301B2010E94492222
:103C0000EEE8F3E08491EF012196882321F00E94F1
:103C1000B821FE01F7CF4AE050E0C501B4010E948F
:103C20004922EAE8F3E08491EF012196882321F00C
:103C30000E94B821FE01F7CF4AE050E0C701B6016B
:103C40000E9449228AE0DF91CF91FF90EF90DF90B0
:103C5000CF90BF90AF909F908F907F906F905F902C
:103C60004F900C94B821CF93F89481309105D1F006
:103C70008230910551F1892B09F06AC0CFB1C27031
:103C80005F98662311F0899A01C08998889A84E028
:103C900090E00E940EE48898CC2311F0899A58C0D5
:103CA000899856C0CFB18A98611102C08F9A01C01D
:103CB0008F988E9A84E090E00E940EE48E98C7FF61
:103CC00002C08F9A45C08F9843C0C0910901C2704D
:103CD0009FB7F894809108018E7F809308019FBF61
:103CE0009FB7662341F0F89480910B018260809326
:103CF0000B019FBF07C0F89480910B018D7F8093CB
:103D00000B019FBF9FB7F89480910B01886080934F
:103D10000B019FBF84E090E00E940EE49FB7F894EF
:103D200080910B01877F80930B019FBF9FB7CC23AE
:103D300041F0F89480910B01826080930B019FBF4A
:103D400007C0F89480910B018D7F80930B019FBF7A
:103D50007894CF91089598E288E10FB6F894A895E9
:103D6000809360000FBE909360000895FC01118263
:103D70001082168217821086118612861386148688
:103D8000158612821382148215820895CF93DF93D1
:103D9000FC0120813181215031092230310510F0A0
:103DA00080E00AC0EC01118210820E94A1E36A87C0
:103DB0007B878C879D8781E0DF91CF910895CF939A
:103DC000DF93FC01208131812130310569F4EC0160
:103DD00082E090E0918380830E94A1E36A877B87E1
:103DE0008C879D8781E001C080E0DF91CF910895AD
:103DF000FC0181E0208131812130310509F080E032
:103E00000895FC0181E0208131812230310509F0E3
:103E100080E008950F931F93CF93DF93EC01888187
:103E20009981019719F40E94A1E304C06A857B85FA
:103E30008C859D850E811F8128853985601B710BBE
:103E4000820B930B28EE33E040E050E00E9467ECD9
:103E50008A819B81AC81BD81BC01CD01620F731F42
:103E6000841F951FDF91CF911F910F910895CF93DC
:103E7000DF93FC01208131812130310519F1EC0102
:103E80002230310539F40E940A1F6A837B838C83B8
:103E90009D830CC0168217821086118612861386A7
:103EA00014861586128213821482158281E090E0B6
:103EB000998388830E94A1E36E837F838887998793
:103EC00081E001C080E0DF91CF9108956D98759AEF
:103ED000E4E0F1E080818D7F80839FB7F894E5E096
:103EE000F1E08081826080839FBF53985B9A089540
:103EF0001F93CF93DF938091AB04882309F4A3C071
:103F0000E4E0FFE08491EF012196882321F00E94F4
:103F1000B821FE01F7CFEFEEFBE08491EF0121968F
:103F2000882321F00E94B821FE01F7CF8091AB04D5
:103F300080FD35C08091AB0484FD31C0D0E280911A
:103F4000AB0481FD48C08091AB0485FD44C010E204
:103F50008091AB0482FD5BC08091AB0486FD57C0AD
:103F6000C0E28AE00E94B8211F9280E28F931F92E4
:103F7000CF931F921F931F92DF938EEC9BE09F9332
:103F80008F931F920E94C7591092AB048DB79EB7B2
:103F90000B960FB6F8949EBF0FBE8DBF54C06091B4
:103FA00066047091670480916804909169040E948E
:103FB000A7E92091B8053091B9054091BA05509113
:103FC000BB050E9455EBAB01BC018BEE9BE00E9450
:103FD000732FD8E5B4CF60916A0470916B0480911F
:103FE0006C0490916D040E94A7E92091BC0530916A
:103FF000BD054091BE055091BF050E9455EBAB0138
:10400000BC0187EE9BE00E94732F19E5A1CF609160
:104010006E0470916F0480917004909171040E94FD
:10402000A7E92091C0053091C1054091C20550918A
:10403000C3050E9455EBAB01BC0183EE9BE00E94DF
:10404000732FCAE58ECFDF91CF911F910895CF9343
:10405000DF93E4EBFBE08491EF012196882321F0CC
:104060000E94B821FE01F7CFECEAFBE08491EF015A
:104070002196882321F00E94B821FE01F7CF65998F
:1040800003C0C7E5D3E002C0CDE4D3E08991882323
:1040900019F00E94B821FACF8AE00E94B821E4EA20
:1040A000FBE08491EF012196882321F00E94B82142
:1040B000FE01F7CF8091030181FD03C0C7E5D3E086
:1040C00002C0CDE4D3E08991882319F00E94B82181
:1040D000FACF8AE00E94B821ECE9FBE08491EF017D
:1040E0002196882321F00E94B821FE01F7CF4B9939
:1040F00003C0C7E5D3E002C0CDE4D3E089918823B3
:1041000019F00E94B821FACF8AE0DF91CF910C9488
:10411000B8210F931F93CF93DF93E091A704F09101
:10412000A804428153816481758114161506160610
:104130001706E4F42091A60420FF18C03CB120919A
:10414000AA0435FB882780F92E7F822B8093AA044E
:104150009091A9049170892349F08091AB0481600A
:104160008093AB0480E090E00E94A31DE091A7043F
:10417000F091A80486819781A085B185181619064B
:104180001A061B0644F58091A60481FF24C0809185
:1041900003012091AA04422F50E081FB002700F97F
:1041A00010E022273327201B310B242735272270CC
:1041B0003327242735272093AA048091A9048270ED
:1041C000282349F08091AB0482608093AB0481E0A6
:1041D00090E00E94A31DE091A704F091A8048285BD
:1041E0009385A485B585181619061A061B064CF585
:1041F0008091A60482FF25C099B18091AA04282F3E
:1042000030E093FB992790F9C92F80E0D82F8827B9
:1042100099278C1B9D0B82279327847099278227CF
:1042200093278093AA049091A9049470892349F05C
:104230008091AB0484608093AB0482E090E00E94A4
:10424000A31D8091AA048093A904DF91CF911F91AF
:104250000F9108951F920F920FB60F9211240BB673
:104260000F922F933F938F939F93EF93FF93209100
:10427000C6009FB7F894E0912E0581E08E0F8F77EE
:1042800030912F05831731F0F0E0E255FB4F20838A
:1042900080932E059FBFFF91EF919F918F913F914A
:1042A0002F910F900BBE0F900FBE0F901F9018957F
:1042B0009B01AC01211581EE38074105510549F1FB
:1042C00082E08093C00060E079E08DE390E00E949E
:1042D00089ECCA01B901615071098109910922E093
:1042E00030E040E050E00E9489EC3093C50020931C
:1042F000C4008091C10080618093C1008091C100A1
:1043000088608093C1008091C10080688093C10063
:1043100008951092C00020E130E0E7CF8FB7F89405
:1043200090912F0520912E05291759F0E92FF0E0E3
:10433000E255FB4F208130E09F5F9F7790932F05E0
:1043400002C02FEF3FEF8FBFC90108952FB7F89438
:1043500080912E0590912F052FBF891B8F7708958F
:104360008FB7F89490912F0590932E058FBF0895E5
:104370009091C00095FFFCCF8093C60008958DE01A
:104380000E94B8218AE00C94B8218F929F92AF923C
:10439000BF92EF92FF921F93CF93DF93CDB7DEB71B
:1043A000A0970FB6F894DEBF0FBECDBF61157105A3
:1043B0008105910581F110E0842E912CA12CB12C66
:1043C000EE24E394F12CEC0EFD1EE10EF11C17FD22
:1043D000FA94A50194010E9467ECF7016083B9018A
:1043E000CA011F5F611571058105910549F71150DB
:1043F00020F1E1E0F0E0EC0FFD1FE10FF11D17FDF2
:10440000FA9580818A3010F097E301C090E3890F1C
:104410000E94B821ECCF80E3A0960FB6F894DEBFDF
:104420000FBECDBFDF91CF911F91FF90EF90BF9056
:10443000AF909F908F900C94B821A0960FB6F894EF
:10444000DEBF0FBECDBFDF91CF911F91FF90EF90E8
:10445000BF90AF909F908F900895CF92DF92EF9290
:10446000FF926B017C0197FF0BC08DE20E94B82187
:10447000F094E094D094C094C11CD11CE11CF11CB8
:104480004AE0C701B601FF90EF90DF90CF900C9407
:10449000C5214115510519F4862F0C94B8214A30D5
:1044A000510511F40C942D220C94C521AB01BC01D3
:1044B000990F880B990B0C9449224115510519F459
:1044C000862F0C94B8210C94C521AB01BC0180E06F
:1044D00090E00C945D22AB01BC0180E090E00E9472
:1044E0005D220C94BF218F929F92AF92BF92CF9288
:1044F000DF92EF92FF92CF936B017C01B42E20E00C
:1045000030E0A9010E94F3E887FF07C08DE20E9416
:10451000B821F7FAF094F7F8F094C0E060E070E0AA
:1045200080E09FE3CB1541F02DEC3CEC4CEC5DE3DF
:104530000E9455EBCF5FF6CF9B01AC01C701B601DE
:104540000E94FEE76B017C010E9476E94B015C0151
:104550004AE00E94C521CC2389F1C501B4010E9423
:10456000A5E99B01AC01C701B6010E94FDE76B0103
:104570007C018EE20E94B82120E030E040E251E46C
:10458000C701B6010E9455EB4B015C010E946FE927
:104590006B01770FEE08FF08C701B6010E942D22BC
:1045A000C701B6010E94A7E99B01AC01C501B40196
:1045B0000E94FDE76B017C01C150F1F6CF91FF90A5
:1045C000EF90DF90CF90BF90AF909F908F90089525
:1045D0000C9473220E94254B0E948F4B0E94DA8C10
:1045E0000E9432AE80E090E00E94C09C81E090E0AA
:1045F0000E94C09C82E090E00C94C09CAF92BF925D
:10460000DF92EF92FF920F931F93CF93DF9320914E
:104610003105211146C08A017C01EB01060F171FED
:10462000C017D10709F43DC0F701A080B180D9902F
:10463000C5010E948BF4D81619F16D2DC5010E9499
:10464000B5F4C5010E948BF48D15D1F0E4E0FFE0D4
:104650008491EF012196882321F00E94B821FE0168
:10466000F7CFEAEEFEE08491EF012196882321F056
:104670000E94B821FE01F7CF81E08093310511C07F
:1046800080913205909133058D0D911D90933305E6
:1046900080933205F7018081918101969183808317
:1046A000BFCFDF91CF911F910F91FF90EF90DF90DF
:1046B000BF90AF900895EF92FF920F931F93CF9307
:1046C000DF937C01EB018B01040F151FF701808143
:1046D00091810E948BF490913005911101C08883E3
:1046E0002091320530913305A901480F511D509397
:1046F000330540933205F7018081918101969183C2
:1047000080832196C017D10709F7DF91CF911F91C0
:104710000F91FF90EF9008958F929F92AF92BF926A
:10472000CF92DF92EF92FF920F931F93CF93DF937D
:10473000CDB7DEB7AA970FB6F894DEBF0FBECDBFD8
:104740001D8A1E8A1F8A188E80E390E3A0E3B0E0E2
:10475000898B9A8BAB8BBC8B84E690E09AA389A360
:104760001092310544E050E0BE016F5E7F4FCE01F4
:1047700081960E94FE2289A19AA102969AA389A3FA
:10478000109233051092320581E08AA741E050E093
:10479000BE01665D7F4FCE0181960E94FE2240E100
:1047A00050E068EC75E0CE0181960E94FE2240E167
:1047B00050E068ED75E0CE0181960E94FE2240E156
:1047C00050E068E975E0CE0181960E94FE2244E047
:1047D00050E06CE875E0CE0181960E94FE2244E034
:1047E00050E068E875E0CE0181960E94FE2244E028
:1047F00050E064E875E0CE0181960E94FE2244E01C
:1048000050E060E975E0CE0181960E94FE2244E00E
:1048100050E060E775E0CE0181960E94FE2244E000
:1048200050E064E975E0CE0181960E94FE2240E1ED
:1048300050E064E775E0CE0181960E94FE224CE0D4
:1048400050E065E17DE0CE0181960E94FE2280E08D
:1048500090E0A0E2B1E48D879E87AF87B88B44E0FB
:1048600050E0BE01635F7F4FCE0181960E94FE2221
:1048700019A61D8A1E8A1F8A188E83E088A78FA317
:1048800041E050E0BE01675D7F4FCE0181960E94FE
:10489000FE2244E050E0BE016B5E7F4FCE01819668
:1048A0000E94FE2241E050E0BE01685D7F4FCE01D4
:1048B00081960E94FE2241E050E0BE01695D7F4F7B
:1048C000CE0181960E94FE221AE0115051F044E080
:1048D00050E0BE016B5E7F4FCE0181960E94FE22AA
:1048E000F4CF19861A861B861C8644E050E0BE0170
:1048F000675F7F4FCE0181960E94FE221D8A1E8A2D
:104900001F8A188E1AE0115051F044E050E0BE01A9
:104910006B5E7F4FCE0181960E94FE22F4CF83E032
:104920008EA38DA31D821E821F82188619821A8271
:104930001B821C821D8A1E8A1F8A188E41E050E04D
:10494000BE016A5D7F4FCE0181960E94FE2241E04A
:1049500050E0BE016B5D7F4FCE0181960E94FE222A
:1049600044E050E0BE016F5F7F4FCE0181960E9410
:10497000FE2244E050E0BE016B5F7F4FCE01819686
:104980000E94FE220AE010E00150110951F044E0BB
:1049900050E0BE016B5E7F4FCE0181960E94FE22E9
:1049A000F3CF1CA21D8A1E8A1F8A188E8FEF8BA33D
:1049B00041E050E0BE016C5D7F4FCE0181960E94C8
:1049C000FE2244E050E0BE016B5E7F4FCE01819637
:1049D0000E94FE2241E050E0BE016D5D7F4FCE019E
:1049E00081960E94FE221D8A1E8A1F8A188E1DE053
:1049F000115044E050E041F0BE016B5E7F4FCE01AC
:104A000081960E94FE22F4CF68E97BE0CE01819678
:104A10000E94FE2244E050E064E97BE0CE018196F2
:104A20000E94FE2244E050E060E97BE0CE018196E6
:104A30000E94FE22C12C80E8D82E8BE3E82E85E46C
:104A4000F82E812C912C90E8A92E9FE3B92E1111FC
:104A500026C044E050E06AEA72E0CE0181960E94EE
:104A6000FE2244E050E066EA72E0CE0181960E94A8
:104A7000FE2244E050E062EA72E0CE0181960E949C
:104A8000FE228D8A9E8AAF8AB88E44E050E0BE0135
:104A90006B5E7F4FCE0181960E94FE221EC0CD8AA2
:104AA000DE8AEF8AF88E44E050E0BE016B5E7F4FF5
:104AB000CE0181960E94FE221D8A1E8A1F8A188EB0
:104AC00004E0015051F044E050E0BE016B5E7F4FC6
:104AD000CE0181960E94FE22F4CF1F5F153009F0AF
:104AE000B6CF84E190E098A38F8F42E050E0BE0102
:104AF000615E7F4FCE0181960E94FE2280E090E8A9
:104B0000ABE3B5E48D8B9E8BAF8BB88F14E0115067
:104B100051F044E050E0BE016B5E7F4FCE018196C4
:104B20000E94FE22F4CF80E290E09E8F8D8F42E0C3
:104B300050E0BE01635E7F4FCE0181960E94FE224F
:104B400041E050E06DE27DE0CE0181960E94FE22C0
:104B500011110CC08091C5029091C602A091C702AC
:104B6000B091C8028D8B9E8BAF8BB88F44E050E024
:104B7000BE016B5E7F4FCE0181960E94FE221F5FB9
:104B8000153031F71C8E1B8E1BE042E050E0BE0159
:104B9000655E7F4FCE0181960E94FE221150A9F7DB
:104BA0001D8A1E8A1F8A188E44E050E0BE016B5E8B
:104BB0007F4FCE0181960E94FE2244E050E0BE016C
:104BC0006B5E7F4FCE0181960E94FE22809131055F
:104BD00081113CC080913205909133059A8F898F65
:104BE000E9A0FAA084E690E09AA389A344E050E00B
:104BF0006CE573E0CE0181960E94FE2242E050E017
:104C0000BE01675E7F4FCE0181960E94FE22E4E0E6
:104C1000FFE084918F010F5F1F4F882321F00E94D6
:104C2000B821F801F6CFB7016456710988ED9EE00E
:104C30000E943D2FEFECFEE084918F010F5F1F4F2C
:104C4000882321F00E94B821F801F6CF9091310518
:104C500081E08927AA960FB6F894DEBF0FBECDBFBC
:104C6000DF91CF911F910F91FF90EF90DF90CF9048
:104C7000BF90AF909F908F900895AF92BF92CF92C8
:104C8000DF92EF92FF920F931F93CF93DF93CDB7F5
:104C9000DEB7E0970FB6F894DEBF0FBECDBF80E160
:104CA000E3EEF2E0DE01919601900D928A95E1F734
:104CB00080E1E3EFF2E0DE01519601900D928A95DA
:104CC000E1F780E1E3E0F3E0DE01119601900D925F
:104CD0008A95E1F7DE01919668EC75E0AE014F5ED2
:104CE0005F4F28ED35E0CE0101965C0188E995E043
:104CF0008E010F5C1F4FCD90DD90ED90FD90FB017C
:104D0000C192D192E192F192BF01FA01C190D1908A
:104D1000E190F190AF01F901C192D192E192F1924B
:104D20009F01F501C190D190E190F1905F01FC01EC
:104D3000C192D192E192F192CF01A017B107D9F6B9
:104D400080E090E0AAEFB4E480938C0590938D0509
:104D5000A0938E05B0938F0580E090E8ABE3B5E4B7
:104D60008093880590938905A0938A05B0938B055D
:104D70008093840590938505A0938605B09387055D
:104D80001092900510929105109292051092930541
:104D900080E29EE4A0E0B0E08093940590939505B6
:104DA000A0939605B0939705109270051092710527
:104DB000109272051092730580E090E0A0EAB1E4D1
:104DC0008093740590937505A0937605B09377054D
:104DD0008093780590937905A0937A05B0937B052D
:104DE0008DEC9CECACECBEE380937C0590937D0550
:104DF000A0937E05B0937F0580E090E0A0EAB0E448
:104E00008093800590938105A0938205B0938305DC
:104E10008CE0E5E1FDE0DF011D928A95E9F78EEB7C
:104E200090E09093990B8093980B81EE90E0909393
:104E30009B0B80939A0B8CE390E09093950B80935F
:104E4000940B8AE590E09093970B8093960B80E605
:104E500090E09093910B8093900B1092930B109293
:104E6000920B8AE999E9A1EBB1E48093AA029093AD
:104E7000AB02A093AC02B093AD0286EA91E3A5E346
:104E8000BEE38093A6029093A702A093A802B093DA
:104E9000A90280E493EFADE2B4E48093A202909380
:104EA000A302A093A402B093A50210922D0D80E05E
:104EB00090E0A0E4B0E48093C5029093C602A09372
:104EC000C702B093C802109205021092AC040E946F
:104ED000EA22E4E0FFE084918F010F5F1F4F8823F7
:104EE00021F00E94B821F801F6CFECE3FEE08491B6
:104EF0008F010F5F1F4F882321F00E94B821F80116
:104F0000F6CFE0960FB6F894DEBF0FBECDBFDF91AF
:104F1000CF911F910F91FF90EF90DF90CF90BF90B6
:104F2000AF900895AF92BF92CF92DF92EF92FF922F
:104F30000F931F93CF93C82F882319F0E6E2FEE06A
:104F40000CC0E4E0FFE084918F010F5F1F4F8823C6
:104F5000A9F30E94B821F801F6CF84918F010F5F69
:104F60001F4F882321F00E94B821F801F6CF8AE074
:104F70000E94B821CC2319F0E8E0FEE00CC0E4E088
:104F8000FFE084918F010F5F1F4F8823A9F30E94D8
:104F9000B821F801F6CF84918F010F5F1F4F88234E
:104FA00021F00E94B821F801F6CF8AE00E94B821D2
:104FB000C1112CC0E4E0FFE084918F010F5F1F4F0F
:104FC000882321F00E94B821F801F6CFE5EFFDE03B
:104FD00084918F010F5F1F4F882321F00E94B82119
:104FE000F801F6CF80912D0D882321F08AE00E94F0
:104FF000B8213AC0EAEEFDE084918F010F5F1F4FA8
:10500000882391F10E94B821F801F6CF4091C502A2
:105010005091C6026091C7027091C80281EE9DE076
:105020000E94732F8AE00E94B82180912D0D81117A
:1050300027C0CC2319F0E6EDFDE00CC0E4E0FFE072
:1050400084918F010F5F1F4F8823A9F30E94B8211D
:10505000F801F6CF84918F010F5F1F4F882381F0F5
:105060000E94B821F801F6CFE4E0FFE084918F01BF
:105070000F5F1F4F882351F20E94B821F801F6CF2D
:10508000C11124C0E4E0FFE084918F010F5F1F4F46
:10509000882321F00E94B821F801F6CFE5ECFDE06D
:1050A00084918F010F5F1F4F882321F00E94B82148
:1050B000F801F6CFE4E0FFE084918F010F5F1F4F0E
:1050C000882321F00E94B821F801F6CF4091C8054D
:1050D0005091C9056091CA057091CB058DEB9DE09B
:1050E0000E94732F4091CC055091CD056091CE0563
:1050F0007091CF058AEB9DE00E94732F4091D005FF
:105100005091D1056091D2057091D30587EB9DE058
:105110000E94732F4091D4055091D5056091D6051A
:105120007091D70584EB9DE00E94732F8AE00E9466
:10513000B821C11124C0E4E0FFE084918F010F5F2A
:105140001F4F882321F00E94B821F801F6CFE6E92D
:10515000FDE084918F010F5F1F4F882321F00E9493
:10516000B821F801F6CFE4E0FFE084918F010F5FF2
:105170001F4F882321F00E94B821F801F6CF4091FB
:10518000D8055091D9056091DA057091DB058DE85D
:105190009DE00E94732F4091DC055091DD056091E8
:1051A000DE057091DF058AE89DE00E94732F409133
:1051B000E0055091E1056091E2057091E30587E813
:1051C0009DE00E94732F4091E4055091E5056091A8
:1051D000E6057091E70584E89DE00E94732F8AE060
:1051E0000E94B821C11124C0E4E0FFE084918F0146
:1051F0000F5F1F4F882321F00E94B821F801F6CFDE
:10520000E2E6FDE084918F010F5F1F4F882321F0BC
:105210000E94B821F801F6CFE4E0FFE084918F010D
:105220000F5F1F4F882321F00E94B821F801F6CFAD
:10523000409198055091990560919A0570919B0550
:1052400089E59DE00E94AF2F40919C0550919D05FE
:1052500060919E0570919F0586E59DE00E94AF2FAD
:105260004091A0055091A1056091A2057091A30500
:1052700083E59DE00E94AF2F4091A4055091A505C4
:105280006091A6057091A70580E59DE00E94AF2F73
:105290008AE00E94B821C11124C0E4E0FFE08491BB
:1052A0008F010F5F1F4F882321F00E94B821F80162
:1052B000F6CFE6E0FDE084918F010F5F1F4F88235A
:1052C00021F00E94B821F801F6CFE4E0FFE08491DC
:1052D0008F010F5F1F4F882321F00E94B821F80132
:1052E000F6CF40918C0550918D0560918E0570919F
:1052F0008F058DEF9CE00E94732F4091880550919F
:10530000890560918A0570918B058AEF9CE00E9467
:10531000732F4091840550918505609186057091A9
:10532000870587EF9CE00E94732F8AE00E94B821D6
:10533000C11124C0E4E0FFE084918F010F5F1F4F93
:10534000882321F00E94B821F801F6CFE3E8FCE0C1
:1053500084918F010F5F1F4F882321F00E94B82195
:10536000F801F6CFE4E0FFE084918F010F5F1F4F5B
:10537000882321F00E94B821F801F6CF40919005D2
:105380005091910560919205709193058AE79CE098
:105390000E94732F409170055091710560917205C4
:1053A0007091730587E79CE00E94732F40919405EC
:1053B00050919505609196057091970584E79CE062
:1053C0000E94AF2F4091740550917505609176054C
:1053D0007091770581E79CE00E94732F40917805DA
:1053E0005091790560917A0570917B058EE69CE07D
:1053F0000E94732F40917C0550917D0560917E0540
:1054000070917F058BE69CE00E94732F4091800590
:1054100050918105609182057091830588E69CE03A
:105420000E94732F8AE00E94B821C11124C0E4E0D9
:10543000FFE084918F010F5F1F4F882321F00E94AE
:10544000B821F801F6CFEAE5FCE084918F010F5F07
:105450001F4F882321F00E94B821F801F6CFE4E025
:10546000FFE084918F010F5F1F4F882321F00E947E
:10547000B821F801F6CF4091150D5091160D6091AD
:10548000170D7091180D81E59CE00E94732F4091DB
:10549000190D50911A0D60911B0D70911C0D8EE429
:1054A0009CE00E94732F40911D0D50911E0D609144
:1054B0001F0D7091200D8BE49CE00E94732F8AE0F9
:1054C0000E94B821C11118C0E4E0FFE084918F016F
:1054D0000F5F1F4F882321F00E94B821F801F6CFFB
:1054E000EEE2FCE084918F010F5F1F4F882399F05B
:1054F0000E94B821F801F6CF88E9A82E8BE0B82EDB
:1055000094E9C92E9BE0D92E20E9E22E2BE0F22E61
:1055100000E010E00CC0E4E0FFE084918F010F5F39
:105520001F4F882349F30E94B821F801F6CFB80134
:1055300085E29CE00E943D2FF501619171915F0130
:1055400082E29CE00E943D2FF601619171916F0112
:105550008FE19CE00E943D2FF701619171917F01E5
:105560008CE19CE00E943D2F8AE00E94B82101302E
:10557000110519F001E010E0DACFC11124C0E4E018
:10558000FFE084918F010F5F1F4F882321F00E945D
:10559000B821F801F6CFEDE0FCE084918F010F5FB8
:1055A0001F4F882321F00E94B821F801F6CFE4E0D4
:1055B000FFE084918F010F5F1F4F882321F00E942D
:1055C000B821F801F6CF4091AA025091AB02609148
:1055D000AC027091AD0284E09CE00E94732F2CEA33
:1055E00035EC47E25EE36091A6027091A7028091DC
:1055F000A8029091A9020E94FDE8AB01BC0181E0E4
:105600009CE00E94912F2CEA35EC47E25EE360912A
:10561000A2027091A3028091A4029091A5020E941F
:1056200055EBAB01BC018EEF9BE00E94912F8AE00D
:10563000CF911F910F91FF90EF90DF90CF90BF908F
:10564000AF900C94B8212F923F924F925F926F923D
:105650007F928F929F92AF92BF92CF92DF92EF9202
:10566000FF920F931F93CF93DF93CDB7DEB7C6554D
:10567000D1090FB6F894DEBF0FBECDBF2DB73EB730
:1056800065963FAF2EAF659784E690E02B969FAF6F
:105690008EAF2B971092300544E050E0BE016F5B57
:1056A0007F4FCE01875B9F4F0E945B2342E050E01B
:1056B000BE01695B7F4FCE01875B9F4F0E945B23DA
:1056C00043E050E0BE016F5B7F4F8CE593E00E94AA
:1056D0004BF1892B09F43AC022968FAD229786357B
:1056E00039F08FE322968FAF229723961FAE239730
:1056F000E4E0FFE084918F010F5F1F4F882321F0CA
:105700000E94B821F801F6CFE6EBFEE084918F010C
:105710000F5F1F4F882321F00E94B821F801F6CFB8
:10572000BE016F5B7F4F8DEA9EE00E94152FEFE96F
:10573000FEE084918F010F5F1F4F882321F00E94AC
:10574000B821F801F6CF0E943D2645C36DB67EB65E
:1057500021961CAE1DAE1EAE1FAE219710923305D2
:105760001092320541E050E0BE016E5A7F4FCE01EB
:10577000875B9F4F0E945B2380E1E3EEF2E0DE0156
:10578000919601900D928A95E1F780E1E3EFF2E0C6
:10579000DE01519601900D928A95E1F780E1E3E0F8
:1057A000F3E08E010F5F1F4FD80101900D928A9593
:1057B000E1F76396CFAC6397D12C33E0C30ED11CD5
:1057C000CC0CDD1CCC0CDD1C8DB79EB78C199D0953
:1057D0000FB6F8949EBF0FBE8DBFEDB7FEB73196E2
:1057E0004F012DB73EB72C193D090FB6F8943EBFB7
:1057F0000FBE2DBF8DB79EB701965C01EDB7FEB70A
:10580000EC19FD090FB6F894FEBF0FBEEDBF2DB722
:105810003EB72F5F3F4F7901A601B401CE01875BF0
:105820009F4F0E945B23A601B501CE01875B9F4F6E
:105830000E945B23A601B701CE01875B9F4F0E94A8
:105840005B2363962FAD639730E02E5F3F4F88E96F
:1058500095E067969FAF8EAF6797A8EDB5E068ECCF
:1058600075E080E090E040E050E0241735074CF010
:105870006401C80ED91EF601208031804280538019
:105880000CC0F1E2CF2ED12CCC0EDD1EC80ED91EDD
:10589000F6012080318042805380FB0121923192B9
:1058A00041925192BF01241735074CF06501C80E93
:1058B000D91EF60120803180428053800CC0E1E186
:1058C000CE2ED12CCC0EDD1EC80ED91EF6012080A6
:1058D0003180428053802D923D924D925D922417EB
:1058E00035074CF06701C80ED91EF60120803180C3
:1058F0004280538008C06801C80ED91EF60120807E
:105900003180428053806796EEADFFAD679721925C
:105910003192419251926796FFAFEEAF67974F5F1A
:105920005F4F04964430510509F09FCF44E050E0AA
:105930006CE875E0CE01875B9F4F0E945B2344E0DB
:1059400050E068E875E0CE01875B9F4F0E945B23C3
:1059500044E050E064E875E0CE01875B9F4F0E9411
:105960005B2344E050E060E975E0CE01875B9F4F28
:105970000E945B2344E050E060E775E0CE01875B66
:105980009F4F0E945B2344E050E064E975E0CE0144
:10599000875B9F4F0E945B2340E150E064E775E026
:1059A000CE01875B9F4F0E945B234CE050E065E196
:1059B0007DE0CE01875B9F4F0E945B2344E050E077
:1059C000BE01635C7F4FCE01875B9F4F0E945B23CC
:1059D00041E050E0BE016F5A7F4FCE01875B9F4F81
:1059E0000E945B2344E050E0BE01635C7F4FCE0128
:1059F000875B9F4F0E945B2341E050E0BE01605BEC
:105A00007F4FCE01875B9F4F0E945B2341E050E0B8
:105A1000BE01615B7F4FCE01875B9F4F0E945B237E
:105A200061968FAD619760960FAD6097809F800102
:105A30001124E12CF12C44E050E0BE01E016F10607
:105A400059F0635C7F4FCE01875B9F4F0E945B23C1
:105A5000FFEFEF1AFF0AEFCF675C7F4FCE01875B46
:105A60009F4F0E945B231AE0115059F044E050E030
:105A7000BE01635C7F4FCE01875B9F4F0E945B231B
:105A8000F3CF41E050E0BE01625B7F4FCE01875B08
:105A90009F4F0E945B2341E050E0BE01635B7F4F5C
:105AA000CE01875B9F4F0E945B2344E050E0BE0124
:105AB0006B5C7F4FCE01875B9F4F0E945B2344E06E
:105AC00050E0BE016F5C7F4FCE01875B9F4F0E940D
:105AD0005B232F968FAD2F972E960FAD2E97809F1D
