:100000000C9452260C9483260C9483260C948326FD
:100010000C9483260C9483260C9483260C948326BC
:100020000C9483260C9483260C9483260C948326AC
:100030000C9483260D946A100C9483260C948326CA
:100040000C9483260C94212E0C9483260C948326E6
:100050000C9483260C9483260C949EB90D94FC106A
:100060000C9483260C9476330C9483260C9483266C
:100070000C9483260C9483260C9483260C9483265C
:100080000C9483260C9483260C9483260C9483264C
:100090000C9483260C9483260C9483260C9483263C
:1000A0000C9483260C9483260C9483260C9483262C
:1000B0000C9483260C9483260C9483260C9483261C
:1000C0000C9483260C9483260C9483260C9483260C
:1000D0000C9483260C9483260C9483260C948326FC
:1000E0000C948326726E7C6E836E8A6E916EA66E01
:1000F000B16EB86E986E9F6E2BB837B861B86DB898
:1001000046B852B815B8E5008701FB00B301E70017
:10011000430167013101AF015101BF01C901030171
:100120001D01430117013301F5000F0149015B0176
:100130007B012701AB0193018F01B70129018901DF
:1001400013017F01DD00AB01A301B5013501084AB0
:10015000D73B3BCE016E84BCBFFDC12F3D6C7431DB
:100160009ABD56833DDA3D00C77F11BED9E4BB4C32
:100170003E916BAAAABE000000803F05A84CCDB2FC
:10018000D44EB93836A9020C50B9918688083CA6DD
:10019000AAAA2ABE000000803F000C947F9C0C9409
:1001A000F3640C9425A00C945F9F0C94EB750C9455
:1001B000E1650C9415B80C94F6640D942B130C9413
:1001C000E0680C94EE7B0C94348C0D9449120D94E1
:1001D00067120C94E87B0C9452810C943A940C9422
:1001E00052B80C94378C0D94C5070D94D6120C940C
:1001F000579A0C94C6EE0D9453120C9446940C949A
:1002000046B80C941DAA0D94AE120C9461B80C94CF
:100210002BB80C94836E0C94E9EE0C94547F0D94DF
:1002200004130C9458940D9423130C94267D0D9470
:10023000C2120C940A7E0C94FC7F0D94B8120C949C
:1002400034940C94726E0C94FE770C9452940D942A
:1002500000130D9419130C946E790D9419090D94D3
:10026000C6070D9479120D94CC120D9439130C9489
:10027000379D0C9420880C94F47B0C9443690C9467
:10028000AD7E0C94A2840D94E0120C94E3950C9432
:1002900040940D9407130C940F9B0C94DB740C94F6
:1002A0008A970D948B120C946DB80C940C7E0C9460
:1002B0004C940D94CA100D94F6120C94F0640C94A6
:1002C000A79E0C947C6E0C94207D0C948A6E0D94E9
:1002D00071120C94FC640C9403D60C94F5630C948A
:1002E00019690C94B86E0C942E690C94C79B0C94ED
:1002F000EF9D0C94566E0D94FA120D9441060D94D8
:1003000027130C9406690C94416C0C94F8640D94BA
:100310004E120D941D130C94F3680C943A8C0D94AA
:100320000F130C94957D0D940B130C94916E0C94FB
:1003300037B80C942C7D0C94B4820C949B5F0C9475
:10034000987D0C94E1960D9431130C9486730C9463
:100350009F6E0C94EA6A0D943E130C9454810D9494
:1003600081120C944B830D945D120D9435130D94F2
:1003700015130C94986E0C9468990C94927D0D94BE
:1003800095120C945DA50C94AB800C943A6E0C9471
:1003900055980D949F120C94FA640C9403820C945B
:1003A000B16E0C94A66E205A3A0020593A002043B0
:1003B0006F756E7420583A0024F4D43050C38E20E8
:1003C000C2A24017828B7011127A910D816CD90AEA
:1003D000A861E108C7586607615143061E4B5D05D9
:1003E000C145A7041A411104093D9803713931032D
:1003F0004036DB0265339102D4305402802E1D0258
:10040000632CEE01752AC501B028A00110278101D7
:100410008F2564012B244B01E0223401AC211F0104
:100420008D200D01801FFC00841EED00971DDF0054
:10043000B81CD200E61BC600201BBC00641AB20028
:10044000B219A8000A19A0006A189900D1179100E2
:1004500040178B00B516840031167E00B315790065
:100460003A157300C7146F0058146A00EE13660043
:100470008813630025135E00C7125B006C125700DF
:1004800015125400C111510070114F0021114B0081
:10049000D61049008D10470046104400021042005B
:1004A000C00F4000800F3E00420F3C00060F3B0093
:1004B000CB0E3800930E37005C0E3500270E34004B
:1004C000F30D3200C10D3100900D3000600D2E0093
:1004D000320D2D00050D2C00D90C2B00AE0C29007F
:1004E000850C29005C0C2700350C27000E0C26001B
:1004F000E80B2400C40B2400A00B23007D0B230079
:100500005A0B2100390B2100180B2000F80A1F009C
:10051000D90A1E00BB0A1E009D0A1D00800A1D008C
:10052000630A1C00470A1B002C0A1B00110A1A0050
:10053000F7091A00DD091900C4091900AB091900EF
:10054000920917007B091800630917004C0916006F
:1005500036091600200916000A091500F5081500CD
:10056000E0081400CC081400B8081400A408140013
:10057000900813007D0812006B0813005808120041
:100580004608120034081100230811001208110057
:1005900001081100F0071000E0071000D00710005C
:1005A000C0071000B0070F00A107100091070E0050
:1005B00083070F0074070F0065070E0057070E0032
:1005C00049070E003B070D002E070E0020070D0007
:1005D00013070D0006070D00F9060C00ED060D00CF
:1005E000E0060C00D4060C00C8060C00BC060C008B
:1005F000B0060C00A4060B0099060C008D060B003B
:1006000082060B0077060B006C060B0061060A00E1
:1006100057060B004C060A0042060A0038060A007C
:100620002E060A0024060A001A060A00100609000F
:1006300007060A00FD050900F4050900EB0509009D
:10064000E2050900D9050900D0050900C705090020
:10065000BE050900B5050800AD050800A50509009F
:100660009C050800940508008C0508008405080016
:100670007C050800740508006C0507006505080086
:100680005D050700560508004E05070047050700F1
:100690004005080038050700310507002A05070056
:1006A000230507001C050600160507000F050700B7
:1006B0000805060002050700FB040600F504070014
:1006C000EE040600E8040600E2040700DB0406006E
:1006D000D5040600CF040600C9040600C3040600C2
:1006E000BD040600B7040600B1040500AC04060012
:1006F000A6040600A00405009B040600950405005E
:10070000900406008A0405008504050080040600A4
:100710007A04050075040500700405006B040500EB
:1007200066040500610405005C040500570405002B
:10073000520405004D04050048040500430405006B
:100740003E0404003A0405003504050030040400AA
:100750002C04050027040400230405001E040400E3
:100760001A04040016040500110404000D0404001A
:10077000090405000404040000040400FC03040050
:10078000F8030400F4030400F0030400EC03040085
:10079000E8030400E4030400E0030400DC030400B5
:1007A000D8030400D4030400D0030400CC030400E5
:1007B000C8030300C503030024F404D9201BC40CA0
:1007C0005C0E9804C4095F0265077101F405F90025
:1007D000FB04B30048048700C103690058035500B7
:1007E00003034500BE023A008402310053022A008E
:1007F0002902250004022000E4011C00C8011900A0
:10080000AF0117009801140084011300710110005A
:100810006101100051010E0043010D0036010B0073
:100820002B010B0020010B00150109000C01090030
:1008300003010800FB000800F3000800EB000700BC
:10084000E4000600DE000600D8000600D200060024
:10085000CC000500C7000500C2000500BD00040073
:10086000B9000400B5000400B1000400AD000400AC
:10087000A9000400A5000300A20003009F000400DB
:100880009B00030098000300950002009300030002
:10089000900003008D0002008B000300880002001E
:1008A0008600020084000300810002007F00020035
:1008B0007D0002007B000200790002007700010049
:1008C0007600020074000200720001007100020054
:1008D0006F0002006D0001006C0002006A00010060
:1008E0006900020067000100660001006500010068
:1008F000640002006200010061000100600001006C
:100900005F0002005D0001005C0001005B0001006F
:100910005A00010059000100580001005700010071
:100920005600010055000100540001005300000072
:10093000530001005200010051000100500001006D
:100940004F0001004E0000004E0001004D0001006C
:100950004C0001004B0000004B0001004A00010068
:100960004900010048000000480001004700010064
:10097000460000004600010045000000450001005F
:100980004400010043000000430001004200000059
:100990004200010041000000410001004000010050
:1009A0003F0000003F0001003E0000003E0001004B
:1009B0003D0000003D0001003C0000003C00000044
:1009C0003C0001003B0000003B0001003A00000039
:1009D0003A00010039000000390001003800000031
:1009E0003800000038000100370000003700010027
:1009F000360000003600000036000100350000001F
:100A00003500000035000100340000003400000013
:100A10003400010033000000330000003300010007
:100A200032000000320000003200010031000000FE
:100A300031000000310001003000000030000000F3
:100A4000300001002F0000002F0000002F000000E8
:100A50002F0001002E0000002E0000002E000100DB
:100A60002D0000002D0000002D0000002D000100D1
:100A70002C0000002C0000002C0000002C000100C5
:100A80002B0000002B0000002B0000002B000100B9
:100A90002A0000002A0000002A0000002A000100AD
:100AA00029000000290000002900000029000000A2
:100AB0002900010028000000280000002800000094
:100AC0002800000028000100270000002700000087
:100AD000270000002700000027000100260000007A
:100AE000260000002600000026000000260001006D
:100AF0002500000025000000250000002500000062
:100B00002500000025000100240000002400000052
:100B10002400000024000000240001002300000045
:100B20002300000023000000230000002300000039
:100B3000230000002300010022000000220000002A
:100B4000220000002200000022000000220001001C
:100B50002100000021000000210000002100000011
:100B60002100000021000000210001002000000001
:100B700020000000200000002000000020000000F5
:100B80002000000020000000200001001F000000E5
:100B90001F0000001F0000001F0000001F000000D9
:100BA0001F0000001F0001001E0000001E000000CA
:100BB0001E0000001E0000007A5F6D696E3A200082
:100BC000795F6D696E3A2000785F6D61783A200038
:100BD000785F6D696E3A20005265706F7274696E4D
:100BE0006720656E6473746F7020737461747573BD
:100BF0000A00456E6473746F70732025632025634B
:100C000020256320256300205A3A0020593A00200D
:100C1000583A00656E6473746F7073206869743A33
:100C2000200020440020490020204D333031205046
:100C30000020440020490020500020204D33303156
:100C40002045005049442073657474696E67733A97
:100C50000A0020460020420020480020204D313468
:100C6000352053004D6174657269616C206865615F
:100C700074757020706172616D65746572733A0A83
:100C800000205A0020590020580020204D323138D1
:100C9000205400486F74656E64206F6666736574D7
:100CA000733A0A00205A0020590020204D32303675
:100CB000205800486F6D65206F66667365743A0A48
:100CC00000204500205A00205900205800204200F2
:100CD00020540020204D323035205300416476618D
:100CE0006E6365643A20533C6D696E5F666565644A
:100CF000726174653E20543C6D696E5F74726176FA
:100D0000656C5F66656564726174653E20423C6D2A
:100D1000696E5F7365676D656E745F74696D655F3D
:100D20006D733E20583C6D61785F78795F6A6572BB
:100D30006B3E205A3C6D61785F7A5F6A65726B3EEC
:100D400020453C6D61785F655F6A65726B3E0A00A5
:100D500020540020520020204D32303420500041D9
:100D60006363656C65726174696F6E2028756E6966
:100D700074732F7332293A20503C7072696E745F1D
:100D8000616363656C3E20523C726574726163748A
:100D90005F616363656C3E20543C74726176656C80
:100DA0005F616363656C3E0A00204500205A0020A5
:100DB000590020204D3230312058004D6178696D46
:100DC000756D20416363656C65726174696F6E2037
:100DD00028756E6974732F7332293A0A0020450012
:100DE000205A0020590020204D3230332058004D29
:100DF0006178696D756D206665656472617465738F
:100E00002028756E6974732F73293A0A00204500F3
:100E1000205A0020590020204D39322058005374A8
:100E20006570732070657220756E69743A0A0020CF
:100E3000204D3230302044300A0020204D323030F6
:100E400020543120440020204D32303020440020F6
:100E500044697361626C65640A0046696C616D6522
:100E60006E742073657474696E67733A0020204D48
:100E70003134392043203B20556E69747320696EEC
:100E80002043656C736975730A0A0020204732316C
:100E9000203B20556E69747320696E206D6D0A0ABF
:100EA0000048617264636F646564204465666175BF
:100EB0006C742053657474696E6773204C6F616441
:100EC00065640A00454550524F4D20636865636B69
:100ED00073756D206D69736D617463680A002062BB
:100EE00079746573290A002073746F7265642073C6
:100EF000657474696E67732072657472696576656E
:100F000064202800204D61726C696E3D563337298C
:100F10000A0028454550524F4D3D00454550524F1F
:100F20004D2076657273696F6E206D69736D6174A3
:100F300063682000206279746573290A0053657420
:100F400074696E67732053746F726564202800455E
:100F500072726F722077726974696E6720746F2085
:100F6000454550524F4D210A006563686F3A004570
:100F700072726F723A007C3C3E5E2B3D3F2F5B5D90
:100F80003B2C2A225C0020746F6F206C6F6E6720F0
:100F9000657874727573696F6E2070726576656EB0
:100FA0007465640A0020636F6C64206578747275E0
:100FB00073696F6E2070726576656E7465640A0081
:100FC0002569730025696D202569730025696820EE
:100FD00025696D20256973002569642025696820CD
:100FE00025696D20256973002569792025696420AC
:100FF0002569682025696D20256973006D004669A3
:101000006C616D656E7420757365643A200053746D
:101010006174733A20002C204C6F6E6765737420E6
:101020006A6F623A2000546F74616C2074696D6558
:101030003A200053746174733A20002C2046616991
:101040006C65643A20002C2046696E69736865649B
:101050003A20005072696E74733A200053746174C0
:10106000733A20005461726A657461207265746914
:1010700072616461005461726A65746120636F6CAF
:101080006F63616461007061726120726573756D78
:101090006972004573706572616E646F20696D706E
:1010A0002E0043616D626961722046696C616D65F5
:1010B0006E746F002020426F7175696C6C613A200C
:1010C000002000457874727569722066696C616DE4
:1010D000656E746F00457370657261646F20706F28
:1010E000720043616D626961722046696C616D6571
:1010F0006E746F002020426F7175696C6C613A20CC
:101100000020004361726761722066696C616D65E1
:101110006E746F00457370657261646F20706F72DA
:101120000043616D626961722046696C616D656E34
:10113000746F002020426F7175696C6C613A2000F9
:101140007061726120636F6E74696E7561722E2EAC
:101150002E00792070726573696F6E6520656C2052
:10116000626F746F6E00496E736572746520666994
:101170006C616D656E746F0043616D6269617220B0
:1011800046696C616D656E746F002020426F7175E9
:10119000696C6C613A2000200043616C656E74617B
:1011A00072206C6120626F7175696C6C61004F70A8
:1011B00072696D6120626F746F6E20706172610080
:1011C00043616D626961722046696C616D656E7420
:1011D0006F002020426F7175696C6C613A200020AD
:1011E0000045737065726520706F72206661766F5E
:1011F000720043616C656E74616E646F20626F7122
:1012000075696C6C610043616D6269617220466949
:101210006C616D656E746F002020426F7175696C32
:101220006C613A2000200066696C616D656E746FB8
:1012300020657870756C7361646F004573706572BA
:1012400061646F20706F720043616D62696172202A
:1012500046696C616D656E746F002020426F717518
:10126000696C6C613A200063616D6269617200644F
:10127000656C2066696C616D656E746F0045737096
:101280006572616E646F20696E69636961720043A3
:10129000616D626961722046696C616D656E746F23
:1012A0000045787472756972206D617300526573C0
:1012B000756D697220696D702E004F7063696F6E75
:1012C00065732064652063616D62696F3A00202058
:1012D000426F7175696C6C613A2000200041747234
:1012E00061730054656D70204D696E696D61206594
:1012F00073203135302E004572726F723A20616C66
:101300002063616C656E7461720045737461646919
:1013100073746963617320496D702E005465726D3A
:101320006973746F72657300496E662E20436F6E29
:1013300074726F6C61646F7200496E662E20496D25
:10134000707265736F7261004D656E7520707269A1
:101350006E636970616C004578747275736F726545
:10136000733A203200687474703A2F2F6D61726C7A
:10137000696E66772E6F7267005B53495249555309
:101380005D00323031372D30352D31322031323A57
:10139000303000312E312E31004D61726C696E009B
:1013A0004675656E746520646520706F6465723A79
:1013B0002047656E657269630050726F746F636F6A
:1013C0006C6F3A20312E300042617564696F733A58
:1013D000203131353230300052756D626100546514
:1013E0006D7065726174757261206D6178696D618F
:1013F0003A203132300054656D70657261747572D7
:1014000061206D696E696D613A20350054426564F2
:101410003A4550434F53203130304B0054656D7086
:1014200065726174757261206D6178696D613A20D1
:101430003235300054656D7065726174757261206B
:101440006D696E696D613A20350054313A2041541E
:10145000432031303447542D320054656D7065722D
:101460006174757261206D6178696D613A20323501
:10147000300054656D7065726174757261206D69BC
:101480006E696D613A20350054303A204154432052
:1014900031303447542D320000546F74616C206435
:1014A0006520457874727573696F6E3A2000256CFB
:1014B000642E25696D0000496D70726573696F6EE9
:1014C000206D6173206C617267613A20000054697D
:1014D000656D706F20746F74616C20646520696D38
:1014E000702E3A2000436F6D706C65746164617397
:1014F0003A2000436F6E74656F20646520696D70DB
:10150000726573696F6E3A2000022E2E004D656E73
:1015100075207072696E636970616C0046696C2E2B
:10152000204469612E20320046696C2E2044696196
:101530002E20320046696C2E204469612E20310035
:1015400046696C2E204469612E2031004520696E69
:10155000206D6D330041706167617200456E636597
:101560006E64657200436F6E74726F6C004520701C
:1015700061736F732F6D6D0045207061736F732FF2
:101580006D6D005A207061736F732F6D6D005A205E
:101590007061736F732F6D6D0059207061736F737D
:1015A0002F6D6D0059207061736F732F6D6D005832
:1015B000207061736F732F6D6D0058207061736FB1
:1015C000732F6D6D004163656C2E205669616A65ED
:1015D000004163656C2E205669616A650041636550
:1015E0006C2E207265747261632E004163656C2EEF
:1015F000207265747261632E004163656C2E206DEC
:10160000617845004163656C2E206D61784500412D
:1016100063656C2E206D61785A004163656C2E20E5
:101620006D61785A004163656C2E206D61785900B8
:101630004163656C2E206D617859004163656C2EA5
:10164000206D617858004163656C2E206D6178587B
:101650000056656C2E207669616A65206D696E00A2
:1016600056656C2E207669616A65206D696E00563C
:10167000656C2E207669616A65206D696E00566D15
:10168000696E00566D696E00566D696E00566D612B
:10169000784500566D61784500566D617845005675
:1016A0006D61785A00566D61785A00566D61785AAE
:1016B00000566D61785900566D61785900566D611C
:1016C000785900566D61785800566D61785800560B
:1016D0006D6178580056652D6A65726B0056652DF0
:1016E0006A65726B0056652D6A65726B00567A2DBD
:1016F0006A65726B00567A2D6A65726B0056792D99
:101700006A65726B0056792D6A65726B0056792D89
:101710006A65726B0056782D6A65726B0056782D7B
:101720006A65726B0056782D6A65726B004163655D
:101730006C65726163696F6E004163656C657261AF
:1017400063696F6E00436F6E74726F6C00477561F2
:1017500072646172206D656D6F72696100506C61B9
:101760007461666F726D6100506C617461666F7256
:101770006D6100426F7175696C6C6100426F7175CB
:10178000696C6C610056656E74696C61646F72009F
:1017900056656E74696C61646F720054656D706536
:1017A0007261747572610050726563616C656E740C
:1017B000617220414253436F6E66696700507265E3
:1017C00063616C656E74617220504C41436F6E664C
:1017D0006967005049442D44005049442D4400504D
:1017E00049442D49005049442D49005049442D5049
:1017F000005049442D5000200820466163740020A9
:10180000082046616374002008204D61780020089C
:10181000204D6178002008204D6178002008204D7F
:10182000696E002008204D696E002008204D696E09
:101830000054656D706572617475726120417574D4
:101840006F2E0041706167617200456E63656E6462
:1018500065720056656E74696C61646F72005665DE
:101860006E74696C61646F7200506C617461666F54
:10187000726D6100506C617461666F726D610042DF
:101880006F7175696C6C61203200426F7175696CA3
:101890006C61203200426F7175696C6C612031009F
:1018A000426F7175696C6C61203100436F6E7472A8
:1018B0006F6C00526573746175726172206D656D35
:1018C0006F72696100436172676172206D656D6F4F
:1018D0007269610047756172646172206D656D6F38
:1018E0007269610046696C616D656E746F004D6F61
:1018F00076696D69656E746F0054656D70657261AF
:1019000074757261004D656E75207072696E6369E1
:1019100070616C004578747275736F72320045782F
:10192000747275736F7231004578747275736F726B
:10193000004D6F766572205A004D6F7665722059A2
:10194000004D6F766572205800507265706172614B
:1019500072004D6F76657220302E316D6D004D6FC7
:1019600076657220316D6D004D6F76657220313075
:101970006D6D004D6F76657220656A657300457800
:10198000747275736F72004D6F766572205A004DD8
:101990006F7665722059004D6F766572205800454C
:1019A00078747275736F7232004578747275736FE4
:1019B0007231004D6F766572205A004D6F766572F8
:1019C0002059004D6F766572205800507265636132
:1019D0006C656E74617220414253005072656361A0
:1019E0006C656E74617220504C4100456E66726980
:1019F00061720043616D626961722066696C616D3C
:101A0000656E746F004D38340041706167617220FB
:101A10006D6F746F72657300416A757374617220C3
:101A2000646573666173657300473238205A004FEE
:101A3000726967656E205A004732382059004F722C
:101A40006967656E2059004732382058004F726927
:101A500067656E205800473238004C6C65766172BD
:101A600020616C206F726967656E004D6F766572DC
:101A700020656A6573004D656E75207072696E63CE
:101A80006970616C0050726563616C656E7461723F
:101A900020414253506C617461666F726D610050F9
:101AA000726563616C656E74617220414253546F5C
:101AB000646F0050726563616C656E746172204181
:101AC000425320456E642045320050726563616C5C
:101AD000656E74617220414253203200507265631A
:101AE000616C656E7461722041425320456E6420C2
:101AF00045310050726563616C656E74617220419E
:101B000042532031005072657061726172005072F0
:101B10006563616C656E74617220504C41506C61FC
:101B20007461666F726D610050726563616C656EA1
:101B300074617220504C41546F646F005072656341
:101B4000616C656E74617220504C4120456E64205A
:101B500045320050726563616C656E74617220502D
:101B60004C4120320050726563616C656E74617225
:101B700020504C4120456E64204531005072656311
:101B8000616C656E74617220504C4120310050725E
:101B90006570617261720043616D62696172206695
:101BA000696C616D656E746F004D6963726F706111
:101BB000736F205A004D6963726F7061736F2059A3
:101BC000004D6963726F7061736F205800466C75C9
:101BD0006A6F203200466C756A6F203200466C7561
:101BE0006A6F203100466C756A6F203100466C7553
:101BF0006A6F00466C756A6F0056656E74696C6139
:101C0000646F720056656E74696C61646F72005027
:101C10006C617461666F726D6100506C61746166B5
:101C20006F726D6100426F7175696C6C612032007A
:101C3000426F7175696C6C61203200426F71756919
:101C40006C6C61203100426F7175696C6C61203180
:101C50000056656C6F63696461640056656C6F6300
:101C600069646164004D656E75207072696E6369A8
:101C700070616C004D36303000426162797374657A
:101C80007070696E67205A00426162797374657082
:101C900070696E6720590042616279737465707073
:101CA000696E672058004D34323800496E662E2028
:101CB000496D707265736F7261004E6F2068617953
:101CC000207461726A657461205344004D656E75BD
:101CD00020646520534400446574656E6572206914
:101CE0006D70726573696F6E005265616E756461C7
:101CF0007220696D70726573696F6E0050617573E3
:101D0000617220696D70726573696F6E00436F6EEA
:101D100074726F6C00507265706172617200416A1A
:101D2000757374617200496E666F726D6163696F7D
:101D30006E00496D70726573696F6E2063616E63CA
:101D4000656C616461004D3234004D3132350025DF
:101D5000753A2530327500253032753A25303275A6
:101D60000025756420253032753A2530327500091A
:101D700020005A0059005800506F72206661766F3B
:101D8000722C207265696E6963696500494D505215
:101D900045534F52412050415241444100000609F1
:101DA00000FE070192032120FFFF08FF07FF00004C
:101DB0000006000001070706020080808080800086
:101DC00080030202060105A0A005070706000050D7
:101DD00050F850F850500507070600002078A07012
:101DE00028F020050707060000C0C81020409818FA
:101DF0000507070600006090A040A8906802030352
:101E0000060104C0408003070706010020408080CF
:101E100080402003070706010080402020204080EA
:101E200005050506000120A870A820050505060087
:101E3000012020F820200203030602FFC040800595
:101E40000101060003F8020202060200C0C00505F7
:101E500005060001081020408005070706000070F5
:101E600088888888887003070706010040C04040C2
:101E70004040E0050707060000708808708080F881
:101E8000050707060000F81020100808F0050707EE
:101E900006000010305090F81010050707060000EB
:101EA000F880F00808887005070706000070808039
:101EB000F0888870050707060000F8081020202029
:101EC000200507070600007088887088887005075D
:101ED0000706000070888878080870020505060269
:101EE00000C0C000C0C00206060602FFC0C000C09D
:101EF00040800407070600001020408040201005A5
:101F00000303060002F800F80407070601008040FA
:101F10002010204080050707060000708808102068
:101F2000002005070706000070880868A8A870054B
:101F30000707060000708888F88888880507070664
:101F40000000F08888F08888F00507070600007018
:101F5000888080808870050707060000F0888888E0
:101F60008888F0050707060000F88080F08080F878
:101F7000050707060000F88080F0808080050707CD
:101F8000060000708880B888887005070706000082
:101F9000888888F888888801070706020080808082
:101FA0008080808005070706000038101010109010
:101FB000600507070600008890A0C0A0908805076C
:101FC00007060000808080808080F80507070600F3
:101FD0000088D8A8888888880507070600008888B0
:101FE000C8A8988888050707060000708888888830
:101FF0008870050707060000F08888F0808080055B
:10200000070706000070888888A8906805070706FB
:102010000000F08888F0A090880507070600007887
:102020008080700808F0050707060000F8202020CF
:102030002020200507070600008888888888887087
:10204000050707060000888888888850200507074C
:102050000600008888888888A850050707060000C1
:1020600088885020508888050707060000888888DF
:1020700050202020050707060000F80810204080A7
:10208000F8030707060100E08080808080E00505F6
:10209000050600018040201008030707060100E044
:1020A0002020202020E0050303060004205088059E
:1020B0000101060000F80202020602058040050543
:1020C000050600007008788878050707060000807C
:1020D00080B0C88888F005050506000070808088FB
:1020E00070050707060000080868988888780505C5
:1020F000050600007088F8807005070706000030AC
:1021000048E0404040400506060600FF7088887899
:1021100008700507070600008080B0C8888888011D
:102120000707060200800080808080800308080680
:1021300001FF200020202020A04004070706000007
:10214000808090A0C0A090030707060100C0404017
:10215000404040E0050505060000D0A8A8A8A80555
:102160000505060000B0C88888880505050600003A
:1021700070888888700506060600FFF08888F08061
:10218000800506060600FF7888887808080505059A
:10219000060000B0C880808005050506000070803C
:1021A0007008F00407070600004040E0404040305F
:1021B000050505060000888888986805050506005D
:1021C0000088888850200505050600008888A8A892
:1021D00050050505060000885020508805060606B3
:1021E00000FF888888780870050505060000F8104B
:1021F0002040F803070706010020404080404020AF
:102200000107070602008080808080808003070726
:102210000601008040402040408005020206000286
:1022200068900000000600000000000600000000AA
:10223000000600000000000600000000000600008C
:10224000000000060000000000060000000000067C
:102250000000000000060000000000060000000072
:10226000000600000000000600000000000600005C
:10227000000000060000000000060000000000064C
:102280000000000000060000000000060000000042
:10229000000600000000000600000000000600002C
:1022A000000000060000000000060000000000061C
:1022B0000000000000060000000000060000000012
:1022C00000060000000000060000000000060000FC
:1022D00000000006000000000006000000000006EC
:1022E00000000000000600000000000600000107DA
:1022F00007060200800080808080800507070600B6
:10230000002070A8A0A87020050707060000304034
:1023100040E04050A8050505060000887050708810
:10232000050707060000885020F820F8200107075D
:10233000060200808080008080800508080600007A
:102340003048205050209060030101060107A0058D
:102350000707060000F888B8B8B888F80507070628
:102360000001700878887800F80505050600012846
:1023700050A05028050303060001F80808020202D5
:102380000602064080050707060000F888A888981E
:10239000A8F8050101060006F8040404060003601D
:1023A0009090600507070600002020F8202000F824
:1023B00004050506000360902040F00305050600B3
:1023C00003E020E020E00202020602064080050849
:1023D000080600FF8888888898E880800507070637
:1023E000000078989878181818020202060202C0B5
:1023F000C00202020602FF408003050506000340FA
:10240000C04040E00507070600017088888870001A
:10241000F8050505060001A0502850A0050707068D
:1024200000008890A858B80808050707060000882B
:1024300090B848982038050808060000C040C048F9
:10244000D8380808050707060000200020408088CB
:10245000700508080600004020007088F88888058C
:1024600008080600001020007088F8888805080811
:102470000600002050007088F888880508080600CB
:10248000006890007088F8888805080806000050E9
:1024900000708888F8888805080806000020502009
:1024A0007088F888880507070600003860A0B8E043
:1024B000A0B80508080600FF70888080887020603A
:1024C000050808060000402000F880F080F80508A4
:1024D00008060000081000F880F080F805080806DB
:1024E0000000205000F880F080F805070706000083
:1024F0005000F880F080F8030808060100804000D2
:10250000E0404040E0030808060100204000E040B1
:102510004040E003080806010040A000E0404040C1
:10252000E0030707060100A000E0404040E0050787
:1025300007060000704848E848487005080806008B
:102540000068900088C8A898880508080600004020
:1025500020708888888870050808060000102070A0
:102560008888888870050808060000205000708858
:1025700088887005080806000068900070888888C0
:10258000700508080600005000708888888870056B
:10259000050506000188502050880508080600FF40
:1025A0001070A8A8A8A870400508080600004020E0
:1025B00088888888887005080806000010208888A8
:1025C00088888870050808060000205000888888E0
:1025D0008870050808060000500088888888887080
:1025E000050808060000102088502020202005093A
:1025F000090600FFC040704848704040E0040808E9
:102600000601FF609090A09090E080050808060009
:10261000004020007008788878050808060000103F
:10262000200070087888780508080600002050000F
:10263000700878887805080806000068900070081F
:1026400078887805070706000050007008788878B9
:1026500005080806000020502070087888780506D4
:1026600006060000D02878A0A8500506060600FF40
:102670007080887020600508080600004020007007
:1026800088F880700508080600001020007088F89F
:1026900080700508080600002050007088F88070DF
:1026A00005070706000050007088F88070030808CE
:1026B00006010080400040C04040E00308080601D9
:1026C0000020400040C04040E003080806010040F0
:1026D000A00040C04040E0030707060100A0004002
:1026E000C04040E0050707060000A040A010788821
:1026F00070050808060000689000B0C88888880542
:1027000008080600004020007088888870050808C6
:1027100006000010200070888888700508080600F0
:10272000002050007088888870050808060000683E
:1027300090007088888870050707060000500070B8
:10274000888888700505050600012000F80020052E
:1027500007070600FF1070A8A8A870400508080623
:102760000000402000888888986805080806000056
:102770001020008888889868050808060000205006
:102780000088888898680507070600005000888838
:102790008898680509090600FF102000888888F8D5
:1027A00008700407070601FFC04060506040E00564
:1027B00008080600FF50008888887808700006091D
:1027C00000FE000000000001090008FE00000508EE
:1027D0000806000040F0C8888898781005080806A8
:1027E0000000C0F88888888888F80505050600017B
:1027F0002030F830200508080600002070F820205E
:102800002020E00509090600FF2070A8A8B88888E4
:1028100070200509090600FFE080C0B0A828302814
:10282000280509090600FFF8A88888888888A8F87C
:10283000050A0A0600FE205050505088A8A888704B
:1028400003030306000340A0400000000000000056
:102850000000000000000000000000000000000078
:102860000000000000000000000000000000000068
:102870000000000000000000000000000000000058
:102880000000000000000000000000000000000048
:102890000000000000000000000000000000000038
:1028A0000000000000000000000000000000000028
:1028B0000000000000000000000000000000000018
:1028C00000000000000000000007F0000000000011
:1028D000000000000000000FE007F00FF00E07FE00
:1028E00000381C00700FF00FE007F03FFC0E07FFF0
:1028F00080381C00703FFC0FE007007FFC0E07FFD4
:10290000C0381C00707FFC00E00700780C0E070345
:10291000C0381C0070780C00E00700F0000E0701C2
:10292000E0381C0070F00000E00700E0000E070037
:10293000E0381C0070E00000E00700E0000E070037
:10294000E0381C0070E00000E00700E0000E070027
:10295000E0381C0070E00000E00700F8000E0701FE
:10296000E0381C0070F80000E007007F800E0703CD
:10297000C0381C00707F8000E007003FF00E07FFAA
:1029800080381C00703FF000E007000FF80E07FFD2
:1029900000381C00700FF800E0070000FC0E07FF75
:1029A00000381C007000FC00E00700001E0E070746
:1029B00080381C0070001E00E00700000E0E0703A8
:1029C000C0381C0070000E00E00700000E0E07016A
:1029D000E0381C0070000E00E00700000E0E07003B
:1029E000E0381E00F0000E00E00700001E0E070099
:1029F000F0380E00E0001E00E00700C03C0E0700AB
:102A000070380F83E0C03C00E00700FFFC0E0700B9
:102A1000783807FFC0FFFC00E00700FFF80E070052
:102A2000383803FF80FFF800E007003FE00E0700A2
:102A30003C3800FE003FE000E0070000000000001E
:102A40000000000000000000E007F00000000000AF
:102A5000000000000000000FE007F0000000000090
:102A6000000000000000000FE007F0000000000080
:102A7000000000000000000FE00000000000000067
:102A80000000000000000000000000000000000046
:102A90000000000000000000000000000000000036
:102AA000000000000000000000001F800000000087
:102AB000000000000000000000007FE000000000B7
:102AC00000000000000000000000FFF00000000017
:102AD00000000000000000000001FFF800000000FE
:102AE00000000000000000000001FFF800000000EE
:102AF00000000000000000000003C03C00000000D7
:102B000000000000000000000003000C00000000B6
:102B100000000000000000000006000600000000A9
:102B2000000004000000000000040002000000009B
:102B30000000040000000000000C00030000000082
:102B40000000040000000000001C00038494949125
:102B50006E38E79144E0E72DC01E000785D5D5D13A
:102B600011451451450108A2201E0007877777718F
:102B70001145F44A44C108A2201E000782222221E6
:102B80001145044A442108A2201F000F8222222955
:102B90001138F78435C8E722201F000F800000009D
:102BA0000000000400000000001F801F80000000E3
:102BB0000000001800000000000FC03F00000000EF
:102BC0000000000000000000000FE07F0000000097
:102BD00000000000000000000007F0FE0000000000
:102BE00000000000000000000001F9F800000000F3
:102BF000000000000000000000007BE0000000007A
:102C000000000000000000000000000000000000C4
:102C100000000000000000000000000000000000B4
:102C200000000000000000000000000000000000A4
:102C30000000000000000000000000000000000094
:102C40000000000000000000000000000000000084
:102C500000000000007FFFE0000000000000000016
:102C6000000000007000E000000000000000000014
:102C700000000061F860000000000000000000009B
:102C8000000041F8200000000000000000000000EB
:102C90000040F020000000000000000000000000E4
:102CA000406020000000000000000000000000580C
:102CB00001A07F80003FC0000000004104005C6371
:102CC000A0FBC00079E0000000002082005EF7A0B9
:102CD000F3C00076E0000000002082005EF7A0EB69
:102CE000C0007EE0000000004104005C63A07B8027
:102CF000003DC0000000008208005801A07B800059
:102D00003BC000000001041000406020FBC00077C1
:102D1000E00000000104100040F020FBC00070E063
:102D20000000000082080041F820FFC0007FE000A2
:102D300000000041040061F8603F00001F800000B7
:102D400000000000007000E01E00000F0000000006
:102D500001FFFF807FFFE00C000006000000000183
:102D6000FFFF8000000000000000000000000000E5
:102D700000007FFFE00000000000000000000000F5
:102D8000007000E0000000000000000000000000F3
:102D9000630C60000000000000000000000000471D
:102DA0000E200000000000000000000000004F0F97
:102DB000200000000000000000000000005F0FA0E5
:102DC0000000000000000000000000005E07A07F7F
:102DD00080003FC000000000410400406020FBC0B4
:102DE0000079E00000000020820040F020F3C000E5
:102DF00076E00000000020820040F020EBC0007E62
:102E0000E0000000004104004060207B80003DC0E5
:102E1000000000008208005E07A07B80003BC0002D
:102E20000000010410005F0FA0FBC00077E000006D
:102E300000010410004F0F20FBC00070E0000000F4
:102E400000820800470E20FFC0007FE00000000065
:102E5000410400630C603F00001F80000000000080
:102E600000007000E01E00000F0000000001FFFFE6
:102E7000807FFFE00C0000060000000001FFFF80E3
:102E80000000001FFFFFFFFFFFFF600000000001C8
:102E9000FF400000000000FF8000000000007F8372
:102EA000CF00000C303F87FF80000C301F867980F8
:102EB000000C000F8C30C7838C30E78C30CFC7CC30
:102EC00031F38C30DCECEC33B98C30D86C6C3319CA
:102ED0008C30D06C0C33198C30D86C0C33198C308E
:102EE000DC6C0E3B198C30CF7C079F198C30C77C73
:102EF000038F194000000000000260000000000085
:102F0000061FFFFFFFFFFFF8546865726D616C20BC
:102F100052756E61776179004572726F72206465D7
:102F20002074656D706572617475726100506172B4
:102F300061646120646520656D657267656E6369B3
:102F40006100202D20496E76616C6964206578747B
:102F50007275646572206E756D62657220210A005B
:102F600048656174696E67206661696C65640045D7
:102F700072726F723A20616C2063616C656E74616D
:102F8000720048656174696E67206661696C65648A
:102F9000004572726F723A20616C2063616C656EDD
:102FA000746172004D494E54454D502074726967EA
:102FB0006765726564004572726F723A2054656D80
:102FC00070204D696E20506C6174004572726F7292
:102FD0003A2054656D70204D696E696D61004D41F8
:102FE0005854454D50207472696767657265640076
:102FF0004572726F723A2054656D70204D61782071
:10300000506C6174004572726F723A2054656D7035
:10301000204D6178696D61006265640A002C20733F
:10302000797374656D2073746F70706564212048C6
:1030300065617465725F49443A200023646566697E
:103040006E65202044454641554C545F4B6420003A
:1030500023646566696E65202044454641554C549D
:103060005F4B69200023646566696E6520204445D6
:103070004641554C545F4B702000504944204175E7
:10308000746F74756E652066696E69736865642116
:103090002050757420746865206C617374204B70C7
:1030A0002C204B6920616E64204B6420636F6E732B
:1030B00074616E74732066726F6D2062656C6F77D9
:1030C00020696E746F20436F6E66696775726174F4
:1030D000696F6E2E680A00504944204175746F7400
:1030E000756E65206661696C6564212074696D6523
:1030F0006F75740A00504944204175746F74756E81
:1031000065206661696C6564212054656D70657227
:10311000617475726520746F6F20686967680A0052
:10312000204B643A2000204B693A2000204B703A33
:1031300020000A20436C6173736963205049442066
:103140000A002054753A2000204B753A2000206D6B
:1031500061783A2000206D696E3A200020643A20A0
:103160000020626961733A20001000C90210012C2E
:10317000014001220170011801B0010E01F00104AB
:10318000015002FA00B002F0003003E600D003DC88
:10319000009004D2007005C800A006BE000008B46C
:1031A00000B009AA00D00BA000600E960060118C40
:1031B000000015820020197800C01D6E00A0226456
:1031C00000B0275A00902C500000314600E0343CFB
:1031D0000010383200903A2800603C1E00A03D14D8
:1031E00000803E0A00203F000070012C0190012762
:1031F00001B0012201C0011D01F0011801100213EC
:103200000130020E016002090190020401C002FFB8
:10321000000003FA004003F5008003F000D003EB48
:10322000002004E6007004E100E004DC004005D763
:1032300000C005D2004006CD00D006C8008007C3FC
:10324000003008BE00F008B900C009B400B00AAFF1
:1032500000B00BAA00D00CA500000EA000500F9BE0
:1032600000C01096005012910000148C00C0158709
:1032700000B0178200B0197D00D01B7800001E73CB
:103280000040206E0090226900F024640040275F17
:103290000090295A00E02B5500102E500020304B92
:1032A0000010324600E033410090353C00103737C3
:1032B0000070383200A0392D00B03A2800A03B231E
:1032C00000603C1E00103D1900903D1400103E0FA0
:1032D00000703E0A00C03E0500003F0000403FFB7A
:1032E000FF803FF6FFC03FF1FF446F6E65207361C2
:1032F00076696E672066696C652E0A004D3239006A
:103300002020506C616E6E65724275666665724211
:10331000797465733A20002046726565204D656DAD
:103320006F72793A2000436F6D70696C65643A2062
:103330004A756E20203520323031370A00207C203B
:10334000417574686F723A20284D6F6562797573A4
:103350004D616368696E65732C2064656661756C88
:103360007420636F6E666967290A00323031372D29
:1033700030352D31322031323A303000204C6173FB
:103380007420557064617465643A2000312E312ECA
:10339000310A004D61726C696E0020536F6674775C
:1033A0006172652052657365740A00205761746309
:1033B00068646F672052657365740A002042726FFB
:1033C000776E206F75742052657365740A0020450E
:1033D000787465726E616C2052657365740A005072
:1033E0006F77657255700A0073746172740A0050C9
:1033F00072696E7465722068616C7465642E206BEE
:10340000696C6C28292063616C6C6564210A00502A
:10341000617261646120646520656D657267656EC7
:10342000636961004B494C4C20636175736564208E
:103430006279204B494C4C20627574746F6E2F700A
:10344000696E0A0050617261646120646520656D77
:10345000657267656E636961004B494C4C2063611E
:103460007573656420627920746F6F206D75636871
:1034700020696E6163746976652074696D65202DBD
:103480002063757272656E7420636F6D6D616E641A
:103490003A200020746F6F206C6F6E67206578741F
:1034A000727573696F6E2070726576656E7465648F
:1034B0000A0020636F6C6420657874727573696F9D
:1034C0006E2070726576656E7465640A006F6B00BD
:1034D000526573656E643A20004E6F2063617365B8
:1034E000206C696768740A00486F74656E64206FA9
:1034F0006666736574733A004D36303020486F74D9
:10350000656E6420746F6F20636F6C6420746F202D
:103510006368616E67652066696C616D656E740ACB
:1035200000446573666173652061706C69636164F2
:103530006F004572723A20546F6F206661722100ED
:10354000546F6F206661722066726F6D20726566BF
:103550006572656E636520706F696E740A00432939
:103560000A0061626C656420286D696E2074656D67
:10357000702000436F6C64206578747275646573A5
:1035800020617265200020643A0020693A002070B2
:103590003A00486F74656E64206F66667365747375
:1035A0003A00205A00205900580020204D61783AF6
:1035B0002000205A00205900580020204D696E3A02
:1035C000200041706167617200456E63656E6465DD
:1035D0007200536F667420656E6473746F70733A13
:1035E000200053657474696E672054726176656C4F
:1035F00020416363656C65726174696F6E3A200087
:1036000053657474696E67205265747261637420C7
:10361000416363656C65726174696F6E3A20005333
:10362000657474696E67205072696E7420416363BB
:10363000656C65726174696F6E3A200053657474CD
:10364000696E67205072696E7420616E64205472D6
:103650006176656C20416363656C65726174696F46
:103660006E3A20004D31343520533C696E646578E4
:103670003E206F7574206F662072616E676520282A
:10368000302D31290A004649524D574152455F4E6F
:10369000414D453A4D61726C696E20312E312E31AB
:1036A00020284769746875622920534F5552434555
:1036B0005F434F44455F55524C3A68747470733A97
:1036C0002F2F6769746875622E636F6D2F4D61725D
:1036D0006C696E4669726D776172652F4D61726CAF
:1036E000696E2050524F544F434F4C5F56455253D2
:1036F000494F4E3A312E30204D414348494E455FA7
:10370000545950453A5B5349524955535D204558E9
:103710005452554445525F434F554E543A3220550A
:103720005549443A63656465326132662D343161CE
:10373000322D343734382D396231322D63353563CB
:1037400036326633363766660A005B53495249554E
:10375000535D204170616761722E00506C6174612D
:10376000666F726D612043616C69656E7465003FC0
:103770000A0020573A0043616C656E74616E646F95
:1037800020506C61742E2E2E0043616C656E746146
:103790006D69656E746F206C6973746F003F0A0009
:1037A00020573A00452569202573005B534952494B
:1037B00055535D206C697374612E006F6B004D3141
:1037C000313320530050617261646120646520656B
:1037D0006D657267656E636961004543484F0049D6
:1037E0004E464F004552524F525300445259525583
:1037F0004E00434F4D4D554E49434154494F4E00A5
:103800006F666600DA37DF37E437EB37F237444567
:103810004255473A00452569202573005B534952BC
:103820004955535D206C697374612E0050726F743A
:1038300065637465642050696E0A005072696E7425
:103840002074696D653A20004D31323500456E6453
:103850002066696C65206C6973740A00426567694B
:103860006E2066696C65206C6973740A0053696E1A
:10387000206D6F76696D69656E746F005B53495298
:103880004955535D206C697374612E0052657375E0
:103890006D69656E646F20696D7072652E00457389
:1038A000706572616E646F206F7264656E6573001F
:1038B0005265706F736F2E2E2E0047322F473320C4
:1038C00062616420706172616D65746572730A0073
:1038D0004163746976652045787472756465723ADF
:1038E00020004E6F206D6F7665206F6E20746F6FB5
:1038F0006C6368616E67650A002040002042403AB0
:103900000020403A00202F00205400202F002042A9
:103910003A00202F0020543A0020453A00205A3A1D
:103920000020593A00583A005761726E696E673A42
:1039300020486F6D696E672042756D70204469760E
:1039400069736F72203C20310A00627573793A20E6
:1039500070617573656420666F7220696E7075742E
:103960000A00627573793A20706175736564206628
:103970006F7220757365720A00627573793A2070F0
:10398000726F63657373696E670A00556E6B6E6F55
:10399000776E20636F6D6D616E643A202200486F10
:1039A0006D65202573257325732066697273740015
:1039B0002066697273740A005A0059005800486FF3
:1039C0006D65200020496E76616C696420657874AD
:1039D00072756465722000534420726561642065CD
:1039E00072726F720A00446F6E65207072696E7435
:1039F000696E672066696C650A0050617261646176
:103A000020646520656D657267656E636961004459
:103A10006574656E696461005072696E74657220C8
:103A200073746F707065642064756520746F2065B1
:103A300072726F72732E20466978207468652065F3
:103A400072726F7220616E6420757365204D393912
:103A50003920746F20726573746172742E2028543B
:103A6000656D706572617475726520697320726529
:103A70007365742E205365742069742061667465C3
:103A8000722072657374617274696E67290A004EE0
:103A90006F204C696E65204E756D62657220776986
:103AA000746820636865636B73756D2C204C61735B
:103AB00074204C696E653A20004E6F204368656340
:103AC0006B73756D2077697468206C696E65206E04
:103AD000756D6265722C204C617374204C696E6543
:103AE0003A2000636865636B73756D206D69736D53
:103AF000617463682C204C617374204C696E653A64
:103B000020004C696E65204E756D62657220697388
:103B1000206E6F74204C617374204C696E65204E6A
:103B2000756D6265722B312C204C617374204C6969
:103B30006E653A20004D31313000656E71756575E6
:103B400065696E67202200FFFFFF00004040000013
:103B50004040000000400000AE4300005943008098
:103B60008943000040C2000040C100000000000086
:103B7000964300004D4300808943000040C200008E
:103B800040C1000000004D33310043616E6E6F7420
:103B900020656E746572207375626469723A2000E4
:103BA0006175746F25692E67006572726F72207778
:103BB000726974696E6720746F2066696C650A00AB
:103BC0004E6F74205344207072696E74696E670A78
:103BD000005344207072696E74696E672062797454
:103BE00065200044656C6574696F6E206661696C60
:103BF00065642C2046696C653A200046696C652036
:103C000064656C657465643A006F70656E2066610A
:103C1000696C65642C2046696C653A2000577269AE
:103C200074696E6720746F2066696C653A20006F56
:103C300070656E206661696C65642C2046696C65F0
:103C40003A20006F70656E206661696C65642C2097
:103C500046696C653A200046696C652073656C6541
:103C6000637465640A002053697A653A20004669E6
:103C70006C65206F70656E65643A20006F70656ECC
:103C8000206661696C65642C2046696C653A200089
:103C90002066696C653A20004E6F77200022207004
:103CA0006F73002220706172656E743A2200535562
:103CB00042524F5554494E452043414C4C2074616B
:103CC000726765743A2200506172616461206465B4
:103CD00020656D657267656E6369610074727969EC
:103CE0006E6720746F2063616C6C207375622D6742
:103CF000636F64652066696C6573207769746820FA
:103D0000746F6F206D616E79206C6576656C732EB3
:103D1000204D4158206C6576656C2069733A004DE2
:103D20003234004D323320257300534420636172D6
:103D300064206F6B0A006F70656E526F6F7420663F
:103D400061696C65640A00766F6C756D652E696ECD
:103D50006974206661696C65640A00534420696E69
:103D60006974206661696C0A0043616E6E6F74202D
:103D70006F70656E207375626469722000000021A7
:103D800010422063308440A550C660E77008812946
:103D9000914AA16BB18CC1ADD1CEE1EFF1311210DE
:103DA0000273325222B5529442F772D66239931896
:103DB000837BB35AA3BDD39CC3FFF3DEE3622443EA
:103DC0003420040114E664C774A44485546AA54BE6
:103DD000B528850995EEE5CFF5ACC58DD55336727E
:103DE0002611163006D776F6669556B4465BB77A36
:103DF000A719973887DFF7FEE79DD7BCC7C448E50A
:103E0000588668A7784008611802282338CCC9ED85
:103E1000D98EE9AFF9488969990AA92BB9F55AD41D
:103E20004AB77A966A711A500A333A122AFDDBDCD5
:103E3000CBBFFB9EEB799B588B3BBB1AABA66C8729
:103E40007CE44CC55C222C033C600C411CAEED8F25
:103E5000FDECCDCDDD2AAD0BBD688D499D977EB6BD
:103E60006ED55EF44E133E322E511E700E9FFFBE75
:103E7000EFDDDFFCCF1BBF3AAF599F788F8891A948
:103E800081CAB1EBA10CD12DC14EF16FE18010A11F
:103E900000C230E3200450254046706760B9839823
:103EA00093FBA3DAB33DC31CD37FE35EF3B102906F
:103EB00012F322D2323542145277625672EAB5CBEF
:103EC000A5A89589856EF54FE52CD50DC5E234C3BF
:103ED00024A01481046674476424540544DBA7FAC3
:103EE000B79987B8975FE77EF71DC73CD7D326F20F
:103EF000369106B01657667676154634564CD96D0F
:103F0000C90EF92FE9C899E9898AB9ABA94458655E
:103F10004806782768C018E1088238A3287DCB5C62
:103F2000DB3FEB1EFBF98BD89BBBAB9ABB754A54AE
:103F30005A376A167AF10AD01AB32A923A2EFD0F2E
:103F4000ED6CDD4DCDAABD8BADE89DC98D267C07FE
:103F50006C645C454CA23C832CE01CC10C1FEF3E02
:103F6000FF5DCF7CDF9BAFBABFD98FF89F176E364E
:103F70007E554E745E932EB23ED10EF01E00091295
:103F800000FC0A01E803D720FFFD0EFD0BFD000039
:103F90000009000E010B0B090400808080808080E6
:103FA000800000808004040409030790909090082A
:103FB0000A0A090000242424FF2424FF24242407BF
:103FC0000B0B0901FF107C929050381412927C1058
:103FD000070A0A09010042A4A4481010244A4A848E
:103FE000070A0A09010060909090606294889462C8
:103FF00001040409040780808080030C0C0903FF7E
:10400000204040808080808080404020030C0C094C
:1040100003FF8040402020202020204040800707D0
:104020000709010310925438549210070707090139
:1040300001101010FE1010100204040904FEC0C08C
:104040004080070101090104FE020202090400C0C8
:10405000C0070A0A090100020404081010204040A9
:1040600080070A0A090100384482828282828244DF
:1040700038070A0A09010010305090101010101073
:10408000FE070A0A09010038448202040810204091
:10409000FE070A0A090100FE02040818040202844D
:1040A00078070A0A090100040C14244484FE04045D
:1040B00004070A0A090100FE808080F804020284D5
:1040C00078070A0A0901003C408080B8C482824413
:1040D00038070A0A090100FE02040408081010103B
:1040E00010070A0A09010038448244384482824495
:1040F00038070A0A09010038448282463A0202045B
:1041000078020707090400C0C0000000C0C002090F
:10411000090904FEC0C0000000C0C04080050909B4
:1041200009020008102040804020100807040409FC
:104130000102FE0000FE050909090200804020106E
:104140000810204080070A0A09010038448202044E
:104150000810100010070A0A09010038449AAAAA98
:10416000AAAA9C403C070A0A0901001028282844F2
:104170007C44828282070A0A090100F8848284F85A
:1041800084828284F8070A0A0901003C4280808008
:10419000808080423C070A0A090100F884828282FA
:1041A00082828284F8070A0A090100FE808080F872
:1041B00080808080FE070A0A090100FE808080F866
:1041C0008080808080070A0A09010038448280804C
:1041D0008E82824438070A0A09010082828282FEA6
:1041E0008282828282050A0A090200F820202020A9
:1041F00020202020F8070A0A0901003E08080808C4
:104200000808888870070A0A09010082848890A03B
:10421000D088848282070A0A090100808080808019
:1042200080808080FE070A0A0901008282C6AA9265
:104230008282828282070A0A0901008282C2A292D5
:104240008A86828282070A0A0901007C828282822F
:10425000828282827C070A0A090100F884828284B1
:10426000F880808080080B0B0901FF38448282822D
:1042700082828A443A01070A0A090100F88482828C
:1042800084F890888482070A0A0901007C82808071
:104290007C020202827C070A0A090100FE1010104B
:1042A000101010101010070A0A0901008282828281
:1042B000828282824438070A0A090100828282448B
:1042C000444428282810070A0A09010082828282B1
:1042D00092929292AA44070A0A0901008282442813
:1042E000101028448282070A0A09010082824428A9
:1042F000101010101010070A0A090100FE0204082D
:104300001020408080FE040C0C0903FFF0808080A8
:1043100080808080808080F0070A0A090100804048
:104320004020101008040402040C0C0902FFF010D5
:10433000101010101010101010F0070404090106DE
:10434000102844820801010900FFFF030303090349
:104350000A8040200707070901007C02027E82864E
:104360007A070A0A090100808080BCC2828282C268
:10437000BC0707070901007C82808080827C070AD5
:104380000A0901000202027A86828282867A07077F
:10439000070901007C8282FE80827C070A0A0901EB
:1043A000001C22222020F820202020070A0A0901D0
:1043B000FD7A84848478807C82827C070A0A0901E1
:1043C00000808080BCC28282828282050A0A090241
:1043D00000600000E02020202020F8050D0D0902DB
:1043E000FD18000038080808080808888870070ABF
:1043F0000A090100808080848890B0C88482050A00
:104400000A090200E02020202020202020F80707B1
:1044100007090100EC929292929282070707090124
:1044200000BCC282828282820707070901007C8267
:10443000828282827C070A0A0901FDB8C4828282D4
:10444000C4B8808080070A0A0901FD3A4682828248
:10445000463A0202020707070901009C62424040F7
:1044600040400707070901007C82807C02827C07AC
:1044700009090901002020FC20202020221C070718
:10448000070901008282828282867A070707090172
:10449000008282444428281007070709010082820D
:1044A000929292AA44070707090100824428102823
:1044B0004482070A0A0901FD4242242424181810E4
:1044C0009060070707090100FE0408102040FE065F
:1044D0000B0B0902001C20202020C0202020201CC3
:1044E000010C0C0904FF80808080808080808080A7
:1044F0008080060B0B090100E0101010100C10104A
:104500001010E007030309010762928CFFFFFFFF11
:10451000FFFFFFFFFFFFFFFFFFFFFFFFFFFFFFFFAB
:10452000FFFFFFFFFFFFFFFFFFFFFFFFFF00000098
:1045300009000E010B0B09040080800000808080C0
:104540008080808006080809010008789490A0A463
:104550007840070A0A0901001C222020F820206068
:10456000A25C070606090103827C44447C82070A98
:104570000A090100828244287C107C101010010B73
:104580000B0904FF80808080800080808080800410
:104590000B0B0902FF60908060909090601090601B
:1045A00003020209030BA0A00809090900013C420B
:1045B00099A5A1A599423C050707090103609070E0
:1045C000907800F8070808090101122448909048E3
:1045D0002412060404090102FC0404040501010973
:1045E0000204F80809090900013C42B9A5BDA9A5C2
:1045F000423C060101090109FC04040409030660A8
:10460000909060070909090101101010FE101010A8
:1046100000FE0406060901046090106080F00406A4
:104620000609010460902010906003030309030A47
:104630002040800709090901FE8282828282C6BA6F
:104640008080070A0A0901007E8A8A8A7A0A0A0A91
:104650000A0A020202090404C0C00403030902FD9D
:1046600020906003060609010440C0404040E00578
:1046700006060901047088887000F8070808090117
:10468000019048241212244890070A0A09010040A8
:10469000C0404042E60A121A06070A0A0901004011
:1046A000C040404CF2020C101E070A0A09010060CB
:1046B00090201092660A121A06070A0A09010010D1
:1046C00000101020408082827C070E0E090100201D
:1046D00010080010282828447C44828282070E0E8D
:1046E0000901000810200010282828447C448282F8
:1046F00082070E0E090100102844001028282844C3
:104700007C44828282070D0D090100345800102874
:104710002828447C44828282070D0D090100282844
:104720000010282828447C44828282070E0E09014A
:10473000001028281010282828447C4482828207F0
:104740000A0A0901001E2828284E784888888E0702
:104750000D0D0901FD3C42808080808080423C0834
:104760002418070E0E09010020100800FE8080802A
:10477000F880808080FE070E0E09010008102000DE
:10478000FE808080F880808080FE070E0E09010088
:1047900010284400FE808080F880808080FE070D15
:1047A0000D090100282800FE808080F8808080802C
:1047B000FE050E0E09020040201000F820202020E7
:1047C00020202020F8050E0E09020010204000F8DD
:1047D0002020202020202020F8050E0E0902002095
:1047E000508800F82020202020202020F8050D0DE2
:1047F000090200505000F82020202020202020F81E
:10480000070A0A09010078444242F24242424478CF
:10481000070D0D0901003458008282C2A2928A86D7
:10482000828282070E0E090100201008007C82821D
:104830008282828282827C070E0E0901000810208B
:10484000007C82828282828282827C070E0E090133
:1048500000102844007C82828282828282827C07CD
:104860000D0D0901003458007C828282828282828E
:10487000827C070D0D0901002828007C828282823B
:10488000828282827C07070709010182442810285E
:104890004482070C0C0901FF027C868A8A9292A24C
:1048A000A2C27C80070E0E0901002010080082823F
:1048B0008282828282824438070E0E09010008102B
:1048C000200082828282828282824438070E0E0910
:1048D00001001028440082828282828282824438CF
:1048E000070D0D09010028280082828282828282BF
:1048F000824438070E0E090100081020008282440D
:1049000028101010101010070A0A0901008080FCFE
:10491000828282FC808080060A0A090100384444B1
:1049200048D04844444458070B0B090100201008A4
:10493000007C02027E82867A070B0B0901000810B8
:1049400020007C02027E82867A070B0B0901001090
:104950002844007C02027E82867A070A0A09010046
:104960003458007C02027E82867A070A0A09010016
:104970002828007C02027E82867A070C0C0901003E
:1049800010282810007C02027E82867A0707070919
:1049900001006C12127E90926C070A0A0901FD7CDC
:1049A00082808080827C104830070B0B0901002038
:1049B0001008007C8282FE80827C070B0B090100BC
:1049C000081020007C8282FE80827C070B0B09018C
:1049D00000102844007C8282FE80827C070A0A093B
:1049E00001002828007C8282FE80827C050C0C0954
:1049F00002008040200000E02020202020F8050C4C
:104A00000C0902001020400000E02020202020F8A7
:104A1000050C0C0902002050880000E02020202016
:104A200020F8050B0B09020050500000E020202068
:104A30002020F8070B0B090100483050083C448245
:104A400082824438070A0A090100345800BCC28235
:104A500082828282070B0B090100201008007C82F1
:104A6000828282827C070B0B090100081020007CE7
:104A700082828282827C070B0B090100102844008D
:104A80007C82828282827C070A0A090100345800F3
:104A90007C82828282827C070A0A0901002828001F
:104AA0007C82828282827C07090909010010381009
:104AB00000FE001038100709090901FF027C8A8AEC
:104AC00092A2A27C80070B0B0901004020100082FB
:104AD00082828282867A070B0B090100081020006F
:104AE0008282828282867A070B0B09010010284499
:104AF000008282828282867A070A0A0901002828B7
:104B0000008282828282867A070E0E0901FD0408E5
:104B1000100042422424241818109060070B0B093F
:104B200001FE8080B8C4828282C4B88080070D0DE7
:104B30000901FD2424004242242424181810906006
:104B40000200000A0B02090C0D0E08070304010005
:104B50000000000000000000000000000000000055
:104B60000000000000000000000000000012111012
:104B70000000000000000000000000000000000035
:104B80000000000000000001021020200808102092
:104B900040102040800201020108040201010204C9
:104BA0000810204080804020100804020180040288
:104BB00001804020100804020108040201010204DF
:104BC00008102040800102040810204080050505DF
:104BD00005070508080808020202020A0A08080474
:104BE00004040401010101010101010303030303A2
:104BF000030303040707070C0C0C0C0C0C0C0C0231
:104C000002020206060606060606060B0B0B0B0B37
:104C10000B0B0B000020002300260029002C002F86
:104C2000003200000100000301060109010000221A
:104C300000250028002B002E003100340002010066
:104C400000050108010B0100002100240027002AB3
:104C5000002D003000330001010000040107010AAB
:104C6000014E414E494E495459494E46CDCCCC3D5A
:104C70000AD7233C17B7D13877CC2B329595E62449
:104C80001FB14F0A000020410000C84200401C46EE
:104C900020BCBE4CCA1B0E5AAEC59D749B5F1DAA9C
:104CA000C6EEE9EE11241FBECFEFD1E2DEBFCDBFCD
:104CB00000E00CBF14E0A0E0B2E0EAE5F1E402E0BD
:104CC0000BBF02C007900D92A638B107D9F725E1B6
:104CD000A6E8B4E001C01D92A439B207E1F716E2DC
:104CE000C1E5D6E200E006C021970109802FFE0150
:104CF0000F948018CE34D10780E00807A9F70F94ED
:104D0000A50C0D949B200C94000090910E068091B0
:104D10000D06981731F080910D068F5F8F7080938C
:104D20000D060895EFE6F0E08081826080830895AB
:104D30009091CA0480914A0E90FF21C0882351F0BF
:104D40009FB7F894809102018D7F809302019FBFED
:104D5000169811C0E091CB04F091CC048181882396
:104D600011F0169808C09FB7F894809102018D7FCA
:104D7000809302019FBF8FEF8093010220C08823A0
:104D800051F09FB7F89480910201826080930201F4
:104D90009FBF169A11C0E091CB04F091CC048181A1
:104DA000882311F0169A08C09FB7F89480910201E9
:104DB0008260809302019FBF81E080930102809115
:104DC000CA049FB781FF0BC0F89480910B018460E7
:104DD00080930B019FBF8FEF809302020AC0F8946B
:104DE00080910B018B7F80930B019FBF81E08093AB
:104DF00002028091CA0482FF05C08A988FEF8093D7
:104E0000030204C08A9A81E0809303029091CA044D
:104E100080914A0E93FF13C0882319F010981398BD
:104E20000AC0E091CB04F091CC048181811102C0D1
:104E3000109801C013988FEF80930402089588237F
:104E400019F0109A139A0AC0E091CB04F091CC04A7
:104E50008181811102C0109A01C0139A81E0809370
:104E600004020895BF92CF92DF92EF92FF920F93C8
:104E70001F93CF93DF9300D01F92CDB7DEB7809101
:104E80006E008B7F80936E0080916F008D7F80938A
:104E90006F0078948091860490918704A091880493
:104EA000B0918904892B8A2B8B2B09F447C0809100
:104EB0000502882309F442C00E94B732809186041B
:104EC00090918704A0918804B0918904893B0BE0FC
:104ED0009007A105B10578F0885B9B40A109B10955
:104EE0008093860490938704A0938804B0938904E8
:104EF00088EB9BE008C01092860410928704109201
:104F000088041092890490938900809388002091EE
:104F100088003091890080918400909185004096AE
:104F20002817390708F06AC680918400909185009F
:104F30004096909389008093880060C68091C80451
:104F40009091C904009771F001979093C9048093E0
:104F5000C8041092CC041092CB040E94852688ECE1
:104F600090E0C6C1E091CB04F091CC04309709F0F9
:104F7000CAC190910E0680910D06981751F1E091EB
:104F80000D061DE4E19FF0011124E15FF94FC0908F
:104F90006605D0906705E0906805F09069059F016F
:104FA000275B3F4FD9014D915D916D917C91D70168
:104FB000C601841B950BA60BB70B809366059093D7
:104FC0006705A0936805B093690580818860808338
:104FD0000BC08FB7F8941092660510926705109277
:104FE0006805109269058FBFF093CC04E093CB0461
:104FF000309709F47BC152A18091CA0441815813B2
:105000000AC0242F30E080910002082E000C990B7A
:105010002817390731F05093CA04409300020E94C8
:1050200098261092AC041092AD041092AE04109227
:10503000AF04E091CB04F091CC0487A990AD81340A
:10504000BCE99B0728F48132EEE49E0758F002C0C9
:1050500080E49CE9969587959695879524E0209322
:10506000990412C08131F7E29F0730F09695879539
:1050700022E02093990408C021E020939904803213
:10508000910510F480E290E07C0100E2E01AF10862
:10509000E11418E0F106F0F0EF2DFF27EE0FFF1FEF
:1050A000EE0FFF1FCF018854984FFC0132964591B7
:1050B00054916E2DAA27659F9001649F210D3A1F80
:1050C00006942A1F3A1F1124FC0185919491821B9A
:1050D000930B1EC09701369527952C7F28543C4F83
:1050E000F90185919491F901329665917491A70126
:1050F00047705527649F9001659F300D749F300D58
:105100001124B3E036952795BA95E1F7821B930BEE
:105110008436910588F401E113E0D8018D918D0169
:10512000882319F00E940434F8CF6AE070E0C701C8
:105130000E94BE3484E690E0909397048093960496
:105140008091990480939804E091CB04F091CC0471
:1051500083AD94AD90939B0480939A048134BCE911
:105160009B0728F48132EEE49E0758F002C080E4E9
:105170009CE9969587959695879524E020939904C8
:1051800012C08131F7E29F0730F09695879522E0B3
:105190002093990408C021E020939904803291055E
:1051A00010F480E290E07C0100E2E01AF108E114E2
:1051B00018E0F106F0F0EF2DFF27EE0FFF1FEE0FC6
:1051C000FF1FCF018854984FFC01329645915491AE
:1051D0006E2DAA27659F9001649F210D3A1F0694AA
:1051E0002A1F3A1F1124FC0185919491821B930B75
:1051F0001EC09701369527952C7F28543C4FF90106
:1052000085919491F901329665917491A701477047
:105210005527649F9001659F300D749F300D1124B8
:1052200053E0369527955A95E1F7821B930B843608
:10523000910588F401E113E0D8018D918D01882357
:1052400019F00E940434F8CF6AE070E0C7010E94B0
:10525000BE3484E690E0AC0160E070E04093B004BE
:105260005093B1046093B2047093B3049093890097
:1052700080938800E091CB04F091CC0482899389DB
:10528000A489B589B695A79597958795B095A0956A
:10529000909581959F4FAF4FBF4F8093B8049093E7
:1052A000B904A093BA04B093BB048093BC04909358
:1052B000BD04A093BE04B093BF048093C004909338
:1052C000C104A093C204B093C3048093C404909318
:1052D000C504A093C604B093C7041092B4041092FE
:1052E000B5041092B6041092B7040DC080ED97E09B
:1052F0009093890080938800F8948091130D8823FF
:1053000009F487C480C48091050281110E94B732DC
:1053100020919904222309F4EEC1E091CB04F0918D
:10532000CC044091C4045091C5046091C6047091AE
:10533000C70482819381A481B581840F951FA61F24
:10534000B71F8093C4049093C504A093C604B09380
:10535000C704181619061A061B06DCF480914A0EBB
:10536000882351F09FB7F894809102018160809367
:1053700002019FBF179A0DC08181882311F0179AEF
:1053800008C09FB7F8948091020181608093020168
:105390009FBFE091CB04F091CC044091C0045091A8
:1053A000C1046091C2047091C30486819781A08575
:1053B000B185840F951FA61FB71F8093C0049093DB
:1053C000C104A093C204B093C304181619061A06A8
:1053D0001B060CF4889AE091CB04F091CC04409128
:1053E000BC045091BD046091BE047091BF048285DD
:1053F0009385A485B585840F951FA61FB71F80933D
:10540000BC049093BD04A093BE04B093BF041816CF
:1054100019061A061B060CF48B9AE091CB04F09146
:10542000CC044091B8045091B9046091BA047091D1
:10543000BB0486859785A089B189840F951FA61F17
:10544000B71F8093B8049093B904A093BA04B093A3
:10545000BB04181619061A061B066CF480914A0E36
:10546000882319F0119A149A06C08181811102C013
:10547000119A01C0149A8091C4049091C504A0911E
:10548000C604B091C704181619061A061B060CF0BC
:105490004AC0E091CB04F091CC04428953896489DD
:1054A0007589841B950BA60BB70B8093C40490934E
:1054B000C504A093C604B093C70480910102409133
:1054C0009C0450919D0460919E0470919F04082E4D
:1054D000000C990BAA0BBB0B840F951FA61FB71FBF
:1054E00080939C0490939D04A0939E04B0939F048A
:1054F00080914A0E882351F09FB7F8948091020161
:105500008E7F809302019FBF17980DC081818823F1
:1055100011F0179808C09FB7F894809102018E7F10
:10552000809302019FBF8091C0049091C104A0911B
:10553000C204B091C304181619061A061B0684F596
:10554000E091CB04F091CC04428953896489758938
:10555000841B950BA60BB70B8093C0049093C104DA
:10556000A093C204B093C304809102024091A004AE
:105570005091A1046091A2047091A304082E000C24
:10558000990BAA0BBB0B840F951FA61FB71F809307
:10559000A0049093A104A093A204B093A3048898BC
:1055A0008091BC049091BD04A091BE04B091BF0451
:1055B000181619061A061B0684F5E091CB04F09123
:1055C000CC044289538964897589841B950BA60B89
:1055D000B70B8093BC049093BD04A093BE04B0931A
:1055E000BF04809103024091A4045091A5046091EE
:1055F000A6047091A704082E000C990BAA0BBB0BF4
:10560000840F951FA61FB71F8093A4049093A50431
:10561000A093A604B093A7048B988091B8049091AE
:10562000B904A091BA04B091BB04181619061A0661
:105630001B06E4F5E091CB04F091CC044289538938
:1056400064897589841B950BA60BB70B8093B804EE
:105650009093B904A093BA04B093BB048091040260
:105660004091A8045091A9046091AA047091AB04E0
:10567000082E000C990BAA0BBB0B840F951FA61FBD
:10568000B71F8093A8049093A904A093AA04B09391
:10569000AB0480914A0E882319F01198149806C023
:1056A0008181811102C0119801C014988091B404C5
:1056B0009091B504A091B604B091B7040196A11DD4
:1056C000B11D8093B4049093B504A093B604B09335
:1056D000B7042150E091CB04F091CC044289538966
:1056E0006489758984179507A607B70708F412CE51
:1056F000BB24B39401C0B12C4091B4045091B504C3
:105700006091B6047091B704E090CB04F090CC04A3
:10571000F70186899789A08DB18D84179507A60713
:10572000B70708F406C14091B0045091B1046091EC
:10573000B2047091B304068D178D20A131A1AA2760
:10574000419FB12D529FC001629F900D619F800DBE
:10575000911D429FB00D811D9A1F519FB00D811D5B
:105760009A1F609FB00D811D9A1F509FB10D8A1F17
:105770009A1FB6958A1F9A1F349F800D911D359FE1
:10578000900D112423AD34AD820F931F90939B0491
:1057900080939A0447A950AD61AD72ADA0E0B0E02E
:1057A000481759076A077B0720F450939B044093DE
:1057B0009A0480919A0490919B048134BCE99B07E0
:1057C00028F48132EEE49E0758F002C080E49CE9A0
:1057D000969587959695879524E02093990412C015
:1057E0008131F7E29F0730F09695879522E020936C
:1057F000990408C021E0209399048032910510F4A7
:1058000080E290E08C0100521109011528E0120796
:10581000E8F0E12FFF27EE0FFF1FEE0FFF1FCF0174
:105820008854984FFC01329625913491AA27039F02
:10583000A001029F410D5A1F06944A1F5A1F1124AE
:10584000FC0125913491241B350B1FC0980136951E
:1058500027952C7F28543C4FF90145915491F9012B
:10586000329665917491980127703327629FC00129
:10587000639F900D729F900D1124F3E0969587958C
:10588000FA95E1F79A01281B390B2436310598F473
:1058900071E1E72E73E0F72ED7018D917D0188230A
:1058A00019F00E940434F8CF6AE070E0C8010E9449
:1058B000BE3424E630E080910502882301F1C9015D
:1058C000293BBBE03B07E0F068EB7BE00F94171847
:1058D000883EE3E09E0718F48854944F02C088EB9A
:1058E0009BE0A901481B590B60E070E040938604DF
:1058F00050938704609388047093890401C0C901A0
:1059000090938900809388008091B0049091B104B5
:10591000A091B204B091B304820F931FA11DB11DD9
:105920008093B0049093B104A093B204B093B304F5
:1059300048C14091B4045091B5046091B60470918F
:10594000B704F701828D938DA48DB58D84179507CB
:10595000A607B70708F005C14091AC045091AD040B
:105960006091AE047091AF04068D178D20A131A116
:10597000AA27419FB12D529F6001629FD00C619F69
:10598000C00CD11C429FB00DC11CDA1E519FB00D3E
:10599000C11CDA1E609FB00DC11CDA1E509FB10DF4
:1059A000CA1EDA1EB695CA1EDA1E349FC00CD11C60
:1059B000359FD00C112480919A0490919B04FF96FE
:1059C000C816D90680F48C199D09408151816281E5
:1059D00073816C01E12CF12CC416D506E606F7069E
:1059E00020F4CA0102C0808191818134BCE99B0707
:1059F00028F48132EEE49E0758F002C080E49CE96E
:105A0000969587959695879524E02093990412C0E2
:105A10008131F7E29F0730F09695879522E0209339
:105A2000990408C021E0209399048032910510F474
:105A300080E290E08C0100521109011528E0120764
:105A4000E8F0E12FFF27EE0FFF1FEE0FFF1FCF0142
:105A50008854984FFC01329625913491AA27039FD0
:105A6000A001029F410D5A1F06944A1F5A1F11247C
:105A7000FC0125913491241B350B1FC098013695EC
:105A800027952C7F28543C4FF90145915491F901F9
:105A9000329665917491980127703327629FC001F7
:105AA000639F900D729F900D112423E0969587952A
:105AB0002A95E1F79A01281B390B2436310598F411
:105AC00081E1E82E83E0F82ED7018D917D018823B6
:105AD00019F00E940434F8CF6AE070E0C8010E9417
