:100000000C94DC150C9493E60C94BEE60C94E9E693
:100010000C9414E70C943FE70C946AE70C9495E772
:100020000C94C0E70C94DD9B0C94EC9B0C94FB9B14
:100030000C940D160C9451E40C940D160C940D16A2
:100040000C940D160C94631C0C940D160C940D1648
:100050000C940D160C940D160C942A9A0C94FAE438
:100060000C940D160C9439210C940D160C940D164D
:100070000C940D160C940D160C940D160C940D1674
:100080000C940D160C940D160C940D160C940D1664
:100090000C940D160C940D160C940D160C940D1654
:1000A0000C940D160C940D160C940D160C940D1644
:1000B0000C940D160C940D160C940D160C940D1634
:1000C0000C940D160C940D160C940D160C940D1624
:1000D0000C940D160C940D160C940D160C940D1614
:1000E0000C940D16EE53F853FF5306540D5422543E
:1000F0002D54345414541B546DE637E63FE64BE65A
:1001000058E679E686E614E819E81EE828E832E8B9
:10011000ABE83CE844E84CE856E860E86AE879E88F
:1001200083E8ABE88DE897E8A1E8CFE8D2E8C1E83A
:10013000C5E8CBE809E9D6E8DAE8E0E8E4E8E8E889
:10014000EEE8F2E8F6E809E9FCE800E904E9084A23
:10015000D73B3BCE016E84BCBFFDC12F3D6C7431DB
:100160009ABD56833DDA3D00C77F11BED9E4BB4C32
:100170003E916BAAAABE000000803F05A84CCDB2FC
:10018000D44EB93836A9020C50B9918688083CA6DD
:10019000AAAA2ABE000000803F000C94529A0C9438
:1001A00068510C94EEE80C94A3610C94A5750C9422
:1001B000707B0C942F510C945B7D0C94C1E80C94D3
:1001C00022540C943E840C9401770C9486E60C9493
:1001D000D27A0C94A3630C943CE80C9496790C941A
:1001E0006AE80C942D540C9409E90C9441840C9405
:1001F00059600C940D540C9434540C94FC600C9481
:100200003FE60C94EE530C9483E80C9497E80C941E
:10021000FF530C94F6E80C94FB770C94B6530C94B3
:1002200058E60C94718C0C94B86D0C94B36A0C94D1
:1002300014E80C946B730C9485E00C9459730C9433
:1002400056E80C9471C70C94FA620C944CE80C9428
:10025000ABE80C9442510C9414540C9437E60C9473
:10026000E84F0C94064C0C94D16E0C947D510C9478
:10027000B07F0C94CFE80C940D650C9406540C944C
:10028000F2E80C94B1E40C94A1630C94D2530C9456
:1002900000E90C94A16B0C94CBE80C94935F0C9444
:1002A000505E0C94FCE80C94EB4F0C945B5C0C944B
:1002B000D2E80C945B600C94E8E80C944BE60C9448
:1002C000E85F0C941EE60C9460E80C9430700C947B
:1002D00071730C9492510C94E4E80C94E0E80C9443
:1002E0003B840C94DAE80C948DE80C94A1E80C940F
:1002F00056500C94A5DE0C94565E0C941EE80C949B
:10030000BD7C0C944B620C9452640C9468860C94E3
:10031000C5690C948BC70C9403650C94C5E80C94C8
:1003200079E80C94875F0C94F5670C947C7E0C94B0
:1003300065730C9455510C9444E80C941B540C9424
:10034000EF4F0C94347A0C9442760C948D5F0C949D
:10035000D6E80C94E7780C946DE60C94ED4F0C9471
:10036000F8530C945C5E0C9404E90C94E6740C94C1
:1003700019E80C945F730C9432E80C941F7C0C9475
:1003800079E60C94D5AF0C9428E8205A3A0020590D
:100390003A0020436F756E7420583A0024F4D4302C
:1003A00050C38E20C2A24017828B7011127A910D19
:1003B000816CD90AA861E108C758660761514306F4
:1003C0001E4B5D05C145A7041A411104093D980360
:1003D000713931034036DB0265339102D430540267
:1003E000802E1D02632CEE01752AC501B028A001E4
:1003F000102781018F2564012B244B01E022340159
:10040000AC211F018D200D01801FFC00841EED001A
:10041000971DDF00B81CD200E61BC600201BBC00E5
:10042000641AB200B219A8000A19A0006A1899004B
:10043000D117910040178B00B516840031167E004D
:10044000B31579003A157300C7146F0058146A0089
:10045000EE1366008813630025135E00C7125B006D
:100460006C12570015125400C111510070114F0049
:1004700021114B00D61049008D1047004610440052
:1004800002104200C00F4000800F3E00420F3C00AF
:10049000060F3B00CB0E3800930E37005C0E350084
:1004A000270E3400F30D3200C10D3100900D3000E5
:1004B000600D2E00320D2D00050D2C00D90C2B00E7
:1004C000AE0C2900850C29005C0C2700350C270098
:1004D0000E0C2600E80B2400C40B2400A00B230004
:1004E0007D0B23005A0B2100390B2100180B200033
:1004F000F80A1F00D90A1E00BB0A1E009D0A1D0033
:10050000800A1D00630A1C00470A1B002C0A1B00FE
:10051000110A1A00F7091A00DD091900C4091900A7
:10052000AB091900920917007B091800630917002D
:100530004C09160036091600200916000A09150094
:10054000F5081500E0081400CC081400B8081400E1
:10055000A4081400900813007D0812006B08130013
:100560005808120046081200340811002308110030
:100570001208110001081100F0071000E007100038
:10058000D0071000C0071000B0070F00A10710002F
:1005900091070E0083070F0074070F0065070E0018
:1005A00057070E0049070E003B070D002E070E00EF
:1005B00020070D0013070D0006070D00F9060C00BB
:1005C000ED060D00E0060C00D4060C00C8060C0079
:1005D000BC060C00B0060C00A4060B0099060C002B
:1005E0008D060B0082060B0077060B006C060B00D5
:1005F00061060A0057060B004C060A0042060A0074
:1006000038060A002E060A0024060A001A060A0006
:100610001006090007060A00FD050900F405090097
:10062000EB050900E2050900D9050900D00509001C
:10063000C7050900BE050900B5050800AD0508009D
:10064000A50509009C050800940508008C05080014
:10065000840508007C050800740508006C05070087
:10066000650508005D050700560508004E050700F2
:100670004705070040050800380507003105070059
:100680002A050700230507001C05060016050700BC
:100690000F0507000805060002050700FB04060019
:1006A000F5040700EE040600E8040600E204070073
:1006B000DB040600D5040600CF040600C9040600CA
:1006C000C3040600BD040600B7040600B10405001B
:1006D000AC040600A6040600A00405009B04060066
:1006E00095040500900406008A04050085040500B1
:1006F000800406007A0405007504050070040500F6
:100700006B04050066040500610405005C04050037
:1007100057040500520405004D0405004804050077
:10072000430405003E0404003A04050035040500B6
:10073000300404002C0405002704040023040500F1
:100740001E0404001A040400160405001104040029
:100750000D0404000904050004040400000404005E
:10076000FC030400F8030400F4030400F003040095
:10077000EC030400E8030400E4030400E0030400C5
:10078000DC030400D8030400D4030400D0030400F5
:10079000CC030400C8030300C503030024F404D9F8
:1007A000201BC40C5C0E9804C4095F02650771012C
:1007B000F405F900FB04B30048048700C103690095
:1007C0005803550003034500BE023A00840231007D
:1007D00053022A002902250004022000E4011C0023
:1007E000C8011900AF01170098011400840113001B
:1007F000710110006101100051010E0043010D0054
:1008000036010B002B010B0020010B001501090024
:100810000C01090003010800FB000800F3000800B8
:10082000EB000700E4000600DE000600D80006002A
:10083000D2000600CC000500C7000500C20005007C
:10084000BD000400B9000400B5000400B1000400BC
:10085000AD000400A9000400A5000300A2000300ED
:100860009F0004009B000300980003009500020015
:1008700093000300900003008D0002008B00030032
:10088000880002008600020084000300810002004C
:100890007F0002007D0002007B0002007900020060
:1008A000770001007600020074000200720001006F
:1008B000710002006F0002006D0001006C00020078
:1008C0006A00010069000200670001006600010083
:1008D0006500010064000200620001006100010087
:1008E000600001005F0002005D0001005C0001008B
:1008F0005B0001005A00010059000100580001008E
:10090000570001005600010055000100540001008D
:10091000530000005300010052000100510001008B
:10092000500001004F0001004E0000004E00010089
:100930004D0001004C0001004B0000004B00010085
:100940004A00010049000100480000004800010081
:10095000470001004600000046000100450000007D
:100960004500010044000100430000004300010075
:10097000420000004200010041000000410001006F
:10098000400001003F0000003F0001003E00000069
:100990003E0001003D0000003D0001003C00000061
:1009A0003C0000003C0001003B0000003B00010057
:1009B0003A0000003A00010039000000390001004F
:1009C0003800000038000000380001003700000047
:1009D000370001003600000036000000360001003C
:1009E0003500000035000000350001003400000033
:1009F0003400000034000100330000003300000028
:100A0000330001003200000032000000320001001B
:100A10003100000031000000310001003000000012
:100A200030000000300001002F0000002F00000007
:100A30002F0000002F0001002E0000002E000000FB
:100A40002E0001002D0000002D0000002D000000F0
:100A50002D0001002C0000002C0000002C000000E4
:100A60002C0001002B0000002B0000002B000000D8
:100A70002B0001002A0000002A0000002A000000CC
:100A80002A000100290000002900000029000000C0
:100A900029000000290001002800000028000000B3
:100AA00028000000280000002800010027000000A6
:100AB0002700000027000000270000002700010099
:100AC000260000002600000026000000260000008E
:100AD0002600010025000000250000002500000080
:100AE0002500000025000000250001002400000072
:100AF0002400000024000000240000002400010065
:100B00002300000023000000230000002300000059
:100B10002300000023000000230001002200000049
:100B2000220000002200000022000000220000003D
:100B3000220001002100000021000000210000002F
:100B40002100000021000000210000002100010020
:100B50002000000020000000200000002000000015
:100B60002000000020000000200000002000010004
:100B70001F0000001F0000001F0000001F000000F9
:100B80001F0000001F0000001F0001001E000000E9
:100B90001E0000001E0000001E0000007A5F6D694C
:100BA0006E3A2000795F6D696E3A2000785F6D695A
:100BB0006E3A20005265706F7274696E6720656EC0
:100BC0006473746F70207374617475730A00456E7A
:100BD0006473746F70732025632025632025632060
:100BE000256300205A3A0020593A0020583A0065FF
:100BF0006E6473746F7073206869743A20002044C7
:100C00000020490020204D3330312050005049440D
:100C10002073657474696E67733A0A002046002079
:100C2000420020480020204D3134352053004D61D2
:100C300074657269616C206865617475702070619B
:100C400072616D65746572733A0A00205A0020590A
:100C50000020204D323036205800486F6D65206FDF
:100C600066667365743A0A00204500205A002059D0
:100C70000020580020420020540020204D32303502
:100C8000205300416476616E6365643A20533C6D85
:100C9000696E5F66656564726174653E20543C6D83
:100CA000696E5F74726176656C5F666565647261BA
:100CB00074653E20423C6D696E5F7365676D656E5D
:100CC000745F74696D655F6D733E20583C6D61782B
:100CD0005F78795F6A65726B3E205A3C6D61785F20
:100CE0007A5F6A65726B3E20453C6D61785F655F37
:100CF0006A65726B3E0A0020540020520020204D8D
:100D0000323034205000416363656C6572617469F0
:100D10006F6E2028756E6974732F7332293A2050D4
:100D20003C7072696E745F616363656C3E20523C17
:100D3000726574726163745F616363656C3E2054B5
:100D40003C74726176656C5F616363656C3E0A003A
:100D5000204500205A0020590020204D32303120FB
:100D600058004D6178696D756D20416363656C65F0
:100D7000726174696F6E2028756E6974732F733297
:100D8000293A0A00204500205A0020590020204D11
:100D90003230332058004D6178696D756D2066657D
:100DA000656472617465732028756E6974732F733E
:100DB000293A0A00204500205A0020590020204DE1
:100DC0003932205800537465707320706572207535
:100DD0006E69743A0A0020204D3230302044300AC7
:100DE0000020204D3230302044002044697361627D
:100DF0006C65640A0046696C616D656E742073658C
:100E00007474696E67733A0020204D313439204381
:100E1000203B20556E69747320696E2043656C73A6
:100E20006975730A0A002020473231203B20556E35
:100E300069747320696E206D6D0A0A0048617264DE
:100E4000636F6465642044656661756C74205365E6
:100E50007474696E6773204C6F616465640A004541
:100E60004550524F4D20636865636B73756D206DFF
:100E700069736D617463680A00206279746573290F
:100E80000A002073746F7265642073657474696EF0
:100E90006773207265747269657665642028002026
:100EA0004D61726C696E3D563337290A00284545FD
:100EB00050524F4D3D00454550524F4D2076657282
:100EC00073696F6E206D69736D61746368200020B3
:100ED0006279746573290A0053657474696E677367
:100EE0002053746F7265642028004572726F7220FF
:100EF00077726974696E6720746F20454550524F50
:100F00004D210A006563686F3A004572726F723A4C
:100F1000007C3C3E5E2B3D3F2F5B5D3B2C2A225CE0
:100F20000020746F6F206C6F6E6720657874727527
:100F300073696F6E2070726576656E7465640A0001
:100F400020636F6C6420657874727573696F6E20AE
:100F500070726576656E7465640A00256973002594
:100F6000696D20256973002569682025696D202534
:100F7000697300256964202569682025696D20252D
:100F80006973002569792025696420256968202511
:100F9000696D20256973006D0046696C616D656E31
:100FA0007420757365643A200053746174733A2039
:100FB000002C204C6F6E67657374206A6F623A2054
:100FC00000546F74616C2074696D653A200053742D
:100FD0006174733A20002C204661696C65643A2084
:100FE000002C2046696E69736865643A200050726F
:100FF000696E74733A200053746174733A2000541C
:1010000061726A65746120726574697261646100FD
:101010005461726A65746120636F6C6F63616461AF
:10102000007061726120726573756D69720045733D
:10103000706572616E646F20696D702E0043616D22
:10104000626961722046696C616D656E746F002023
:1010500020426F7175696C6C613A2000457874723A
:101060007569722066696C616D656E746F00457399
:1010700070657261646F20706F720043616D6269A8
:1010800061722046696C616D656E746F002020424C
:101090006F7175696C6C613A2000436172676172AF
:1010A0002066696C616D656E746F00457370657262
:1010B00061646F20706F720043616D6269617220BC
:1010C00046696C616D656E746F002020426F7175AA
:1010D000696C6C613A20007061726120636F6E749C
:1010E000696E7561722E2E2E00792070726573699B
:1010F0006F6E6520656C20626F746F6E00496E7351
:10110000657274652066696C616D656E746F00430D
:10111000616D626961722046696C616D656E746FA4
:10112000002020426F7175696C6C613A2000436148
:101130006C656E746172206C6120626F7175696C90
:101140006C61004F7072696D6120626F746F6E2008
:10115000706172610043616D626961722046696C01
:10116000616D656E746F002020426F7175696C6CE3
:10117000613A200045737065726520706F72206659
:1011800061766F720043616C656E74616E646F208E
:10119000626F7175696C6C610043616D6269617247
:1011A0002046696C616D656E746F002020426F711E
:1011B00075696C6C613A200066696C616D656E746E
:1011C0006F20657870756C7361646F00457370652E
:1011D0007261646F20706F720043616D6269617249
:1011E0002046696C616D656E746F002020426F71DE
:1011F00075696C6C613A200063616D6269617200AF
:1012000064656C2066696C616D656E746F00457312
:10121000706572616E646F20696E696369617200E6
:1012200043616D626961722046696C616D656E74BF
:101230006F0045787472756972206D617300526534
:1012400073756D697220696D702E004F7063696FE0
:101250006E65732064652063616D62696F3A00207A
:1012600020426F7175696C6C613A20004174726143
:10127000730054656D70204D696E696D61206573F2
:10128000203135302E004572726F723A20616C2029
:1012900063616C656E746172004573746164697337
:1012A000746963617320496D702E005465726D69B5
:1012B00073746F72657300496E662E20436F6E748F
:1012C000726F6C61646F7200496E662E20496D709A
:1012D0007265736F7261004D656E75207072696E14
:1012E000636970616C004578747275736F726573B1
:1012F0003A203100687474703A2F2F6D61726C69F6
:101300006E66772E6F726700537465656C4D4D2D58
:1013100033303330333000323031372D30352D31EA
:10132000322031323A303000312E312E31004D61D1
:10133000726C696E004675656E7465206465207018
:101340006F6465723A2047656E657269630050721A
:101350006F746F636F6C6F3A20312E30004261758D
:1013600064696F733A203131353230300052414D6B
:10137000505320312E340054656D70657261747560
:101380007261206D6178696D613A203132300054AC
:10139000656D7065726174757261206D696E696DDD
:1013A000613A203500544265643A4550434F53201A
:1013B0003130304B0054656D7065726174757261C7
:1013C000206D6178696D613A203235300054656D69
:1013D0007065726174757261206D696E696D613AD4
:1013E00020350054303A20415443203130344754A2
:1013F0002D320000546F74616C2064652045787450
:10140000727573696F6E3A2000256C642E25696DC4
:101410000000496D70726573696F6E206D61732095
:101420006C617267613A2000005469656D706F20CD
:10143000746F74616C20646520696D702E3A2000B1
:10144000436F6D706C6574616461733A2000436F23
:101450006E74656F20646520696D70726573696F65
:101460006E3A2000052E2E004D656E752070726953
:101470006E636970616C0046696C2E204469612E50
:101480000046696C2E204469612E004520696E205B
:101490006D6D330041706167617200456E63656E0A
:1014A00064657200436F6E74726F6C0045207061EA
:1014B000736F732F6D6D0045207061736F732F6DA7
:1014C0006D005A207061736F732F6D6D005A20701C
:1014D00061736F732F6D6D0059207061736F732F7F
:1014E0006D6D0059207061736F732F6D6D00582002
:1014F0007061736F732F6D6D0058207061736F731F
:101500002F6D6D004163656C2E205669616A650020
:101510004163656C2E205669616A65004163656CA4
:101520002E207265747261632E004163656C2E20FB
:101530007265747261632E004163656C2E206D616B
:101540007845004163656C2E206D617845004163EC
:10155000656C2E206D61785A004163656C2E206D9C
:1015600061785A004163656C2E206D6178590041A5
:1015700063656C2E206D617859004163656C2E2087
:101580006D617858004163656C2E206D617858005C
:1015900056656C2E207669616A65206D696E00560D
:1015A000656C2E207669616A65206D696E005665EE
:1015B0006C2E207669616A65206D696E00566D69D2
:1015C0006E00566D696E00566D696E00566D6178DD
:1015D0004500566D61784500566D61784500566D41
:1015E00061785A00566D61785A00566D61785A00DC
:1015F000566D61785900566D61785900566D617865
:101600005900566D61785800566D61785800566DD6
:101610006178580056652D6A65726B0056652D6AB3
:1016200065726B0056652D6A65726B00567A2D6A7D
:1016300065726B00567A2D6A65726B0056792D6A59
:1016400065726B0056792D6A65726B0056792D6A4A
:1016500065726B0056782D6A65726B0056782D6A3C
:1016600065726B0056782D6A65726B004163656C1C
:1016700065726163696F6E004163656C6572616379
:10168000696F6E00436F6E74726F6C0047756172A4
:10169000646172206D656D6F72696100506C617478
:1016A00061666F726D6100506C617461666F726D1E
:1016B0006100426F7175696C6C6100426F71756990
:1016C0006C6C610056656E74696C61646F72005673
:1016D000656E74696C61646F720054656D706572DB
:1016E00061747572610050726563616C656E7461DE
:1016F0007220414253436F6E6669670050726563A2
:10170000616C656E74617220504C41436F6E666906
:1017100067005049442D44005049442D440050492D
:10172000442D49005049442D49005049442D500052
:101730005049442D5000200220466163740020026D
:101740002046616374002002204D61780020022051
:101750004D6178002002204D6178002002204D6903
:101760006E002002204D696E002002204D696E003F
:1017700054656D7065726174757261204175746F26
:101780002E0041706167617200456E63656E64652D
:10179000720056656E74696C61646F720056656E96
:1017A00074696C61646F7200506C617461666F7211
:1017B0006D6100506C617461666F726D6100426FA3
:1017C0007175696C6C6100426F7175696C6C610058
:1017D000436F6E74726F6C005265737461757261E1
:1017E00072206D656D6F726961004361726761722D
:1017F000206D656D6F726961004775617264617219
:10180000206D656D6F7269610046696C616D656E12
:10181000746F004D6F76696D69656E746F00546505
:101820006D7065726174757261004D656E752070C2
:1018300072696E636970616C004578747275736F5C
:1018400072004D6F766572205A004D6F766572207A
:1018500059004D6F76657220580050726570617244
:101860006172004D6F76657220302E316D6D004DC6
:101870006F76657220316D6D004D6F766572203127
:10188000306D6D004D6F76657220656A6573004539
:1018900078747275736F72004D6F766572205A009E
:1018A0004D6F7665722059004D6F76657220580035
:1018B0004578747275736F72004D6F766572205A39
:1018C000004D6F7665722059004D6F766572205815
:1018D0000050726563616C656E74617220414253A1
:1018E0000050726563616C656E74617220504C418A
:1018F00000456E66726961720043616D6269617272
:101900002066696C616D656E746F004D38340041FE
:101910007061676172206D6F746F72657300416AE8
:1019200075737461722064657366617365730047D3
:101930003238205A004F726967656E205A0047326C
:10194000382059004F726967656E20590047323858
:101950002058004F726967656E2058004732380082
:101960004C6C6576617220616C206F726967656E80
:10197000004D6F76657220656A6573004D656E7502
:10198000207072696E636970616C0050726563618A
:101990006C656E74617220414253506C6174616673
:1019A0006F726D610050726563616C656E74617217
:1019B0002041425320456E640050726563616C653E
:1019C0006E746172204142530050726570617261A1
:1019D000720050726563616C656E74617220504C68
:1019E00041506C617461666F726D61005072656325
:1019F000616C656E74617220504C4120456E6400CC
:101A000050726563616C656E74617220504C410068
:101A100050726570617261720043616D62696172DA
:101A20002066696C616D656E746F004D6963726FDD
:101A30007061736F205A004D6963726F7061736FCC
:101A40002059004D6963726F7061736F20580046B2
:101A50006C756A6F00466C756A6F0056656E7469C6
:101A60006C61646F720056656E74696C61646F724C
:101A700000506C617461666F726D6100506C6174CE
:101A800061666F726D6100426F7175696C6C6100A7
:101A9000426F7175696C6C610056656C6F63696447
:101AA00061640056656C6F6369646164004D656EC6
:101AB00075207072696E636970616C004D363030EC
:101AC00000426162797374657070696E67205A00B4
:101AD000426162797374657070696E672059004263
:101AE0006162797374657070696E672058004D3457
:101AF000323800496E662E20496D707265736F72C0
:101B000061004E6F20686179207461726A6574614A
:101B1000205344004D656E75206465205344004495
:101B20006574656E657220696D70726573696F6E3C
:101B3000005265616E7564617220696D70726573C3
:101B4000696F6E0050617573617220696D707265A6
:101B500073696F6E00436F6E74726F6C00507265C4
:101B6000706172617200416A757374617200496ECE
:101B7000666F726D6163696F6E00496D7072657337
:101B8000696F6E2063616E63656C616461004D32E4
:101B900034004D3132350025753A25303275002537
:101BA0003032753A25303275002D2D2D005344000A
:101BB0005A0059005800012000012000506F722087
:101BC0006661766F722C207265696E696369650063
:101BD000494D505245534F5241205041524144418A
:101BE000002D2D2D2D2D2D007C4D61726C696E7C8C
:101BF000002D2D2D2D2D2D00687474703A2F2F6D12
:101C000061726C696E66772E6F72670068747470AB
:101C10003A2F2F6D61726C696E66772E6F72670056
:101C200020312E312E3100546865726D616C205266
:101C3000756E61776179004572726F7220646520FC
:101C400074656D7065726174757261005061726166
:101C5000646120646520656D657267656E636961A6
:101C600000202D20496E76616C696420657874725D
:101C700075646572206E756D62657220210A004878
:101C8000656174696E67206661696C6564004572A0
:101C9000726F723A20616C2063616C656E74617260
:101CA0000048656174696E67206661696C656400EF
:101CB0004572726F723A20616C2063616C656E745C
:101CC0006172004D494E54454D50207472696767EA
:101CD00065726564004572726F723A2054656D706A
:101CE000204D696E20506C6174004572726F723ABB
:101CF0002054656D70204D696E696D61004D4158CD
:101D000054454D502074726967676572656400457B
:101D100072726F723A2054656D70204D6178205058
:101D20006C6174004572726F723A2054656D702058
:101D30004D6178696D61006265640A002C207379D9
:101D40007374656D2073746F7070656421204865CD
:101D5000617465725F49443A200023646566696E68
:101D600065202044454641554C545F4B6420002378
:101D7000646566696E65202044454641554C545F54
:101D80004B69200023646566696E652020444546E2
:101D900041554C545F4B70200050494420417574AC
:101DA0006F74756E652066696E697368656421205D
:101DB00050757420746865206C617374204B702CAE
:101DC000204B6920616E64204B6420636F6E7374D6
:101DD000616E74732066726F6D2062656C6F772020
:101DE000696E746F20436F6E66696775726174699E
:101DF0006F6E2E680A00504944204175746F7475E7
:101E00006E65206661696C6564212074696D656F1B
:101E100075740A00504944204175746F74756E657D
:101E2000206661696C6564212054656D706572611E
:101E30007475726520746F6F20686967680A002086
:101E40004B643A2000204B693A2000204B703A2026
:101E5000000A20436C617373696320504944200A6F
:101E6000002054753A2000204B753A2000206D6107
:101E7000783A2000206D696E3A200020643A2000F4
:101E800020626961733A20001000C90210012C0120
:101E90004001220170011801B0010E01F00104019E
:101EA0005002FA00B002F0003003E600D003DC007C
:101EB0009004D2007005C800A006BE000008B4005F
:101EC000B009AA00D00BA000600E960060118C0033
:101ED0000015820020197800C01D6E00A022640049
:101EE000B0275A00902C500000314600E0343C00EE
:101EF00010383200903A2800603C1E00A03D1400CB
:101F0000803E0A00203F000070012C019001270153
:101F1000B0012201C0011D01F001180110021301DE
:101F200030020E016002090190020401C002FF00AC
:101F30000003FA004003F5008003F000D003EB003B
:101F40002004E6007004E100E004DC004005D70056
:101F5000C005D2004006CD00D006C8008007C300EF
:101F60003008BE00F008B900C009B400B00AAF00E4
:101F7000B00BAA00D00CA500000EA000500F9B00D3
:101F8000C01096005012910000148C00C0158700FC
:101F9000B0178200B0197D00D01B7800001E7300BE
:101FA00040206E0090226900F024640040275F000A
:101FB00090295A00E02B5500102E500020304B0085
:101FC00010324600E033410090353C0010373700B6
:101FD00070383200A0392D00B03A2800A03B230011
:101FE000603C1E00103D1900903D1400103E0F0093
:101FF000703E0A00C03E0500003F0000403FFBFF6E
:10200000803FF6FFC03FF1FF446F6E65207361763D
:10201000696E672066696C652E0A004D32390020B2
:1020200020506C616E6E65724275666665724279AB
:102030007465733A20002046726565204D656D6FAA
:1020400072793A2000436F6D70696C65643A204D77
:10205000617920323220323031370A00207C204131
:102060007574686F723A20284D6F65627975734D8B
:10207000616368696E65732C2064656661756C7454
:1020800020636F6E666967290A00323031372D3060
:10209000352D31322031323A303000204C617374AA
:1020A00020557064617465643A2000312E312E3100
:1020B0000A004D61726C696E0020536F667477611F
:1020C00072652052657365740A00205761746368F5
:1020D000646F672052657365740A002042726F77DF
:1020E0006E206F75742052657365740A0020457800
:1020F0007465726E616C2052657365740A00506F6E
:1021000077657255700A0073746172740A005072B8
:10211000696E7465722068616C7465642E206B69E9
:102120006C6C28292063616C6C6564210A00506125
:102130007261646120646520656D657267656E63B8
:102140006961004B494C4C20636175736564206282
:1021500079204B494C4C20627574746F6E2F7069F6
:102160006E0A0050617261646120646520656D656E
:102170007267656E636961004B494C4C2063617501
:1021800073656420627920746F6F206D75636820B9
:10219000696E6163746976652074696D65202D20B0
:1021A00063757272656E7420636F6D6D616E643AF3
:1021B000200020746F6F206C6F6E672065787472DA
:1021C0007573696F6E2070726576656E7465640AEA
:1021D0000020636F6C6420657874727573696F6E2C
:1021E0002070726576656E7465640A006F6B0052CC
:1021F0006573656E643A20004E6F206361736520DD
:102200006C696768740A004D36303020486F746519
:102210006E6420746F6F20636F6C6420746F206332
:1022200068616E67652066696C616D656E740A0031
:10223000446573666173652061706C696361646F86
:10224000004572723A20546F6F206661722100540B
:102250006F6F206661722066726F6D2072656665B1
:1022600072656E636520706F696E740A0043290A97
:102270000061626C656420286D696E2074656D7004
:102280002000436F6C6420657874727564657320F8
:10229000617265200020643A0020693A0020703A9B
:1022A00000205A00205900580020204D61783A2023
:1022B00000205A00205900580020204D696E3A2015
:1022C0000041706167617200456E63656E6465729E
:1022D00000536F667420656E6473746F70733A2078
:1022E0000053657474696E672054726176656C2062
:1022F000416363656C65726174696F6E3A20005367
:10230000657474696E6720526574726163742041EC
:102310006363656C65726174696F6E3A2000536522
:102320007474696E67205072696E742041636365CE
:102330006C65726174696F6E3A20005365747469DC
:102340006E67205072696E7420616E6420547261F1
:1023500076656C20416363656C65726174696F6E4C
:102360003A20004D31343520533C696E6465783E27
:10237000206F7574206F662072616E67652028304B
:102380002D31290A004649524D574152455F4E4171
:102390004D453A4D61726C696E20312E312E3120DF
:1023A000284769746875622920534F555243455F29
:1023B000434F44455F55524C3A68747470733A2FDA
:1023C0002F6769746875622E636F6D2F4D61726C33
:1023D000696E4669726D776172652F4D61726C69C5
:1023E0006E2050524F544F434F4C5F564552534905
:1023F0004F4E3A312E30204D414348494E455F54AF
:102400005950453A537465656C4D4D2D333033301A
:1024100033302045585452554445525F434F554E32
:10242000543A3120555549443A6365646532613206
:10243000662D343161322D343734382D39623132E2
:102440002D6335356336326633363766660A005398
:102450007465656C4D4D2D33303330333020417011
:10246000616761722E00506C617461666F726D619C
:102470002043616C69656E7465003F0A0020573A1D
:102480000043616C656E74616E646F20506C6174A2
:102490002E2E2E0043616C656E74616D69656E74DD
:1024A0006F206C6973746F003F0A0020573A004533
:1024B000256920257300537465656C4D4D2D3330AF
:1024C00033303330206C697374612E006F6B004DB4
:1024D00031313320530050617261646120646520A2
:1024E000656D657267656E636961004543484F00BD
:1024F000494E464F004552524F5253004452595292
:10250000554E00434F4D4D554E49434154494F4E52
:10251000006F666600EB24F024F524FC24032544B8
:10252000454255473A004525692025730053746597
:10253000656C4D4D2D333033303330206C697374FE
:10254000612E0050726F7465637465642050696E0B
:102550000A005072696E742074696D653A20004DEE
:1025600031323500456E642066696C65206C697394
:10257000740A00426567696E2066696C65206C6943
:1025800073740A0053696E206D6F76696D69656EAC
:10259000746F00537465656C4D4D2D33303330339B
:1025A00030206C697374612E00526573756D6965B6
:1025B0006E646F20696D7072652E00457370657270
:1025C000616E646F206F7264656E65730052657032
:1025D0006F736F2E2E2E0047322F473320626164B7
:1025E00020706172616D65746572730A0041637475
:1025F0006976652045787472756465723A200020AA
:1026000042403A0020403A00202F0020423A002069
:102610002F0020543A0020453A00205A3A00205911
:102620003A00583A005761726E696E673A20486FF7
:102630006D696E672042756D702044697669736FAD
:1026400072203C20310A00627573793A20706175FE
:1026500073656420666F7220696E7075740A00621B
:102660007573793A2070617573656420666F7220A6
:10267000757365720A00627573793A2070726F63C0
:10268000657373696E670A00556E6B6E6F776E20A7
:10269000636F6D6D616E643A20220020496E766131
:1026A0006C696420657874727564657220005344A7
:1026B0002072656164206572726F720A00446F6EE9
:1026C00065207072696E74696E672066696C650A50
:1026D0000050617261646120646520656D65726798
:1026E000656E63696100446574656E69646100507C
:1026F00072696E7465722073746F707065642064A3
:10270000756520746F206572726F72732E20466932
:102710007820746865206572726F7220616E642023
:10272000757365204D39393920746F207265737463
:102730006172742E202854656D70657261747572B3
:10274000652069732072657365742E20536574204B
:102750006974206166746572207265737461727445
:10276000696E67290A004E6F204C696E65204E75B0
:102770006D626572207769746820636865636B7346
:10278000756D2C204C617374204C696E653A200085
:102790004E6F20436865636B73756D20776974684D
:1027A000206C696E65206E756D6265722C204C61BF
:1027B0007374204C696E653A2000636865636B73BF
:1027C000756D206D69736D617463682C204C617345
:1027D00074204C696E653A20004C696E65204E7518
:1027E0006D626572206973206E6F74204C61737422
:1027F000204C696E65204E756D6265722B312C2000
:102800004C617374204C696E653A20004D31313053
:1028100000656E7175657565696E67202200FFFF42
:10282000FF0000404000004040000000400000B8B1
:10283000430000A4430000A043000040C200000089
:10284000C1000000000000A0430000A0430000A061
:1028500043000040C2000000C1000000004D3331C1
:102860000043616E6E6F7420656E746572207375BF
:10287000626469723A20006175746F25692E670081
:102880006572726F722077726974696E6720746FF7
:102890002066696C650A004E6F7420534420707284
:1028A000696E74696E670A005344207072696E74B1
:1028B000696E672062797465200044656C6574698F
:1028C0006F6E206661696C65642C2046696C653AA0
:1028D000200046696C652064656C657465643A0027
:1028E0006F70656E206661696C65642C2046696C4A
:1028F000653A200057726974696E6720746F2066AC
:10290000696C653A20006F70656E206661696C6560
:10291000642C2046696C653A20006F70656E2066F5
:1029200061696C65642C2046696C653A20004669D3
:102930006C652073656C65637465640A0020536977
:102940007A653A200046696C65206F70656E656433
:102950003A20006F70656E206661696C65642C209A
:1029600046696C653A20002066696C653A20004E25
:102970006F7720002220706F7300222070617265D3
:102980006E743A2200535542524F5554494E4520D9
:1029900043414C4C207461726765743A2200506167
:1029A0007261646120646520656D657267656E6340
:1029B000696100747279696E6720746F2063616C5D
:1029C0006C207375622D67636F64652066696C6542
:1029D00073207769746820746F6F206D616E792041
:1029E0006C6576656C732E204D4158206C6576655C
:1029F0006C2069733A004D3234004D323320257318
:102A00000053442063617264206F6B0A006F70652D
:102A10006E526F6F74206661696C65640A00766F30
:102A20006C756D652E696E6974206661696C65648C
:102A30000A00534420696E6974206661696C0A005B
:102A400043616E6E6F74206F70656E207375626483
:102A5000697220000200000A0B02090C0D0E080723
:102A6000030401000000000000000000000000005E
:102A70000000000000000000000000000000000056
:102A80000012111000000000000000000000000013
:102A900000000000000000000000000102102020E3
:102AA00008081020401020408002010201080402A2
:102AB0000101020408102040808040201008040218
:102AC0000180040201804020100804020108040271
:102AD0000101020408102040800102040810204077
:102AE0008005050505070508080808020202020A14
:102AF0000A080804040404010101010101010103A1
:102B000003030303030303040707070C0C0C0C0C5B
:102B10000C0C0C0202020206060606060606060B4E
:102B20000B0B0B0B0B0B0B000020002300260029C6
:102B3000002C002F003200000100000301060109F3
:102B40000100002200250028002B002E0031003457
:102B50000002010000050108010B01000021002412
:102B60000027002A002D003000330001010000047E
:102B70000107010A014E414E494E495459494E46FA
:102B8000CDCCCC3D0AD7233C17B7D13877CC2B32EC
:102B90009595E6241FB14F0A000020410000C8426D
:102BA00000401C4620BCBE4CCA1B0E5AAEC59D74CC
:102BB000064C5B5C71C78BC711241FBECFEFD1E2FF
:102BC000DEBFCDBF00E00CBF14E0A0E0B2E0E0EF5C
:102BD000FCEE01E00BBF02C007900D92A237B107D7
:102BE000D9F723E1A2E7B4E001C01D92AC3CB207E3
:102BF000E1F715E1CBEDD5E100E006C02197010931
:102C0000802FFE010E944BEEC83DD10780E00807EF
:102C1000A9F70E948CE00C9466F60C940000909149
:102C2000F5058091F405981731F08091F4058F5FD8
:102C30008F708093F4050895EFE6F0E08081826064
:102C4000808308958091B20480FF05C089988FEF3A
:102C50008093010204C0899A81E0809301028091EF
:102C6000B20481FF05C08F9A8FEF8093020204C0E7
:102C70008F9881E0809302028091B2049FB782FF17
:102C80000BC0F89480910B018D7F80930B019FBF47
:102C90008FEF809303020AC0F89480910B01826049
:102CA00080930B019FBF81E0809303028091B20467
:102CB00083FF05C016988FEF809304020895169A3B
:102CC00081E0809304020895BF92CF92DF92EF9249
:102CD000FF920F931F93CF93DF9300D01F92CDB736
:102CE000DEB780916E008B7F80936E0080916F00C5
:102CF0008D7F80936F0078948091B0049091B1049F
:102D0000009771F001979093B1048093B0041092F2
:102D1000B4041092B3040E940F1688EC90E0C9C16D
:102D2000E091B304F091B404309709F0CDC19091D3
:102D3000F5058091F405981751F1E091F4050DE443
:102D4000E09FF0011124EA50FA4FC0904E05D09058
:102D50004F05E0905005F09051059F01275B3F4FD4
:102D6000D9014D915D916D917C91D701C601841B74
:102D7000950BA60BB70B80934E0590934F05A09330
:102D80005005B09351058081886080830BC08FB758
:102D9000F89410924E0510924F0510925005109223
:102DA00051058FBFF093B404E093B304309709F456
:102DB0007EC152A18091B204418158130AC0242FD0
:102DC00030E080910002082E000C990B281739077B
:102DD00031F05093B204409300020E9422161092E8
:102DE0009404109295041092960410929704E09126
:102DF000B304F091B40487A990AD8134BCE99B077A
:102E000028F48132EEE49E0758F002C080E49CE989
:102E1000969587959695879524E02093810412C016
:102E20008131F7E29F0730F09695879522E0209355
:102E3000810408C021E0209381048032910510F4C0
:102E400080E290E07C0100E2E01AF108E11418E071
:102E5000F106F0F0EF2DFF27EE0FFF1FEE0FFF1F23
:102E6000CF018456984FFC013296459154916E2DB6
:102E7000AA27659F9001649F210D3A1F06942A1F7F
:102E80003A1F1124FC0185919491821B930B1EC063
:102E90009701369527952C7F24563C4FF901859153
:102EA0009491F901329665917491A7014770552765
:102EB000649F9001659F300D749F300D112453E085
:102EC000369527955A95E1F7821B930B8436910529
:102ED00088F405E413E0D8018D918D01882319F061
:102EE0000E94C721F8CF6AE070E0C7010E947A22F1
:102EF00084E690E090937F0480937E048091810427
:102F000080938004E091B304F091B40483AD94AD58
:102F100090938304809382048134BCE99B0728F456
:102F20008132EEE49E0758F002C080E49CE9969559
:102F300087959695879524E02093810412C081316E
:102F4000F7E29F0730F09695879522E02093810461
:102F500008C021E0209381048032910510F480E2C2
:102F600090E07C0100E2E01AF108E11418E0F106BB
:102F7000F0F0EF2DFF27EE0FFF1FEE0FFF1FCF0129
:102F80008456984FFC013296459154916E2DAA2794
:102F9000659F9001649F210D3A1F06942A1F3A1FD6
:102FA0001124FC0185919491821B930B1EC0970103
:102FB000369527952C7F24563C4FF90185919491A5
:102FC000F901329665917491A70147705527649F66
:102FD0009001659F300D749F300D1124B3E036953C
:102FE0002795BA95E1F7821B930B8436910588F4F7
:102FF00005E413E0D8018D918D01882319F00E941A
:10300000C721F8CF6AE070E0C7010E947A2284E607
:1030100090E0AC0160E070E0409398045093990414
:1030200060939A0470939B04909389008093880026
:10303000E091B304F091B40482899389A489B5899D
:10304000B695A79597958795B095A09590958195FC
:103050009F4FAF4FBF4F8093A0049093A104A093C4
:10306000A204B093A3048093A4049093A504A09316
:10307000A604B093A7048093A8049093A904A093F6
:10308000AA04B093AB048093AC049093AD04A093D6
:10309000AE04B093AF0410929C0410929D04109261
:1030A0009E0410929F0482E080937F110DC080EDFA
:1030B00097E09093890080938800F8948091B50BF5
:1030C000882309F4E0C3D9C380917F11882321F0BC
:1030D000809105028111EFC320918104222309F41C
:1030E000AFC1E091B304F091B4044091AC045091AD
:1030F000AD046091AE047091AF0482819381A4818C
:10310000B581840F951FA61FB71F8093AC049093C1
:10311000AD04A093AE04B093AF04181619061A06B6
:103120001B060CF4889AE091B304F091B40440912A
:10313000A8045091A9046091AA047091AB048681FF
:103140009781A085B185840F951FA61FB71F809317
:10315000A8049093A904A093AA04B093AB041816F2
:1031600019061A061B060CF48E9AE091B304F0912E
:10317000B4044091A4045091A5046091A6047091F8
:10318000A70482859385A485B585840F951FA61F06
:10319000B71F8093A4049093A504A093A604B093B2
:1031A000A704181619061A061B0644F49FB7F894CC
:1031B00080910B01886080930B019FBFE091B30465
:1031C000F091B4044091A0045091A1046091A20434
:1031D0007091A30486859785A089B189840F951F76
:1031E000A61FB71F8093A0049093A104A093A204EC
:1031F000B093A304181619061A061B060CF4149AA9
:103200008091AC049091AD04A091AE04B091AF0454
:10321000181619061A061B0684F5E091B304F091FE
:10322000B4044289538964897589841B950BA60B64
:10323000B70B8093AC049093AD04A093AE04B0930D
:10324000AF04809101024091840450918504609103
:10325000860470918704082E000C990BAA0BBB0BF7
:10326000840F951FA61FB71F809384049093850435
:10327000A0938604B093870488988091A8049091C5
:10328000A904A091AA04B091AB04181619061A0655
:103290001B0684F5E091B304F091B404428953898C
:1032A00064897589841B950BA60BB70B8093A804C2
:1032B0009093A904A093AA04B093AB048091020256
:1032C000409188045091890460918A0470918B0424
:1032D000082E000C990BAA0BBB0B840F951FA61F81
:1032E000B71F8093880490938904A0938A04B093B5
:1032F0008B048E988091A4049091A504A091A604BB
:10330000B091A704181619061A061B06BCF5E09121
:10331000B304F091B4044289538964897589841B8C
:10332000950BA60BB70B8093A4049093A504A093D0
:10333000A604B093A7048091030240918C0450919D
:103340008D0460918E0470918F04082E000C990BEF
:10335000AA0BBB0B840F951FA61FB71F80938C046D
:1033600090938D04A0938E04B0938F049FB7F8942C
:1033700080910B01877F80930B019FBF8091A004F8
:103380009091A104A091A204B091A304181619066B
:103390001A061B0684F5E091B304F091B404428947
:1033A000538964897589841B950BA60BB70B809391
:1033B000A0049093A104A093A204B093A3048091CD
:1033C0000402409190045091910460919204709194
:1033D0009304082E000C990BAA0BBB0B840F951FAE
:1033E000A61FB71F8093900490939104A09392041A
:1033F000B0939304149880919C0490919D04A091A3
:103400009E04B0919F040196A11DB11D80939C0460
:1034100090939D04A0939E04B0939F042150E0914B
:10342000B304F091B404428953896489758984177F
:103430009507A607B70708F451CEBB24B39401C083
:10344000B12C40919C0450919D0460919E04709118
:103450009F04E090B304F090B404F7018689978943
:10346000A08DB18D84179507A607B70708F4E2C0B1
:10347000409198045091990460919A0470919B0432
:10348000068D178D20A131A1AA27419FB12D529FF2
:10349000C001629F900D619F800D911D429FB00DF4
:1034A000811D9A1F519FB00D811D9A1F609FB00D05
:1034B000811D9A1F509FB10D8A1F9A1FB6958A1FB2
:1034C0009A1F349F800D911D359F900D112423ADBF
:1034D00034AD820F931F909383048093820447A995
:1034E00050AD61AD72ADA0E0B0E0481759076A0772
:1034F0007B0720F4509383044093820480918204DC
:10350000909183048134BCE99B0728F48132EEE476
:103510009E0758F002C080E49CE9969587959695A1
:10352000879524E02093810412C08131F7E29F0740
:1035300030F09695879522E02093810408C021E021
:10354000209381048032910510F480E290E08C0198
:1035500000521109011528E01207E8F0E12FFF27BA
:10356000EE0FFF1FEE0FFF1FCF018456984FFC0197
:10357000329645915491AA27059F9001049F210DF1
:103580003A1F06942A1F3A1F1124FC018591949139
:10359000821B930B1EC09801369527952C7F2456CD
:1035A0003C4FF90185919491F9013296659174919E
:1035B000A80147705527649F9001659F300D749F47
:1035C000300D112443E0369527954A95E1F7821B8B
:1035D000930B8436910598F485E4E82E83E0F82E69
:1035E000D7018D917D01882319F00E94C721F8CF62
:1035F0006AE070E0C8010E947A2284E690E090932D
:1036000089008093880040919804509199046091BA
:103610009A0470919B048A019B01080F191F211DB8
:10362000311D009398041093990420939A043093C9
:103630009B0401C140919C0450919D0460919E04A3
:1036400070919F04F701828D938DA48DB58D8417A1
:103650009507A607B70708F0E2C04091940450917F
:1036600095046091960470919704068D178D20A1A2
:1036700031A1AA27419FB12D529F6001629FD00CBA
:10368000619FC00CD11C429FB00DC11CDA1E519F1E
:10369000B00DC11CDA1E609FB00DC11CDA1E509F18
:1036A000B10DCA1EDA1EB695CA1EDA1E349FC00CB2
:1036B000D11C359FD00C11248091820490918304F9
:1036C000FF96C816D90680F48C199D094081518156
:1036D000628173816C01E12CF12CC416D506E606DB
:1036E000F70620F4CA0102C0808191818134BCE9CF
:1036F0009B0728F48132EEE49E0758F002C080E474
:103700009CE9969587959695879524E0209381046A
:1037100012C08131F7E29F0730F09695879522E03D
:103720002093810408C021E0209381048032910518
:1037300010F480E290E08C0100521109011528E09C
:103740001207E8F0E12FFF27EE0FFF1FEE0FFF1F1C
:10375000CF018456984FFC01329645915491AA2787
:10376000059F9001049F210D3A1F06942A1F3A1FBE
:103770001124FC0185919491821B930B1FC0C801F9
:10378000969587958C7F84569C4FFC01459154916A
:10379000FC01329665917491C80187709927689FE2
:1037A0009001699F300D789F300D112463E03695AC
:1037B00027956A95E1F7CA01821B930B8436910520
:1037C00098F485E4E82E83E0F82ED7018D917D01F1
:1037D000882319F00E94C721F8CF6AE070E0C80181
:1037E0000E947A2284E690E090938900809388007A
:1037F00040919404509195046091960470919704BF
:103800008A019B01080F191F211D311D009394048B
:103810001093950420939604309397040CC08091E4
:103820007E0490917F04909389008093880080911A
:1038300080048093810420918800309189008091D8
:1038400084009091850040962817390748F48091AC
:103850008400909185004096909389008093880021
:10386000BB2031F01092B4041092B3040E940F16E2
:10387000F8948091B50B882331F080916E008B7F96
:1038800080936E0005C080916E00846080936E000E
:1038900080916F00826080936F000F900F900F9067
:1038A0000F90DF91CF911F910F91FF90EF90DF90DC
:1038B000CF90BF9008950E94982080917F118150F1
:1038C00080937F1109CC1F920F920FB60F92112493
:1038D0000BB60F922F933F934F935F936F937F930A
:1038E0008F939F93AF93BF93EF93FF930E946416C0
:1038F000FF91EF91BF91AF919F918F917F916F91C8
:103900005F914F913F912F910F900BBE0F900FBE83
:103910000F901F9018950F931F93CF93DF93819A69
:10392000879A0AE011E0D8018C9182608C930E9AFC
:103930003B9A579A5F9A829A8A9AE7E0F1E08081EF
:10394000816080839FB7F894C8E0D1E0888181606E
:1039500088839FBF0A9A129A3F9A479A89EB94E00C
:103960000E94751F809A88985F9AEBECFEE01082A7
:10397000869A8E988A9A1182D8018C9188608C934D
:103980009FB7F894ABE0B1E08C91877F8C939FBF99
:103990009FB7F8948881816088839FBF12820C9AB8
:1039A0001498129A399A4198A0E8B0E08C918C7FD3
:1039B0008C93E1E8F0E08081877E886080838C9141
:1039C0008F738C938081887F8260808380E090E415
:1039D0009093890080938800109285001092840053
:1039E000EFE6F0E080818260808381E080930502D1
:1039F0007894DF91CF911F910F910C9422169091A2
:103A0000F5058091F405981721F080E00E94AEB48E
:103A1000F6CF0895CF92DF92EF92FF920F931F930C
:103A2000CF93DF936C017B018A01E9010E94FF1CA7
:103A30009FB7F894D6014D915D916D917C91E4E82A
:103A4000F4E04083518362837383D7014D915D918C
:103A50006D917C914483558366837783D8014D9122
:103A60005D916D917C914087518762877387488112
:103A700059816A817B8144875587668777879FBF95
:103A8000DF91CF911F910F91FF90EF90DF90CF903A
:103A90000895FC019FB7F8940190F081E02DDB01BF
:103AA0004D915D916D917C91EE0FFF1FEE0FFF1F09
:103AB000EC57FB4F40835183628373839FBF08950C
:103AC0002FB7F894FC01EE0FFF1FEE0FFF1FEC570E
:103AD000FB4F60817181828193812FBF0895CF93C5
:103AE000DF93EC010E94601D0E944AEBCC0FDD1FAA
:103AF000CC0FDD1FCC53DA4F288139814A815B819D
:103B00000E94F8ECDF91CF9108950E94FF1C0C9465
:103B10006EB188E893E19093B1048093B0048091F2
:103B20006F008D7F80936F009091F5058091F40573
:103B3000981719F00E940F16F7CF1092B404109244
:103B4000B30480916F00826080936F008FB7F89408
:103B500010924E0510924F0510925005109251058B
:103B60008FBF0895880F991F880F991FFC01EC578C
:103B7000FB4F4081518162817381FC01EE58FB4F04
:103B80004083518362837383E091B304F091B40462
:103B900082899389A489B58980939C0490939D041C
:103BA000A0939E04B0939F0408954F925F926F92EA
:103BB0007F928F929F92AF92BF92CF92DF92EF92BD
:103BC000FF92CF93DF938FB7F89440908404509086
:103BD000850460908604709087048090880490909B
:103BE0008904A0908A04B0908B04C0908C04D0907B
:103BF0008D04E0908E04F0908F048FBFE2E9F3E033
:103C00008491EF012196882321F00E94C721FE01B3
:103C1000F7CF4AE050E0C301B2010E945822EEE81B
:103C2000F3E08491EF012196882321F00E94C721BF
:103C3000FE01F7CF4AE050E0C501B4010E945822CE
:103C4000EAE8F3E08491EF012196882321F00E94B5
:103C5000C721FE01F7CF4AE050E0C701B6010E943C
:103C600058228AE0DF91CF91FF90EF90DF90CF90C4
:103C7000BF90AF909F908F907F906F905F904F908C
:103C80000C94C721CF93F89481309105D1F0823004
:103C9000910551F1892B09F06AC0CFB1C2705F98CC
:103CA000662311F0899A01C08998889A84E090E08F
:103CB0000E94B1E58898CC2311F0899A58C0899860
:103CC00056C0CFB18A98611102C08F9A01C08F98F7
:103CD0008E9A84E090E00E94B1E58E98C7FF02C002
:103CE0008F9A45C08F9843C0C0910901C2709FB799
:103CF000F894809108018E7F809308019FBF9FB741
:103D0000662341F0F89480910B01826080930B014F
:103D10009FBF07C0F89480910B018D7F80930B01AA
:103D20009FBF9FB7F89480910B01886080930B012F
:103D30009FBF84E090E00E94B1E59FB7F894809126
:103D40000B01877F80930B019FBF9FB7CC2341F06E
:103D5000F89480910B01826080930B019FBF07C094
:103D6000F89480910B018D7F80930B019FBF789415
:103D7000CF91089598E288E10FB6F894A8958093C2
:103D800060000FBE909360000895FC0111821082C4
:103D9000168217821086118612861386148615865F
:103DA00012821382148215820895CF93DF93FC014F
:103DB00020813181215031092230310510F080E01D
:103DC0000AC0EC01118210820E9444E56A877B8759
:103DD0008C879D8781E0DF91CF910895CF93DF930A
:103DE000FC01208131812130310569F4EC0182E050
:103DF00090E0918380830E9444E56A877B878C876B
:103E00009D8781E001C080E0DF91CF910895FC01A2
:103E100081E0208131812130310509F080E0089571
:103E2000FC0181E0208131812230310509F080E000
:103E300008950F931F93CF93DF93EC0188819981AD
:103E4000019719F40E9444E504C06A857B858C853E
:103E50009D850E811F8128853985601B710B820B22
:103E6000930B28EE33E040E050E00E940AEE8A8196
:103E70009B81AC81BD81BC01CD01620F731F841F8A
:103E8000951FDF91CF911F910F910895CF93DF93ED
:103E9000FC01208131812130310519F1EC01223002
:103EA000310539F40E94191F6A837B838C839D83BB
:103EB0000CC016821782108611861286138614860D
:103EC0001586128213821482158281E090E0998314
:103ED00088830E9444E56E837F838887998781E089
:103EE00001C080E0DF91CF9108956D98759AE4E06C
:103EF000F1E080818D7F80839FB7F894E5E0F1E069
:103F00008081826080839FBF53985B9A08951F933E
:103F1000CF93DF938091B704882309F4A3C0E4E032
:103F2000FFE08491EF012196882321F00E94C721B0
:103F3000FE01F7CFEFEEFBE08491EF01219688239D
:103F400021F00E94C721FE01F7CF8091B70480FDC8
:103F500035C08091B70484FD31C0D0E28091B704B0
:103F600081FD48C08091B70485FD44C010E2809176
:103F7000B70482FD5BC08091B70486FD57C0C0E2E4
:103F80008AE00E94C7211F9280E28F931F92CF93F5
:103F90001F921F931F92DF938EEC9BE09F938F9352
:103FA0001F920E94D6591092B7048DB79EB70B96F8
:103FB0000FB6F8949EBF0FBE8DBF54C060917204BF
:103FC0007091730480917404909175040E944AEB7F
:103FD0002091C4053091C5054091C6055091C70593
:103FE0000E94F8ECAB01BC018BEE9BE00E94822F9B
:103FF000D8E5B4CF6091760470917704809178040D
:10400000909179040E944AEB2091C8053091C9052E
:104010004091CA055091CB050E94F8ECAB01BC0160
:1040200087EE9BE00E94822F19E5A1CF60917A0470
:1040300070917B0480917C0490917D040E944AEBF6
:104040002091CC053091CD054091CE055091CF0502
:104050000E94F8ECAB01BC0183EE9BE00E94822F32
:10406000CAE58ECFDF91CF911F910895CF93DF9353
:10407000E4EBFBE08491EF012196882321F00E947C
:10408000C721FE01F7CFECEAFBE08491EF01219616
:10409000882321F00E94C721FE01F7CF659903C054
:1040A000C3E6D3E002C0C9E5D3E08991882319F0C3
:1040B0000E94C721FACF8AE00E94C721E4EAFBE010
:1040C0008491EF012196882321F00E94C721FE01EF
:1040D000F7CF8091030181FD03C0C3E6D3E002C0A6
:1040E000C9E5D3E08991882319F00E94C721FACF4E
:1040F0008AE00E94C721ECE9FBE08491EF01219660
:10410000882321F00E94C721FE01F7CF4B9903C0FD
:10411000C3E6D3E002C0C9E5D3E08991882319F052
:104120000E94C721FACF8AE0DF91CF910C94C7217A
:104130000F931F93CF93DF93E091B304F091B404F6
:10414000428153816481758114161506160617067F
:10415000E4F42091B20420FF18C03CB12091B604D1
:1041600035FB882780F92E7F822B8093B6049091AF
:10417000B5049170892349F08091B70481608093E0
:10418000B70480E090E00E94B21DE091B304F0918A
:10419000B40486819781A085B185181619061A0680
:1041A0001B0644F58091B20481FF24C08091030175
:1041B0002091B604422F50E081FB002700F910E067
:1041C00022273327201B310B242735272270332742
:1041D000242735272093B6048091B50482702823C4
:1041E00049F08091B70482608093B70481E090E049
:1041F0000E94B21DE091B304F091B40482859385CE
:10420000A485B585181619061A061B064CF580916B
:10421000B20482FF25C099B18091B604282F30E006
:1042200093FB992790F9C92F80E0D82F88279927E9
:104230008C1B9D0B822793278470992782279327B5
:104240008093B6049091B5049470892349F08091CD
:10425000B70484608093B70482E090E00E94B21DAE
:104260008091B6048093B504DF91CF911F910F9197
:1042700008951F920F920FB60F9211240BB60F9252
:104280002F933F938F939F93EF93FF932091C600BB
:104290009FB7F894E0913A0581E08E0F8F773091C7
:1042A0003B05831731F0F0E0E654FB4F2083809309
:1042B0003A059FBFFF91EF919F918F913F912F9171
:1042C0000F900BBE0F900FBE0F901F9018959B0183
:1042D000AC01211581EE38074105510549F182E015
:1042E0008093C00060E079E08DE390E00E942CEEC6
:1042F000CA01B901615071098109910922E030E0D8
:1043000040E050E00E942CEE3093C5002093C400A2
:104310008091C10080618093C1008091C10088605C
:104320008093C1008091C10080688093C10008958E
:104330001092C00020E130E0E7CF8FB7F894909161
:104340003B0520913A05291759F0E92FF0E0E65492
:10435000FB4F208130E09F5F9F7790933B0502C029
:104360002FEF3FEF8FBFC90108952FB7F8948091C9
:104370003A0590913B052FBF891B8F7708958FB722
:10438000F89490913B0590933A058FBF08959091D2
:10439000C00095FFFCCF8093C60008958DE00E9479
:1043A000C7218AE00C94C7218F929F92AF92BF924F
:1043B000EF92FF921F93CF93DF93CDB7DEB7A09715
:1043C0000FB6F894DEBF0FBECDBF61157105810534
:1043D000910581F110E0842E912CA12CB12CEE24BA
:1043E000E394F12CEC0EFD1EE10EF11C17FDFA9486
:1043F000A50194010E940AEEF7016083B901CA0188
:104400001F5F611571058105910549F7115020F174
:10441000E1E0F0E0EC0FFD1FE10FF11D17FDFA9553
:1044200080818A3010F097E301C090E3890F0E94E9
:10443000C721ECCF80E3A0960FB6F894DEBF0FBE85
:10444000CDBFDF91CF911F91FF90EF90BF90AF90C4
:104450009F908F900C94C721A0960FB6F894DEBF62
:104460000FBECDBFDF91CF911F91FF90EF90BF9016
:10447000AF909F908F900895CF92DF92EF92FF922E
:104480006B017C0197FF0BC08DE20E94C721F09465
:10449000E094D094C094C11CD11CE11CF11C4AE0F2
:1044A000C701B601FF90EF90DF90CF900C94D4211C
:1044B0004115510519F4862F0C94C7214A30510536
:1044C00011F40C943C220C94D421AB01BC01990F43
:1044D000880B990B0C9458224115510519F4862F1D
:1044E0000C94C7210C94D421AB01BC0180E090E076
:1044F0000C946C22AB01BC0180E090E00E946C2225
:104500000C94CE218F929F92AF92BF92CF92DF9266
:10451000EF92FF92CF936B017C01B42E20E030E04C
:10452000A9010E9496EA87FF07C08DE20E94C72179
:10453000F7FAF094F7F8F094C0E060E070E080E003
:104540009FE3CB1541F02DEC3CEC4CEC5DE30E947D
:10455000F8ECCF5FF6CF9B01AC01C701B6010E941A
:10456000A1E96B017C010E9419EB4B015C014AE05F
:104570000E94D421CC2389F1C501B4010E9448EBEB
:104580009B01AC01C701B6010E94A0E96B017C014F
:104590008EE20E94C72120E030E040E251E4C701F2
:1045A000B6010E94F8EC4B015C010E9412EB6B011A
:1045B000770FEE08FF08C701B6010E943C22C70131
:1045C000B6010E944AEB9B01AC01C501B4010E94F7
:1045D000A0E96B017C01C150F1F6CF91FF90EF9003
:1045E000DF90CF90BF90AF909F908F9008950C94E4
:1045F00082220E94344B0E949E4B0E947D8E0E941C
:10460000D5AF80E090E00E94639E81E090E00E9440
:10461000639E82E090E00C94639EAF92BF92DF9223
:10462000EF92FF920F931F93CF93DF9320913D055D
:10463000211146C08A017C01EB01060F171FC0172C
:10464000D10709F43DC0F701A080B180D990C50120
:104650000E942EF6D81619F16D2DC5010E9458F64C
:10466000C5010E942EF68D15D1F0E4E0FFE08491A3
:10467000EF012196882321F00E94C721FE01F7CF88
:10468000EAEEFEE08491EF012196882321F00E945A
:10469000C721FE01F7CF81E080933D0511C08091D5
:1046A0003E0590913F058D0D911D90933F058093A0
:1046B0003E05F70180819181019691838083BFCF70
:1046C000DF91CF911F910F91FF90EF90DF90BF90FE
:1046D000AF900895EF92FF920F931F93CF93DF93C4
:1046E0007C01EB018B01040F151FF7018081918183
:1046F0000E942EF690913C05911101C08883209173
:104700003E0530913F05A901480F511D50933F05CB
:1047100040933E05F70180819181019691838083CA
:104720002196C017D10709F7DF91CF911F910F9103
:10473000FF90EF9008958F929F92AF92BF92CF9289
:10474000DF92EF92FF920F931F93CF93DF93CDB73A
:10475000DEB7AA970FB6F894DEBF0FBECDBF1D8A95
:104760001E8A1F8A188E80E390E3A0E3B0E0898B55
:104770009A8BAB8BBC8B84E690E09AA389A31092B2
:104780003D0544E050E0BE016F5E7F4FCE01819653
:104790000E940D2389A19AA102969AA389A310923F
:1047A0003F0510923E0581E08AA741E050E0BE013E
:1047B000665D7F4FCE0181960E940D2340E150E05F
:1047C00064ED75E0CE0181960E940D2340E150E03A
:1047D00064EE75E0CE0181960E940D2340E150E029
:1047E00064EA75E0CE0181960E940D2344E050E01A
:1047F00068E975E0CE0181960E940D2344E050E007
:1048000064E975E0CE0181960E940D2344E050E0FA
:1048100060E975E0CE0181960E940D2344E050E0EE
:104820006CE975E0CE0181960E940D2344E050E0D2
:104830006CE775E0CE0181960E940D2344E050E0C4
:1048400060EA75E0CE0181960E940D2340E150E0C0
:1048500060E875E0CE0181960E940D234CE050E0A7
:1048600065E17DE0CE0181960E940D2380E090E01D
:10487000A0E2B1E48D879E87AF87B88B44E050E01B
:10488000BE01635F7F4FCE0181960E940D2319A662
:104890001D8A1E8A1F8A188E83E088A78FA341E095
:1048A00050E0BE01675D7F4FCE0181960E940D23CF
:1048B00044E050E0BE016B5E7F4FCE0181960E94C6
:1048C0000D2341E050E0BE01685D7F4FCE0181962F
:1048D0000E940D2341E050E0BE01695D7F4FCE0193
:1048E00081960E940D231AE0115051F044E050E0EF
:1048F000BE016B5E7F4FCE0181960E940D23F4CFE7
:1049000019861A861B861C8644E050E0BE01675F4C
:104910007F4FCE0181960E940D231D8A1E8A1F8A19
:10492000188E1AE0115051F044E050E0BE016B5E69
:104930007F4FCE0181960E940D23F4CF83E08EA39A
:104940008DA31D821E821F82188619821A821B82E5
:104950001C821D8A1E8A1F8A188E41E050E0BE010B
:104960006A5D7F4FCE0181960E940D2341E050E0A9
:10497000BE016B5D7F4FCE0181960E940D2344E006
:1049800050E0BE016F5F7F4FCE0181960E940D23E4
:1049900044E050E0BE016B5F7F4FCE0181960E94E4
:1049A0000D230AE010E00150110951F044E050E0FD
:1049B000BE016B5E7F4FCE0181960E940D23F3CF27
:1049C0001CA21D8A1E8A1F8A188E8FEF8BA341E0BE
:1049D00050E0BE016C5D7F4FCE0181960E940D2399
:1049E00044E050E0BE016B5E7F4FCE0181960E9495
:1049F0000D2341E050E0BE016D5D7F4FCE018196F9
:104A00000E940D231D8A1E8A1F8A188E1DE01150D8
:104A100044E050E041F0BE016B5E7F4FCE018196D5
:104A20000E940D23F4CF64EA7BE0CE0181960E94C0
:104A30000D2344E050E060EA7BE0CE0181960E94C5
:104A40000D2344E050E06CE97BE0CE0181960E94AA
:104A50000D23C12C80E8D82E8BE3E82E85E4F82EB8
:104A6000812C912C90E8A92E9FE3B92E111126C01C
:104A700044E050E06AEA72E0CE0181960E940D2384
:104A800044E050E066EA72E0CE0181960E940D2378
:104A900044E050E062EA72E0CE0181960E940D236C
:104AA0008D8A9E8AAF8AB88E44E050E0BE016B5E6C
:104AB0007F4FCE0181960E940D231EC0CD8ADE8AD3
:104AC000EF8AF88E44E050E0BE016B5E7F4FCE016E
:104AD00081960E940D231D8A1E8A1F8A188E04E06B
:104AE000015051F044E050E0BE016B5E7F4FCE01BB
:104AF00081960E940D23F4CF1F5F153009F0B6CFC9
:104B000084E190E098A38F8F42E050E0BE01615EA7
:104B10007F4FCE0181960E940D2380E090E8ABE3A9
:104B2000B5E48D8B9E8BAF8BB88F14E0115051F094
:104B300044E050E0BE016B5E7F4FCE0181960E9443
:104B40000D23F4CF80E290E09E8F8D8F42E050E005
:104B5000BE01635E7F4FCE0181960E940D2341E02E
:104B600050E06DE27DE0CE0181960E940D2311118F
:104B70000CC08091D1029091D202A091D302B09149
:104B8000D4028D8B9E8BAF8BB88F44E050E0BE017A
:104B90006B5E7F4FCE0181960E940D231F5F153003
:104BA00031F71C8E1B8E1BE042E050E0BE01655EBB
:104BB0007F4FCE0181960E940D231150A9F71D8AC7
:104BC0001E8A1F8A188E44E050E0BE016B5E7F4F44
:104BD000CE0181960E940D2344E050E0BE016B5E41
:104BE0007F4FCE0181960E940D2380913D0581115A
:104BF0003CC080913E0590913F059A8F898FE9A036
:104C0000FAA084E690E09AA389A344E050E068E625
:104C100073E0CE0181960E940D2342E050E0BE0178
:104C2000675E7F4FCE0181960E940D23E4E0FFE096
:104C300084918F010F5F1F4F882321F00E94C721AD
:104C4000F801F6CFB7016456710988ED9EE00E9425
:104C50004C2FEFECFEE084918F010F5F1F4F8823F4
:104C600021F00E94C721F801F6CF90913D0581E027
:104C70008927AA960FB6F894DEBF0FBECDBFDF918D
:104C8000CF911F910F91FF90EF90DF90CF90BF9049
:104C9000AF909F908F900895AF92BF92CF92DF9286
:104CA000EF92FF920F931F93CF93DF93CDB7DEB7B1
:104CB000E0970FB6F894DEBF0FBECDBF80E1EFEEF8
:104CC000F2E0DE01919601900D928A95E1F780E184
:104CD000EFEFF2E0DE01519601900D928A95E1F737
:104CE00080E1EFE0F3E0DE01119601900D928A95EC
:104CF000E1F7DE01919664ED75E0AE014F5E5F4F26
:104D000024EE35E0CE0101965C0184EA95E08E0147
:104D10000F5C1F4FCD90DD90ED90FD90FB01C19297
:104D2000D192E192F192BF01FA01C190D190E1904C
:104D3000F190AF01F901C192D192E192F1929F01FC
:104D4000F501C190D190E190F1905F01FC01C19219
:104D5000D192E192F192CF01A017B107D9F680E08C
:104D600090E0AAEFB4E48093980590939905A093FE
:104D70009A05B0939B0580E090E8ABE3B5E480939F
:104D8000940590939505A0939605B093970580930D
:104D9000900590939105A0939205B093930510927E
:104DA0009C0510929D0510929E0510929F0580E231
:104DB0009EE4A0E0B0E08093A0059093A105A093AD
:104DC000A205B093A30510927C0510927D05109268
:104DD0007E0510927F0580E090E0A0EAB1E4809328
:104DE000800590938105A0938205B09383058093FD
:104DF000840590938505A0938605B09387058DEC77
:104E00009CECACECBEE38093880590938905A0935D
:104E10008A05B0938B0580E090E0A0EAB0E480932F
:104E20008C0590938D05A0938E05B0938F058CE033
:104E3000E5E1FDE0DF011D928A95E9F78EEB90E058
:104E40009093A50B8093A40B81EE90E09093A70B19
:104E50008093A60B8CE390E09093A10B8093A00B22
:104E60008AE590E09093A30B8093A20B80E690E0FC
:104E700090939D0B80939C0B10929F0B10929E0B16
:104E80008AE999E9A1EBB1E48093AA029093AB027D
:104E9000A093AC02B093AD0286EA91E3A5E3BEE332
:104EA0008093A6029093A702A093A802B093A902B0
:104EB00080E493EFADE2B4E48093A2029093A30266
:104EC000A093A402B093A50210922D0D80E090E073
:104ED000A0E4B0E48093D1029093D202A093D302D5
:104EE000B093D402109205021092B8040E94F922E5
:104EF000E4E0FFE084918F010F5F1F4F882321F0D2
:104F00000E94C721F801F6CFECE3FEE084918F0107
:104F10000F5F1F4F882321F00E94C721F801F6CFB1
:104F2000E0960FB6F894DEBF0FBECDBFDF91CF91F4
:104F30001F910F91FF90EF90DF90CF90BF90AF90B7
:104F40000895AF92BF92CF92DF92EF92FF920F93AC
:104F50001F93CF93C82F882319F0E6E2FEE00CC020
:104F6000E4E0FFE084918F010F5F1F4F8823A9F3D6
:104F70000E94C721F801F6CF84918F010F5F1F4F68
:104F8000882321F00E94C721F801F6CF8AE00E9411
:104F9000C721CC2319F0E8E0FEE00CC0E4E0FFE01C
:104FA00084918F010F5F1F4F8823A9F30E94C721AF
:104FB000F801F6CF84918F010F5F1F4F882321F0F6
:104FC0000E94C721F801F6CF8AE00E94C721C111D3
:104FD0002CC0E4E0FFE084918F010F5F1F4F882316
:104FE00021F00E94C721F801F6CFE5EFFDE08491A2
:104FF0008F010F5F1F4F882321F00E94C721F80106
:10500000F6CF80912D0D882321F08AE00E94C721E0
:105010003AC0EAEEFDE084918F010F5F1F4F8823B5
:1050200091F10E94C721F801F6CF4091D102509131
:10503000D2026091D3027091D40281EE9DE00E9471
:10504000822F8AE00E94C72180912D0D811127C0F7
:10505000CC2319F0E6EDFDE00CC0E4E0FFE0849124
:105060008F010F5F1F4F8823A9F30E94C721F8010A
:10507000F6CF84918F010F5F1F4F882381F00E942C
:10508000C721F801F6CFE4E0FFE084918F010F5FC4
:105090001F4F882351F20E94C721F801F6CFC1119A
:1050A00024C0E4E0FFE084918F010F5F1F4F88234D
:1050B00021F00E94C721F801F6CFE5ECFDE08491D4
:1050C0008F010F5F1F4F882321F00E94C721F80135
:1050D000F6CFE4E0FFE084918F010F5F1F4F88233C
:1050E00021F00E94C721F801F6CF4091D4055091DC
:1050F000D5056091D6057091D7058DEB9DE00E9496
:10510000822F4091D8055091D9056091DA057091B0
:10511000DB058AEB9DE00E94822F4091DC055091D7
:10512000DD056091DE057091DF0587EB9DE00E9453
:10513000822F4091E0055091E1056091E205709168
:10514000E30584EB9DE00E94822F8AE00E94C72144
:10515000C11124C0E4E0FFE084918F010F5F1F4F75
:10516000882321F00E94C721F801F6CFE6E9FDE08F
:1051700084918F010F5F1F4F882321F00E94C72168
:10518000F801F6CFE4E0FFE084918F010F5F1F4F3D
:10519000882321F00E94C721F801F6CF4091E40551
:1051A0005091E5056091E6057091E7058DE89DE079
:1051B0000E94822F4091E8055091E9056091EA052F
:1051C0007091EB058AE89DE00E94822F4091EC05EA
:1051D0005091ED056091EE057091EF0587E89DE037
:1051E0000E94822F4091F0055091F1056091F205E7
:1051F0007091F30584E89DE00E94822F8AE00E946E
:10520000C721C11124C0E4E0FFE084918F010F5F4A
:105210001F4F882321F00E94C721F801F6CFE2E654
:10522000FDE084918F010F5F1F4F882321F00E94C2
:10523000C721F801F6CFE4E0FFE084918F010F5F12
:105240001F4F882321F00E94C721F801F6CF40911B
:10525000A4055091A5056091A6057091A70589E563
:105260009DE00E94BE2F4091A8055091A905609134
:10527000AA057091AB0586E59DE00E94BE2F409186
:10528000AC055091AD056091AE057091AF0583E519
:105290009DE00E94BE2F4091B0055091B1056091F4
:1052A000B2057091B30580E59DE00E94BE2F8AE0B3
:1052B0000E94C721C11124C0E4E0FFE084918F0166
:1052C0000F5F1F4F882321F00E94C721F801F6CFFE
:1052D000E6E0FDE084918F010F5F1F4F882321F0EE
:1052E0000E94C721F801F6CFE4E0FFE084918F012E
:1052F0000F5F1F4F882321F00E94C721F801F6CFCE
:10530000409198055091990560919A0570919B057F
:105310008DEF9CE00E94822F40919405509195055D
:1053200060919605709197058AEF9CE00E94822F0C
:10533000409190055091910560919205709193056F
:1053400087EF9CE00E94822F8AE00E94C721C11152
:1053500024C0E4E0FFE084918F010F5F1F4F88239A
:1053600021F00E94C721F801F6CFE3E8FCE0849128
:105370008F010F5F1F4F882321F00E94C721F80182
:10538000F6CFE4E0FFE084918F010F5F1F4F882389
:1053900021F00E94C721F801F6CF40919C05509161
:1053A0009D0560919E0570919F058AE79CE00E9493
:1053B000822F40917C0550917D0560917E05709112
:1053C0007F0587E79CE00E94822F4091A0055091C5
:1053D000A1056091A2057091A30584E79CE00E945D
:1053E000BE2F40918005509181056091820570919A
:1053F000830581E79CE00E94822F409184055091B3
:10540000850560918605709187058EE69CE00E9477
:10541000822F409188055091890560918A0570918D
:105420008B058BE69CE00E94822F40918C05509169
:105430008D0560918E0570918F0588E69CE00E9435
:10544000822F8AE00E94C721C11124C0E4E0FFE05E
:1054500084918F010F5F1F4F882321F00E94C72185
:10546000F801F6CFEAE5FCE084918F010F5F1F4F52
:10547000882321F00E94C721F801F6CFE4E0FFE085
:1054800084918F010F5F1F4F882321F00E94C72155
:10549000F801F6CF4091150D5091160D6091170D42
:1054A0007091180D81E59CE00E94822F4091190DAA
:1054B00050911A0D60911B0D70911C0D8EE49CE0B3
:1054C0000E94822F40911D0D50911E0D60911F0D65
:1054D0007091200D8BE49CE00E94822F8AE00E9454
:1054E000C721C11118C0E4E0FFE084918F010F5F74
:1054F0001F4F882321F00E94C721F801F6CFEEE26A
:10550000FCE084918F010F5F1F4F882399F00E9468
:10551000C721F801F6CF84EAA82E8BE0B82E90EAD6
:10552000C92E9BE0D92E2CE9E22E2BE0F22E00E0D2
:1055300010E00CC0E4E0FFE084918F010F5F1F4F8B
:10554000882349F30E94C721F801F6CFB80185E20C
:105550009CE00E944C2FF501619171915F0182E204
:105560009CE00E944C2FF601619171916F018FE1D7
:105570009CE00E944C2FF701619171917F018CE1B9
:105580009CE00E944C2F8AE00E94C7210130110547
:1055900019F001E010E0DACFC11124C0E4E0FFE02F
:1055A00084918F010F5F1F4F882321F00E94C72134
:1055B000F801F6CFEDE0FCE084918F010F5F1F4F03
:1055C000882321F00E94C721F801F6CFE4E0FFE034
:1055D00084918F010F5F1F4F882321F00E94C72104
:1055E000F801F6CF4091AA025091AB026091AC0253
:1055F0007091AD0284E09CE00E94822F2CEA35EC91
:1056000047E25EE36091A6027091A7028091A80232
:105610009091A9020E94A0EAAB01BC0181E09CE04C
:105620000E94A02F2CEA35EC47E25EE36091A202D3
:105630007091A3028091A4029091A5020E94F8ECBF
:10564000AB01BC018EEF9BE00E94A02F8AE0CF91BE
:105650001F910F91FF90EF90DF90CF90BF90AF9090
:105660000C94C7212F923F924F925F926F927F923C
:105670008F929F92AF92BF92CF92DF92EF92FF9262
:105680000F931F93CF93DF93CDB7DEB7C655D109E4
:105690000FB6F894DEBF0FBECDBF2DB73EB76596EF
:1056A0003FAF2EAF659784E690E02B969FAF8EAF0D
:1056B0002B9710923C0544E050E0BE016F5B7F4F9A
:1056C000CE01875B9F4F0E946A2342E050E0BE01FB
:1056D000695B7F4FCE01875B9F4F0E946A2343E047
:1056E00050E0BE016F5B7F4F88E693E00E94EEF2D0
:1056F000892B09F43AC022968FAD2297863539F06E
:105700008FE322968FAF229723961FAE2397E4E074
:10571000FFE084918F010F5F1F4F882321F00E94CB
:10572000C721F801F6CFE6EBFEE084918F010F5F11
:105730001F4F882321F00E94C721F801F6CFBE0138
:105740006F5B7F4F8DEA9EE00E94242FEFE9FEE021
:1057500084918F010F5F1F4F882321F00E94C72182
:10576000F801F6CF0E944C2645C36DB67EB6219651
:105770001CAE1DAE1EAE1FAE219710923F051092BB
:105780003E0541E050E0BE016E5A7F4FCE01875B7F
:105790009F4F0E946A2380E1EFEEF2E0DE019196D6
:1057A00001900D928A95E1F780E1EFEFF2E0DE01E2
:1057B000519601900D928A95E1F780E1EFE0F3E0D8
:1057C0008E010F5F1F4FD80101900D928A95E1F76E
:1057D0006396CFAC6397D12C33E0C30ED11CCC0CB5
:1057E000DD1CCC0CDD1C8DB79EB78C199D090FB646
:1057F000F8949EBF0FBE8DBFEDB7FEB731964F0137
:105800002DB73EB72C193D090FB6F8943EBF0FBE19
:105810002DBF8DB79EB701965C01EDB7FEB7EC19B1
:10582000FD090FB6F894FEBF0FBEEDBF2DB73EB712
:105830002F5F3F4F7901A601B401CE01875B9F4FD7
:105840000E946A23A601B501CE01875B9F4F0E948B
:105850006A23A601B701CE01875B9F4F0E946A238E
:1058600063962FAD639730E02E5F3F4F84EA95E05B
:1058700067969FAF8EAF6797A4EEB5E064ED75E0D5
:1058800080E090E040E050E0241735074CF06401E0
:10589000C80ED91EF60120803180428053800CC092
:1058A000F1E2CF2ED12CCC0EDD1EC80ED91EF60192
:1058B0002080318042805380FB01219231924192BD
:1058C0005192BF01241735074CF06501C80ED91E4F
:1058D000F60120803180428053800CC0E1E1CE2E61
:1058E000D12CCC0EDD1EC80ED91EF60120803180D1
:1058F000428053802D923D924D925D922417350740
:105900004CF06701C80ED91EF6012080318042801C
:10591000538008C06801C80ED91EF601208031806E
:10592000428053806796EEADFFAD6797219231922A
:10593000419251926796FFAFEEAF67974F5F5F4F0F
:1059400004964430510509F09FCF44E050E068E9E7
:1059500075E0CE01875B9F4F0E946A2344E050E0D0
:1059600064E975E0CE01875B9F4F0E946A2344E0A3
:1059700050E060E975E0CE01875B9F4F0E946A238B
:1059800044E050E06CE975E0CE01875B9F4F0E94D8
:105990006A2344E050E06CE775E0CE01875B9F4FDF
:1059A0000E946A2344E050E060EA75E0CE01875B24
:1059B0009F4F0E946A2340E150E060E875E0CE010D
:1059C000875B9F4F0E946A234CE050E065E17DE0D9
:1059D000CE01875B9F4F0E946A2344E050E0BE01E6
:1059E000635C7F4FCE01875B9F4F0E946A2341E03B
:1059F00050E0BE016F5A7F4FCE01875B9F4F0E94E0
:105A00006A2344E050E0BE01635C7F4FCE01875BB8
:105A10009F4F0E946A2341E050E0BE01605B7F4FD0
:105A2000CE01875B9F4F0E946A2341E050E0BE0198
:105A3000615B7F4FCE01875B9F4F0E946A23619617
:105A40008FAD619760960FAD6097809F80011124A4
:105A5000E12CF12C44E050E0BE01E016F10659F0D3
:105A6000635C7F4FCE01875B9F4F0E946A23FFEFED
:105A7000EF1AFF0AEFCF675C7F4FCE01875B9F4F26
:105A80000E946A231AE0115059F044E050E0BE0130
:105A9000635C7F4FCE01875B9F4F0E946A23F3CFE9
:105AA00041E050E0BE01625B7F4FCE01875B9F4FBC
:105AB0000E946A2341E050E0BE01635B7F4FCE014C
:105AC000875B9F4F0E946A2344E050E0BE016B5CFD
:105AD0007F4FCE01875B9F4F0E946A2344E050E0D6
