:100000000C9457250D9493000D94BE000D94E900B7
:100010000D9414010D943F010D946A010D94950106
:100020000D94C0010C9433B10C9442B10C9451B1B5
:100030000C9488250C9468FE0C9488250C948825D3
:100040000C9488250C94DE2B0C9488250C94882520
:100050000C9488250C9488250C9480AF0C94FAFE9F
:100060000C9488250C94B4300C9488250C94882525
:100070000C9488250C9488250C9488250C9488254C
:100080000C9488250C9488250C9488250C9488253C
:100090000C9488250C9488250C9488250C9488252C
:1000A0000C9488250C9488250C9488250C9488251C
:1000B0000C9488250C9488250C9488250C9488250C
:1000C0000C9488250C9488250C9488250C948825FC
:1000D0000C9488250C9488250C9488250C948825EC
:1000E0000C94882520692A69316938693F69546907
:1000F0005F69666946694D6933018F01E5009701C3
:10010000BB01A9019B013101A3010901FF000F01FE
:10011000BF0179010D0105011D01A101DB00E10015
:10012000CB01BF012701C901870107019901110115
:10013000AB01C10171012D01930101014701C7010B
:100140006D0155018D01710145015B016B01084A8B
:10015000D73B3BCE016E84BCBFFDC12F3D6C7431DB
:100160009ABD56833DDA3D00C77F11BED9E4BB4C32
:100170003E916BAAAABE000000803F05A84CCDB2FC
:10018000D44EB93836A9020C50B9918688083CA6DD
:10019000AAAA2ABE000000803F000C94C3F50D946B
:1001A0001E000C94C8FE0C94B5640C94578D0C94EE
:1001B00039910C94FC600D946A020C943F690C9484
:1001C000E8680D9479020C9452700D943F000C94E1
:1001D000F3930C94426F0C9409990C9457720C94FD
:1001E000638D0C946E900C94CDDC0C94EB7A0C9493
:1001F000FA8E0C9404690C948F640C9454690D94D9
:1002000028020D94E0020C9462660D944C020D9449
:10021000CF020D941E020C9484770D9444020D9429
:1002200032020D94C1020C94326E0C94EB7F0C944C
:10023000DD640C94698D0C94C8640D9456020C9482
:100240005D850C94EE7F0C944A780C9438690D947B
:100250008D020C94FE600C9466690D94D6020C9489
:1002600063950D9414020D946D000C9443980C94B6
:10027000815B0C948B970C94947B0C942C9E0C9427
:10028000A8AF0C94D9770C943FF40D94FC020D9414
:10029000E4020C94F2640C94F47C0C94A2640C942C
:1002A000E7DC0C9459670C94C7730D94F2020C941C
:1002B00078770C9441760D9400030C942BC50C9424
:1002C00047760C944C780C9494790C943C7A0C946A
:1002D0005F690C948B7D0D9404030D94EE020C94D5
:1002E0004D690D9409030C94F8600C9420690C94EA
:1002F00046690D943C020C944D760C943B930C94FF
:10030000ED780C94A1610C9431690C942A690D94D8
:10031000A1020C94FA600C94C4F50D94F6020D94AD
:1003200037000C94927B0D94DA020C94AB940D94EC
:100330004B000D94D2020D9486000C94437C0C94D7
:100340001B960D9460020D9419020C9418820C9463
:10035000DB5F0D9479000D94C5020C94C58F0C944D
:10036000D3960C947E770C94F5600C945D8D0C9470
:1003700017F70C946F8D0D9458000C94E3A20D9414
:10038000AB020D94CB020C94F17F0C944C920D9423
:10039000E8020D9497020D948302205A3A002059E6
:1003A0003A0020436F756E7420583A0024F4D4301C
:1003B00050C38E20C2A24017828B7011127A910D09
:1003C000816CD90AA861E108C758660761514306E4
:1003D0001E4B5D05C145A7041A411104093D980350
:1003E000713931034036DB0265339102D430540257
:1003F000802E1D02632CEE01752AC501B028A001D4
:10040000102781018F2564012B244B01E022340148
:10041000AC211F018D200D01801FFC00841EED000A
:10042000971DDF00B81CD200E61BC600201BBC00D5
:10043000641AB200B219A8000A19A0006A1899003B
:10044000D117910040178B00B516840031167E003D
:10045000B31579003A157300C7146F0058146A0079
:10046000EE1366008813630025135E00C7125B005D
:100470006C12570015125400C111510070114F0039
:1004800021114B00D61049008D1047004610440042
:1004900002104200C00F4000800F3E00420F3C009F
:1004A000060F3B00CB0E3800930E37005C0E350074
:1004B000270E3400F30D3200C10D3100900D3000D5
:1004C000600D2E00320D2D00050D2C00D90C2B00D7
:1004D000AE0C2900850C29005C0C2700350C270088
:1004E0000E0C2600E80B2400C40B2400A00B2300F4
:1004F0007D0B23005A0B2100390B2100180B200023
:10050000F80A1F00D90A1E00BB0A1E009D0A1D0022
:10051000800A1D00630A1C00470A1B002C0A1B00EE
:10052000110A1A00F7091A00DD091900C409190097
:10053000AB091900920917007B091800630917001D
:100540004C09160036091600200916000A09150084
:10055000F5081500E0081400CC081400B8081400D1
:10056000A4081400900813007D0812006B08130003
:100570005808120046081200340811002308110020
:100580001208110001081100F0071000E007100028
:10059000D0071000C0071000B0070F00A10710001F
:1005A00091070E0083070F0074070F0065070E0008
:1005B00057070E0049070E003B070D002E070E00DF
:1005C00020070D0013070D0006070D00F9060C00AB
:1005D000ED060D00E0060C00D4060C00C8060C0069
:1005E000BC060C00B0060C00A4060B0099060C001B
:1005F0008D060B0082060B0077060B006C060B00C5
:1006000061060A0057060B004C060A0042060A0063
:1006100038060A002E060A0024060A001A060A00F6
:100620001006090007060A00FD050900F405090087
:10063000EB050900E2050900D9050900D00509000C
:10064000C7050900BE050900B5050800AD0508008D
:10065000A50509009C050800940508008C05080004
:10066000840508007C050800740508006C05070077
:10067000650508005D050700560508004E050700E2
:100680004705070040050800380507003105070049
:100690002A050700230507001C05060016050700AC
:1006A0000F0507000805060002050700FB04060009
:1006B000F5040700EE040600E8040600E204070063
:1006C000DB040600D5040600CF040600C9040600BA
:1006D000C3040600BD040600B7040600B10405000B
:1006E000AC040600A6040600A00405009B04060056
:1006F00095040500900406008A04050085040500A1
:10070000800406007A0405007504050070040500E5
:100710006B04050066040500610405005C04050027
:1007200057040500520405004D0405004804050067
:10073000430405003E0404003A04050035040500A6
:10074000300404002C0405002704040023040500E1
:100750001E0404001A040400160405001104040019
:100760000D0404000904050004040400000404004E
:10077000FC030400F8030400F4030400F003040085
:10078000EC030400E8030400E4030400E0030400B5
:10079000DC030400D8030400D4030400D0030400E5
:1007A000CC030400C8030300C503030024F404D9E8
:1007B000201BC40C5C0E9804C4095F02650771011C
:1007C000F405F900FB04B30048048700C103690085
:1007D0005803550003034500BE023A00840231006D
:1007E00053022A002902250004022000E4011C0013
:1007F000C8011900AF01170098011400840113000B
:10080000710110006101100051010E0043010D0043
:1008100036010B002B010B0020010B001501090014
:100820000C01090003010800FB000800F3000800A8
:10083000EB000700E4000600DE000600D80006001A
:10084000D2000600CC000500C7000500C20005006C
:10085000BD000400B9000400B5000400B1000400AC
:10086000AD000400A9000400A5000300A2000300DD
:100870009F0004009B000300980003009500020005
:1008800093000300900003008D0002008B00030022
:10089000880002008600020084000300810002003C
:1008A0007F0002007D0002007B0002007900020050
:1008B000770001007600020074000200720001005F
:1008C000710002006F0002006D0001006C00020068
:1008D0006A00010069000200670001006600010073
:1008E0006500010064000200620001006100010077
:1008F000600001005F0002005D0001005C0001007B
:100900005B0001005A00010059000100580001007D
:10091000570001005600010055000100540001007D
:10092000530000005300010052000100510001007B
:10093000500001004F0001004E0000004E00010079
:100940004D0001004C0001004B0000004B00010075
:100950004A00010049000100480000004800010071
:10096000470001004600000046000100450000006D
:100970004500010044000100430000004300010065
:10098000420000004200010041000000410001005F
:10099000400001003F0000003F0001003E00000059
:1009A0003E0001003D0000003D0001003C00000051
:1009B0003C0000003C0001003B0000003B00010047
:1009C0003A0000003A00010039000000390001003F
:1009D0003800000038000000380001003700000037
:1009E000370001003600000036000000360001002C
:1009F0003500000035000000350001003400000023
:100A00003400000034000100330000003300000017
:100A1000330001003200000032000000320001000B
:100A20003100000031000000310001003000000002
:100A300030000000300001002F0000002F000000F7
:100A40002F0000002F0001002E0000002E000000EB
:100A50002E0001002D0000002D0000002D000000E0
:100A60002D0001002C0000002C0000002C000000D4
:100A70002C0001002B0000002B0000002B000000C8
:100A80002B0001002A0000002A0000002A000000BC
:100A90002A000100290000002900000029000000B0
:100AA00029000000290001002800000028000000A3
:100AB0002800000028000000280001002700000096
:100AC0002700000027000000270000002700010089
:100AD000260000002600000026000000260000007E
:100AE0002600010025000000250000002500000070
:100AF0002500000025000000250001002400000062
:100B00002400000024000000240000002400010054
:100B10002300000023000000230000002300000049
:100B20002300000023000000230001002200000039
:100B3000220000002200000022000000220000002D
:100B4000220001002100000021000000210000001F
:100B50002100000021000000210000002100010010
:100B60002000000020000000200000002000000005
:100B700020000000200000002000000020000100F4
:100B80001F0000001F0000001F0000001F000000E9
:100B90001F0000001F0000001F0001001E000000D9
:100BA0001E0000001E0000001E0000007A5F6D693C
:100BB0006E3A2000795F6D696E3A2000785F6D694A
:100BC0006E3A20005265706F7274696E6720656EB0
:100BD0006473746F70207374617475730A00456E6A
:100BE0006473746F70732025632025632025632050
:100BF000256300205A3A0020593A0020583A0065EF
:100C00006E6473746F7073206869743A20002044B6
:100C10000020490020204D333031205000504944FD
:100C20002073657474696E67733A0A002046002069
:100C3000420020480020204D3134352053004D61C2
:100C400074657269616C206865617475702070618B
:100C500072616D65746572733A0A00205A002059FA
:100C60000020204D323036205800486F6D65206FCF
:100C700066667365743A0A00204500205A002059C0
:100C80000020580020420020540020204D323035F2
:100C9000205300416476616E6365643A20533C6D75
:100CA000696E5F66656564726174653E20543C6D73
:100CB000696E5F74726176656C5F666565647261AA
:100CC00074653E20423C6D696E5F7365676D656E4D
:100CD000745F74696D655F6D733E20583C6D61781B
:100CE0005F78795F6A65726B3E205A3C6D61785F10
:100CF0007A5F6A65726B3E20453C6D61785F655F27
:100D00006A65726B3E0A0020540020520020204D7C
:100D1000323034205000416363656C6572617469E0
:100D20006F6E2028756E6974732F7332293A2050C4
:100D30003C7072696E745F616363656C3E20523C07
:100D4000726574726163745F616363656C3E2054A5
:100D50003C74726176656C5F616363656C3E0A002A
:100D6000204500205A0020590020204D32303120EB
:100D700058004D6178696D756D20416363656C65E0
:100D8000726174696F6E2028756E6974732F733287
:100D9000293A0A00204500205A0020590020204D01
:100DA0003230332058004D6178696D756D2066656D
:100DB000656472617465732028756E6974732F732E
:100DC000293A0A00204500205A0020590020204DD1
:100DD0003932205800537465707320706572207525
:100DE0006E69743A0A0020204D3230302044300AB7
:100DF0000020204D3230302044002044697361626D
:100E00006C65640A0046696C616D656E742073657B
:100E10007474696E67733A0020204D313439204371
:100E2000203B20556E69747320696E2043656C7396
:100E30006975730A0A002020473231203B20556E25
:100E400069747320696E206D6D0A0A0048617264CE
:100E5000636F6465642044656661756C74205365D6
:100E60007474696E6773204C6F616465640A004531
:100E70004550524F4D20636865636B73756D206DEF
:100E800069736D617463680A0020627974657329FF
:100E90000A002073746F7265642073657474696EE0
:100EA0006773207265747269657665642028002016
:100EB0004D61726C696E3D563337290A00284545ED
:100EC00050524F4D3D00454550524F4D2076657272
:100ED00073696F6E206D69736D61746368200020A3
:100EE0006279746573290A0053657474696E677357
:100EF0002053746F7265642028004572726F7220EF
:100F000077726974696E6720746F20454550524F3F
:100F10004D210A006563686F3A004572726F723A3C
:100F2000007C3C3E5E2B3D3F2F5B5D3B2C2A225CD0
:100F30000020746F6F206C6F6E6720657874727517
:100F400073696F6E2070726576656E7465640A00F1
:100F500020636F6C6420657874727573696F6E209E
:100F600070726576656E7465640A00256973002584
:100F7000696D20256973002569682025696D202524
:100F8000697300256964202569682025696D20251D
:100F90006973002569792025696420256968202501
:100FA000696D20256973006D0046696C616D656E21
:100FB0007420757365643A200053746174733A2029
:100FC000002C204C6F6E67657374206A6F623A2044
:100FD00000546F74616C2074696D653A200053741D
:100FE0006174733A20002C204661696C65643A2074
:100FF000002C2046696E69736865643A200050725F
:10100000696E74733A200053746174733A2000540B
:1010100061726A65746120726574697261646100ED
:101020005461726A65746120636F6C6F636164619F
:10103000007061726120726573756D69720045732D
:10104000706572616E646F20696D702E0043616D12
:10105000626961722046696C616D656E746F002013
:1010600020426F7175696C6C613A200020004578F0
:1010700074727569722066696C616D656E746F005B
:10108000457370657261646F20706F720043616DAB
:10109000626961722046696C616D656E746F0020D3
:1010A00020426F7175696C6C613A200020004361C9
:1010B000726761722066696C616D656E746F004560
:1010C0007370657261646F20706F720043616D624E
:1010D0006961722046696C616D656E746F002020D5
:1010E000426F7175696C6C613A20007061726120A9
:1010F000636F6E74696E7561722E2E2E007920708A
:10110000726573696F6E6520656C20626F746F6EB7
:1011100000496E73657274652066696C616D656EF9
:10112000746F0043616D626961722046696C616D24
:10113000656E746F002020426F7175696C6C613A46
:101140002000200043616C656E746172206C612028
:10115000626F7175696C6C61004F7072696D6120AE
:10116000626F746F6E20706172610043616D6269BD
:1011700061722046696C616D656E746F002020425B
:101180006F7175696C6C613A200020004573706561
:10119000726520706F72206661766F720043616CB9
:1011A000656E74616E646F20626F7175696C6C61DD
:1011B0000043616D626961722046696C616D656EA4
:1011C000746F002020426F7175696C6C613A200069
:1011D000200066696C616D656E746F20657870754E
:1011E0006C7361646F00457370657261646F207029
:1011F0006F720043616D626961722046696C616D56
:10120000656E746F002020426F7175696C6C613A75
:10121000200063616D626961720064656C206669BB
:101220006C616D656E746F004573706572616E649C
:101230006F20696E69636961720043616D62696103
:10124000722046696C616D656E746F0045787472CA
:10125000756972206D617300526573756D697220D6
:10126000696D702E004F7063696F6E6573206465E1
:101270002063616D62696F3A002020426F71756969
:101280006C6C613A200020004174726173005465F7
:101290006D70204D696E696D612065732031353048
:1012A0002E004572726F723A20616C2063616C652A
:1012B0006E7461720045737461646973746963610B
:1012C0007320496D702E005465726D6973746F726E
:1012D000657300496E662E20436F6E74726F6C6189
:1012E000646F7200496E662E20496D707265736F6F
:1012F0007261004D656E75207072696E6369706110
:101300006C004578747275736F7265733A203100A2
:10131000687474703A2F2F6D61726C696E66772EE7
:101320006F726700507275736149334D4D2D4C00DB
:10133000323031372D30352D31322031323A3030A4
:1013400000312E312E31004D61726C696E00467590
:10135000656E746520646520706F6465723A20471D
:10136000656E657269630050726F746F636F6C6F46
:101370003A20312E300042617564696F733A203132
:1013800031353230300052414D505320312E34002F
:1013900054656D7065726174757261206D617869F4
:1013A0006D613A203132300054656D706572617440
:1013B000757261206D696E696D613A203500544225
:1013C00065643A4550434F53203130304B005465EB
:1013D0006D7065726174757261206D6178696D619F
:1013E0003A203235300054656D70657261747572E3
:1013F00061206D696E696D613A20350054303A2084
:101400004154432031303447542D320000546F741E
:10141000616C20646520457874727573696F6E3AEB
:101420002000256C642E25696D0000496D70726581
:1014300073696F6E206D6173206C617267613A2011
:1014400000005469656D706F20746F74616C206466
:101450006520696D702E3A2000436F6D706C657465
:10146000616461733A2000436F6E74656F20646538
:1014700020696D70726573696F6E3A2000022E2EBE
:10148000004D656E75207072696E636970616C00E5
:1014900046696C2E204469612E0046696C2E2044FA
:1014A00069612E004520696E206D6D3300417061C9
:1014B00067617200456E63656E64657200436F6EAE
:1014C00074726F6C0045207061736F732F6D6D00C7
:1014D00045207061736F732F6D6D005A20706173BA
:1014E0006F732F6D6D005A207061736F732F6D6D68
:1014F0000059207061736F732F6D6D0059207061FA
:10150000736F732F6D6D0058207061736F732F6D43
:101510006D0058207061736F732F6D6D00416365AE
:101520006C2E205669616A65004163656C2E2056F9
:1015300069616A65004163656C2E20726574726131
:10154000632E004163656C2E207265747261632E98
:10155000004163656C2E206D617845004163656CC8
:101560002E206D617845004163656C2E206D617899
:101570005A004163656C2E206D61785A00416365A5
:101580006C2E206D617859004163656C2E206D6171
:101590007859004163656C2E206D61785800416375
:1015A000656C2E206D6178580056656C2E2076692A
:1015B000616A65206D696E0056656C2E20766961E2
:1015C0006A65206D696E0056656C2E207669616AC9
:1015D00065206D696E00566D696E00566D696E000E
:1015E000566D696E00566D61784500566D6178459F
:1015F00000566D61784500566D61785A00566D61F0
:10160000785A00566D61785A00566D6178590056C7
:101610006D61785900566D61785900566D61785842
:1016200000566D61785800566D6178580056652DEA
:101630006A65726B0056652D6A65726B0056652D82
:101640006A65726B00567A2D6A65726B00567A2D48
:101650006A65726B0056792D6A65726B0056792D3A
:101660006A65726B0056792D6A65726B0056782D2B
:101670006A65726B0056782D6A65726B0056782D1C
:101680006A65726B004163656C65726163696F6E58
:10169000004163656C65726163696F6E00436F6ED4
:1016A00074726F6C0047756172646172206D656D54
:1016B0006F72696100506C617461666F726D610078
:1016C000506C617461666F726D6100426F71756913
:1016D0006C6C6100426F7175696C6C610056656E6F
:1016E00074696C61646F720056656E74696C6164D4
:1016F0006F720054656D706572617475726100502F
:10170000726563616C656E74617220414253436F10
:101710006E6669670050726563616C656E746172B4
:1017200020504C41436F6E666967005049442D4418
:10173000005049442D44005049442D49005049442B
:101740002D49005049442D50005049442D5000204F
:1017500008204661637400200820466163740020FD
:1017600008204D6178002008204D61780020082075
:101770004D6178002008204D696E002008204D69D9
:101780006E002008204D696E0054656D70657261B1
:1017900074757261204175746F2E004170616761CC
:1017A0007200456E63656E6465720056656E74699D
:1017B0006C61646F720056656E74696C61646F72FF
:1017C00000506C617461666F726D6100506C617481
:1017D00061666F726D6100426F7175696C6C61005A
:1017E000426F7175696C6C6100436F6E74726F6CDF
:1017F00000526573746175726172206D656D6F72F0
:10180000696100436172676172206D656D6F726915
:10181000610047756172646172206D656D6F7269F8
:10182000610046696C616D656E746F004D6F76691D
:101830006D69656E746F0054656D70657261747565
:101840007261004D656E75207072696E63697061BA
:101850006C004578747275736F72004D6F766572A7
:10186000205A004D6F7665722059004D6F76657273
:101870002058005072657061726172004D6F76651C
:101880007220302E316D6D004D6F76657220316D96
:101890006D004D6F7665722031306D6D004D6F7645
:1018A000657220656A6573004578747275736F722E
:1018B000004D6F766572205A004D6F766572205923
:1018C000004D6F7665722058004578747275736F9D
:1018D00072004D6F766572205A004D6F76657220EA
:1018E00059004D6F76657220580050726563616CC7
:1018F000656E746172204142530050726563616C81
:10190000656E74617220504C4100456E667269616B
:10191000720043616D626961722066696C616D6518
:101920006E746F004D383400417061676172206DD4
:101930006F746F72657300416A75737461722064AD
:101940006573666173657300473238205A004F72C1
:101950006967656E205A004732382059004F726916
:1019600067656E2059004732382058004F7269670A
:10197000656E205800473238004C6C6576617220E5
:10198000616C206F726967656E004D6F76657220BD
:10199000656A6573004D656E75207072696E636966
:1019A00070616C0050726563616C656E7461722069
:1019B000414253506C617461666F726D6100507288
:1019C0006563616C656E7461722041425320456E9F
:1019D000640050726563616C656E7461722041428F
:1019E000530050726570617261720050726563617C
:1019F0006C656E74617220504C41506C617461660C
:101A00006F726D610050726563616C656E746172B6
:101A100020504C4120456E640050726563616C65D6
:101A20006E74617220504C41005072657061726139
:101A3000720043616D626961722066696C616D65F7
:101A40006E746F004D6963726F7061736F205A001E
:101A50004D6963726F7061736F2059004D696372D5
:101A60006F7061736F205800466C756A6F00466C2A
:101A7000756A6F0056656E74696C61646F720056AA
:101A8000656E74696C61646F7200506C617461663C
:101A90006F726D6100506C617461666F726D610090
:101AA000426F7175696C6C6100426F7175696C6C25
:101AB000610056656C6F63696461640056656C6FA4
:101AC0006369646164004D656E75207072696E6350
:101AD0006970616C004D3630300042616279737418
:101AE000657070696E67205A00426162797374652F
:101AF0007070696E67205900426162797374657015
:101B000070696E672058004D34323800496E662E79
:101B100020496D707265736F7261004E6F2068614D
:101B200079207461726A657461205344004D656E5A
:101B30007520646520534400446574656E657220A9
:101B4000696D70726573696F6E005265616E756460
:101B5000617220696D70726573696F6E0050617596
:101B600073617220696D70726573696F6E00436F87
:101B70006E74726F6C0050726570617261720041B8
:101B80006A757374617200496E666F726D61636924
:101B90006F6E00496D70726573696F6E2063616E60
:101BA00063656C616461004D3234004D3132350043
:101BB00025753A2530327500253032753A25303298
:101BC000750025756420253032753A253032750050
:101BD0000920005A0059005800506F722066617643
:101BE0006F722C207265696E6963696500494D509A
:101BF0005245534F5241205041524144410000064A
:101C00000900FE070192032120FFFF08FF07FF00E4
:101C10000000060000010707060200808080808027
:101C20000080030202060105A0A0050707060000C8
:101C30005050F850F850500507070600002078A0D3
:101C40007028F020050707060000C0C81020409843
:101C5000180507070600006090A040A890680203DE
:101C600003060104C04080030707060100204080EE
:101C7000808040200307070601008040202020408C
:101C80008005050506000120A870A82005050506A9
:101C900000012020F820200203030602FFC040803C
:101CA000050101060003F8020202060200C0C00599
:101CB0000505060001081020408005070706000002
:101CC0007088888888887003070706010040C04034
:101CD000404040E0050707060000708808708080DB
:101CE000F8050707060000F81020100808F005079F
:101CF0000706000010305090F81010050707060086
:101D000000F880F00808887005070706000070805A
:101D100080F0888870050707060000F8081020206A
:101D200020200507070600007088887088887005E5
:101D30000707060000708888780808700205050605
:101D40000200C0C000C0C00206060602FFC0C000FC
:101D5000C04080040707060000102040804020108B
:101D6000050303060002F800F804070706010080D7
:101D700040201020408005070706000070880810EA
:101D800020002005070706000070880868A8A870D2
:101D9000050707060000708888F888888805070707
:101DA000060000F08888F08888F005070706000024
:101DB00070888080808870050707060000F088889A
:101DC000888888F0050707060000F88080F080808A
:101DD000F8050707060000F88080F080808005077E
:101DE00007060000708880B888887005070706001D
:101DF00000888888F88888880107070602008080A4
:101E000080808080800507070600003810101010C1
:101E100090600507070600008890A0C0A090880584
:101E20000707060000808080808080F8050707068D
:101E3000000088D8A88888888805070706000088D9
:101E400088C8A898888805070706000070888888D1
:101E5000888870050707060000F08888F080808079
:101E600005070706000070888888A890680507079E
:101E7000060000F08888F0A090880507070600009B
:101E8000788080700808F0050707060000F8202019
:101E90002020202005070706000088888888888879
:101EA0007005070706000088888888885020050785
:101EB000070600008888888888A85005070706005C
:101EC0000088885020508888050707060000888809
:101ED0008850202020050707060000F80810204041
:101EE00080F8030707060100E08080808080E0051D
:101EF00005050600018040201008030707060100C1
:101F0000E02020202020E005030306000420508864
:101F1000050101060000F8020202060205804005E4
:101F20000505060000700878887805070706000098
:101F30008080B0C88888F0050505060000708080A4
:101F400088700507070600000808689888887805E3
:101F500005050600007088F8807005070706000078
:101F60003048E0404040400506060600FF70888883
:101F70007808700507070600008080B0C888888848
:101F80000107070602008000808080808003080827
:101F90000601FF200020202020A0400407070600A3
:101FA00000808090A0C0A090030707060100C040F9
:101FB00040404040E0050505060000D0A8A8A8A8BC
:101FC000050505060000B0C88888880505050600D7
:101FD0000070888888700506060600FFF08888F083
:101FE00080800506060600FF7888887808080505C1
:101FF00005060000B0C88080800505050600007059
:10200000807008F00407070600004040E0404040B0
:1020100030050505060000888888986805050506CE
:10202000000088888850200505050600008888A8DB
:10203000A8500505050600008850205088050606B2
:102040000600FF888888780870050505060000F8F6
:10205000102040F803070706010020404080404060
:1020600020010707060200808080808080800307AF
:102070000706010080404020404080050202060023
:10208000026890000000060000000000060000004A
:10209000000006000000000006000000000006002E
:1020A0000000000006000000000006000000000024
:1020B000060000000000060000000000060000000E
:1020C00000000600000000000600000000000600FE
:1020D00000000000060000000000060000000000F4
:1020E00006000000000006000000000006000000DE
:1020F00000000600000000000600000000000600CE
:1021000000000000060000000000060000000000C3
:1021100006000000000006000000000006000000AD
:10212000000006000000000006000000000006009D
:102130000000000006000000000006000000000093
:10214000060000000000060000000000060000017C
:102150000707060200800080808080800507070650
:1021600000002070A8A0A870200507070600003016
:102170004040E04050A805050506000088705070FA
:1021800088050707060000885020F820F82001077E
:102190000706020080808000808080050808060015
:1021A000003048205050209060030101060107A034
:1021B000050707060000F888B8B8B888F8050707CB
:1021C000060001700878887800F80505050600010A
:1021D0002850A05028050303060001F80808020251
:1021E000020602064080050707060000F888A88856
:1021F00098A8F8050101060006F804040406000387
:10220000609090600507070600002020F82020005D
:10221000F804050506000360902040F0030505065C
:102220000003E020E020E0020202060206408005F2
:1022300008080600FF8888888898E88080050707D6
:102240000600007898987818181802020206020210
:10225000C0C00202020602FF40800305050600031B
:1022600040C04040E005070706000170888888707C
:1022700000F8050505060001A0502850A005070735
:102280000600008890A858B808080507070600004F
:102290008890B848982038050808060000C040C05B
:1022A00048D83808080507070600002000204080AD
:1022B00088700508080600004020007088F88888AB
:1022C0000508080600001020007088F888880508B6
:1022D000080600002050007088F888880508080665
:1022E00000006890007088F88888050808060000DB
:1022F0005000708888F8888805080806000020507B
:10230000207088F888880507070600003860A0B8A4
:10231000E0A0B80508080600FF708880808870205B
:1023200060050808060000402000F880F080F805ED
:102330000808060000081000F880F080F80508087A
:10234000060000205000F880F080F805070706001E
:10235000005000F880F080F8030808060100804073
:1023600000E0404040E0030808060100204000E093
:10237000404040E003080806010040A000E0404063
:1023800040E0030707060100A000E0404040E005F0
:102390000707060000704848E84848700508080626
:1023A000000068900088C8A8988805080806000002
:1023B0004020708888888870050808060000102072
:1023C0007088888888700508080600002050007012
:1023D0008888887005080806000068900070888862
:1023E000887005080806000050007088888888708A
:1023F00005050506000188502050880508080600DC
:10240000FF1070A8A8A8A8704005080806000040A2
:1024100020888888888870050808060000102088B1
:102420008888888870050808060000205000888881
:102430008888700508080600005000888888888809
:102440007005080806000010208850202020200574
:1024500009090600FFC040704848704040E0040889
:10246000080601FF609090A09090E08005080806A3
:1024700000004020007008788878050808060000F1
:1024800010200070087888780508080600002050A1
:1024900000700878887805080806000068900070C9
:1024A00008788878050707060000500070087888CB
:1024B0007805080806000020502070087888780504
:1024C0000606060000D02878A0A8500506060600DB
:1024D000FF7080887020600508080600004020001A
:1024E0007088F880700508080600001020007088C9
:1024F000F880700508080600002050007088F880F9
:102500007005070706000050007088F88070030807
:102510000806010080400040C04040E00308080673
:10252000010020400040C04040E0030808060100D0
:1025300040A00040C04040E0030707060100A000A3
:1025400040C04040E0050707060000A040A010780A
:102550008870050808060000689000B0C888888860
:10256000050808060000402000708888887005086B
:10257000080600001020007088888870050808068A
:102580000000205000708888887005080806000048
:102590006890007088888870050707060000500062
:1025A00070888888700505050600012000F8002065
:1025B0000507070600FF1070A8A8A87040050808C6
:1025C00006000040200088888898680508080600F2
:1025D00000102000888888986805080806000020F8
:1025E0005000888888986805070706000050008812
:1025F000888898680509090600FF102000888888E7
:10260000F808700407070601FFC04060506040E012
:102610000508080600FF50008888887808700006C2
:102620000900FE000000000001090008FE0000058E
:10263000080806000040F0C8888898781005080847
:10264000060000C0F88888888888F8050505060017
:10265000012030F830200508080600002070F8201E
:10266000202020E00509090600FF2070A8A8B888EE
:102670008870200509090600FFE080C0B0A8283056
:1026800028280509090600FFF8A88888888888A8EE
:10269000F8050A0A0600FE205050505088A8A88865
:1026A0007003030306000340A04000000000000088
:1026B000000000000000000000000000000000001A
:1026C000000000000000000000000000000000000A
:1026D00000000000000000000000000000000000FA
:1026E00000000000000000000000000000000000EA
:1026F00000000000000000000000000000000000DA
:1027000000000000000000000000000000000000C9
:1027100000000000000000000000000000000000B9
:10272000000000000000000000000FF800000000A2
:102730000000000000E03F0000000FFE000000006D
:102740000000000000E0FFC000000E0F00000000CD
:102750000000000000E083C000000E0780000000C1
:102760000000000000E000E000000E038000000018
:102770000000000000E000E000000E039C7381C038
:102780003F00FC0000E000E000000E039DF381C06C
:10279000FF83FE0000E000E000000E039F0381C104
:1027A000E0820F0000E001C000000E079E0381C11F
:1027B000C000070000E03F0000000E0F1C0381C1B5
:1027C000C000038000E03F8000000FFE1C0381C1B9
:1027D000E000038000E001C000000FF81C0381C08E
:1027E000FC00FF8000E000E000000E001C0381C040
:1027F0007F03FF8000E0007000000E001C0381C01A
:102800000F87838000E0007000000E001C0381C071
:1028100003C7038000E0007000000E001C0381C0AD
:1028200001C7038000E0007000000E001C0383C09D
:1028300001C7078000E000E000000E001C01C7C1D6
:1028400003C78F8000E101E000000E001C01FDC104
:10285000FF83FB8000E1FFC000000E001C0079C078
:102860007E01F38000E07F00000000000000000017
:102870000000000000000000000000000000000058
:102880000000000000000000000000000000000048
:102890000000000000000000000000000000000038
:1028A0000000000000000000000000000000000028
:1028B0000000000000000000000000000000000018
:1028C0000000000000000000000000000000000008
:1028D00000000000000000000000000000000000F8
:1028E00000000000000000000000000000000000E8
:1028F00000000000000000000000000000000000D8
:1029000000000000000000000000001F8000000028
:1029100000000000000000000000007FE000000058
:102920000000000000000000000000FFF0000000B8
:102930000000000000000000000001FFF80000009F
:102940000000000000000000000001FFF80000008F
:102950000000000000000000000003C03C00000078
:102960000000000000000000000003000C00000058
:10297000000000000000000000000600060000004B
:10298000000000040000000000000400020000003D
:10299000000000040000000000000C000300000024
:1029A000000000040000000000001C000384949458
:1029B000916E38E79144E0E72DC01E000785D5D51C
:1029C000D111451451450108A2201E0007877777D1
:1029D000711145F44A44C108A2201E000782222238
:1029E000211145044A442108A2201F000F822222FF
:1029F000291138F78435C8E722201F000F80000016
:102A0000000000000400000000001F801F80000084
:102A1000000000001800000000000FC03F00000090
:102A2000000000000000000000000FE07F00000038
:102A30000000000000000000000007F0FE000000A1
:102A40000000000000000000000001F9F800000094
:102A500000000000000000000000007BE00000001B
:102A60000000000000000000000000000000000066
:102A70000000000000000000000000000000000056
:102A80000000000000000000000000000000000046
:102A90000000000000000000000000000000000036
:102AA0000000000000000000000000000000000026
:102AB0000000000000007FFFE000000000000000B8
:102AC00000000000007000E00000000000000000B6
:102AD0000000000061F8600000000000000000003D
:102AE00000000041F820000000000000000000008D
:102AF000000040F020000000000000000000000086
:102B00000040602000000000000000000000000005
:102B10005801A07F80000000000000004104005C1C
:102B200063A0FFC0000000000000002082005EF7EC
:102B3000A0FFC0000000000000002082005EF7A09F
:102B4000FFC0000000000000004104005C63A07FA3
:102B500080000000000000008208005801A07F8073
:102B600000000000000001041000406020FFC000D1
:102B700000000000000104100040F020FFC0000031
:102B8000000000000082080041F820FFC0000000A3
:102B90000000000041040061F8603F0000000000F8
:102BA0000000000000007000E01E000000000000B7
:102BB0000001FFFF807FFFE00C000000000000002C
:102BC00001FFFF8000000000000000000000000086
:102BD0000000007FFFE00000000000000000000097
:102BE00000007000E0000000000000000000000095
:102BF00000630C6000000000000000000000000006
:102C0000470E200000000000000000000000004F00
:102C10000F200000000000000000000000005F0F17
:102C2000A00000000000000000000000005E07A0FF
:102C30007F8000000000000000410400406020FF91
:102C4000C00000000000000020820040F020FFC013
:102C50000000000000000020820040F020FFC000C3
:102C60000000000000004104004060207F80000060
:102C700000000000008208005E07A07F80000000C6
:102C8000000000010410005F0FA0FFC00000000062
:102C90000000010410004F0F20FFC00000000000E2
:102CA0000000820800470E20FFC000000000000066
:102CB00000410400630C603F0000000000000000C1
:102CC0000000007000E01E0000000000000001FF96
:102CD000FF807FFFE00C0000000000000001FFFF0C
:102CE000800000001FFFFFFFFFFFFF6000000000EB
:102CF00001FF400000000000FF8000000000007F96
:102D000083CF00000C303F87FF80000C301F867996
:102D100080000C000F8C30C7838C30E78C30CFC71D
:102D2000CC31F38C30DCECEC33B98C30D86C6C33B8
:102D3000198C30D06C0C33198C30D86C0C33198C46
:102D400030DC6C0E3B198C30CF7C079F198C30C760
:102D50007C038F19400000000000026000000000AA
:102D600000061FFFFFFFFFFFF8546865726D616C7E
:102D70002052756E61776179004572726F722064BE
:102D8000652074656D706572617475726100506163
:102D90007261646120646520656D657267656E634C
:102DA000696100202D20496E76616C696420657828
:102DB000747275646572206E756D62657220210A89
:102DC0000048656174696E67206661696C656400BE
:102DD0004572726F723A20616C2063616C656E742B
:102DE00061720048656174696E67206661696C652F
:102DF00064004572726F723A20616C2063616C6589
:102E00006E746172004D494E54454D502074726984
:102E1000676765726564004572726F723A20546527
:102E20006D70204D696E20506C6174004572726F38
:102E3000723A2054656D70204D696E696D61004D68
:102E4000415854454D5020747269676765726564D6
:102E5000004572726F723A2054656D70204D617832
:102E600020506C6174004572726F723A2054656D27
:102E700070204D6178696D61006265640A002C20E4
:102E800073797374656D2073746F7070656421203D
:102E90004865617465725F49443A20002364656641
:102EA000696E65202044454641554C545F4B642073
:102EB0000023646566696E65202044454641554C93
:102EC000545F4B69200023646566696E6520204469
:102ED000454641554C545F4B7020005049442041B9
:102EE00075746F74756E652066696E697368656464
:102EF000212050757420746865206C617374204BB8
:102F0000702C204B6920616E64204B6420636F6ECF
:102F10007374616E74732066726F6D2062656C6F7E
:102F20007720696E746F20436F6E66696775726192
:102F300074696F6E2E680A00504944204175746FA1
:102F400074756E65206661696C6564212074696DB5
:102F5000656F75740A00504944204175746F74752B
:102F60006E65206661696C6564212054656D7065CD
:102F700072617475726520746F6F20686967680A82
:102F800000204B643A2000204B693A2000204B700F
:102F90003A20000A20436C617373696320504944EE
:102FA000200A002054753A2000204B753A2000205A
:102FB0006D61783A2000206D696E3A200020643AF5
:102FC000200020626961733A20001000C9021001DC
:102FD0002C014001220170011801B0010E01F00125
:102FE00004015002FA00B002F0003003E600D00302
:102FF000DC009004D2007005C800A006BE000008E6
:10300000B400B009AA00D00BA000600E96006011B9
:103010008C000015820020197800C01D6E00A022CF
:103020006400B0275A00902C500000314600E03474
:103030003C0010383200903A2800603C1E00A03D51
:103040001400803E0A00203F000070012C01900116
:103050002701B0012201C0011D01F0011801100279
:10306000130130020E016002090190020401C00246
:10307000FF000003FA004003F5008003F000D003D6
:10308000EB002004E6007004E100E004DC004005F1
:10309000D700C005D2004006CD00D006C80080078A
:1030A000C3003008BE00F008B900C009B400B00A7F
:1030B000AF00B00BAA00D00CA500000EA000500F6E
:1030C0009B00C01096005012910000148C00C01597
:1030D0008700B0178200B0197D00D01B7800001E59
:1030E000730040206E0090226900F02464004027A5
:1030F0005F0090295A00E02B5500102E5000203020
:103100004B0010324600E033410090353C00103750
:10311000370070383200A0392D00B03A2800A03BAB
:103120002300603C1E00103D1900903D1400103E2D
:103130000F00703E0A00C03E0500003F0000403F07
:10314000FBFF803FF6FFC03FF1FF446F6E652073C9
:103150006176696E672066696C652E0A004D3239AA
:10316000002020506C616E6E6572427566666572F5
:1031700042797465733A20002046726565204D657A
:103180006D6F72793A2000436F6D70696C65643AB7
:10319000204A756E20203520323031370A00207CDD
:1031A00020417574686F723A20284D6F6562797599
:1031B000734D616368696E65732C20646566617523
:1031C0006C7420636F6E666967290A00323031378C
:1031D0002D30352D31322031323A303000204C61E3
:1031E000737420557064617465643A2000312E3127
:1031F0002E310A004D61726C696E0020536F667447
:10320000776172652052657365740A002057617496
:103210006368646F672052657365740A00204272A8
:103220006F776E206F75742052657365740A002085
:1032300045787465726E616C2052657365740A001E
:10324000506F77657255700A0073746172740A006A
:103250005072696E7465722068616C7465642E20AA
:103260006B696C6C28292063616C6C6564210A00B1
:1032700050617261646120646520656D6572676587
:103280006E636961004B494C4C20636175736564E2
:10329000206279204B494C4C20627574746F6E2FFC
:1032A00070696E0A00506172616461206465206516
:1032B0006D657267656E636961004B494C4C2063B4
:1032C000617573656420627920746F6F206D75631A
:1032D0006820696E6163746976652074696D652024
:1032E0002D2063757272656E7420636F6D6D616EF3
:1032F000643A200020746F6F206C6F6E67206578D1
:1033000074727573696F6E2070726576656E746520
:10331000640A0020636F6C64206578747275736949
:103320006F6E2070726576656E7465640A006F6BEF
:1033300000526573656E643A20004E6F20636173BE
:1033400065206C696768740A004D36303020486F1C
:1033500074656E6420746F6F20636F6C6420746F8B
:10336000206368616E67652066696C616D656E7467
:103370000A00446573666173652061706C696361FE
:10338000646F004572723A20546F6F20666172213B
:1033900000546F6F206661722066726F6D207265D7
:1033A000666572656E636520706F696E740A0043AE
:1033B000290A0061626C656420286D696E2074655D
:1033C0006D702000436F6C6420657874727564655D
:1033D0007320617265200020643A0020693A002061
:1033E000703A00205A00205900580020204D617882
:1033F0003A2000205A00205900580020204D696EC4
:103400003A200041706167617200456E63656E64C9
:10341000657200536F667420656E6473746F7073A9
:103420003A200053657474696E6720547261766542
:103430006C20416363656C65726174696F6E3A20DC
:103440000053657474696E672052657472616374A9
:1034500020416363656C65726174696F6E3A200028
:1034600053657474696E67205072696E742041638D
:1034700063656C65726174696F6E3A2000536574A0
:1034800074696E67205072696E7420616E64205496
:10349000726176656C20416363656C657261746905
:1034A0006F6E3A20004D31343520533C696E6465AF
:1034B000783E206F7574206F662072616E6765209C
:1034C00028302D31290A004649524D574152455F57
:1034D0004E414D453A4D61726C696E20312E312E50
:1034E0003120284769746875622920534F5552432B
:1034F000455F434F44455F55524C3A68747470734E
:103500003A2F2F6769746875622E636F6D2F4D6156
:10351000726C696E4669726D776172652F4D61726A
:103520006C696E2050524F544F434F4C5F5645527A
:1035300053494F4E3A312E30204D414348494E4574
:103540005F545950453A507275736149334D4D2D52
:103550004C2045585452554445525F434F554E54A4
:103560003A3120555549443A6365646532613266A3
:103570002D343161322D343734382D396231322DCA
:103580006335356336326633363766660A00507205
:1035900075736149334D4D2D4C20417061676172E7
:1035A0002E00506C617461666F726D612043616CB6
:1035B00069656E7465003F0A0020573A0043616CEC
:1035C000656E74616E646F20506C61742E2E2E00D7
:1035D00043616C656E74616D69656E746F206C69B2
:1035E00073746F003F0A0020573A00452569202573
:1035F0007300507275736149334D4D2D4C206C69C9
:103600007374612E006F6B004D31313320530050C5
:10361000617261646120646520656D657267656EC5
:10362000636961004543484F00494E464F0045528B
:10363000524F52530044525952554E00434F4D4D34
:10364000554E49434154494F4E006F66660024363B
:1036500029362E3635363C3644454255473A0045E4
:10366000256920257300507275736149334D4D2DC6
:103670004C206C697374612E0050726F74656374B2
:1036800065642050696E0A005072696E7420746916
:103690006D653A20004D31323500456E6420666913
:1036A0006C65206C6973740A00426567696E2066F8
:1036B000696C65206C6973740A0053696E206D6FC4
:1036C00076696D69656E746F005072757361493308
:1036D0004D4D2D4C206C697374612E0052657375CD
:1036E0006D69656E646F20696D7072652E0045733B
:1036F000706572616E646F206F7264656E657300D1
:103700005265706F736F2E2E2E0047322F47332075
:1037100062616420706172616D65746572730A0024
:103720004163746976652045787472756465723A90
:1037300020002042403A0020403A00202F00204242
:103740003A00202F0020543A0020453A00205A3AEF
:103750000020593A00583A005761726E696E673A14
:1037600020486F6D696E672042756D7020446976E0
:1037700069736F72203C20310A00627573793A20B8
:1037800070617573656420666F7220696E70757400
:103790000A00627573793A207061757365642066FA
:1037A0006F7220757365720A00627573793A2070C2
:1037B000726F63657373696E670A00556E6B6E6F27
:1037C000776E20636F6D6D616E643A202200204930
:1037D0006E76616C696420657874727564657220B8
:1037E0000053442072656164206572726F720A0032
:1037F000446F6E65207072696E74696E67206669C9
:103800006C650A0050617261646120646520656DB9
:10381000657267656E63696100446574656E6964AD
:1038200061005072696E7465722073746F70706598
:10383000642064756520746F206572726F72732ED8
:103840002046697820746865206572726F72206105
:103850006E6420757365204D39393920746F20727C
:103860006573746172742E202854656D7065726181
:10387000747572652069732072657365742E2053A8
:103880006574206974206166746572207265737452
:10389000617274696E67290A004E6F204C696E650B
:1038A000204E756D62657220776974682063686563
:1038B000636B73756D2C204C617374204C696E655D
:1038C0003A20004E6F20436865636B73756D2077F7
:1038D000697468206C696E65206E756D6265722C06
:1038E000204C617374204C696E653A2000636865F2
:1038F000636B73756D206D69736D617463682C20E3
:103900004C617374204C696E653A20004C696E6599
:10391000204E756D626572206973206E6F74204C45
:10392000617374204C696E65204E756D6265722BF3
:10393000312C204C617374204C696E653A20004D27
:1039400031313000656E7175657565696E6720226D
:1039500000FFFFFF0000404000004040000000402A
:1039600000004D430080984300004D4300000000DC
:10397000000000000000000000004D43008098435C
:1039800000004D43000000000000000000000000A7
:103990004D33310043616E6E6F7420656E746572D5
:1039A000207375626469723A20006175746F2569CD
:1039B0002E67006572726F722077726974696E6724
:1039C00020746F2066696C650A004E6F7420534442
:1039D000207072696E74696E670A005344207072B9
:1039E000696E74696E672062797465200044656C45
:1039F0006574696F6E206661696C65642C20466928
:103A00006C653A200046696C652064656C65746578
:103A1000643A006F70656E206661696C65642C2085
:103A200046696C653A200057726974696E67207444
:103A30006F2066696C653A20006F70656E20666164
:103A4000696C65642C2046696C653A20006F70656E
:103A50006E206661696C65642C2046696C653A204D
:103A60000046696C652073656C65637465640A0063
:103A70002053697A653A200046696C65206F70654D
:103A80006E65643A20006F70656E206661696C65D2
:103A9000642C2046696C653A20002066696C653AA2
:103AA00020004E6F7720002220706F73002220705C
:103AB0006172656E743A2200535542524F55544913
:103AC0004E452043414C4C207461726765743A2224
:103AD0000050617261646120646520656D65726784
:103AE000656E63696100747279696E6720746F2016
:103AF00063616C6C207375622D67636F646520660B
:103B0000696C6573207769746820746F6F206D61CC
:103B10006E79206C6576656C732E204D4158206C53
:103B20006576656C2069733A004D3234004D32334E
:103B30002025730053442063617264206F6B0A0078
:103B40006F70656E526F6F74206661696C65640A90
:103B500000766F6C756D652E696E6974206661699B
:103B60006C65640A00534420696E6974206661695B
:103B70006C0A0043616E6E6F74206F70656E207307
:103B80007562646972200000002110422063308455
:103B900040A550C660E770088129914AA16BB18C9D
:103BA000C1ADD1CEE1EFF13112100273325222B524
:103BB000529442F772D662399318837BB35AA3BDED
:103BC000D39CC3FFF3DEE36224433420040114E6F4
:103BD00064C774A44485546AA54BB528850995EE3D
:103BE000E5CFF5ACC58DD55336722611163006D704
:103BF00076F6669556B4465BB77AA719973887DF8D
:103C0000F7FEE79DD7BCC7C448E5588668A778404B
:103C100008611802282338CCC9EDD98EE9AFF948DC
:103C20008969990AA92BB9F55AD44AB77A966A7163
:103C30001A500A333A122AFDDBDCCBBFFB9EEB792C
:103C40009B588B3BBB1AABA66C877CE44CC55C22B3
:103C50002C033C600C411CAEED8FFDECCDCDDD2A7C
:103C6000AD0BBD688D499D977EB66ED55EF44E1343
:103C70003E322E511E700E9FFFBEEFDDDFFCCF1BCC
:103C8000BF3AAF599F788F8891A981CAB1EBA10C37
:103C9000D12DC14EF16FE18010A100C230E32004AC
:103CA00050254046706760B9839893FBA3DAB33D13
:103CB000C31CD37FE35EF3B1029012F322D23235FC
:103CC00042145277625672EAB5CBA5A89589856EE3
:103CD000F54FE52CD50DC5E234C324A0148104664C
:103CE00074476424540544DBA7FAB79987B8975FF3
:103CF000E77EF71DC73CD7D326F2369106B016579C
:103D0000667676154634564CD96DC90EF92FE9C83A
:103D100099E9898AB9ABA94458654806782768C0EB
:103D200018E1088238A3287DCB5CDB3FEB1EFBF952
:103D30008BD89BBBAB9ABB754A545A376A167AF13B
:103D40000AD01AB32A923A2EFD0FED6CDD4DCDAAA2
:103D5000BD8BADE89DC98D267C076C645C454CA28B
:103D60003C832CE01CC10C1FEF3EFF5DCF7CDF9B32
:103D7000AFBABFD98FF89F176E367E554E745E93DB
:103D80002EB23ED10EF01E00091200FC0A01E8031B
:103D9000D720FFFD0EFD0BFD00000009000E010BFA
:103DA0000B09040080808080808080000080800477
:103DB000040409030790909090080A0A090000245F
:103DC0002424FF2424FF242424070B0B0901FF10C3
:103DD0007C929050381412927C10070A0A09010054
:103DE00042A4A4481010244A4A84070A0A09010080
:103DF00060909090606294889462010404090407C2
:103E000080808080030C0C0903FF2040408080806C
:103E1000808080404020030C0C0903FF804040203C
:103E2000202020202040408007070709010310922E
:103E30005438549210070707090101101010FE10A2
:103E400010100204040904FEC0C0408007010109EB
:103E50000104FE020202090400C0C0070A0A0901A7
:103E60000002040408101020404080070A0A0901DB
:103E70000038448282828282824438070A0A090119
:103E800000103050901010101010FE070A0A09019F
:103E900000384482020408102040FE070A0A090183
:103EA00000FE020408180402028478070A0A0901C5
:103EB00000040C14244484FE040404070A0A0901C3
:103EC00000FE808080F80402028478070A0A090153
:103ED000003C408080B8C482824438070A0A090145
:103EE00000FE020404080810101010070A0A090155
:103EF0000038448244384482824438070A0A09015F
:103F00000038448282463A02020478020707090414
:103F100000C0C0000000C0C00209090904FEC0C002
:103F2000000000C0C04080050909090200081020F7
:103F3000408040201008070404090102FE0000FE32
:103F40000509090902008040201008102040800760
:103F50000A0A090100384482020408101000100700
:103F60000A0A09010038449AAAAAAAAA9C403C0756
:103F70000A0A09010010282828447C44828282070A
:103F80000A0A090100F8848284F884828284F8078E
:103F90000A0A0901003C42808080808080423C0700
:103FA0000A0A090100F88482828282828284F807E8
:103FB0000A0A090100FE808080F880808080FE0768
:103FC0000A0A090100FE808080F8808080808007D6
:103FD0000A0A09010038448280808E8282443807B0
:103FE0000A0A09010082828282FE8282828282051E
:103FF0000A0A090200F82020202020202020F807AB
:104000000A0A0901003E080808080808888870079D
:104010000A0A09010082848890A0D08884828207DD
:104020000A0A090100808080808080808080FE07ED
:104030000A0A0901008282C6AA92828282828207CB
:104040000A0A0901008282C2A2928A8682828207BB
:104050000A0A0901007C82828282828282827C0733
:104060000A0A090100F884828284F880808080082E
:104070000B0B0901FF384482828282828A443A0112
:10408000070A0A090100F884828284F890888482F1
:10409000070A0A0901007C8280807C020202827C7D
:1040A000070A0A090100FE1010101010101010105D
:1040B000070A0A090100828282828282828244384F
:1040C000070A0A09010082828244444428282810F1
:1040D000070A0A0901008282828292929292AA447D
:1040E000070A0A09010082824428101028448282AB
:1040F000070A0A09010082824428101010101010CB
:10410000070A0A090100FE0204081020408080FE10
:10411000040C0C0903FFF080808080808080808008
:1041200080F0070A0A0901008040402010100804AE
:104130000402040C0C0902FFF010101010101010F3
:10414000101010F007040409010610284482080129
:10415000010900FFFF03030309030A80402007074A
:10416000070901007C02027E82867A070A0A090199
:1041700000808080BCC2828282C2BC07070709011E
:10418000007C82808080827C070A0A09010002028A
:10419000027A86828282867A0707070901007C827A
:1041A00082FE80827C070A0A0901001C222220204C
:1041B000F820202020070A0A0901FD7A84848478E7
:1041C000807C82827C070A0A090100808080BCC250
:1041D0008282828282050A0A090200600000E020D1
:1041E00020202020F8050D0D0902FD1800003808D8
:1041F0000808080808888870070A0A0901008080F2
:1042000080848890B0C88482050A0A090200E020F0
:1042100020202020202020F8070707090100EC9229
:104220009292929282070707090100BCC2828282A1
:1042300082820707070901007C82828282827C07D2
:104240000A0A0901FDB8C4828282C4B8808080074E
:104250000A0A0901FD3A46828282463A02020207B0
:1042600007070901009C62424040404007070709D8
:1042700001007C82807C02827C0709090901002000
:1042800020FC20202020221C070707090100828231
:10429000828282867A0707070901008282444428C5
:1042A00028100707070901008282929292AA440708
:1042B000070709010082442810284482070A0A09D6
:1042C00001FD4242242424181810906007070709B2
:1042D0000100FE0408102040FE060B0B0902001C22
:1042E00020202020C0202020201C010C0C0904FFCD
:1042F000808080808080808080808080060B0B0999
:104300000100E0101010100C10101010E007030353
:1043100009010762928CFFFFFFFFFFFFFFFFFFFF16
:10432000FFFFFFFFFFFFFFFFFFFFFFFFFFFFFFFF9D
:10433000FFFFFFFFFFFFFF00000009000E010B0B56
:1043400009040080800000808080808080800608D2
:104350000809010008789490A0A47840070A0A0987
:1043600001001C222020F8202060A25C070606091C
:104370000103827C44447C82070A0A09010082828C
:1043800044287C107C101010010B0B0904FF808066
:10439000808080008080808080040B0B0902FF6099
:1043A0009080609090906010906003020209030B6F
:1043B000A0A00809090900013C4299A5A1A59942BC
:1043C0003C050707090103609070907800F8070822
:1043D0000809010112244890904824120604040997
:1043E0000102FC040404050101090204F80809099A
:1043F0000900013C42B9A5BDA9A5423C060101093D
:104400000109FC040404090306609090600709098F
:10441000090101101010FE10101000FE040606091C
:1044200001046090106080F00406060901046090A9
:104430002010906003030309030A20408007090944
:104440000901FE8282828282C6BA8080070A0A0936
:1044500001007E8A8A8A7A0A0A0A0A0A0202020984
:104460000404C0C00403030902FD20906003060693
:1044700009010440C0404040E005060609010470FF
:1044800088887000F8070808090101904824121272
:10449000244890070A0A09010040C0404042E60A49
:1044A000121A06070A0A09010040C040404CF202F5
:1044B0000C101E070A0A0901006090201092660A7B
:1044C000121A06070A0A0901001000101020408085
:1044D00082827C070E0E0901002010080010282897
:1044E00028447C44828282070E0E090100081020B5
:1044F0000010282828447C44828282070E0E09017D
:10450000001028440010282828447C448282820716
:104510000D0D09010034580010282828447C4482DD
:104520008282070D0D090100282800102828284440
:104530007C44828282070E0E090100102828101088
:10454000282828447C44828282070A0A0901001E26
:104550002828284E784888888E070D0D0901FD3CD3
:1045600042808080808080423C082418070E0E091B
:10457000010020100800FE808080F880808080FE8E
:10458000070E0E09010008102000FE808080F880D0
:10459000808080FE070E0E09010010284400FE8076
:1045A0008080F880808080FE070D0D09010028289A
:1045B00000FE808080F880808080FE050E0E09025B
:1045C0000040201000F82020202020202020F80586
:1045D0000E0E09020010204000F82020202020208C
:1045E0002020F8050E0E09020020508800F8202037
:1045F000202020202020F8050D0D09020050500039
:10460000F82020202020202020F8070A0A09010095
:1046100078444242F24242424478070D0D090100BB
:104620003458008282C2A2928A86828282070E0E4B
:10463000090100201008007C8282828282828282AC
:104640007C070E0E090100081020007C8282828205
:10465000828282827C070E0E090100102844007CB1
:1046600082828282828282827C070D0D090100345F
:1046700058007C82828282828282827C070D0D09B0
:1046800001002828007C82828282828282827C07CA
:10469000070709010182442810284482070C0C09ED
:1046A00001FF027C868A8A9292A2A2C27C80070EB7
:1046B0000E0901002010080082828282828282829A
:1046C0004438070E0E090100081020008282828201
:1046D000828282824438070E0E09010010284400AD
:1046E00082828282828282824438070D0D09010013
:1046F00028280082828282828282824438070E0EBB
:1047000009010008102000828244281010101010A7
:1047100010070A0A0901008080FC828282FC8080E6
:1047200080060A0A09010038444448D048444444F9
:1047300058070B0B090100201008007C02027E8242
:10474000867A070B0B090100081020007C02027E0C
:1047500082867A070B0B090100102844007C0202B4
:104760007E82867A070A0A0901003458007C020218
:104770007E82867A070A0A0901002828007C020244
:104780007E82867A070C0C09010010282810007C14
:1047900002027E82867A0707070901006C12127EE8
:1047A00090926C070A0A0901FD7C82808080827CDD
:1047B000104830070B0B090100201008007C828292
:1047C000FE80827C070B0B090100081020007C8210
:1047D00082FE80827C070B0B090100102844007CBC
:1047E0008282FE80827C070A0A0901002828007C58
:1047F0008282FE80827C050C0C0902008040200031
:1048000000E02020202020F8050C0C0902001020D8
:10481000400000E02020202020F8050C0C090200B8
:104820002050880000E02020202020F8050B0B09F4
:10483000020050500000E02020202020F8070B0B41
:10484000090100483050083C448282824438070AFB
:104850000A090100345800BCC28282828282070B9E
:104860000B090100201008007C82828282827C0772
:104870000B0B090100081020007C82828282827C5E
:10488000070B0B090100102844007C82828282827F
:104890007C070A0A0901003458007C8282828282E5
:1048A0007C070A0A0901002828007C828282828211
:1048B0007C07090909010010381000FE00103810AB
:1048C0000709090901FF027C8A8A92A2A27C80075B
:1048D0000B0B090100402010008282828282867ABE
:1048E000070B0B0901000810200082828282828659
:1048F0007A070B0B09010010284400828282828211
:10490000867A070A0A0901002828008282828282A8
:10491000867A070E0E0901FD040810004242242485
:10492000241818109060070B0B0901FE8080B8C492
:10493000828282C4B88080070D0D0901FD24240005
:10494000424224242418181090600200000A0B022E
:10495000090C0D0E08070304010000000000000010
:104960000000000000000000000000000000000047
:104970000000000000000012111000000000000004
:104980000000000000000000000000000000000027
:104990000001021020200808102040102040800252
:1049A0000102010804020101020408102040808075
:1049B00040201008040201800402018040201008F9
:1049C00004020108040201010204081020408001D1
:1049D00002040810204080050505050705080808A1
:1049E00008020202020A0A08080404040401010180
:1049F0000101010101030303030303030304070788
:104A0000070C0C0C0C0C0C0C0C0202020206060625
:104A100006060606060B0B0B0B0B0B0B0B00002000
:104A2000002300260029002C002F00320000010086
:104A30000003010601090100002200250028002BC7
:104A4000002E003100340002010000050108010BB6
:104A50000100002100240027002A002D003000332F
:104A60000001010000040107010A014E414E494EB8
:104A7000495459494E46CDCCCC3D0AD7233C17B7B3
:104A8000D13877CC2B329595E6241FB14F0A000020
:104A900020410000C84200401C4620BCBE4CCA1B3E
:104AA0000E5AAEC59D74815BE3A2CDDCE7DC112418
:104AB0001FBECFEFD1E2DEBFCDBF00E00CBF14E0E0
:104AC000A0E0B2E0E0EFF0E202E00BBF02C007902E
:104AD0000D92AE33B107D9F724E1AEE3B4E001C0E3
:104AE0001D92A33EB207E1F715E2C6E5D5E200E06C
:104AF00006C021970109802FFE010F944B08C33592
:104B0000D10780E00807A9F70E94A3FA0D94661068
:104B10000C9400009091C1058091C005981731F068
:104B20008091C0058F5F8F708093C0050895EFE678
:104B3000F0E0808182608083089580917E0480FF10
:104B400005C089988FEF8093010204C0899A81E0A3
:104B50008093010280917E0481FF05C08F9A8FEFC0
:104B60008093020204C08F9881E0809302028091BA
:104B70007E049FB782FF0BC0F89480910B018D7F5C
:104B800080930B019FBF8FEF809303020AC0F894BC
:104B900080910B01826080930B019FBF81E0809325
:104BA000030280917E0483FF05C016988FEF8093E7
:104BB00004020895169A81E0809304020895BF923A
:104BC000CF92DF92EF92FF920F931F93CF93DF93D9
:104BD00000D01F92CDB7DEB780916E008B7F80939F
:104BE0006E0080916F008D7F80936F00789480912C
:104BF0007C0490917D04009771F0019790937D045F
:104C000080937C041092800410927F040E948A2575
:104C100088EC90E0C9C1E0917F04F0918004309766
:104C200009F0CDC19091C1058091C005981751F14F
:104C3000E091C0050DE4E09FF0011124EE53FA4F1E
:104C4000C0901A05D0901B05E0901C05F0901D0542
:104C50009F01275B3F4FD9014D915D916D917C91F3
:104C6000D701C601841B950BA60BB70B80931A05C1
:104C700090931B05A0931C05B0931D05808188604F
:104C800080830BC08FB7F89410921A0510921B0501
:104C900010921C0510921D058FBFF0938004E093C5
:104CA0007F04309709F47EC152A180917E04418136
:104CB00058130AC0242F30E080910002082E000C07
:104CC000990B2817390731F050937E044093000266
:104CD0000E949D251092600410926104109262045B
:104CE00010926304E0917F04F091800487A990AD55
:104CF0008134BCE99B0728F48132EEE49E0758F02A
:104D000002C080E49CE9969587959695879524E066
:104D100020934D0412C08131F7E29F0730F0969541
:104D2000879522E020934D0408C021E020934D0494
:104D30008032910510F480E290E07C0100E2E01AFC
:104D4000F108E11418E0F106F0F0EF2DFF27EE0F67
:104D5000FF1FEE0FFF1FCF018455984FFC013296C5
:104D6000459154916E2DAA27659F9001649F210D56
:104D70003A1F06942A1F3A1F1124FC018591949131
:104D8000821B930B1EC09701369527952C7F2455C7
:104D90003C4FF90185919491F90132966591749196
:104DA000A70147705527649F9001659F300D749F40
:104DB000300D112453E0369527955A95E1F7821B63
:104DC000930B8436910588F40EEE12E0D8018D9194
:104DD0008D01882319F00E944231F8CF6AE070E01B
:104DE000C7010E94F53184E690E090934B048093D4
:104DF0004A0480914D0480934C04E0917F04F0912B
:104E0000800483AD94AD90934F0480934E0481341D
:104E1000BCE99B0728F48132EEE49E0758F002C0FB
:104E200080E49CE9969587959695879524E0209354
:104E30004D0412C08131F7E29F0730F096958795B7
:104E400022E020934D0408C021E020934D048032DD
:104E5000910510F480E290E07C0100E2E01AF10894
:104E6000E11418E0F106F0F0EF2DFF27EE0FFF1F21
:104E7000EE0FFF1FCF018455984FFC0132964591EC
:104E800054916E2DAA27659F9001649F210D3A1FB2
:104E900006942A1F3A1F1124FC0185919491821BCC
:104EA000930B1EC09701369527952C7F24553C4FB8
:104EB000F90185919491F901329665917491A70158
:104EC00047705527649F9001659F300D749F300D8A
:104ED0001124B3E036952795BA95E1F7821B930B21
:104EE0008436910588F40EEE12E0D8018D918D0183
:104EF000882319F00E944231F8CF6AE070E0C701C0
:104F00000E94F53184E690E0AC0160E070E04093EF
:104F100064045093650460936604709367049093EF
:104F2000890080938800E0917F04F0918004828959
:104F30009389A489B589B695A79597958795B095D6
:104F4000A095909581959F4FAF4FBF4F80936C0474
:104F500090936D04A0936E04B0936F0480937004DB
:104F600090937104A0937204B093730480937404BB
:104F700090937504A0937604B0937704809378049B
:104F800090937904A0937A04B0937B041092680400
:104F90001092690410926A0410926B0482E080936C
:104FA00096120DC080ED97E0909389008093880061
:104FB000F8948091C00C882309F4E0C3D9C3809190
:104FC0009612882321F0809105028111EFC3209170
:104FD0004D04222309F4AFC1E0917F04F0918004D5
:104FE000409178045091790460917A0470917B0427
:104FF00082819381A481B581840F951FA61FB71F5D
:105000008093780490937904A0937A04B0937B04FE
:10501000181619061A061B060CF4889AE0917F04EC
:10502000F09180044091740450917504609176046D
:105030007091770486819781A085B185840F951F33
:10504000A61FB71F8093740490937504A0937604F1
:10505000B0937704181619061A061B060CF48E9ADC
:10506000E0917F04F09180044091700450917104AC
:10507000609172047091730482859385A485B585CF
:10508000840F951FA61FB71F80937004909371041F
:10509000A0937204B0937304181619061A061B061F
:1050A00044F49FB7F89480910B01886080930B01C2
:1050B0009FBFE0917F04F091800440916C04509177
:1050C0006D0460916E0470916F0486859785A08948
:1050D000B189840F951FA61FB71F80936C0490930E
:1050E0006D04A0936E04B0936F04181619061A0687
:1050F0001B060CF4149A8091780490917904A09185
:105100007A04B0917B04181619061A061B0684F55A
:10511000E0917F04F0918004428953896489758904
:10512000841B950BA60BB70B80937804909379049E
:10513000A0937A04B0937B048091010240915004C3
:10514000509151046091520470915304082E000C48
:10515000990BAA0BBB0B840F951FA61FB71F80933B
:10516000500490935104A0935204B0935304889830
:105170008091740490917504A0917604B0917704A5
:10518000181619061A061B0684F5E0917F04F091A3
:1051900080044289538964897589841B950BA60B09
:1051A000B70B8093740490937504A0937604B09326
:1051B000770480910202409154045091550460910B
:1051C000560470915704082E000C990BAA0BBB0BC8
:1051D000840F951FA61FB71F809354049093550406
:1051E000A0935604B09357048E98809170049091C8
:1051F0007104A0917204B0917304181619061A066E
:105200001B06BCF5E0917F04F0918004428953892C
:1052100064897589841B950BA60BB70B809370046A
:1052200090937104A0937204B0937304809103026D
:10523000409158045091590460915A0470915B0454
:10524000082E000C990BAA0BBB0B840F951FA61FF1
:10525000B71F8093580490935904A0935A04B093B5
:105260005B049FB7F89480910B01877F80930B01BB
:105270009FBF80916C0490916D04A0916E04B091D9
:105280006F04181619061A061B0684F5E0917F04B0
:10529000F09180044289538964897589841B950B38
:1052A000A60BB70B80936C0490936D04A0936E04CF
:1052B000B0936F048091040240915C0450915D04AE
:1052C00060915E0470915F04082E000C990BAA0B8C
:1052D000BB0B840F951FA61FB71F80935C04909390
:1052E0005D04A0935E04B0935F04149880916804F9
:1052F00090916904A0916A04B0916B040196A11D7C
:10530000B11D8093680490936904A0936A04B093DC
:105310006B042150E0917F04F0918004428953890D
:105320006489758984179507A607B70708F451CED5
:10533000BB24B39401C0B12C40916804509169041E
:1053400060916A0470916B04E0907F04F090800497
:10535000F70186899789A08DB18D84179507A607D7
:10536000B70708F4E2C0409164045091650460916D
:10537000660470916704068D178D20A131A1AA27BC
:10538000419FB12D529FC001629F900D619F800D82
:10539000911D429FB00D811D9A1F519FB00D811D1F
:1053A0009A1F609FB00D811D9A1F509FB10D8A1FDB
:1053B0009A1FB6958A1F9A1F349F800D911D359FA5
:1053C000900D112423AD34AD820F931F90934F04A1
:1053D00080934E0447A950AD61AD72ADA0E0B0E03E
:1053E000481759076A077B0720F450934F044093EE
:1053F0004E0480914E0490914F048134BCE99B0788
:1054000028F48132EEE49E0758F002C080E49CE963
:10541000969587959695879524E020934D0412C024
:105420008131F7E29F0730F09695879522E020932F
:105430004D0408C021E020934D048032910510F402
:1054400080E290E08C0100521109011528E012075A
:10545000E8F0E12FFF27EE0FFF1FEE0FFF1FCF0138
:105460008455984FFC01329645915491AA27059F87
:105470009001049F210D3A1F06942A1F3A1F112400
:10548000FC0185919491821B930B1EC09801369567
:1054900027952C7F24553C4FF90185919491F90172
:1054A000329665917491A80147705527649F9001C9
:1054B000659F300D749F300D112443E0369527957C
:1054C0004A95E1F7821B930B8436910598F48EEE92
:1054D000E82E82E0F82ED7018D917D01882319F006
:1054E0000E944231F8CF6AE070E0C8010E94F531B5
:1054F00084E690E090938900809388004091640452
:105500005091650460916604709167048A019B0163
:10551000080F191F211D311D0093640410936504A9
:10552000209366043093670401C140916804509150
:10553000690460916A0470916B04F701828D938D08
:10554000A48DB58D84179507A607B70708F0E2C0AC
:105550004091600450916104609162047091630411
:10556000068D178D20A131A1AA27419FB12D529FF1
:105570006001629FD00C619FC00CD11C429FB00D96
:10558000C11CDA1E519FB00DC11CDA1E609FB00D08
:10559000C11CDA1E509FB10DCA1EDA1EB695CA1E76
:1055A000DA1E349FC00CD11C359FD00C1124809181
:1055B0004E0490914F04FF96C816D90680F48C19BA
:1055C0009D0940815181628173816C01E12CF12C34
:1055D000C416D506E606F70620F4CA0102C080818B
:1055E00091818134BCE99B0728F48132EEE49E0767
:1055F00058F002C080E49CE996958795969587952A
:1056000024E020934D0412C08131F7E29F0730F06F
:105610009695879522E020934D0408C021E02093C1
:105620004D048032910510F480E290E08C0100522C
:105630001109011528E01207E8F0E12FFF27EE0F0E
:10564000FF1FEE0FFF1FCF018455984FFC013296CC
:1056500045915491AA27059F9001049F210D3A1F5F
:1056600006942A1F3A1F1124FC0185919491821BF4
:10567000930B1FC0C801969587958C7F84559C4FCE
:10568000FC0145915491FC01329665917491C801D9
:1056900087709927689F9001699F300D789F300D22
:1056A000112463E0369527956A95E1F7CA01821BBC
:1056B000930B8436910598F48EEEE82E82E0F82E56
:1056C000D7018D917D01882319F00E944231F8CFD6
:1056D0006AE070E0C8010E94F53184E690E09093A2
:1056E000890080938800409160045091610460912A
:1056F0006204709163048A019B01080F191F211D28
:10570000311D009360041093610420936204309370
:1057100063040CC080914A0490914B0490938900DB
:105720008093880080914C0480934D0420918800E0
:1057300030918900809184009091850040962817CF
:10574000390748F4809184009091850040969093A9
:10575000890080938800BB2031F010928004109261
:105760007F040E948A25F8948091C00C882331F030
:1057700080916E008B7F80936E0005C080916E00DB
:10578000846080936E0080916F00826080936F00D0
:105790000F900F900F900F90DF91CF911F910F916D
:1057A000FF90EF90DF90CF90BF9008950E9413304C
:1057B0008091961281508093961209CC1F920F927D
:1057C0000FB60F9211240BB60F922F933F934F9366
:1057D0005F936F937F938F939F93AF93BF93EF9359
:1057E000FF930E94DF25FF91EF91BF91AF919F91B1
:1057F0008F917F916F915F914F913F912F910F907A
:105800000BBE0F900FBE0F901F9018950F931F9314
:10581000CF93DF93819A879A0AE011E0D8018C91A7
:1058200082608C930E9A3B9A579A5F9A829A8A9AD0
:10583000E7E0F1E08081816080839FB7F894C8E061
:10584000D1E08881816088839FBF0A9A129A3F9A2B
:10585000479A85E894E00E94F02E809A88985F9A93
:10586000E2EEFFE01082869A8E988A9A1182D80121
:105870008C9188608C939FB7F894ABE0B1E08C91E9
:10588000877F8C939FBF9FB7F894888181608883BE
:105890009FBF12820C9A1498129A399A4198A0E8E4
:1058A000B0E08C918C7F8C93E1E8F0E08081877E82
:1058B000886080838C918F738C938081887F8260D5
:1058C000808380E090E49093890080938800109218
:1058D000850010928400EFE6F0E080818260808392
:1058E00081E0809305027894DF91CF911F910F9111
:1058F0000C949D259091C1058091C005981721F0C9
:1059000080E00E9404CAF6CF0895CF92DF92EF9212
:10591000FF920F931F93CF93DF936C017B018A015A
:10592000E9010E947A2C9FB7F894D6014D915D91C0
:105930006D917C91E0E5F4E0408351836283738351
:10594000D7014D915D916D917C9144835583668320
:105950007783D8014D915D916D917C9140875187FE
:1059600062877387488159816A817B814487558723
:10597000668777879FBFDF91CF911F910F91FF902F
:10598000EF90DF90CF900895FC019FB7F8940190BD
:10599000F081E02DDB014D915D916D917C91EE0FD9
:1059A000FF1FEE0FFF1FE05BFB4F408351836283BD
:1059B00073839FBF08952FB7F894FC01EE0FFF1F6C
:1059C000EE0FFF1FE05BFB4F60817181828193814D
:1059D0002FBF0895CF93DF93EC010E94DB2C0F942F
:1059E0004A05CC0FDD1FCC0FDD1FC057DA4F2881D1
:1059F00039814A815B810F94F806DF91CF91089538
:105A00000E947A2C0C94C4C688E893E190937D049C
:105A100080937C0480916F008D7F80936F009091C4
:105A2000C1058091C005981719F00E948A25F7CF0B
:105A30001092800410927F0480916F0082608093A6
:105A40006F008FB7F89410921A0510921B051092F0
:105A50001C0510921D058FBF0895880F991F880F90
:105A6000991FFC01E05BFB4F408151816281738192
:105A7000FC01E25CFB4F4083518362837383E091BE
:105A80007F04F091800482899389A489B5898093E9
:105A9000680490936904A0936A04B0936B0408951A
:105AA0004F925F926F927F928F929F92AF92BF922E
:105AB000CF92DF92EF92FF92CF93DF938FB7F8945C
:105AC00040905004509051046090520470905304E0
:105AD0008090540490905504A0905604B0905704C0
